:020000040800F2
:1000000000000520F91E0008151E0008171E000834
:10001000191E00081B1E00081D1E0008000000001D
:10002000000000000000000000000000D192000865
:100030001F1E00080000000071930008D5930008FF
:10004000491F0008491F0008491F0008491F0008F0
:10005000491F0008491F0008491F0008491F0008E0
:10006000491F0008491F0008491F0008491F0008D0
:10007000491F0008491F0008491F0008491F0008C0
:10008000491F0008491F0008491F0008491F0008B0
:10009000491F0008491F0008491F0008491F0008A0
:1000A000491F0008491F0008491F0008491F000890
:1000B000491F0008491F0008491F0008491F000880
:1000C000491F0008491F0008491F0008491F000870
:1000D000491F0008491F0008491F0008491F000860
:1000E000491F0008491F0008491F0008491F000850
:1000F000491F0008491F0008491F0008491F000840
:10010000491F0008491F0008491F0008491F00082F
:10011000491F0008491F0008211E0008491F000848
:10012000491F0008491F0008491F0008491F00080F
:10013000491F0008491F0008491F0008491F0008FF
:10014000491F0008491F0008491F0008491F0008EF
:10015000491F0008491F0008491F0008491F0008DF
:10016000491F0008491F0008491F0008491F0008CF
:10017000491F0008491F0008491F0008000000002F
:10018000491F0008491F0008491F0008491F0008AF
:10019000491F0008491F0008491F0008491F00089F
:1001A0002D1E0008491F0008391E0008491F0008BD
:1001B000491F0008491F0008491F0008491F00087F
:0801C000491F0008491F000857
:1001D00010B5054C237833B9044B13B10448AFF381
:1001E00000800123237010BD900200200000000059
:1001F000AC61030808B5034B1BB103490348AFF3D7
:10020000008008BD0000000094020020AC610308DB
:1002100001F0FF01102A2BDB10F0070F08D010F8B7
:10022000013B013A8B422DD010F0070F42B3F6D1BB
:10023000F0B441EA012141EA014122F007047FF0D4
:1002400000070023F0E80256083C85EA010586EA2B
:10025000010685FA47F5A3FA87F586FA47F6A5FA67
:1002600087F68EB9EED1F0BC01F0FF0102F0070273
:1002700032B110F8013B013A83EA010313B1F8D11E
:100280000020704701387047002D06BF35460338FF
:10029000073815F0010F07D1013015F4807F02BF38
:1002A000013015F4C03F0130F0BC0138704700BF89
:1002B000034613F8012B002AFBD1181A01387047A6
:1002C00081F0004102E000BF83F0004330B54FEA07
:1002D00041044FEA430594EA050F08BF90EA020F74
:1002E0001FBF54EA000C55EA020C7FEA645C7FEA07
:1002F000655C00F0E2804FEA5454D4EB5555B8BF2A
:100300006D420CDD2C4480EA020281EA030382EA9A
:10031000000083EA010180EA020281EA0303362D2C
:1003200088BF30BD11F0004F4FEA01314FF4801CFF
:100330004CEA113102D0404261EB410113F0004F11
:100340004FEA03334CEA133302D0524263EB4303C8
:1003500094EA050F00F0A780A4F10104D5F1200E66
:100360000DDB02FA0EFC22FA05F2801841F10001C1
:1003700003FA0EF2801843FA05F359410EE0A5F195
:1003800020050EF1200E012A03FA0EFC28BF4CF0C6
:10039000020C43FA05F3C01851EBE37101F000457C
:1003A00007D54FF0000EDCF1000C7EEB00006EEB89
:1003B0000101B1F5801F1BD3B1F5001F0CD3490813
:1003C0005FEA30004FEA3C0C04F101044FEA44526A
:1003D00012F5800F80F09A80BCF1004F08BF5FEAF1
:1003E000500C50F1000041EB045141EA050130BDD1
:1003F0005FEA4C0C404141EB0101013C28BFB1F5E3
:10040000801FE9D291F0000F04BF01460020B1FA2D
:1004100081F308BF2033A3F10B03B3F120020CDA00
:100420000C3208DD02F1140CC2F10C0201FA0CF0DE
:1004300021FA02F10CE002F11402D8BFC2F1200C43
:1004400001FA02F120FA0CFCDCBF41EA0C019040F9
:10045000E41AA2BF01EB0451294330BD6FEA040442
:100460001F3C1CDA0C340EDC04F11404C4F120022D
:1004700020FA04F001FA02F340EA030021FA04F33F
:1004800045EA030130BDC4F10C04C4F1200220FA96
:1004900002F001FA04F340EA0300294630BD21FAD4
:1004A00004F0294630BD94F0000F83F4801306BF9A
:1004B00081F480110134013D4EE77FEA645C18BF8E
:1004C0007FEA655C29D094EA050F08BF90EA020F25
:1004D00005D054EA000C04BF1946104630BD91EA1D
:1004E000030F1EBF0021002030BD5FEA545C05D120
:1004F0004000494128BF41F0004130BD14F580045F
:100500003CBF01F5801130BD01F0004545F0FE41D2
:1005100041F470014FF0000030BD7FEA645C1ABF07
:10052000194610467FEA655C1CBF0B46024650EA3E
:10053000013406BF52EA033591EA030F41F400216A
:1005400030BD00BF90F0000F04BF0021704730B5F0
:100550004FF4806404F132044FF000054FF00001C5
:1005600050E700BF90F0000F04BF0021704730B586
:100570004FF4806404F1320410F0004548BF40425B
:100580004FF000013EE700BF42004FEAE2014FEAB0
:1005900031014FEA02701FBF12F07F4393F07F4F8B
:1005A00081F06051704732F07F4208BF704793F08E
:1005B0007F4F04BF41F40021704730B54FF46074A1
:1005C00001F0004521F000411CE700BF50EA0102A4
:1005D00008BF704730B54FF000050AE050EA01024D
:1005E00008BF704730B511F0004502D5404261EBBD
:1005F00041014FF4806404F132045FEA915C3FF4FE
:10060000D8AE4FF003025FEADC0C18BF03325FEA9A
:10061000DC0C18BF033202EBDC02C2F1200300FA4B
:1006200003FC20FA02F001FA03FE40EA0E0021FA70
:1006300002F11444BDE600BF70B54FF0FF0C4CF45E
:10064000E06C1CEA11541DBF1CEA135594EA0C0F10
:1006500095EA0C0F00F0DEF82C4481EA030621EA4B
:100660004C5123EA4C5350EA013518BF52EA033586
:1006700041F4801143F4801338D0A0FB02CE4FF038
:100680000005E1FB02E506F00042E0FB03E54FF068
:100690000006E1FB03569CF0000F18BF4EF0010E60
:1006A000A4F1FF04B6F5007F64F5407404D25FEA5C
:1006B0004E0E6D4146EB060642EAC62141EA55510F
:1006C0004FEAC52040EA5E504FEACE2EB4F1FD0C51
:1006D00088BFBCF5E06F1ED8BEF1004F08BF5FEACF
:1006E000500E50F1000041EB045170BD06F0004681
:1006F00046EA010140EA020081EA0301B4EB5C042E
:10070000C2BFD4EB0C0541EA045170BD41F4801125
:100710004FF0000E013C00F3AB8014F1360FDEBF4A
:10072000002001F0004170BDC4F10004203C35DA26
:100730000C341BDC04F11404C4F1200500FA05F3A9
:1007400020FA04F001FA05F240EA020001F000424A
:1007500021F0004110EBD37021FA04F642EB0601C0
:100760005EEA430E08BF20EAD37070BDC4F10C04EA
:10077000C4F1200500FA04F320FA05F001FA04F2AE
:1007800040EA020001F0004110EBD37041F100019A
:100790005EEA430E08BF20EAD37070BDC4F12005A5
:1007A00000FA05F24EEA020E20FA04F301FA05F20D
:1007B00043EA020321FA04F001F0004121FA04F2B5
:1007C00020EA020000EBD3705EEA430E08BF20EA85
:1007D000D37070BD94F0000F0FD101F000464000BF
:1007E00041EB010111F4801F08BF013CF7D041EA41
:1007F000060195F0000F18BF704703F00046520045
:1008000043EB030313F4801F08BF013DF7D043EA15
:100810000603704794EA0C0F0CEA135518BF95EACB
:100820000C0F0CD050EA410618BF52EA4306D1D152
:1008300081EA030101F000414FF0000070BD50EA71
:10084000410606BF1046194652EA430619D094EAFB
:100850000C0F02D150EA013613D195EA0C0F05D1E5
:1008600052EA03361CBF104619460AD181EA030139
:1008700001F0004141F0FE4141F470014FF00000F1
:1008800070BD41F0FE4141F4780170BD70B54FF08C
:10089000FF0C4CF4E06C1CEA11541DBF1CEA13550C
:1008A00094EA0C0F95EA0C0F00F0A7F8A4EB0504EE
:1008B00081EA030E52EA03354FEA013100F08880E5
:1008C0004FEA03334FF0805545EA131343EA1263AE
:1008D0004FEA022245EA111545EA10654FEA002663
:1008E0000EF000419D4208BF964244F1FD0404F51C
:1008F000407402D25B084FEA3202B61A65EB030578
:100900005B084FEA32024FF480104FF4002CB6EB34
:10091000020E75EB030E22BFB61A754640EA0C00B4
:100920005B084FEA3202B6EB020E75EB030E22BFF4
:10093000B61A754640EA5C005B084FEA3202B6EB35
:10094000020E75EB030E22BFB61A754640EA9C00F4
:100950005B084FEA3202B6EB020E75EB030E22BFC4
:10096000B61A754640EADC0055EA060E18D04FEA82
:10097000051545EA16754FEA06164FEAC30343EA22
:1009800052734FEAC2025FEA1C1CC0D111F4801FEF
:100990000BD141EA00014FF000004FF0004CB6E7E8
:1009A00011F4801F04BF01430020B4F1FD0C88BF87
:1009B000BCF5E06F3FF6AFAEB5EB030C04BFB6EB92
:1009C000020C5FEA500C50F1000041EB045170BD85
:1009D0000EF0004E4EEA113114EB5C04C2BFD4EBB2
:1009E0000C0541EA045170BD41F480114FF0000E36
:1009F000013C90E645EA060E8DE60CEA135594EAB2
:100A00000C0F08BF95EA0C0F3FF43BAF94EA0C0FB4
:100A10000AD150EA01347FF434AF95EA0C0F7FF429
:100A200025AF104619462CE795EA0C0F06D152EA7D
:100A300003353FF4FDAE1046194622E750EA410661
:100A400018BF52EA43067FF4C5AE50EA41047FF472
:100A50000DAF52EA43057FF4EBAE12E74FF0FF3CD7
:100A600006E000BF4FF0010C02E000BF4FF0010CA8
:100A70004DF804CD4FEA410C7FEA6C5C4FEA430C21
:100A800018BF7FEA6C5C1BD001B050EA410C0CBF70
:100A900052EA430C91EA030F02BF90EA020F0020D2
:100AA000704710F1000F91EA030F58BF994208BF39
:100AB00090422CBFD8176FEAE37040F001007047F6
:100AC0004FEA410C7FEA6C5C02D150EA013C07D14D
:100AD0004FEA430C7FEA6C5CD6D152EA033CD3D098
:100AE0005DF8040B704700BF8446104662468C4692
:100AF0001946634600E000BF01B5FFF7B7FF0028C5
:100B000048BF10F1000F01BD4DF808EDFFF7F4FFED
:100B10000CBF012000205DF808FB00BF4DF808ED78
:100B2000FFF7EAFF34BF012000205DF808FB00BF9B
:100B30004DF808EDFFF7E0FF94BF012000205DF8BD
:100B400008FB00BF4DF808EDFFF7CEFF94BF012072
:100B500000205DF808FB00BF4DF808EDFFF7C4FF6B
:100B600034BF012000205DF808FB00BF4FEA410CB4
:100B70007FEA6C5C02D150EA013C0AD14FEA430C97
:100B80007FEA6C5C02D152EA033C02D14FF00000D4
:100B900070474FF0010070474FEA410212F5001212
:100BA00015D211D56FF47873B3EB625212D94FEAB4
:100BB000C12343F0004343EA505311F0004F23FA9E
:100BC00002F018BF404270474FF00000704750EAF3
:100BD000013005D111F0004008BF6FF000407047B0
:100BE0004FF00000704700BF4FEA4102B2F1E0430E
:100BF00024BFB3F5001CDCF1FE5C0DD901F0004C04
:100C00004FEAC0024CEA5070B2F1004F40EB830053
:100C100008BF20F00100704711F0804F21D113F17F
:100C20003872BCBF01F00040704741F480114FEAB8
:100C30005252C2F11802C2F1200C10FA0CF320FA41
:100C400002F018BF40F001004FEAC1234FEAD3235E
:100C500003FA0CFC40EA0C0023FA02F34FEA4303C8
:100C6000CCE77FEA625307D150EA01331EBF4FF051
:100C7000FE4040F44000704701F0004040F0FE406C
:100C800040F40000704700BF7BB972B90029BEBFB5
:100C900000204FF0004106E008BF00281CBF6FF0A5
:100CA00000414FF0FF3000F0BBB9ADF1080C6DE929
:100CB00004CE002909DB002B1ADB00F04DF8DDF82B
:100CC00004E0DDE9022304B07047404261EB4101DA
:100CD000002B1BDB00F040F8DDF804E0DDE9022327
:100CE00004B0404261EB4101524263EB4303704761
:100CF000524263EB430300F02FF8DDF804E0DDE936
:100D0000022304B0404261EB41017047524263EB61
:100D1000430300F021F8DDF804E0DDE9022304B02C
:100D2000524263EB4303704753B94AB9002908BFE5
:100D300000281CBF4FF0FF314FF0FF3000F070B9BA
:100D4000ADF1080C6DE904CE00F006F8DDF804E022
:100D5000DDE9022304B070472DE9F047089E0D46F7
:100D600004460F46002B4AD18A42944665D9B2FA0E
:100D700082F343B102FA03FCC3F120029F4020FA40
:100D800002F217439C404FEA1C4E1FFA8CF5B7FB4A
:100D9000FEF1220C0EFB117742EA074201FB05F03F
:100DA00090420AD91CEB020201F1FF3780F01C814E
:100DB000904240F2198102396244121AA4B2B2FB85
:100DC000FEF00EFB102244EA024400FB05F5A542AA
:100DD0000AD91CEB040400F1FF3280F00781A54220
:100DE00040F204816444023840EA0140641B00215F
:100DF0001EB1DC400023C6E90043BDE8F0878B420A
:100E000008D9002E00F0ED800021C6E90005084653
:100E1000BDE8F087B3FA83F1002949D1AB4202D390
:100E2000824200F2F880841A65EB03020120174623
:100E3000002EE2D0C6E90047DFE702B9FFDEB2FAD2
:100E400082F3002B40F090808A1A4FEA1C471FFA69
:100E50008CFE0121B2FBF7F507FB1520220C42EABC
:100E600000420EFB05F0904208D91CEB020205F18E
:100E7000FF3802D2904200F2CB804546121AA4B24B
:100E8000B2FBF7F007FB102244EA02440EFB00FE1F
:100E9000A64508D91CEB040400F1FF3202D2A64596
:100EA00000F2BB801046A4EB0E0440EA05409FE729
:100EB000C1F120078B4022FA07FC4CEA030C05FA2B
:100EC00001F420FA07F3FD404FEA1C492343B5FB28
:100ED000F9F81FFA8CFE09FB18551C0C44EA05446E
:100EE00008FB0EF5A54202FA01F200FA01F00BD957
:100EF0001CEB040408F1FF3A80F08880A54240F220
:100F00008580A8F102086444641B9DB2B4FBF9F328
:100F100009FB134445EA044403FB0EFEA64508D929
:100F20001CEB040403F1FF356CD2A6456AD9023BE1
:100F3000644443EA0843A3FB0295A4EB0E04AC42CD
:100F4000C846AE4656D353D056B1B0EB080264EB58
:100F50000E0404FA07F7CA40CC401743C6E90074F0
:100F600018460021BDE8F087C3F1200102FA03FC16
:100F700020FA01F225FA01F19D402A434FEA1C476D
:100F80001FFA8CFEB1FBF7F007FB1015110C41EABC
:100F9000054100FB0EF58D4204FA03F408D91CEB61
:100FA000010100F1FF382FD28D422DD90238614462
:100FB000491B92B2B1FBF7F507FB151142EA01425A
:100FC00005FB0EF1914208D91CEB020205F1FF3836
:100FD00016D2914214D9023D6244521A45EA0041A8
:100FE00038E73146304608E73946E6E61046FBE684
:100FF0004845A9D2B9EB020865EB0C0E013BA3E70B
:101000004546EAE72B4694E74046D1E7D0467BE7E2
:10101000023D624432E708460AE76444023842E788
:10102000704700BF0149002009F066BBB5230008E6
:1010300008B5642007F05EFDFBE7002008B503F06B
:10104000E7FE002003F008FF4FF47A7007F052FD2E
:10105000F7E7000007B54FF6FF730190012201A9E1
:10106000034807F08CFB019803B05DF804FB00BF58
:101070002405002010B594B030220021022408A8D5
:1010800033F0ACF81422002103A833F0A7F805F0E0
:10109000FFFC204B192108A81A6F22F018021A67CA
:1010A0001A6C42F080521A641B6C03F08053019357
:1010B000019B194B1A6842F440421A6005221B68D2
:1010C00003F440430293029B4FF48033CDE908239D
:1010D00001230A934FF48003CDE90E434FF4D873F4
:1010E000CDE91244CDE9101306F036F805F0D8FC2E
:1010F0000F2300200721CDE903344FF4A053CDE99D
:1011000005034FF4805303A8079306F00DFA14B0BB
:1011100010BD00BF00380240007000402DE980483B
:101120009BB01022002101250DA84FF0104633F08E
:1011300055F8002404F00EFCC94B0DA8ADF834504E
:101140001094CDE90E6304F023FC17230DA88DF84D
:1011500035508DF83C308DF8425004F019FC0420D5
:1011600004F006FCBFF34F8FBFF36F8FBD4AC2F888
:101170005042BFF34F8FBFF36F8F536943F4003377
:101180005361BFF34F8FBFF36F8FC2F88440BFF33B
:101190004F8FD2F8803043F6E074C3F3C900C3F335
:1011A0004E335B0103EA0406014646EA81750139C4
:1011B000C2F86052F9D2203B13F1200FF2D1BFF3F5
:1011C0004F8F536943F480335361BFF34F8FBFF3A5
:1011D0006F8F04F0E7F80024FFF74CFF1422002182
:1011E0000DA832F0FBFFA04B1021A0481A6B01267E
:1011F0004FF010084FF0030A42F01002022740257A
:10120000DFF898921A631A6BDFF894B202F01002BA
:101210000292029A1A6B42F002021A631A6B02F0EF
:1012200002020392039A1A6B42F001021A631A6BCC
:1012300002F001020492049A1A6B42F040021A630F
:101240001A6B02F040020592059A1A6B42F4007282
:101250001A631A6B02F400720692069A1A6B42F035
:1012600008021A631A6B02F008020792079A1A6BB7
:1012700042F480621A631A6B02F480620892089A40
:101280001A6B42F020021A631A6B02F020020992D4
:10129000099A1A6B42F480721A631A6B02F4807214
:1012A0000A920A9A1A6B42F004021A631A6B02F04D
:1012B00004020B920B9A1A6B42F080021A6300220E
:1012C0001B6B03F080030C930C9B04F0B3FE012214
:1012D0000821674804F0AEFE01224FF480516548B2
:1012E00004F0A8FE0022C021634804F0A3FE0122FE
:1012F0004021624804F09EFE01224021604804F033
:1013000099FE0DA95948CDE90F4ACDE90D8604F0A3
:1013100009FD08230DA95648CDE90D36CDE90F4446
:1013200004F000FD4FF480520DA95248CDE90D267E
:10133000CDE90F4404F0F6FCC0230DA94E48CDE9D9
:101340000D36CDE90F4A04F0EDFC0DA94B48CDE96F
:101350000D56CDE90F7404F0E5FC0DA94848CDE920
:101360000D56CDE90F7404F0DDFC4648464B8480F1
:1013700003600662C0E9054404F036FB434B48466F
:10138000C9E90A44C9E90C44C9E90034C9E902447D
:1013900004F0C7FB314648464FF0040904F07AFCDC
:1013A0003B494FF48052CBF814503A4D5846CBF895
:1013B0000840CBF828400D97CBE900144FF4C071DA
:1013C000CBE906144FF40061CBE9081207220DA9FE
:1013D000CDE9102ACBE90398CDE90E29CDE91277A2
:1013E00006F0F1FD29464FF6FF7258460194C5E913
:1013F0000264C5E9006806F006FE304603F0F6FF19
:1014000029464FF6FF725846C5E90264C5E90078DF
:1014100006F0F9FD082329464FF6FF725846C5E944
:101420000234C5E900A806F0EEFD4FF40C7229461F
:10143000584601924FF0FF0A019AAE60EA604FF6FB
:10144000FF72C5E9009806F0DEFD40F22B715846A8
:10145000114D06F0F7FD4FF0204343F2D20221E098
:101460001B00000300ED00E00038024000040240D1
:1014700000280240002002400008024000180240FC
:10148000001C0240240300200030024000B0024053
:10149000400100A0AC020020880300204803002087
:1014A000F004002064204FF4806B1A6003F09EFF6C
:1014B000824B834A28462C62C5E90023C5E90246CF
:1014C000C5E90444C5E9064404F0DCFE214628468B
:1014D00005F0FAF8214628467A4D05F01BF934222A
:1014E00021460DEB020032F079FE774B28213520A2
:1014F00040F2152C40F2352EAC862C6185F8364032
:10150000C5E900340923C5E905130B23C5E9070321
:1015100040F21B132846C5E909C340F21D13C5E973
:101520000244C5E90BE305F09DF905214FF4F07283
:101530004FF4887328460D941893ADF864408DF8E5
:101540006640624DCDE914B14FF04041CDE90E2423
:10155000CDE916120DA92246CDE91037CDE912A426
:1015600005F04BFA5A485B4B18220462C0E900367A
:101570004FF4A063C0E90644C0E90423C0E902981F
:1015800005F0A8FB03F08CFD03F0D0FC5C2004F018
:10159000CFF900F0AFFC424621460DA832F01EFE06
:1015A0004D494FF480332846AC60AC6185F820404B
:1015B000EC62EC6085F830402E61EF616E61C5E948
:1015C0000013464BAB6203F023FF0DA928460F948E
:1015D000CDE90D4604F0AEF808230DA92846404D8C
:1015E000CDE90D3704F0A6F83E484FF4E13304612D
:1015F0004462C0E900530C233B4DC0E90534C0E907
:101600000244C0E9074407F02EF9214614220DA830
:1016100032F0E4FD354B28460094AC61C5E9003456
:101620007F23C5E90444C5E9023A06F030FB43F6DE
:10163000173322460DA9ADF834302D2328468DF8F6
:101640003630CDE9104406F075FB294B2246694639
:101650002846009306F0C7FB4A464946284606F04E
:1016600054FC00F073FC00F070FC07F0B5F9214663
:10167000204A214807F0EAF9204B2146204A186009
:10168000204807F0E3F9204B2146204A1860204803
:1016900007F0DCF91F4B21461F4A18601F4807F06E
:1016A000D5F91F4B1F4C186007F0B0F91E4832F0F7
:1016B0008BFC204632F088FCFBE700BF68474020E7
:1016C000005C0040DC03002000680140DC020020D8
:1016D00084040020001000A0002201400100000F3F
:1016E0000010014024050020D00400200028004004
:1016F000060317189C62030831100008D802002066
:10170000786203085B1F0008D4020020E46203082B
:10171000CD390008B0050020C06203083B10000866
:10172000AC05002033620308146203080268034B0F
:101730009A4201D103F048BE704700BF001000403C
:10174000704700000D4B82B00F216FF001001A6C42
:1017500042F080521A641A6C02F080520092009A91
:101760005A6C42F480425A6400225B6C03F480435A
:101770000193019B02B004F09BB800BF0038024007
:1017800010B588B004461422002103A832F026FDCB
:1017900022681A4B9A422ED103F58B33032403A9F6
:1017A00017485A6C42F480625A645A6C02F48062A0
:1017B0000092009A1A6B42F020021A631A6B02F030
:1017C00020020192019A1A6B42F001021A631B6B0C
:1017D00003F001030293029B4FF48063CDE90334CD
:1017E00004F0A0FA012303A90648CDE9033400233D
:1017F000059304F097FA08B010BD00BF0022014025
:101800000014024000000240026882B0084B9A4275
:101810000BD1D3F8302803F5006342F480521A63E9
:101820001B6B03F480530193019B02B0704700BF10
:10183000003002400E4B07B502689A4215D1A3F55D
:10184000F04305215A201A6B42F400021A63002269
:101850001B6B03F400030193019B04F029F85A2049
:1018600003B05DF804EB04F055B803B05DF804FB79
:1018700000B0024010B5A8B004461422002102A80E
:1018800032F0ACFC8422002107A832F0A7FC2268C9
:10189000174B9A422AD14FF4803307A8079305F0DB
:1018A0001FFF08B1FFF74CFF124C4FF4C07201212B
:1018B0001148236B43F080032363236B03F0800301
:1018C0000093009B1223CDE902230323CDE90413E7
:1018D000042302A9069304F025FA236C43F40003C1
:1018E0002364236C03F400030193019B28B010BD13
:1018F000005C004000380240001C0240026808B54D
:10190000094B9A420FD1094A80210948136C23F4EC
:101910000003136404F0E8FA4FF480710448BDE852
:10192000084004F0E1BA08BD005C00400038024005
:10193000001C024070B5ACB004461422002106A879
:1019400032F04CFC842200210BA832F047FC2268C4
:10195000484B9A4240F08C800823052001240B93C9
:101960004FF4C07310930223CDE911304FF40033CC
:101970000BA8CDE9154305F0B3FE08B1FFF7E0FE73
:101980003D4B002402250E265A6C06A93B4842F026
:1019900080625A645A6C02F080620092009A1A6B5C
:1019A00042F010021A631A6B02F010020192019ABF
:1019B0001A6B42F400721A631A6B02F400720292FC
:1019C000029A1A6B42F480621A631A6B02F4806204
:1019D0000392039A1A6B42F040021A631A6B02F0E8
:1019E00040020492049A1A6B42F480721A631B6BD1
:1019F00003F480730593059B1023CDE90635CDE9EB
:101A000008440A9604F08EF94EF6FF7306A91C48A6
:101A10000A96CDE90635CDE9084404F083F9F723A9
:101A200006A918480A96CDE90635CDE9084404F020
:101A300079F94FF4805306A91348CDE906350923F7
:101A4000CDE908440A9304F06DF94FF4464306A922
:101A50000E480A96CDE90635CDE9084404F062F94E
:101A600058202246052103F023FF582003F052FF9F
:101A70002CB070BD006801400038024000100240E8
:101A800000240240002802400018024000200240CA
:101A9000142200212DE9F0418AB004460DEB02002A
:101AA00032F09CFB22682C4B9A4251D12B4B0225E1
:101AB000032409269A6B4FF0040805A9284842F030
:101AC000020200279A639A6B02F002020192019AC5
:101AD0001A6B42F010021A631A6B02F010020292A3
:101AE000029A1A6B42F002021A631A6B02F00202A7
:101AF0000392039A1A6B42F008021A631B6B03F0FD
:101B000008030493049BCDE90585CDE9084604F05C
:101B100009F9402305A91348CDE905350A23CDE984
:101B20000774099304F0FEF805A90E480996CDE95B
:101B30000585CDE9077404F0F5F84FF4605305A965
:101B400009480996CDE90535CDE9077404F0EAF8AE
:101B50000AB0BDE8F08100BF001000A000380240CC
:101B60000010024000040240000C0240026808B568
:101B70000B4B9A4213D10B4A04210B48936B23F071
:101B80000203936304F0B0F94421084804F0ACF96F
:101B90004FF460510648BDE8084004F0A5B908BDFF
:101BA000001000A000380240001002400004024073
:101BB000000C024010B5A2B004468422002101A806
:101BC00032F00CFB22680A4B9A420FD1202301A865
:101BD00001934FF480730D9305F082FD08B1FFF778
:101BE000AFFD044A136F43F40043136722B010BDE6
:101BF0000028004000380240F0B5ABB00446142283
:101C0000002104A832F0EAFA8422002109A832F067
:101C1000E5FA2268204B9A423CD1402309A8099357
:101C200005F05EFD08B1FFF78BFD1C4B0227002677
:101C300003255A6C072404A9194842F010025A647B
:101C40005A6C02F010020192019A1A6B42F00202E1
:101C50001A631A6B02F002020292029A1A6B42F0A5
:101C600001021A631B6B089403F001030393039BA7
:101C70008023CDE90665CDE9043704F053F84FF42D
:101C8000007304A907480894CDE90437CDE9066537
:101C900004F048F82BB0F0BD0010014000380240BD
:101CA0000004024000000240F0B5002387B0039317
:101CB000294B1E68002E4DD10122022703250C243A
:101CC0001A6001A9254B26489A6B42F001029A63DB
:101CD0009B6B03F001030093009B4FF68373CDE9E8
:101CE0000454CDE9013704F01DF848F2331301A97B
:101CF0001C480594CDE90137CDE9036504F012F8DD
:101D00004CF2037301A918480594CDE90137CDE9D8
:101D1000036504F007F84FF63F0301A91348059443
:101D2000CDE90137CDE9036503F0FCFF282301A9C4
:101D30000F480594CDE90137CDE9036503F0F2FFC3
:101D4000082301A90B480594CDE90137CDE90365C6
:101D500003F0E8FF07B0F0BDB405002000380240F2
:101D60000010024000180240000C02400014024023
:101D7000001C024000080240214B1A6C42F0100285
:101D800070B51A6488B01B6C054601A903A803F05E
:101D900010030293029B05F085FC069B4BBB05F0EC
:101DA00061FC184E184B336040F2E733F360174B79
:101DB000B0FBF3F3013B3046736000233361B36043
:101DC000B36106F0B1FA044680B9304606F054F922
:101DD000044658B9362003F09DFD0F2D0DD822463C
:101DE0002946362003F064FD094B1D60204608B0EB
:101DF00070BD05F037FC4000D3E70124F6E700BFD3
:101E000000380240B80500200010004040420F009A
:101E10003C0000207047FEE7FEE7FEE7FEE7704764
:101E2000014806F06BB900BFB8050020014804F076
:101E300087BD00BFDC030020014803F0A0BE00BF47
:101E4000480300200120704708B532F07FFA1623BE
:101E500003604FF0FF3008BD08B532F077FA162363
:101E60000360FEE770B50D4614460E46731B9C4298
:101E700001DC204670BDAFF3008006F8010BF5E7EA
:101E800070B50D4614460E46731B9C4201DC20467D
:101E900070BD16F8010BFFF7DDF8F5E74FF0FF30E6
:101EA00070474FF4005300204B607047012070478B
:101EB000002070470B4A0346116810B509B90A495A
:101EC0001160106809490A4C0344091B8B4206D96A
:101ED00032F03CFA0C2303604FF0FF3010BD13606A
:101EE000FCE700BF04060020707F012000000520F1
:101EF000000A000070470000DFF834D0002103E042
:101F00000C4B5B58435004310B480C4B42189A421F
:101F1000F6D30B4A02E0002342F8043B094B9A42F5
:101F2000F9D303F055F932F017FAFFF7F7F87047D5
:101F30000000052028BF03080000002090020020B8
:101F4000900200206C7F0120FEE7704708B501F089
:101F500017F9BDE8084001F099B801F013B94068DD
:101F600070474160704700004FF0E022D2F8FC3D1E
:101F700043F08073C2F8FC3D054B064AD3F8B01F0E
:101F80000A43C3F8B02F1A6842F001021A60704782
:101F9000001000E055CEACC5511A01EB5301B1FB66
:101FA000F3F07047014B5868704700BF001000E025
:101FB000704710B504460C2130F097FA204610BD4A
:101FC000036810B51B69044631B19847A26863687D
:101FD0009B1A1844606010BD9847A060FBE70000A2
:101FE000024B7020024A1360DB6818471000002083
:101FF00008060020704710B50446042130F075FA39
:10200000204610BD73B50E4E0D461446336813B905
:10201000002002B070BD1B69702098470028F7D0DF
:102020003368702001AA0DF106015B699847BDF87D
:10203000043001202B60BDF806302360E9E700BFC3
:10204000080600207FB501238DF817204FF47A721F
:10205000CDE901320DF1170200920A46014605480A
:1020600004F07AF910B1034804F05DF907B05DF8A7
:1020700004FB00BF880300207FB500230A464FF40D
:102080007A718DF817300123CDE901310DF1170177
:1020900000910146054804F039FA10B1034804F0F4
:1020A00042F99DF8170007B05DF804FB8803002093
:1020B00001280ED0022814D0D0B90E4B00F1804078
:1020C00010211A6800F50130B2FA82F2520903F0C9
:1020D000B1BF084B40215A68B2FA82F25209064851
:1020E000F5E7044B80219A68B2FA82F25209F6E7CA
:1020F000704700BF0C0600200008024001280ED0E7
:10210000022814D0D0B90E4B00F1804010211A687B
:1021100000F50130003A18BF012203F08BBF084BD5
:1021200040215A68003A18BF01220648F5E7044BDF
:1021300080219A68003A18BF0122F6E7704700BF75
:102140000C06002000080240012809D002280AD00D
:1021500058B900F18040102100F5013003F06FBF45
:1021600040210248FAE78021FBE77047000802405F
:10217000012808B50DD002280ED078B900F18040B2
:10218000102100F5013003F04FFF431E5842584123
:1021900008BD40210248F6E78021FBE70020F4E774
:1021A0000008024070B5084D00240126E0B2FFF798
:1021B000DFFF18B12B68012B18BF2E6001340435E6
:1021C000052CF3D170BD00BF0C060020012380F860
:1021D000781080F8793070470020704741640039EA
:1021E000024B18BF01211970704700BF33730120E3
:1021F00000207047836B0BB10846184770474FF6B5
:10220000FF707047406803689B691847704700007B
:1022100038B5044601F00CF9084923682046084DFA
:10222000D3F88C3098470023284684F84A30FFF7CB
:102230009BFE0123256184F8703038BD000000C08A
:102240001C06002001F096B801F09AB870B501F0B4
:1022500019F910490023C1F88430BFF34F8FD1F82A
:10226000803043F6E074C3F3C900C3F34E335B011F
:1022700003EA0406024646EA8275013AC1F874523E
:10228000F9D2203B13F1200FF2D1BFF34F8FBFF3F0
:102290006F8F70BD00ED00E001F0F6B801F046B8B8
:1022A00001F010BA01F018BA01F04AB810B50446AE
:1022B00017F080FB23682046D3F8AC30BDE810400F
:1022C000184716F0D5BD10B504467C2130F00DF945
:1022D000204610BD90F87A301BB1406803681B6837
:1022E000184718467047000090F834100D4B10B591
:1022F00090F878401A788C4209D03AB90A490B4ACA
:1023000008881488108001220C801A7010BD002AE1
:10231000FCD0064A0449148808880C8010800022EA
:10232000F3E700BF2C7301202A73012028730120DA
:1023300070B50D46194635B9094B40F2D221094A0C
:10234000094831F019F8C0E90F52003A074B18BF9D
:1023500001221A700368BDE87040D3F88C3018472A
:102360004863030880630308CE63030832730120C7
:1023700008B5094B1B888B4203D8084B1B88934236
:1023800005D9074B9E21074A074830F0F5FF074B58
:102390001980074B1A8008BD287301202A73012079
:1023A0001364030876640308CE6303082E730120C8
:1023B00030730120014608B5034B186801B10121B3
:1023C00017F012FB012008BD34730120034B0022DB
:1023D0005A609A60024A1A60704700BF1C060020CB
:1023E000106303080121002208B5084606F03AFCF4
:1023F0000A4B186028B90A4B28210A4A0A4830F0CB
:10240000BBFF00220421012006F0F2FC074B1860FC
:1024100018B9074B2C21034AF0E708BD2C06002011
:1024200094650308DD6503080C6603082806002090
:1024300055660308024B4FF0FF31186806F068BC80
:102440002C060020014B186806F09CBC2C060020CE
:10245000024B0021186806F05BBC00BF2C06002070
:10246000FFF7F0BF0023034803491A46006806F04F
:1024700005BD00BF280600200400002013B500237E
:10248000074C01A91A46206806F03AFD4FF0FF33C9
:10249000002201A9206806F033FD02B010BD00BF84
:1024A0002806002003685B6C18470120704703680A
:1024B0009B6A18470D4B82B01A6B42F400021A63F4
:1024C0001A6B02F400020192019A1A6942F40002A6
:1024D0001A611A6922F400021A61054B054A1A6151
:1024E0004FF08062044B9A6002B07047003802409F
:1024F000480300203D25000800E100E040F2EF30F5
:1025000070470000054B4FF080620360044BC3F836
:102510008820BFF34F8FBFF36F8F7047F0670308BA
:1025200000E100E010B504464FF45A61FFF7EAFFFE
:1025300020462FF0DAFF204610BD0000024B1B683A
:10254000586803685B6918473473012070B5044606
:102550000A4B0C30002625466022606026726672A7
:1025600045F8203B294617F095FB04F55A63EE60C9
:102570002435AB42FBD1204670BD00BFF067030895
:1025800008B50B290BD8DFE801F01206100A0A0A79
:102590000A0808080808012008BD0520FCE7054BCB
:1025A0006521054A054830F0E7FE0020F4E70220E7
:1025B000F2E700BF97660308B2660308FC660308EB
:1025C00008B50A2909D8DFE801F010060E08080846
:1025D000080606060600012008BD054B8621054AAF
:1025E000054830F0C9FE0020F6E70220F4E700BFFE
:1025F0009766030843670308FC6603082DE9F84360
:1026000091F81D800C4607464146FFF7B9FF94F844
:102610001E90054638464946FFF7B2FF4946064632
:102620003846FFF7CDFFA18A628B434B521A1A64DA
:102630009A61228B521A1A61E28A586342EA014275
:1026400020695A646268D863DA602768802F28D0CE
:10265000227F0FD8202F65D0402F63D0042F1AD0AF
:1026600045EA0265344BC84545F40035DD615FD06D
:10267000324A44E0B7F5807F04D0B7F5007FEFD150
:102680002F4900E02F4941EA0262DA61E2681A62EA
:102690005E62586132E045EA026242F40032DA6179
:1026A000F6E7A7683A1DDA62217F3A7845EA0165C4
:1026B00045F40035DD615E62586142B1012A21D0E6
:1026C000214B4FF48871214A214830F055FEDA69D8
:1026D000798822F47F42013922F0100242EA012275
:1026E0000121DA61144BDA6942F02002DA61DA6919
:1026F0009206FCD410229A600029B9D0154A1A60BB
:10270000BDE8F883DA69FF39788822F47F4218BF80
:102710000121013822F0100242EA002242F01002A8
:10272000DA61DFE745EA0262034B42F40032B6E7C2
:1027300040F20122E3E700BF00B0024001020100C5
:10274000090002000A0002008E670308A867030858
:10275000FC6603080102020038B50C46897FFFF7CA
:102760002FFF174BA58AE28A586342EA0542216986
:102770005A64628BD963521B1A642568082D0ED1E6
:102780009A611A6158620F4A207F42EA0062DA6158
:10279000E2681A620C4A5961D9601A6038BD002299
:1027A000D8611A61E1680A0A4809C1F3C40102F458
:1027B000784200F4FC6002430A439A63034AECE760
:1027C00000B0024009000100010202000102030002
:1027D000034B1A68D207FCD423229A60704700BFCB
:1027E00000B0024030B5104C2568ED07FCD423251D
:1027F0000904FF2BA56041F001014FF0020565635C
:102800006164E0630AD00949656241EA0363E361F8
:10281000074B22626061E060236030BDE561039B8D
:10282000A363044BF8E700BF00B0024009000100B9
:1028300001000200010003004069704790F8440065
:102840007047036B23B9C06A003818BF0120704776
:102850000120704780687047043010B50C460FC8DF
:1028600084E80F0010BD704708B5034A40F21221FA
:10287000024B034830F080FD386803081B830308CF
:102880009368030810B5044648212FF02EFE204619
:1028900010BD00002DE9F0431C46436BADF51F7DD4
:1028A00005460E461746002B37D0002203A8DFF856
:1028B000A890CDE901320EF07FFC4FF4F472502164
:1028C000249024A808F0C7FB3A46314624A809F012
:1028D00043FB012124A808F0C1FC022324A88DF8A1
:1028E000D83008F05FFDBDF898322B9ABDF89C6295
:1028F0009342A89F28BF1346419A964203EB430890
:10290000A7EB430728BF1646479B9E4209D824A839
:1029100008F0C6FC24A808F0EBFB0DF51F7DBDE810
:10292000F083012201A924A808F085FD6B6B03EB5D
:102930000800984201D83C44E6E759789A78C900E3
:1029400009EA022201F4FC610A4313F8031B42EA7C
:10295000D10224F8022BECE700F8FFFF0A4A0260DC
:102960000022C0E90522C0E90722C0E90922C0E926
:102970000B22C0E90D12C0E90F2280F84420C0E903
:102980000322C0E901227047706B030810B40C46A3
:1029900011461A46036B3BB1036C806BE41A20446A
:1029A0005DF8044B31F022BCC06AF8E7036B10B548
:1029B00073B1036C826BC91A5318525C98785C78B7
:1029C0000004DB7840EA0420104340EA036010BDB5
:1029D000C36A5858FBE7036B43B1036CC91A836B96
:1029E0005A18585C527840EA02207047C36A585A15
:1029F0007047000070B50446006B0D461646D8B10E
:102A0000E36B934208D209230D4A65210D4884F8EF
:102A100044300D4B30F0B0FC0368DB689847206B06
:102A20003246A16B03681B69984710B90D2384F8DF
:102A30004430A06B256470BDE06A0844FBE700BF2A
:102A4000F968030893680308E66803082DE9F8436A
:102A5000436904462BB9234BAA21234A234830F06B
:102A60008BFC08228169FFF7C5FFA16943F230069C
:102A700046F2643704312046FFF798FFA3691844F3
:102A8000A36A00F108029A4206D301230020636181
:102A9000236AA361BDE8F883636909300822013322
:102AA00020F0010120466361A161FFF7A3FFD4F884
:102AB000189020464946FFF78EFF09F10201804633
:102AC0002046FFF788FF09F1040105462046FFF77D
:102AD0006DFFB045D2D1BD42D0D10028CED001206B
:102AE000D8E700BF3B6903088469030893680308BB
:102AF0002DE9F04F0446ADF51F7D8A4616468169E3
:102B000008229846FFF776FFA7692046391DFFF790
:102B10004DFF07F10801024605462046FFF76AFF10
:102B2000636B074633B93C4B40F2AB113B4A3C4820
:102B300030F022FC002203A8CDE901320EF03CFB6C
:102B40004FF4F4725021249024A808F084FA2A4605
:102B5000394624A809F000FA012124A808F07EFBD8
:102B6000022324A88DF8D83008F01CFCBAF90250D2
:102B7000479BAB4229D3BAF900904FEA4808BAF80C
:102B800004702B9B08FB05664F44BAF80250DFF82F
:102B900094B03FB29F4228BF1F46BAF8063009EBF7
:102BA000490A1D44419B2DB29D4228BF1D46479BAB
:102BB000AB4210D324A808F073FB24A808F098FABD
:102BC00001200DF51F7DBDE8F08F012201A924A889
:102BD00008F031FCCCE7012201A924A808F02BFC65
:102BE000626B49465244B94202F1030201D34644A2
:102BF000DDE712F8020C12F8013CC0000BEA0323D7
:102C000000F4FC60034312F8030C43EAD00326F8F7
:102C100011300131E7E700BFB76903080D6A030807
:102C20009368030800F8FFFF0129036838BF0121FA
:102C3000DB6A70B50D4604469847A84204D2236863
:102C40002046DB6A984705466B1EE669102220463F
:102C500006EB031606F10801FFF7CCFE06F11001A2
:102C60002046FFF7A3FE236A043B0344C4E905534F
:102C700070BD00002DE9F341002104464822816126
:102C800080F84410FFF7B6FEA7690423634A39466B
:102C90002046FFF77BFE40B10323614AF22184F80E
:102CA0004430604B604830F067FB07F108010423B3
:102CB0005E4A2046A161FFF769FE30B10423584AFD
:102CC000FA2184F844305A4BECE707F10C01042355
:102CD000584A2046A161FFF759FE064638B1052340
:102CE0004F4A40F2011184F84430534BDAE707F1C0
:102CF00010012046FFF75AFE054620B94F4B40F21F
:102D00000711474ACEE707F1140804234C4A20462E
:102D10004146FFF73BFE00284BD0062384F84430A1
:102D20000423484A07F118012046FFF72FFE002828
:102D300041D0072384F844304544434F0C222046B9
:102D40002946FFF757FE05F1080604233A462046B8
:102D50003146FFF71BFE94F8443000284AD0002B80
:102D60004AD1A36A291DAB424AD805F10C03291D9B
:102D70002046A3610191FFF719FE3044019960627A
:102D80002046FFF713FE0644042220463146FFF793
:102D900031FE04232D4A31462046FFF7F7FD002877
:102DA00039D10123E6616361A369236202B0BDE802
:102DB000F0810126B4E7002EBED007F120012046A5
:102DC000FFF7F4FD4FF47A7307F13001B0FBF3F035
:102DD00060602046FFF7EAFD07F14001A060204651
:102DE000FFF7E4FD07F14401E0602046FFF7DEFD58
:102DF0002061A1E7002BB8D00A2384F84430D5E73E
:102E00002046FFF7D3FD08300C2205442046294612
:102E1000FFF7F0FD97E70B23EFE700BF676A0308B2
:102E2000856A03086C6A030893680308B26A03089A
:102E3000B76A0308CF6A0308D46A0308EA6A03087A
:102E4000F66A0308FB6A0308006B0308056B0308B6
:102E5000C0E90A2100220263FFF70CBF10B500236E
:102E600004460846E3620B6821639B689847A062AA
:102E70002046BDE81040FFF7FDBEF0B4BDF810508D
:102E8000BDF814602AB123B1CDE90456F0BCFFF7B8
:102E900001BDF0BC704700002DE9F04F9946436931
:102EA00085B004460F4690462BB92A4B77212A4A13
:102EB0002A4830F061FA08228169FFF79BFDA66974
:102EC00020463146FFF787FDB11C83462046FFF7B9
:102ED00082FD311D82462046FFF768FD06F108019C
:102EE000A36A054642189A4227D243F230039B4513
:102EF00017D146F264339A4513D190B10246A161CD
:102F00002046FFF777FD0E9B01462A462046CDF866
:102F10000080CDE901933B46FFF7AFFF63690133C2
:102F20006361A3692B448DB1A361A369626A013314
:102F300023F001039342A3610AD10120236A606157
:102F4000A36180F0010005B0BDE8F08F0833EBE726
:102F50000020F6E73B6903080A6B0308936803083F
:102F6000012070470C2070470C2303FB0100083040
:102F700070470C2303FB01000830704701207047A5
:102F800042F23400704742F2340303FB0100083080
:102F9000704742F2340303FB010008307047012000
:102FA00070471020704700EB01100830704700EBAD
:102FB000011008307047084600F02CBF034B10B5D5
:102FC0000446036015F016F9204610BD186C03087E
:102FD00010B50446FFF7F2FF142120462FF085FAC2
:102FE000204610BD034B10B50446036015F002F9EE
:102FF000204610BDE46B030810B50446FFF7F2FF4E
:1030000042F23C0120462FF070FA204610BD00002D
:10301000034B10B50446036015F0ECF8204610BDD4
:10302000B06B030810B50446FFF7F2FF18212046E5
:103030002FF05BFA204610BD094B10B50446036023
:1030400000F501502830FFF7B9FF04F12C00FFF71D
:10305000C9FF04F11400FFF7DBFF204610BD00BFDD
:103060004C6C030808B50248FFF7E6FF08BD00BF37
:103070003406002010B50446FFF7DEFF4FF4085178
:1030800020462FF032FA204610BD00002DE9F34112
:1030900000F034FD0024054600F034FD23460146CF
:1030A00022462846009421F073F8274B274A2046F1
:1030B000274D1A6001F07CFB264B274A27489A606F
:1030C00020F0CEFF2B68BFF35B8FDB0735D428469B
:1030D0002FF00DFA88B3224C224F234B04F1140039
:1030E00007F13C0604F12C0823606060C4F80880F6
:1030F000E760266115F080F81C4B4046636115F0CF
:103100007BF81B4B3846E36215F076F804F5005364
:10311000184A03F17C009A6601F0CEFB224607F1C3
:103120001401304601F0BEFB304600F073FE124839
:1031300030F040F928462FF0E6F9104802B0BDE81B
:10314000F041FFF765B800BF98730120703600208A
:1031500030060020743600203428002008000020AB
:10316000340600209C2600204C6C0308B06B03083A
:10317000E46B0308186C030865300008F435002080
:1031800070470000014815F0DCBE00BFF435002098
:1031900070B5244E244B254C3046254D2360FFF757
:1031A000D5F9284625F0CEFA22481DF073FE224BB1
:1031B00000224FF4807121481A8683F858205A66FD
:1031C00083F870205A67DC60C3E912121C49C3E916
:1031D0001A121C4999671C490B604FF4F071018069
:1031E0001A4801804FF488711948C3E90422C3E9E1
:1031F0000622C3E90822C3E90A22C3E90E22C3E971
:103200001022C3E91422C3E91722C3E90165018032
:10321000104883F8342001800F490A700F4A1A6061
:1032200070BD00BF542800203863030850280020D8
:103230007436002034280020F43500202873012043
:103240000100000100000101347301202E730120F0
:103250002A730120307301202C730120C4640308F9
:103260000148FFF74FB900BF5428002000207047E5
:1032700081807047C18070470181704741817047EC
:103280007047704770477047704710B4C488036830
:10329000121B84885B6D091B12B25DF8044B09B2E6
:1032A00018474FF6FF7383814FF0FF3303621368B3
:1032B000C3611060704790F825201AB190F824205F
:1032C00002B118607047002070478B88838001200E
:1032D0007047704780F82610704790F826007047B6
:1032E000002210B5B1F90840B1F90A1002804280FD
:1032F0008480C18010BD0022028042808280C28012
:1033000070470177704780ED080A704780F82410F5
:10331000704780F82510704701207047983070473B
:103320008C3070478430704770470000034B902208
:1033300083F85A2383F85823704700BF00E100E068
:10334000094A0A49D3680A48C3F30A03013B9BB2FE
:103350000B801169C1F30A01013901801364536BB9
:1033600043F0010353637047006801405A3700205F
:1033700058370020014BD3F8AC007047006801407B
:10338000024B0122C3F8AC105A627047006801403A
:10339000124A5369DB0370B51ED50023C2F884308E
:1033A000BFF34F8FD2F8803043F6E074C3F3C90007
:1033B000C3F34E335B0103EA0406014646EA817516
:1033C0000139C2F87452F9D2203B13F1200FF2D127
:1033D000BFF34F8FBFF36F8F70BD00BF00ED00E0F4
:1033E0007047704770473823002201FB0333C254F3
:1033F00090F838300BB9036C83647047704780F8DD
:103400004C10704710B5044658212FF06EF8204636
:1034100010BD10B504462C212FF067F8204610BDD2
:1034200010B50446BC212FF060F8204610BD000006
:1034300038B5044615F071FD23685D6E1CF0D4FBB1
:1034400001462046A8472368084A2046D3F88850FA
:103450000023A2F57F31A847054B064A5A60064A69
:103460001A649A644FF4FF225A6438BD00F807C00A
:1034700000370020983F002000F40BC015F034BD49
:1034800015F03EBD15F0FABC15F069BE90F8252088
:1034900012B103685B6918477047000008B531B185
:1034A000044B40F29711044A04482FF065FF90F84E
:1034B000390008BD586C03086C6C0308F96D0308EB
:1034C00010B531B1064B40F29111064A06482FF073
:1034D00053FF406811460368BDE810401B6B184756
:1034E000586C03083B6E0308F96D030808B529B151
:1034F000034B7A21034A04482FF03EFF006908BDC0
:10350000586C0308EC6F0308F96D030808B529B17E
:10351000054B8321054A06482FF02EFF416181604B
:10352000C0E9063208BD00BF586C0308A471030847
:10353000F96D030810B5044629B1274BA421274A89
:1035400027482FF019FF052A34D8DFE802F00329B5
:103550002F34393E406803681B69984750B34FF0D9
:10356000FF31606D05F024FB0023012294F83E102A
:1035700084F83B3084F83920A360636101B1226292
:1035800084F83E306362E36A2BB90123206D84F82E
:103590003A3005F0F7FB606DBDE8104005F038BB30
:1035A000002380F8393084F83E3003E003620023C2
:1035B0008360436110BD0362002383604361F2E7CF
:1035C000002380F839300123EDE7003B18BF0123C9
:1035D00080F83D30EEE700BF586C030863730308C2
:1035E000F96D030870B50446164629B1314BE72141
:1035F000314A32482FF0C0FE90F8393033B1304BA9
:103600001B6893F86B20436913444361E36A002B02
:103610004DD0E169D4E905325343A2684A4393424D
:1036200020D2236A002B42D04FF0FF31606D05F0AD
:10363000BFFA236A0BB10023E362E36AFBB90125F9
:10364000606D05F0E5FA94F839300BB9236A3BB1A7
:10365000E36A2BB90123206D84F83A3005F092FB20
:10366000284670BD94F84C000028DDD09B1AB3FBAF
:10367000F1F2994298BF02F1FF326262D4E7002270
:1036800094F83C50A3623046E262E2682261A2688C
:103690000132A260336333685B699847002DCED155
:1036A00094F83D30002BCBD184F83950C8E7012580
:1036B000C9E700BF586C03083A750308F96D0308A1
:1036C00034730120034B4FF080629A604FF0807298
:1036D0009A60704700E100E0084B4FF08062C3F849
:1036E0008820BFF34F8FBFF36F8F4FF08072C3F806
:1036F0008820BFF34F8FBFF36F8F704700E100E06A
:1037000038B5034690F8380038BB01229860D8607D
:103710009A634FF4807258619A874FF4F0729861FF
:10372000D861186258629862D8621863586383F847
:103730003E00CA864FF4887281F834000A87086315
:103740009A6C186102F5FF24D3E9101529448C42C4
:103750000AD9084B5821084A03E0084B40F2F511FA
:10376000074A08482FF008FE1A6302F57F329C646E
:103770005A6338BD98780308D8780308DE760308C2
:103780000E770308F96D0308002370B5124E054645
:103790008380124B0360336893F858200AB1D86CC9
:1037A00000B998680368DB6A98473368B0FA80F418
:1037B000D86C640930B10368DB6A9847002808BFF9
:1037C00044F001042CB9064B2C21064A06482FF080
:1037D000D3FD284670BD00BF34730120807B0308F1
:1037E0007E7A0308DC7A0308157B030870B5244E43
:1037F0003568BFF35B8F15F001053FD130462EF0E1
:1038000076FE00283AD01F4C1F4B04F1340025618E
:10381000E584A562A585C4E90035C4E902551DF01B
:1038200098FD04F1580018F069FB184B2046A36579
:10383000174B40F8843BFFF7A7FF164B1648C4F818
:1038400084302433C4F89050C4F88C306423C4F816
:103850009C50C4F8A850C4E928350023C4F8AC3003
:10386000C4F8B030C4F8B430C4F8B8300B4BC4F866
:1038700098302FF09FFD30462EF045FE014870BD78
:10388000FC3600205C37002010AB0308A07B030847
:10389000187C0308C4AA030829330008A4AA030853
:1038A00010B5144C236823B3134B144A1B6C1188B6
:1038B0008B4213D1124B198803F0CCF8226892F88E
:1038C0006A30013382F86A30FEF7CCFD206816F0CA
:1038D00071F80020BDE81040FEF7EABB03F0BAF82B
:1038E000206803681B6A98470020BDE81040FEF777
:1038F00005BC10BD34730120006801405A37002018
:10390000583700202DE9F74304464FF4707894F8B7
:103910003A304FF0FF31002B31D0606D05F048F99F
:10392000276BA36ABB4200D1676B266A656856B3F2
:103930002B68314628465B6A98470023236284F847
:103940003B30606D05F064F92B684FF4F072394636
:10395000CDF8008028465E694FF48873B0474FF079
:10396000FF310646606D05F023F994F83B30E3B172
:10397000002384F83B30606D05F04AF9C7E7206DFD
:1039800005F0C6F9C3E7636A002BDAD02B68284636
:10399000D3E909939847616A01442846C847A36858
:1039A000626A66621344A360CBE7E7625EB12B688C
:1039B00028469B6A984701380023E06084F83C6001
:1039C00084F83A30D7E70120F6E70000014808B54F
:1039D000FFF798FF003700200368042270B5044603
:1039E0005E6A00230D46B0474FF0FF31606D05F071
:1039F000DFF8382303FB0542D16A09B10021D16207
:103A000003FB0545012385F83B30002385F8393059
:103A1000606DBDE8704005F0FBB838B500EB810380
:103A200004460D46114658680368DB6898472946E6
:103A30002046FFF7D1FF38BD70B50D46114604464C
:103A400000EB85025068026896681A46B04729461E
:103A50002046FFF7C1FF70BD38B51649002516484E
:103A6000FEF77CFF154C164B01202A4629462360A1
:103A70004FF48073A564A38784F84C0084F83E500B
:103A8000C4E91055C4E91455C4E90155C4E9035506
:103A9000C4E90555C4E90755C4E90955C4E90B55FE
:103AA000C4E90D5505F0DEF82065284605F03CF820
:103AB000606538BD18380020983F0020003700208E
:103AC000647C0308704710B5044604212EF00DFDF8
:103AD000204610BD012908B506D0022908D059B9E1
:103AE00000F0B2FE006808BD00F0AEFE4068FAE7E4
:103AF00000F0AAFE8068F6E70020F4E7004870476F
:103B0000B07C03080320704713B5002451B103684B
:103B100001AA01948DF803409C680DF10303A047AE
:103B200002B010BD0846FBE7C0897047008A7047A5
:103B3000C088704780887047807A00F07F007047A7
:103B4000807AC00970470020704700009FED010A8D
:103B5000704700BF00000000704710B50446082100
:103B60002EF0C3FC204610BD7047704700F59873D7
:103B70000868496803C370477047704741607047E1
:103B800070470000064BC0F84801C0F84C310023D4
:103B9000C0F8503100F5A273C0F84031704700BF43
:103BA000493C00080123037270477047704710B406
:103BB00041680346C2689B68541001EB6200D2075B
:103BC00048BF0A595DF8044B48BFD35818474368AB
:103BD0002BB183682BB9C06800F00100704718460C
:103BE00070470120704710B504460C212EF07DFC73
:103BF000204610BD10B5044610212EF076FC20465C
:103C000010BD10B504464FF4AE712EF06EFC204688
:103C100010BD10B51BF0E8FF0368BDE81040DB6B7A
:103C2000184710B50446D0F8400158B10368DB6866
:103C3000984738B1D4F8400103689B68984700233F
:103C4000C4F8403110BD00002DE9F14FD0E9555ABC
:103C50000746A86803681B6A984742F233039842F4
:103C600005D8464BA321464A46482FF085FB686895
:103C700003681B6A98470F2803D8434BA421404A86
:103C8000F2E7E86803681B6A98470B2803D83F4BA4
:103C9000A5213B4AE8E7DFF8FC901BF0A5FF0430C4
:103CA0001BF0E0FFD9F8000010B10368DB6898470B
:103CB000D9F8000010B103681B689847DFF8D88076
:103CC000D8F8000010B103685B699847D7F83C0149
:103CD00010B103685B689847D8F8000010B103681A
:103CE0001B689847D7F83C0110B103689B68984758
:103CF000E86800214FF0000B03685B6A9847244B8B
:103D00000446C0F804B00360594680F808B0A868BB
:103D100003685B6A9847064601F02AF868685946C6
:103D200003685B6A98470546314600F0FBFFC9F817
:103D30000040C7F83C51C8F80060E5B12B1DCAF837
:103D4000003030463368C5F808A0DB68F563984753
:103D50002B6828461B689847214630461EF00AF813
:103D6000236820461B699847236820465B6901B099
:103D7000BDE8F04F18472B46E1E700BFFC7C030885
:103D80008A7D03088E7E0308D57E0308787F0308AA
:103D9000908003087C73012078730120044B1B681A
:103DA00093F858200AB1D86C00B99868704700BFE2
:103DB00034730120F8B5044617460E461CF024F86B
:103DC000104B00251C6029460F4B23600F4BC4E9A4
:103DD00051350F4B1868C4E953550368C4E94F5572
:103DE0009B68C4E955769847284600F0E1FCFFF748
:103DF000D5FF26F0D8FAFFF7D1FF26F04FFB20467B
:103E0000F8BD00BF887301203C80030824800308AC
:103E100034730120064BC0F84801C0F84C31002330
:103E2000C0F8503100F5A273C0F84031704700BFB0
:103E3000493C0008406A7047806A704770478B8829
:103E4000C069DB0A0A6850F823001044704710B5B7
:103E5000C2B1137BB3B1547BD27A240204F4E06480
:103E60001443026A98B202EB840213888B4202D197
:103E700092F9020010BD05D80138043280B2002842
:103E8000F3D1F7E70020F5E710B504462C212EF01A
:103E90002CFB204610BD000030B58BB00446BDF8A9
:103EA00060500895BDF85C5007959DF850500695F8
:103EB0009DF84C5005959DF8485004959DF8445048
:103EC00003959DF8405002959DF83C500195BDF832
:103ED000385000951DF0FAFA064B20462360159BDA
:103EE000E361169B2362199B63621A9BA3620BB06A
:103EF00030BD00BFB48003087047704770477047FB
:103F0000704730B585B00368044601816D460146AF
:103F1000D3F884303C342846984795E8070084E875
:103F2000070005B030BD30B585B003680446418157
:103F30006D460146D3F884303C342846984795E8CE
:103F4000070084E8070005B030BD002202804280EF
:103F50008280C280704780F836107047036870B561
:103F600004461B6B154698472368204629465B6E1E
:103F7000BDE87040184700207047806C704770475C
:103F8000704710B504464C212EF0AFFA204610BD04
:103F9000034B10B50446036019F01EFD204610BD0A
:103FA000E8820308074B07B50360019019F014FD80
:103FB000019842F234012EF098FA019803B05DF8AE
:103FC00004FB00BFE882030808B5FFF75FFA08BDED
:103FD000036870B55E6B0446114B8DB21B682BB93C
:103FE000104B6C21104A11482FF0C6F91049828DF0
:103FF0000988914203D80F4B6D210B4AF3E713F860
:1040000012200D4B1B6853F8220003681B6B984766
:10401000281A334601B22046BDE87040184700BF59
:104020008C730120148103085681030891810308D1
:1040300090730120D88103089473012000224FF06F
:10404000FF318260C0E900217047036870B5044603
:104050001B6B154698472368204629465B6BBDE8D5
:104060007040184770B504461D46BDF91060FFF753
:10407000ECFF2368294620469B6B9847236831460E
:104080002046DB6BBDE87040184700004FF480719C
:10409000002281840C49026301600C49028781621D
:1040A0004FF6FF71C26381854FF47F0141634FF08A
:1040B000FF31C0E90122C0E90322C0E90522C0E9BD
:1040C0000722C0E91012704778AD0308F47C03089A
:1040D0002DE9F04F04460025614EA24604F16C091B
:1040E00004F1980804F5BE7B271D2DED048B89B0E3
:1040F0001DF094FC5B4BE56306A94AF8403B48463B
:10410000594B2566A566C4E910354FF48073A4F8B1
:104110006430FF2384F866304FF6FF73C4E912550C
:10412000C4E91455C4E91655ADF8183017F04EFF20
:104130004046FFF7ABFF04F1E403C4F8986018466B
:10414000C4F8E05008EE103AFFF7A0FF04F59873AA
:10415000C4F8E460C4F82C51184608EE903AFFF712
:1041600095FFC4F830615846C4F8785114F0F6F859
:1041700004F5247304F53676184609EE103AFFF775
:1041800085FF304614F0F8F904F57673184609EE09
:10419000903AFFF7F9FA354B4FF4E15104F212402F
:1041A000C4F8D8332433C4F8E453C4F8E03319F026
:1041B00009FC4FF488732A465046294600934FF471
:1041C000F073FFF74FFF4FF07F4351463846A36629
:1041D0000DF1080A14F0B8FB484606A9ADF81850CE
:1041E00018F0FFFC4FF488732A464846294600938E
:1041F0004FF4F073FFF736FF4846294617F0A1FE4B
:104200004946384604F57B7914F09EFB252210219F
:104210004046FFF71AFF4FF0FF3341465046C4F8BF
:10422000C830D4F89830A4F8CC50D3F884309847EC
:1042300004F1D4039AE8070083E807000C4B1B68DD
:104240002BB90C4B60210C4A0C482FF095F80C4B05
:104250001B88042B18D80B4B6121074AF4E700BFD9
:1042600058820308E882030808AE0308C4AA0308BA
:104270008C730120148103081682030891810308BE
:1042800090730120D8810308A64B0421186800F020
:10429000CBFAA54A0346062148461FF0D9FC404602
:1042A000C4F8E09018F0B6FBDFF890924FF00702E8
:1042B000404606A9CDF81890ADF81C2018F0CAFBAE
:1042C0004146384614F040FB7C220C2118EE100ABF
:1042D000FFF7BBFE4FF0FF32D4F8E43018EE101AAF
:1042E0005046C4F81421D3F8843004F57E78A4F83D
:1042F0001851984704F590739AE8070083E807007F
:104300008A4A1368002B9CD089490B88032BA2D9B9
:10431000844B0321186800F087FA834A034606217C
:1043200040461FF095FC18EE100AC4F82C8104F2E8
:10433000044818F06FFB06A80623CDF81890014634
:1043400018EE100AADF81C3018F084FB18EE101AA5
:10435000384614F0F9FACB222E2118EE900AFFF716
:1043600074FE4FF0FF30D4F8303118EE901AC4F8D4
:1043700060015046D3F88430A4F86451984704F59E
:10438000B6739AE8070083E80700684A1368002BB1
:104390003FF457AF66490B88022B7FF65CAF614B49
:1043A0000221186800F040FA5F4A034607214046A0
:1043B0001FF04EFC18EE900AC4F878814FF0010807
:1043C00018F028FB052306A918EE900AADF81C305A
:1043D000CDF8189018F03EFB18EE901A384614F0FD
:1043E000B3FA5846492240F21111FFF72EFE1E2360
:1043F00058463C2200930A21822313F091FF642245
:104400002B4629465846009514F0EAF85846494983
:1044100013F009FF06A95846CDF81890ADF81C8096
:1044200013F026FF022306A95846ADF8183014F001
:104430001EFA58463C2113F027FF5946384614F01F
:1044400083FA0D2219EE100A40F20911FFF7FDFD63
:104450004FF07F4319EE101A5046C4F8C032A4F84A
:10446000C45218F05DF804F533739AE8070083E846
:10447000070006A919EE100ACDF81890ADF81C50E7
:1044800018F0E8FA19EE101A384614F05DFA3046C2
:104490003522FD21FFF7D9FDBE232A4629463046A5
:1044A000009314F00EF82B462946304664220095FE
:1044B00014F096F85F223046114613F0A8FF3046FC
:1044C000552113F0CEFF3046142113F0D0FF4FF4E6
:1044D000B4722946304614F03CF83046B42113F04B
:1044E000CDFF06A93046ADF8188014F0C0F9124B84
:1044F00019EE901A3046C4F8E4334FF6E253A4F8AC
:10450000E83313F081FF30463C2114F007F83846B9
:10451000314614F019FA204609B0BDEC048BBDE811
:10452000F08F00BF98730120C89B03088C73012093
:10453000907301204AC0FFFF17BDFEFFF47C030803
:104540007047000030B5164D8FB02C68BFF35B8FFD
:1045500014F0010420D128462DF0C9FFE0B13F231B
:10456000012210490993104B10480893104B0A94EC
:104570000594CDE906430423CDE903320A23CDE9AE
:104580000B440093CDE90144FFF786FC09482EF067
:1045900011FF28462DF0B7FF04480FB030BD00BF13
:1045A000E03F002090C60890F4BA0308E43F0020E2
:1045B000DCBE0308414500087047000030B5184DC7
:1045C0008FB02C68BFF35B8F14F0010425D128460F
:1045D0002DF08DFF08B33F23072212490993124B98
:1045E00012480893124B0A9407930C23CDE9053225
:1045F00001230422CDE90134CDE90323142340F241
:104600006D3200931B23CDE90B44FFF745FC0948AD
:104610002EF0D0FE28462DF076FF04480FB030BDB6
:1046200010400020A0C60890F8BA030814400020EB
:10463000E0BE0308B94500087047000030B5164DCC
:104640008FB02C68BFF35B8F14F0010421D1284692
:104650002DF04DFFE8B13F23012210490993104B83
:1046600010480893104B0A940594CDE9064304239F
:10467000CDE903321E230E220093CDE90B44CDE990
:104680000144FFF709FC09482EF094FE28462DF05E
:104690003AFF04480FB030BD4040002098F6089023
:1046A000D8BE030844400020F8BE0308394600087D
:1046B00000207047002070470EB403B503AB002103
:1046C00053F8042B01931CF027FA02B05DF804EBB9
:1046D00003B070470CB407B504AB53F8042B019337
:1046E0001CF01AFA03B05DF804EB02B0704700004A
:1046F00010B504461DF0F6FBE38E04EB430358842B
:10470000636C5BB3238F2BB9174BC521174A18482D
:104710002EF032FE10B320461EF0E6FC238F012B54
:1047200003D8144BCB21144AF1E7E28E40F63F1038
:10473000531C9BB2092B194688BFA3F10A0104EB55
:104740004101498C814209D10A2B04EB420228BF66
:104750000023508C04EB4303588451842046BDE869
:1047600010401EF0C3BB00BF148303081D83030861
:10477000C8830308128403082084030810B5044684
:104780001EF07DFB2046BDE810401DF0A7BB10B514
:1047900086B002AC84E806001A460AAB21460593AF
:1047A0000193099B0093089B1AF087FD06B010BD8A
:1047B00038B518BB124B13481C681349B4B12268B2
:1047C00022440260626822440A60A26814440F4BCB
:1047D00000221A8000F038F8054600F033F80C4B40
:1047E0001C600C4B1D600C4B188007E00B4B0360EA
:1047F0000B4B0B600B4B1C68002CE8D138BD00BF85
:104800007040002074400020784000207C40002050
:104810008C73012094730120907301207CF7089021
:104820005CF708900CF80890044B1B6853F82100C3
:10483000034B1B6803EB4000704700BF784000202B
:1048400074400020082070470048704780400020D6
:1048500010B5054CFFF7B2FE2060FFF7EFFE606079
:10486000FFF770FEA06010BD8040002010B500244E
:1048700004600C6014601C6010BD704710B50446E5
:104880004FF4AE712DF031FE204610BD10B5044638
:10489000D0F8580100F0A0F92046BDE810401BF008
:1048A0003FBA000010B50446FFF784FA014B2046DA
:1048B000236010BDFC8403080949002241600949B6
:1048C0000260816008490262C160642110B5016123
:1048D000002442613C228461C16180F8242010BD23
:1048E000000028410000D04000401C462DE9F04166
:1048F0002DED048B9FED238A84B000270646F0EE51
:10490000489A4FF47A74B0EE489A4FF001081E4D61
:1049100003970523694628460293CDE9007800F005
:1049200009FF08B1FCF70CFF2846013C00F016FE19
:104930000A212846A4B200F0A6FE284600F0F7FEA1
:1049400008EE900A284600F083FEF8EE688AF7EE3B
:10495000007A79EEA89A38EE278A002CD9D1C9EED0
:10496000887A9FED0A7AB0EE490A67EE877A9FED62
:10497000087AA7EE870A86ED010A04B0BDEC048B25
:10498000BDE8F08100000000DC020020295C6242EA
:1049900000008039000000002DE9F0412DED048B6E
:1049A0009FED3D8A84B000230646B0EE489A4FF44E
:1049B0007A7408274FF00108384D039305236946A0
:1049C00028460293CDE9007800F0B4FE08B1FCF768
:1049D000B7FE2846013C00F0C1FD0A212846A4B2DA
:1049E00000F051FE284600F0A2FE08EE900A28468C
:1049F00000F02EFEF8EE688AF7EE007A39EE289A7B
:104A000038EE278A002CD9D118EE100AFBF7BCFD2E
:104A100002460B4622482FF0D7FAC9EE087A17EE65
:104A2000900AFBF7B1FD04460D4602460B461D48B1
:104A30002FF0CAFA2046294615A3D3E90023FBF735
:104A4000FBFDFCF7D1F808EE100AFBF79DFD0246CE
:104A50000B4615482FF0B8FADFED147A9FED147A63
:104A600038EE678ADFED136AC8EE077A9FED127A97
:104A700077EE877A67EEA67A87EEA60A30EE470AC7
:104A800086ED020A04B0BDEC048BBDE8F08100BFE6
:104A90003005533005914A3F00000000DC02002041
:104AA00048850308588503086B850308A470C53F33
:104AB000EFC9C33C000049430000C84270B5084D2F
:104AC0000446084E00222946304603F0DEF9002253
:104AD0000549304603F0FCF9A87884F8250070BD3C
:104AE000C0020020D0040020BC0200200000000012
:104AF000D0B504462DED028BFFF7E0FF94F824308B
:104B000084F8250083424FD04FF07E532046A361A6
:104B1000FFF742FFD4ED067AB0EE408A60EE277AC6
:104B200017EE900AFBF730FD29A3D3E90023FBF72A
:104B3000ADFEFCF759F8D4ED037A07EE100A002316
:104B400077EE277A9FED207A636184ED067AF4EEA2
:104B5000C77AF1EE10FA2CD49FED1C7AF4EE477A66
:104B6000F1EE10FA77FE277A18EE100AC4ED037AF8
:104B7000FBF70AFD06460F460FA3D3E90023FBF718
:104B8000EBFF58B1304639460DA3D3E90023FBF7BC
:104B9000C5FFDFED0D7A002808FE278A94F825303E
:104BA00084ED028A84F8243094ED030ABDEC028B74
:104BB000D0BDF0EE477AD7E7333333333333C3BF57
:104BC000333333333333C33F0000000000401C460F
:104BD000CDCCCCCCCCCC0C4010B52DED028B04460A
:104BE000FFF784FE10EE100AB0EE408AFBF7CCFC13
:104BF0002EA3D3E90023FBF791FFDFED257A0028F0
:104C0000204608FE278A84ED018AFFF771FFDFED59
:104C1000217A84ED030A30EE670ADFED1F7A9FEDFB
:104C20001F7A94F8251020EE270A1D48C0EE077A57
:104C30009FED1C7A77EE877AFDEEE77AC4ED047A71
:104C40002FF0C2F9E068FBF79FFC0B4602461648BE
:104C50002FF0BAF9206894ED010A03689B68984721
:104C6000206894ED020A0368DB689847206894ED99
:104C7000030A03681B699847206821690368BDEC33
:104C8000028B5B69BDE81040184700BFAFF300809E
:104C90000000000000541C460000C6C200501CC6A4
:104CA000838503080000C842938503089A9999995F
:104CB0009999C93F7047043870477047C0680368C6
:104CC000DB6A1847A0F10400FFF7F8BFC06803686B
:104CD0001B6B1847A0F10400FFF7F8BFC06803681A
:104CE0005B6B1847A0F10400FFF7F8BF70B50446EE
:104CF000C0680D4603689B6B9847E06829460368C7
:104D0000BDE87040DB6B1847A0F10400FFF7EEBF71
:104D100010B5044610212DF0E8FB204610BDA0F18F
:104D20000400F5E70022C1608260044A10B502F178
:104D3000080430320460426010BD00BF9C85030847
:104D400070470000034B10B504460360FFF720F9DD
:104D5000204610BDF885030810B50446FFF7F2FFA2
:104D600042F2340120462DF0C0FB204610BD000069
:104D700010B50446FFF7ACF9014B2046236010BD87
:104D8000F8850308FFF7FBB813B5044601AB074AE3
:104D9000062100F57B708DED010A1FF057F904F133
:104DA000980002B0BDE810401BF0BEBFE4850308C8
:104DB00013B5044601AB074A062100F57E708DED60
:104DC000010A1FF043F904F1E40002B0BDE810400D
:104DD0001BF0AABFE985030813B5044601AB074AD7
:104DE000072100F204408DED010A1FF02FF904F5B0
:104DF000987002B0BDE810401BF096BFE98503082B
:104E000000F5BE7013F040BA00F5367013F086BBA3
:104E100030B5044687B0C8B90D4B022501A90D482D
:104E20001A6B42F480721A631B6B03F48073009355
:104E3000009B0123CDE9015303930323049300F066
:104E400071FF22462946034801F0F4F807B030BD4F
:104E5000003802400020024018B90221014801F048
:104E6000EEB870470020024000B54FF4807295B054
:104E70004FF0807103460C9205220F91012106929A
:104E8000002201910B92139200920B48CDE903127C
:104E9000CDE90D22CDE91122102206A902924FF48C
:104EA000800205926A4601F0BFFF003818BF01205A
:104EB00015B05DF804FB00BF8C40002000B54FF436
:104EC000807395B041F2883217480C93062306A9E7
:104ED00006930023CDE90D330F930B931393CDE984
:104EE000113301F05EFFE0B9022301224FF480018B
:104EF00004900D48CDE900331023CDE9023205239B
:104F00006A46CDE905134FF0807306A90F9341F26D
:104F1000883301F089FF003818BF012015B05DF813
:104F200004FB0120FAE700BF8C40002000B54FF4DD
:104F3000807391B04FF040720E480893EB2302A9A2
:104F400002934FF4406309934FF4005305930023F9
:104F5000CDE90A320A220F9307926A46CDE90D3352
:104F6000CDE9003301F0B0FF003818BF012011B0C7
:104F70005DF804FB8C400020454B012145489A6BAD
:104F800042F00202F0B59A638DB09A6B09240427AF
:104F9000002602F00202404D0092009A9A6942F007
:104FA00002029A619A6922F002029A611A6B42F037
:104FB00002021A631A6B02F002020192019A1A6B42
:104FC00042F002021A631A6B02F002020292029A83
:104FD0001A6B42F008021A631A6B02F0080203927D
:104FE000039A1A6B42F008021A631A6B02F0080265
:104FF0000492049A1A6B42F010021A631A6B02F0C0
:1050000010020592059A1A6B42F008021A634022B8
:105010001B6B03F008030693069B0223CDE90723CD
:105020000323CDE909130A2307A90B9300F07AFEA5
:1050300007A91848079709960B9400F073FE4FF4E0
:10504000006307A928460B94079300F06BFE4FF40A
:10505000805307A928460B94079300F063FE07A925
:105060000E4807970B9400F05DFE4FF4005307A91C
:1050700028460B94079300F055FE32460F215C2022
:1050800000F016FC5C2000F045FC0DB0F0BD00BF48
:105090000038024000040240000C024000100240B0
:1050A000F0B5494C91B0494B2046236001F066FEB3
:1050B000054610B1012011B0F0BD01462046FFF7B2
:1050C0005BFF012604234FF08077C4E901631023BE
:1050D000E36097FAA7F3B3FA83F32046013B236119
:1050E0004FF4A063C4E90755C4E9053501F0F2FDAA
:1050F0000028DFD14FF4807566230B9041F288328F
:10510000079002A90F9008950293CDE90900CDE917
:105110000D00204601F045FE08B10420CBE799239D
:1051200041F2883202A92046029301F03AFE00289B
:10513000F3D141F28830FFF797FE0028EDD18523A7
:10514000079041F2883202A9089502930B97CDE9A6
:105150000900CDE90C60CDE90E00204601F021FEEA
:105160000028DAD141F288320DF10701204601F022
:1051700091FF0028D1D1FFF7A1FE0028CDD18123D6
:10518000F022029392FAA2F20A219DF80730B2FAB5
:1051900082F2204603F00F0301FA02F202A9134340
:1051A00041F288328DF8073001F0FBFD0028B4D1C0
:1051B00041F288320DF10701204601F00FFF00286F
:1051C0003FF479AFA9E700BF8C400020001000A099
:1051D0000F490020D1F8883043F47003C1F88830BB
:1051E0000C4B1A6842F001021A6098601A6822F0AB
:1051F000847222F480321A60074A5A601A6822F4D4
:1052000080221A60D8604FF000638B60704700BF47
:1052100000ED00E00038024010300024704700200C
:1052200070470000002337B58DF807300D4B1A7812
:105230000AB901221A700324C5B2013CA8212846EC
:10524000FCF71AFF14F0FF048DF807009DF80730F3
:10525000DBB203D19DF8070003B030BD512BECD178
:10526000F8E700BFDA40002013B500240221C0B2E5
:105270008DF80740FCF700FF8DF807009DF8073018
:1052800003F00F038DF807309DF80730052B01D987
:105290008DF807409DF80720034B9DF807005A70D2
:1052A00000229A7002B010BDDA4000202DE9F74FBD
:1052B0002F4C15464FF000080F46A37862788DF802
:1052C00007809A424DD9092B4ED803EB43035B006C
:1052D000DBB2191D03F1030B03F1060A0533C9B252
:1052E0005FFA8BFB5FFA8AFA5FFA83F8C6B2DFF8DF
:1052F00084903046FCF7C0FE8DF807009DF807301B
:1053000059463046A9F80030FCF7B6FE8DF8070084
:1053100051469DF807303046B9F800201B0203F4CF
:10532000706313433B80A9F80030FCF7A5FE8DF8AD
:10533000070041469DF807303046A9F80030FCF7D9
:105340009BFE8DF807009DF80730B9F800201B027E
:1053500003F470631343A9F800302B80A378013362
:10536000A37003B0BDE8F08FC246C3464146BDE717
:10537000DA400020D84000200122A421C0B2FCF76E
:1053800061BE0022A421C0B2FCF75CBEFFF7F9BFEA
:1053900070470000024B1A780AB901221A70704750
:1053A000DA400020074A032008B5136843F48073ED
:1053B000136000F06BFA0020FCF7DEFCFCF7C2F98A
:1053C000002008BD003C0240034A044B11681B78D2
:1053D0000B441360704700BFE040002038000020FD
:1053E000014B1868704700BFE040002038B5044604
:1053F000FFF7F6FF0546631C1EBF044B1B78E4183D
:10540000FFF7EEFF431BA342FAD338BD380000205C
:1054100038B50446002800F09B80056C25B9FCF7E0
:10542000AFF9656484F83C50236CDB0600F18E8094
:10543000236C23F4885323F0020343F00203236414
:10544000444B5A6822F440325A605A6861680A43F1
:105450005A60236821695A6822F480725A605A6837
:1054600042EA0122A1685A605A6822F040725A60EA
:105470005A680A43E1685A609A6822F400629A60A6
:105480009A680A4334499A60A26A8A4252D099685B
:1054900021F07061996099680A43E16A9A609A689C
:1054A00022F040529A609A680A439A609A68A16909
:1054B00022F002029A609A6842EA41029A6094F8E5
:1054C0002020002A3ED05A68616A42F40062013905
:1054D0005A605A6822F460425A605A6842EA41327D
:1054E0005A600020DA6AE16922F470020139DA6256
:1054F000DA6A42EA0152DA629A6822F400729A6029
:105500009A6894F8301042EA412261699A609A6878
:1055100022F480629A609A6842EA81229A6060640A
:10552000236C23F0030343F001032364002384F876
:105530003C3038BD9A6822F070629A609A6822F016
:105540004052B2E75A6822F40062C9E70120EDE751
:105550000120EEE7002301400100000F002382B08C
:10556000019390F83C30012B66D00123026880F84B
:105570003C309368D9070CD5936813F001031AD116
:10558000026C42F010020264426C42F0010242647A
:1055900038E09368294943F001039360284B1B6866
:1055A000B3FBF1F303EB43030193019B002BE3D027
:1055B000019B013BF8E7036C23F4E06323F0010354
:1055C00043F48073036453685B0505D5036C23F4CF
:1055D000405343F480530364036C13F4805302D0AC
:1055E000436C23F0060343640023164980F83C30E3
:1055F0006FF0220313604B68D80606D1906810F054
:10560000405014D0002002B070470F4B9A4207D18F
:10561000936813F0405F03D1936843F08043936035
:105620004B68DB06EED4094B9A42EBD1E6E7936870
:1056300043F080439360E6E70220E4E740420F0036
:105640000C00002000230140002001400022014006
:1056500090F83C30012B14D003689A6822F00102C4
:105660009A609B68DB0707D4036C23F4885323F00C
:10567000010343F001030364002380F83C30184623
:1056800070470220704703689A6870B55605044653
:105690000D460BD59B68D80508D5236C012043F037
:1056A00020032364002384F83C3070BDFFF798FE8C
:1056B000064623681A6892070CD56FF012021A602A
:1056C000226C42F4007222649A6812F0405F17D094
:1056D0000020EAE7691CEDD065B923681B6813F068
:1056E0000203E6D1226C032084F83C3042F004022D
:1056F0002264DAE7FFF774FE801BA842EDD8D8E7F2
:10570000A269002AE4D1DA6A12F4700F02D09B6811
:105710005B05DDD4236C23F480732364206C10F4C8
:105720008050D5D1236C43F001032364BDE70368A7
:10573000D86C70470023F7B5019390F83C30012BEB
:1057400077D0012380F83C300C680368A5B2092C9F
:105750008E6805EB45023AD9B4F1004F37D01E3AB6
:105760004FF0070CDF680CFA02FC27EA0C07DF6039
:10577000414FBC4226D1DA6842EA0662DA604968E3
:10578000062901EB81022FD8053A1F26596B964056
:1057900005FA02F221EA06015963596B0A435A637A
:1057A000364A934208D1B4F1004F44D1D2F80433C1
:1057B00023F44003C2F80433002380F83C30184639
:1057C00003B0F0BDDF6806FA02F23A43D6E74FF0C5
:1057D000070C1F6996400CFA02FC27EA0C071F61B0
:1057E0001F693E431E61CAE70C294FF01F010BD809
:1057F000233A1E6B914005FA02F226EA0101196371
:10580000196B0A431A63CBE7413ADE6A914095402F
:1058100026EA0101D962D96A0D43DD62C0E7184B5F
:105820005A6822F400025A605A6842F480025A60B0
:10583000C2E70220C4E7122CF1D00F4B9C4201D0EA
:10584000112CB9D10E4B5A6822F480025A605A6862
:1058500042F400025A60084B9C42ADD1094B0A4AFF
:105860001B68B3FBF2F30A2253430193019B002B05
:10587000A2D0019B013BF8E712000010002001407C
:10588000002301400C00002040420F0007490302A2
:10589000CA6803F4E06322F4E0621204120C1343BA
:1058A00043F0BF6343F40033CB60704700ED00E08A
:1058B000164B30B5DC68C4F30224C4F10703251D80
:1058C000042B28BF0423062D4FF0FF358CBF033C6B
:1058D000002405FA03F3002805FA04F521EA03037E
:1058E00022EA050203FA04F343EA02034FEA031330
:1058F000DBB206DB00F1604000F5614080F8003368
:1059000030BD00F00F00024A1354F9E700ED00E04B
:1059100014ED00E0002807DB4109012300F01F001F
:10592000024A834042F82130704700BF00E100E0A6
:1059300000280CDB4309012200F01F00044920333A
:10594000824041F82320BFF34F8FBFF36F8F704722
:1059500000E100E0BFF35F8F044B5A6A22F480320B
:105960005A620022C3F89420704700BF00ED00E0A7
:10597000064B40F00100C3F894005A6A42F48032AA
:105980005A62BFF34F8FBFF36F8F704700ED00E097
:105990004378144A10B5C2F898300178E9B14368E9
:1059A000C2F89C30C37A047B1B0643EA04730B43A2
:1059B000817A43EAC143417B43EA8143817B43EAE5
:1059C0004143C17B43EA0143417A43EA0123017A1F
:1059D00043EA4103C2F8A03010BDC2F89C10C2F8DF
:1059E000A010F9E700ED00E010B5044608B9012069
:1059F00010BD437F03F0FF0213B90277FBF704FFEA
:105A0000022363772379E3B92368134A5A619A68BA
:105A100022F018029A6062792368D2B94FF0FF32FF
:105A20001A6100209A68616922F060020A43A16944
:105A30009A609A6822F080020A439A600123637791
:105A4000D6E7D4E90212204600F008F80028E2D098
:105A5000CDE72269E4E700BFB71DC1041F2310B5DD
:105A6000013B1CD321FA03F4E407F9D5102A12D024
:105A700004D83AB1082A10D001200BE0182AFBD133
:105A8000062BF9D800684161836823F0180313439B
:105A90008360002010BD072BF3E70F2BF1E7002AEE
:105AA000EAD1EFE770B50446866DFFF799FC05462D
:105AB00094F83530022B06D0802301206365002343
:105AC00084F8343070BD23681A6822F016021A6018
:105AD0005A6922F080025A61226C0AB9A26C1AB18A
