:020000040800F2
:1000000000000520F11D00080D1D00080F1D00084F
:10001000111D0008131D0008151D00080000000038
:10002000000000000000000000000000E18B00085C
:10003000171D000800000000818C0008E58C0008F6
:10004000411E0008411E0008411E0008411E000814
:10005000411E0008411E0008411E0008411E000804
:10006000411E0008411E0008411E0008411E0008F4
:10007000411E0008411E0008411E0008411E0008E4
:10008000411E0008411E0008411E0008411E0008D4
:10009000411E0008411E0008411E0008411E0008C4
:1000A000411E0008411E0008411E0008411E0008B4
:1000B000411E0008411E0008411E0008411E0008A4
:1000C000411E0008411E0008411E0008411E000894
:1000D000411E0008411E0008411E0008411E000884
:1000E000411E0008411E0008411E0008411E000874
:1000F000411E0008411E0008411E0008411E000864
:10010000411E0008411E0008411E0008411E000853
:10011000411E0008411E0008191D0008411E00086C
:10012000411E0008411E0008411E0008411E000833
:10013000411E0008411E0008411E0008411E000823
:10014000411E0008411E0008411E0008411E000813
:10015000411E0008411E0008411E0008411E000803
:10016000411E0008411E0008411E0008411E0008F3
:10017000411E0008411E0008411E0008000000004A
:10018000411E0008411E0008411E0008411E0008D3
:10019000411E0008411E0008411E0008411E0008C3
:1001A000251D0008411E0008311D0008411E0008E1
:1001B000411E0008411E0008411E0008411E0008A3
:0801C000411E0008411E000869
:1001D00010B5054C237833B9044B13B10448AFF381
:1001E00000800123237010BD900200200000000059
:1001F000244A030808B5034B1BB103490348AFF376
:10020000008008BD0000000094020020244A03087A
:1002100001F0FF01102A2BDB10F0070F08D010F8B7
:10022000013B013A8B422DD010F0070F42B3F6D1BB
:10023000F0B441EA012141EA014122F007047FF0D4
:1002400000070023F0E80256083C85EA010586EA2B
:10025000010685FA47F5A3FA87F586FA47F6A5FA67
:1002600087F68EB9EED1F0BC01F0FF0102F0070273
:1002700032B110F8013B013A83EA010313B1F8D11E
:100280000020704701387047002D06BF35460338FF
:10029000073815F0010F07D1013015F4807F02BF38
:1002A000013015F4C03F0130F0BC0138704700BF89
:1002B000034613F8012B002AFBD1181A01387047A6
:1002C00081F0004102E000BF83F0004330B54FEA07
:1002D00041044FEA430594EA050F08BF90EA020F74
:1002E0001FBF54EA000C55EA020C7FEA645C7FEA07
:1002F000655C00F0E2804FEA5454D4EB5555B8BF2A
:100300006D420CDD2C4480EA020281EA030382EA9A
:10031000000083EA010180EA020281EA0303362D2C
:1003200088BF30BD11F0004F4FEA01314FF4801CFF
:100330004CEA113102D0404261EB410113F0004F11
:100340004FEA03334CEA133302D0524263EB4303C8
:1003500094EA050F00F0A780A4F10104D5F1200E66
:100360000DDB02FA0EFC22FA05F2801841F10001C1
:1003700003FA0EF2801843FA05F359410EE0A5F195
:1003800020050EF1200E012A03FA0EFC28BF4CF0C6
:10039000020C43FA05F3C01851EBE37101F000457C
:1003A00007D54FF0000EDCF1000C7EEB00006EEB89
:1003B0000101B1F5801F1BD3B1F5001F0CD3490813
:1003C0005FEA30004FEA3C0C04F101044FEA44526A
:1003D00012F5800F80F09A80BCF1004F08BF5FEAF1
:1003E000500C50F1000041EB045141EA050130BDD1
:1003F0005FEA4C0C404141EB0101013C28BFB1F5E3
:10040000801FE9D291F0000F04BF01460020B1FA2D
:1004100081F308BF2033A3F10B03B3F120020CDA00
:100420000C3208DD02F1140CC2F10C0201FA0CF0DE
:1004300021FA02F10CE002F11402D8BFC2F1200C43
:1004400001FA02F120FA0CFCDCBF41EA0C019040F9
:10045000E41AA2BF01EB0451294330BD6FEA040442
:100460001F3C1CDA0C340EDC04F11404C4F120022D
:1004700020FA04F001FA02F340EA030021FA04F33F
:1004800045EA030130BDC4F10C04C4F1200220FA96
:1004900002F001FA04F340EA0300294630BD21FAD4
:1004A00004F0294630BD94F0000F83F4801306BF9A
:1004B00081F480110134013D4EE77FEA645C18BF8E
:1004C0007FEA655C29D094EA050F08BF90EA020F25
:1004D00005D054EA000C04BF1946104630BD91EA1D
:1004E000030F1EBF0021002030BD5FEA545C05D120
:1004F0004000494128BF41F0004130BD14F580045F
:100500003CBF01F5801130BD01F0004545F0FE41D2
:1005100041F470014FF0000030BD7FEA645C1ABF07
:10052000194610467FEA655C1CBF0B46024650EA3E
:10053000013406BF52EA033591EA030F41F400216A
:1005400030BD00BF90F0000F04BF0021704730B5F0
:100550004FF4806404F132044FF000054FF00001C5
:1005600050E700BF90F0000F04BF0021704730B586
:100570004FF4806404F1320410F0004548BF40425B
:100580004FF000013EE700BF42004FEAE2014FEAB0
:1005900031014FEA02701FBF12F07F4393F07F4F8B
:1005A00081F06051704732F07F4208BF704793F08E
:1005B0007F4F04BF41F40021704730B54FF46074A1
:1005C00001F0004521F000411CE700BF50EA0102A4
:1005D00008BF704730B54FF000050AE050EA01024D
:1005E00008BF704730B511F0004502D5404261EBBD
:1005F00041014FF4806404F132045FEA915C3FF4FE
:10060000D8AE4FF003025FEADC0C18BF03325FEA9A
:10061000DC0C18BF033202EBDC02C2F1200300FA4B
:1006200003FC20FA02F001FA03FE40EA0E0021FA70
:1006300002F11444BDE600BF70B54FF0FF0C4CF45E
:10064000E06C1CEA11541DBF1CEA135594EA0C0F10
:1006500095EA0C0F00F0DEF82C4481EA030621EA4B
:100660004C5123EA4C5350EA013518BF52EA033586
:1006700041F4801143F4801338D0A0FB02CE4FF038
:100680000005E1FB02E506F00042E0FB03E54FF068
:100690000006E1FB03569CF0000F18BF4EF0010E60
:1006A000A4F1FF04B6F5007F64F5407404D25FEA5C
:1006B0004E0E6D4146EB060642EAC62141EA55510F
:1006C0004FEAC52040EA5E504FEACE2EB4F1FD0C51
:1006D00088BFBCF5E06F1ED8BEF1004F08BF5FEACF
:1006E000500E50F1000041EB045170BD06F0004681
:1006F00046EA010140EA020081EA0301B4EB5C042E
:10070000C2BFD4EB0C0541EA045170BD41F4801125
:100710004FF0000E013C00F3AB8014F1360FDEBF4A
:10072000002001F0004170BDC4F10004203C35DA26
:100730000C341BDC04F11404C4F1200500FA05F3A9
:1007400020FA04F001FA05F240EA020001F000424A
:1007500021F0004110EBD37021FA04F642EB0601C0
:100760005EEA430E08BF20EAD37070BDC4F10C04EA
:10077000C4F1200500FA04F320FA05F001FA04F2AE
:1007800040EA020001F0004110EBD37041F100019A
:100790005EEA430E08BF20EAD37070BDC4F12005A5
:1007A00000FA05F24EEA020E20FA04F301FA05F20D
:1007B00043EA020321FA04F001F0004121FA04F2B5
:1007C00020EA020000EBD3705EEA430E08BF20EA85
:1007D000D37070BD94F0000F0FD101F000464000BF
:1007E00041EB010111F4801F08BF013CF7D041EA41
:1007F000060195F0000F18BF704703F00046520045
:1008000043EB030313F4801F08BF013DF7D043EA15
:100810000603704794EA0C0F0CEA135518BF95EACB
:100820000C0F0CD050EA410618BF52EA4306D1D152
:1008300081EA030101F000414FF0000070BD50EA71
:10084000410606BF1046194652EA430619D094EAFB
:100850000C0F02D150EA013613D195EA0C0F05D1E5
:1008600052EA03361CBF104619460AD181EA030139
:1008700001F0004141F0FE4141F470014FF00000F1
:1008800070BD41F0FE4141F4780170BD70B54FF08C
:10089000FF0C4CF4E06C1CEA11541DBF1CEA13550C
:1008A00094EA0C0F95EA0C0F00F0A7F8A4EB0504EE
:1008B00081EA030E52EA03354FEA013100F08880E5
:1008C0004FEA03334FF0805545EA131343EA1263AE
:1008D0004FEA022245EA111545EA10654FEA002663
:1008E0000EF000419D4208BF964244F1FD0404F51C
:1008F000407402D25B084FEA3202B61A65EB030578
:100900005B084FEA32024FF480104FF4002CB6EB34
:10091000020E75EB030E22BFB61A754640EA0C00B4
:100920005B084FEA3202B6EB020E75EB030E22BFF4
:10093000B61A754640EA5C005B084FEA3202B6EB35
:10094000020E75EB030E22BFB61A754640EA9C00F4
:100950005B084FEA3202B6EB020E75EB030E22BFC4
:10096000B61A754640EADC0055EA060E18D04FEA82
:10097000051545EA16754FEA06164FEAC30343EA22
:1009800052734FEAC2025FEA1C1CC0D111F4801FEF
:100990000BD141EA00014FF000004FF0004CB6E7E8
:1009A00011F4801F04BF01430020B4F1FD0C88BF87
:1009B000BCF5E06F3FF6AFAEB5EB030C04BFB6EB92
:1009C000020C5FEA500C50F1000041EB045170BD85
:1009D0000EF0004E4EEA113114EB5C04C2BFD4EBB2
:1009E0000C0541EA045170BD41F480114FF0000E36
:1009F000013C90E645EA060E8DE60CEA135594EAB2
:100A00000C0F08BF95EA0C0F3FF43BAF94EA0C0FB4
:100A10000AD150EA01347FF434AF95EA0C0F7FF429
:100A200025AF104619462CE795EA0C0F06D152EA7D
:100A300003353FF4FDAE1046194622E750EA410661
:100A400018BF52EA43067FF4C5AE50EA41047FF472
:100A50000DAF52EA43057FF4EBAE12E74FF0FF3CD7
:100A600006E000BF4FF0010C02E000BF4FF0010CA8
:100A70004DF804CD4FEA410C7FEA6C5C4FEA430C21
:100A800018BF7FEA6C5C1BD001B050EA410C0CBF70
:100A900052EA430C91EA030F02BF90EA020F0020D2
:100AA000704710F1000F91EA030F58BF994208BF39
:100AB00090422CBFD8176FEAE37040F001007047F6
:100AC0004FEA410C7FEA6C5C02D150EA013C07D14D
:100AD0004FEA430C7FEA6C5CD6D152EA033CD3D098
:100AE0005DF8040B704700BF8446104662468C4692
:100AF0001946634600E000BF01B5FFF7B7FF0028C5
:100B000048BF10F1000F01BD4DF808EDFFF7F4FFED
:100B10000CBF012000205DF808FB00BF4DF808ED78
:100B2000FFF7EAFF34BF012000205DF808FB00BF9B
:100B30004DF808EDFFF7E0FF94BF012000205DF8BD
:100B400008FB00BF4DF808EDFFF7CEFF94BF012072
:100B500000205DF808FB00BF4DF808EDFFF7C4FF6B
:100B600034BF012000205DF808FB00BF4FEA410CB4
:100B70007FEA6C5C02D150EA013C0AD14FEA430C97
:100B80007FEA6C5C02D152EA033C02D14FF00000D4
:100B900070474FF0010070474FEA410212F5001212
:100BA00015D211D56FF47873B3EB625212D94FEAB4
:100BB000C12343F0004343EA505311F0004F23FA9E
:100BC00002F018BF404270474FF00000704750EAF3
:100BD000013005D111F0004008BF6FF000407047B0
:100BE0004FF00000704700BF4FEA4102B2F1E0430E
:100BF00024BFB3F5001CDCF1FE5C0DD901F0004C04
:100C00004FEAC0024CEA5070B2F1004F40EB830053
:100C100008BF20F00100704711F0804F21D113F17F
:100C20003872BCBF01F00040704741F480114FEAB8
:100C30005252C2F11802C2F1200C10FA0CF320FA41
:100C400002F018BF40F001004FEAC1234FEAD3235E
:100C500003FA0CFC40EA0C0023FA02F34FEA4303C8
:100C6000CCE77FEA625307D150EA01331EBF4FF051
:100C7000FE4040F44000704701F0004040F0FE406C
:100C800040F40000704700BF7BB972B90029BEBFB5
:100C900000204FF0004106E008BF00281CBF6FF0A5
:100CA00000414FF0FF3000F0BBB9ADF1080C6DE929
:100CB00004CE002909DB002B1ADB00F04DF8DDF82B
:100CC00004E0DDE9022304B07047404261EB4101DA
:100CD000002B1BDB00F040F8DDF804E0DDE9022327
:100CE00004B0404261EB4101524263EB4303704761
:100CF000524263EB430300F02FF8DDF804E0DDE936
:100D0000022304B0404261EB41017047524263EB61
:100D1000430300F021F8DDF804E0DDE9022304B02C
:100D2000524263EB4303704753B94AB9002908BFE5
:100D300000281CBF4FF0FF314FF0FF3000F070B9BA
:100D4000ADF1080C6DE904CE00F006F8DDF804E022
:100D5000DDE9022304B070472DE9F047089E0D46F7
:100D600004460F46002B4AD18A42944665D9B2FA0E
:100D700082F343B102FA03FCC3F120029F4020FA40
:100D800002F217439C404FEA1C4E1FFA8CF5B7FB4A
:100D9000FEF1220C0EFB117742EA074201FB05F03F
:100DA00090420AD91CEB020201F1FF3780F01C814E
:100DB000904240F2198102396244121AA4B2B2FB85
:100DC000FEF00EFB102244EA024400FB05F5A542AA
:100DD0000AD91CEB040400F1FF3280F00781A54220
:100DE00040F204816444023840EA0140641B00215F
:100DF0001EB1DC400023C6E90043BDE8F0878B420A
:100E000008D9002E00F0ED800021C6E90005084653
:100E1000BDE8F087B3FA83F1002949D1AB4202D390
:100E2000824200F2F880841A65EB03020120174623
:100E3000002EE2D0C6E90047DFE702B9FFDEB2FAD2
:100E400082F3002B40F090808A1A4FEA1C471FFA69
:100E50008CFE0121B2FBF7F507FB1520220C42EABC
:100E600000420EFB05F0904208D91CEB020205F18E
:100E7000FF3802D2904200F2CB804546121AA4B24B
:100E8000B2FBF7F007FB102244EA02440EFB00FE1F
:100E9000A64508D91CEB040400F1FF3202D2A64596
:100EA00000F2BB801046A4EB0E0440EA05409FE729
:100EB000C1F120078B4022FA07FC4CEA030C05FA2B
:100EC00001F420FA07F3FD404FEA1C492343B5FB28
:100ED000F9F81FFA8CFE09FB18551C0C44EA05446E
:100EE00008FB0EF5A54202FA01F200FA01F00BD957
:100EF0001CEB040408F1FF3A80F08880A54240F220
:100F00008580A8F102086444641B9DB2B4FBF9F328
:100F100009FB134445EA044403FB0EFEA64508D929
:100F20001CEB040403F1FF356CD2A6456AD9023BE1
:100F3000644443EA0843A3FB0295A4EB0E04AC42CD
:100F4000C846AE4656D353D056B1B0EB080264EB58
:100F50000E0404FA07F7CA40CC401743C6E90074F0
:100F600018460021BDE8F087C3F1200102FA03FC16
:100F700020FA01F225FA01F19D402A434FEA1C476D
:100F80001FFA8CFEB1FBF7F007FB1015110C41EABC
:100F9000054100FB0EF58D4204FA03F408D91CEB61
:100FA000010100F1FF382FD28D422DD90238614462
:100FB000491B92B2B1FBF7F507FB151142EA01425A
:100FC00005FB0EF1914208D91CEB020205F1FF3836
:100FD00016D2914214D9023D6244521A45EA0041A8
:100FE00038E73146304608E73946E6E61046FBE684
:100FF0004845A9D2B9EB020865EB0C0E013BA3E70B
:101000004546EAE72B4694E74046D1E7D0467BE7E2
:10101000023D624432E708460AE76444023842E788
:10102000704700BF0149002008F0EEBFED22000824
:1010300008B5642007F0E6F9FBE7000007B54FF6B6
:10104000FF730190012201A9034807F020F80198DD
:1010500003B05DF804FB00BFEC04002010B594B0B1
:101060001022002102240AA831F0F2FC14220021EF
:1010700003A831F0EDFC1D4B192108A81A6C42F0B1
:1010800080521A641B6C03F080530193019B184B30
:101090001A6842F440421A6001221B6803F440437C
:1010A0000293029B4FF48033CDE908234FF4800371
:1010B000CDE90E434FF4D873CDE91244CDE91013B6
:1010C00005F0BCFE05F05EFB0F2300200721CDE9F3
:1010D00003344FF4A053CDE905034FF4805303A824
:1010E000079306F093F814B010BD00BF003802401B
:1010F000007000402DE980489BB01022002101259E
:101100000DA8002431F0A4FC04F09EFA4FF0104129
:10111000C84B0DA8ADF834501094CDE90E1304F06F
:10112000B1FA17230DA88DF835508DF83C308DF8A5
:10113000425004F0A7FA042004F094FABFF34F8F52
:10114000BFF36F8FBC4AC2F85042BFF34F8FBFF35B
:101150006F8F536943F400335361BFF34F8FBFF375
:101160006F8FC2F88440BFF34F8FD2F8803043F6C0
:10117000E074C3F3C900C3F34E335B0103EA040612
:10118000014646EA81750139C2F86052F9D2203B26
:1011900013F1200FF2D1BFF34F8F536943F4803323
:1011A0005361BFF34F8FBFF36F8F03F075FF0024C0
:1011B000FFF754FF142200210DA831F049FC9F4B8A
:1011C00010219F481A6B012610274FF0030942F0A7
:1011D00010024FF480589B4D4FF0040A1A631A6BAB
:1011E000DFF894B202F010020292029A1A6B42F0F7
:1011F00002021A631A6B02F002020392039A1A6B3C
:1012000042F001021A631A6B02F001020492049A7E
:101210001A6B42F040021A631A6B02F04002059208
:10122000059A1A6B42F400721A631A6B02F4007288
:101230000692069A1A6B42F008021A631A6B02F0C1
:1012400008020792079A1A6B42F480621A631A6BBB
:1012500002F480620892089A1A6B42F020021A6324
:101260001A6B02F020020992099A1A6B42F48072FA
:101270001A631A6B02F480720A920A9A1A6B42F08D
:1012800080021A631A6B02F080020B920B9A1A6B9F
:1012900042F004021A6300221B6B03F004030C9358
:1012A0000C9B04F041FD01220821674804F03CFD3D
:1012B00001224FF48051654804F036FD0022C02120
:1012C000634804F031FD00224021624804F02CFD07
:1012D0000DA95B48CDE90F49CDE90D7604F09CFBE3
:1012E00008230DA95848CDE90D36CDE90F4404F087
:1012F00093FB0DA95548CDE90D86CDE90F4404F0C7
:101300008BFBC0230DA95248CDE90D36CDE90F491D
:1013100004F082FB40220DA94E48CDE90D26CDE90F
:101320000F4904F079FB4C484C4B84800360066203
:10133000C0E9054404F0D2F9494B2846C5E90A44FE
:10134000C5E90C44C5E90034C5E9024404F063FA78
:1013500031462846434D04F017FB40234FF4C0723A
:1013600041495846CBF80840CBF81C40CBF8284000
:10137000CBE905324FF40062CBE908284FF00208B0
:101380000722CBE900140DA9CDF84C80CBE903A7C7
:10139000CDE90FA2CDE90D82CDE9119806F09CFAB6
:1013A00029464FF6FF7258460194C5E90264C5E923
:1013B000006706F0B1FA304603F092FE29464FF678
:1013C000FF725846C5E90264C5E9008706F0A4FA31
:1013D000082329464FF6FF725846C5E90234C5E98D
:1013E000009706F099FA4FF40C722946584601927C
:1013F0004FF48069019AAE60EA604FF6FF72C5E96A
:1014000000A706F089FA40F22B715846174D06F0F6
:10141000A2FA4FF0204343F2D2026420DFF85CB01E
:101420001A6003F05DFE124B124A28462C62C5E991
:10143000002325E01B00000300ED00E0003802401F
:101440000004024030030020002802400020024037
:1014500000080240001802400C0300200030024047
:1014600000B00240AC020020400100A07003002048
:1014700068474020005C0040B80400200022014082
:10148000C5E90246C5E90444C5E9064404F074FD13
:101490002146284604F092FF214628465F4D04F07D
:1014A000B3FF342221460DEB020031F0D1FA5C4B40
:1014B0002821352040F2152C40F2352EAC862C61C7
:1014C00085F83640C5E900340923C5E905130B2327
:1014D000C5E9070340F21B132846C5E909C340F2DA
:1014E0001D13C5E90244C5E90BE305F035F8FF21FA
:1014F0004FF4F0724FF4887328460D941893ADF8AA
:1015000064408DF86640474DCDE912140521CDE9C0
:1015100014914FF04041CDE90E24CDE91612224638
:101520000DA9CDE9103805F0E2F83F483F4B0462C1
:10153000C0E90036C0E902A74FF4A0634FF0180AD3
:10154000C0E90644C0E904A305F036FA03F022FC22
:1015500003F066FB5C2004F065F800F047FC3A46B7
:1015600021460DA831F074FA4FF480332846AC6060
:10157000AC6185F82040EC62EC6085F830402E616B
:10158000C5F81C806E61C5E900B3294BAB6203F05E
:10159000B9FD0DA928460F94CDE90D4603F044FF8F
:1015A00008230DA92846CDE90D3803F03DFF214859
:1015B000214A4FF4E13304614462C0E900230C2363
:1015C000C0E90244C0E90534C0E9074406F0D3FD90
:1015D00000F038FC00F035FC06F086FE2146174A84
:1015E000174806F0BBFE174B2146174A18601748EC
:1015F00006F0B4FE164B2146164A1860164806F04F
:10160000ADFE164B164C186006F088FE154831F0FA
:10161000B9F8204631F0B6F8FBE700BFC40300205C
:1016200000680140C40200206C040020001000A0EB
:101630000100000FEC04002000100140084B0308DB
:1016400031100008C0020020E44A0308531E0008BD
:10165000BC0200202C4B0308FD3800087405002054
:10166000AB4A03088C4A03080268034B9A4201D133
:1016700003F024BD704700BF001000407047000019
:101680000D4B82B00F216FF001001A6C42F08052B6
:101690001A641A6C02F080520092009A5A6C42F45A
:1016A00080425A6400225B6C03F480430193019BE7
:1016B00002B003F077BF00BF0038024010B588B019
:1016C00004461422002103A831F0C2F922681A4B03
:1016D0009A422ED103F58B33032403A917485A6C81
:1016E00042F480625A645A6C02F480620092009A5A
:1016F0001A6B42F020021A631A6B02F02002019268
:10170000019A1A6B42F001021A631B6B03F001038A
:101710000293029B4FF48063CDE9033404F07CF91B
:10172000012303A90648CDE903340023059304F0FF
:1017300073F908B010BD00BF002201400014024040
:1017400000000240026882B0084B9A420BD1D3F8E5
:10175000302803F5006342F480521A631B6B03F4D4
:1017600080530193019B02B0704700BF00300240DC
:101770000E4B07B502689A4215D1A3F5F043052137
:101780005A201A6B42F400021A6300221B6B03F406
:1017900000030193019B03F005FF5A2003B05DF89D
:1017A00004EB03F031BF03B05DF804FB00B002406E
:1017B00010B5A8B004461422002102A831F048F95F
:1017C0008422002107A831F043F92268174B9A427E
:1017D0002AD14FF4803307A8079305F0F3FD08B131
:1017E000FFF74CFF124C4FF4C07201211148236BDC
:1017F00043F080032363236B03F080030093009B7B
:101800001223CDE902230323CDE90413042302A903
:10181000069304F001F9236C43F400032364236C62
:1018200003F400030193019B28B010BD005C00404D
:1018300000380240001C0240026808B5094B9A4279
:101840000FD1094A80210948136C23F40003136463
:1018500004F0C4F94FF480710448BDE8084004F076
:10186000BDB908BD005C004000380240001C0240C9
:1018700070B5ACB004461422002106A831F0E8F897
:10188000842200210BA831F0E3F82268484B9A42E9
:1018900040F08C800823052001240B934FF4C07383
:1018A00010930223CDE911304FF400330BA8CDE99A
:1018B000154305F087FD08B1FFF7E0FE3D4B00241E
:1018C00002250E265A6C06A93B4842F080625A64F3
:1018D0005A6C02F080620092009A1A6B42F0100279
:1018E0001A631A6B02F010020192019A1A6B42F409
:1018F00000721A631A6B02F400720292029A1A6B57
:1019000042F480621A631A6B02F480620392039AB3
:101910001A6B42F040021A631A6B02F04002049202
:10192000049A1A6B42F480721A631B6B03F480737F
:101930000593059B1023CDE90635CDE908440A96A9
:1019400004F06AF84EF6FF7306A91C480A96CDE922
:101950000635CDE9084404F05FF8F72306A91848D6
:101960000A96CDE90635CDE9084404F055F84FF460
:10197000805306A91348CDE906350923CDE908446B
:101980000A9304F049F84FF4464306A90E480A9614
:10199000CDE90635CDE9084404F03EF8582022464A
:1019A000052103F0FFFD582003F02EFE2CB070BD82
:1019B000006801400038024000100240002402404C
:1019C000002802400018024000200240142200219A
:1019D0002DE9F0418AB004460DEB020031F038F8F1
:1019E00022682C4B9A4251D12B4B02250324092605
:1019F0009A6B4FF0040805A9284842F0020200271C
:101A00009A639A6B02F002020192019A1A6B42F0F9
:101A100010021A631A6B02F010020292029A1A6BF9
:101A200042F002021A631A6B02F002020392039A56
:101A30001A6B42F008021A631B6B03F0080304934D
:101A4000049BCDE90585CDE9084603F0E5FF402379
:101A500005A91348CDE905350A23CDE90774099393
:101A600003F0DAFF05A90E480996CDE90585CDE911
:101A7000077403F0D1FF4FF4605305A90948099694
:101A8000CDE90535CDE9077403F0C6FF0AB0BDE81E
:101A9000F08100BF001000A000380240001002409A
:101AA00000040240000C0240026808B50B4B9A4249
:101AB00013D10B4A04210B48936B23F00203936369
:101AC00004F08CF84421084804F088F84FF4605181
:101AD0000648BDE8084004F081B808BD001000A029
:101AE000003802400010024000040240000C024096
:101AF000F0B5ABB004461422002104A830F0A8FFD2
:101B00008422002109A830F0A3FF2268204B9A42CA
:101B10003CD1402309A8099305F054FC08B1FFF714
:101B2000ADFD1C4B0227002603255A6C072404A98F
:101B3000194842F010025A645A6C02F010020192E5
:101B4000019A1A6B42F002021A631A6B02F0020247
:101B50000292029A1A6B42F001021A631B6B0894FC
:101B600003F001030393039B8023CDE90665CDE9D0
:101B7000043703F051FF4FF4007304A90748089499
:101B8000CDE90437CDE9066503F046FF2BB0F0BD83
:101B900000100140003802400004024000000240F2
:101BA000F0B5002387B00393294B1E68002E4DD15A
:101BB0000122022703250C241A6001A9254B26487F
:101BC0009A6B42F001029A639B6B03F0010300934E
:101BD000009B4FF68373CDE90454CDE9013703F040
:101BE0001BFF48F2331301A91C480594CDE90137C6
:101BF000CDE9036503F010FF4CF2037301A9184807
:101C00000594CDE90137CDE9036503F005FF4FF6F3
:101C10003F0301A913480594CDE90137CDE90365D8
:101C200003F0FAFE282301A90F480594CDE90137F6
:101C3000CDE9036503F0F0FE082301A90B480594E4
:101C4000CDE90137CDE9036503F0E6FE07B0F0BD4D
:101C500078050020003802400010024000180240C1
:101C6000000C024000140240001C02400008024028
:101C7000214B1A6C42F0100270B51A6488B01B6CCC
:101C8000054601A903A803F010030293029B05F087
:101C90007BFB069B4BBB05F057FB184E184B336084
:101CA00040F2E733F360174BB0FBF3F3013B3046F0
:101CB000736000233361B360B36105F0BDFF044678
:101CC00080B9304605F060FE044658B9362003F06E
:101CD0009BFC0F2D0DD822462946362003F062FCCE
:101CE000094B1D60204608B070BD05F02DFB40007B
:101CF000D3E70124F6E700BF003802407C0500204E
:101D00000010004040420F003C0000207047FEE7FA
:101D1000FEE7FEE7FEE77047014805F077BE00BF2B
:101D20007C050020014804F085BC00BFC4030020EE
:101D3000014803F09EBD00BF300300200120704722
:101D400008B530F03DFF162303604FF0FF3008BDAB
:101D500008B530F035FF16230360FEE770B50D4679
:101D600014460E46731B9C4201DC204670BDAFF347
:101D7000008006F8010BF5E770B50D4614460E46D7
:101D8000731B9C4201DC204670BD16F8010BFFF767
:101D900055F9F5E74FF0FF3070474FF4005300203E
:101DA0004B60704701207047002070470B4A034684
:101DB000116810B509B90A491160106809490A4C3F
:101DC0000344091B8B4206D930F0FAFE0C23036052
:101DD0004FF0FF3010BD1360FCE700BFC8050020C6
:101DE000C861012000000520000A000070470000C3
:101DF000DFF834D0002103E00C4B5B584350043132
:101E00000B480C4B42189A42F6D30B4A02E00023CF
:101E100042F8043B094B9A42F9D303F053F830F0EF
:101E2000D5FEFFF767F9704700000520C0A503083D
:101E3000000000209002002090020020C8610120D4
:101E4000FEE7704708B501F033F9BDE8084001F03E
:101E5000B7B801F02FB94068704741607047000083
:101E60004FF0E022D2F8FC3D43F08073C2F8FC3D15
:101E7000054B064AD3F8B01F0A43C3F8B02F1A68BF
:101E800042F001021A607047001000E055CEACC568
:101E9000511A01EB5301B1FBF3F07047014B586845
:101EA000704700BF001000E0704710B504460C21D9
:101EB0002EF0F9FE204610BD036810B51B690446DC
:101EC00031B19847A26863689B1A1844606010BDDE
:101ED0009847A060FBE70000024B7020024A1360A5
:101EE000DB68184710000020CC050020704710B5B3
:101EF000044604212EF0D7FE204610BD73B50E4EC9
:101F00000D461446336813B9002002B070BD1B693A
:101F1000702098470028F7D03368702001AA0DF18F
:101F200006015B699847BDF8043001202B60BDF8BD
:101F300006302360E9E700BFCC0500207FB5012310
:101F40008DF817204FF47A72CDE901320DF11702A6
:101F500000920A460146054804F078F810B103489B
:101F600004F05BF807B05DF804FB00BF70030020CD
:101F70007FB500230A464FF47A718DF8173001239C
:101F8000CDE901310DF1170100910146054804F03A
:101F900037F910B1034804F040F89DF8170007B076
:101FA0005DF804FB70030020032823D8DFE800F06D
:101FB000020B131A104B102110481A68B2FA82F261
:101FC000520903F0B1BE0C4B40215A68B2FA82F2BA
:101FD00052090B48F5E7084B80219A68B2FA82F261
:101FE0005209F6E7044B40210648DA68B2FA82F259
:101FF0005209E6E7704700BFD00500200004024008
:102000000008024000180240032823D8DFE800F04F
:10201000020B131A104B102110481A68003A18BF0F
:10202000012203F081BE0C4B40215A68003A18BFD0
:1020300001220B48F5E7084B80219A68003A18BF47
:102040000122F6E7044B40210648DA68003A18BF3F
:102050000122E6E7704700BFD005002000040240DF
:10206000000802400018024003280FD8DFE800F003
:102070000206090B1021064803F05BBE402105480B
:10208000FAE78021FBE740210348F5E7704700BFEE
:1020900000040240000802400018024008B503286E
:1020A00013D8DFE800F0020A0D0F1021084803F0F2
:1020B00035FE431E5842584108BD40210548F6E709
:1020C0008021FBE740210448F1E70020F1E700BF51
:1020D00000040240000802400018024070B5084D9C
:1020E00000240126E0B2FFF7D9FF18B12B68012BBD
:1020F00018BF2E6001340435052CF3D170BD00BF2C
:10210000D0050020012380F8781080F879307047DE
:102110000020704741640039024B18BF012119703B
:10212000704700BF8F55012000207047836B0BB1B3
:102130000846184770474FF6FF70704740680368BD
:102140009B6918477047000038B5044601F008F94C
:10215000084923682046084DD3F88C30984700235F
:10216000284684F84A30FFF77BFE0123256184F876
:10217000703038BD000000C0E005002001F092B8CA
:1021800001F096B870B501F015F910490023C1F8B7
:102190008430BFF34F8FD1F8803043F6E074C3F33F
:1021A000C900C3F34E335B0103EA0406024646EA64
:1021B0008275013AC1F87452F9D2203B13F1200F15
:1021C000F2D1BFF34F8FBFF36F8F70BD00ED00E012
:1021D00001F0F2B801F042B801F00CBA01F014BA03
:1021E00001F046B810B5044616F09AFF2368204661
:1021F000D3F8AC30BDE81040184716F0EFB910B571
:1022000004467C212EF04FFD204610BD90F87A3018
:102210001BB1406803681B681847184670470000E8
:1022200090F834100D4B10B590F878401A788C4225
:1022300009D03AB90A490B4A08881488108001224B
:102240000C801A7010BD002AFCD0064A044914887C
:1022500008880C8010800022F3E700BF8855012019
:10226000865501208455012070B50D46194635B9B3
:10227000094B40F2D221094A09482FF05BFCC0E922
:102280000F52003A074B18BF01221A700368BDE8CD
:102290007040D3F88C301847904B0308C84B0308A4
:1022A000164C03088E55012008B5094B1B888B423C
:1022B00003D8084B1B88934205D9074B9E21074A38
:1022C00007482FF037FC074B1980074B1A8008BDD1
:1022D00084550120865501205B4C0308BE4C030841
:1022E000164C03088A5501208C550120014608B57B
:1022F000034B186801B1012116F02CFF012008BD25
:1023000090550120034B00225A609A60024A1A60DD
:10231000704700BFE0050020584B03080121002250
:1023200008B5084606F026F90A4B186028B90A4B8A
:1023300028210A4A0A482FF0FDFB0022042101202F
:1023400006F0DEF9074B186018B9074B2C21034A39
:10235000F0E708BDF0050020DC4D0308254E03081A
:10236000544E0308EC0500209D4E0308024B4FF02D
:10237000FF31186806F054B9F0050020014B1868C9
:1023800006F088B9F0050020024B0021186806F01D
:1023900047B900BFF0050020FFF7F0BF0023034856
:1023A00003491A46006806F0F1B900BFEC050020A9
:1023B0000400002013B50023074C01A91A46206829
:1023C00006F026FA4FF0FF33002201A9206806F03C
:1023D0001FFA02B010BD00BFEC05002003685B6C63
:1023E00018470120704703689B6A18470D4B82B05D
:1023F0001A6B42F400021A631A6B02F40002019293
:10240000019A1A6942F400021A611A6922F4000260
:102410001A61054B054A1A614FF08062044B9A60BD
:1024200002B07047003802403003002075240008D5
:1024300000E100E040F2EF3070470000054B4FF044
:1024400080620360044BC3F88820BFF34F8FBFF353
:102450006F8F70473850030800E100E010B5044664
:102460004FF45A61FFF7EAFF20462EF01CFC20468D
:1024700010BD0000024B1B68586803685B69184771
:102480009055012070B504460A4B0C3000262546B5
:10249000602260602672667245F8203B294616F07D
:1024A000AFFF04F55A63EE602435AB42FBD1204602
:1024B00070BD00BF3850030808B50B290BD8DFE802
:1024C00001F01206100A0A0A0A0808080808012082
:1024D00008BD0520FCE7054B6521054A05482FF09E
:1024E00029FB0020F4E70220F2E700BFDF4E0308DB
:1024F000FA4E0308444F030808B50A2909D8DFE853
:1025000001F010060E08080808060606060001205D
:1025100008BD054B8621054A05482FF00BFB00201E
:10252000F6E70220F4E700BFDF4E03088B4F0308F5
:10253000444F03082DE9F84391F81D800C460746E7
:102540004146FFF7B9FF94F81E90054638464946C4
:10255000FFF7B2FF494606463846FFF7CDFFA18A8E
:10256000628B434B521A1A649A61228B521A1A6177
:10257000E28A586342EA014220695A646268D86379
:10258000DA602768802F28D0227F0FD8202F65D0CF
:10259000402F63D0042F1AD045EA0265344BC8455A
:1025A00045F40035DD615FD0324A44E0B7F5807F05
:1025B00004D0B7F5007FEFD12F4900E02F4941EA61
:1025C0000262DA61E2681A625E62586132E045EAEC
:1025D000026242F40032DA61F6E7A7683A1DDA6275
:1025E000217F3A7845EA016545F40035DD615E6298
:1025F000586142B1012A21D0214B4FF48871214A00
:1026000021482FF097FADA69798822F47F4201395C
:1026100022F0100242EA01220121DA61144BDA6948
:1026200042F02002DA61DA699206FCD410229A6044
:102630000029B9D0154A1A60BDE8F883DA69FF3974
:10264000788822F47F4218BF0121013822F010025D
:1026500042EA002242F01002DA61DFE745EA026254
:10266000034B42F40032B6E740F20122E3E700BF39
:1026700000B0024001020100090002000A0002004D
:10268000D64F0308F04F0308444F0308010202002D
:1026900038B50C46897FFFF72FFF174BA58AE28AD2
:1026A000586342EA054221695A64628BD963521B1E
:1026B0001A642568082D0ED19A611A6158620F4A72
:1026C000207F42EA0062DA61E2681A620C4A5961CC
:1026D000D9601A6038BD0022D8611A61E1680A0A1F
:1026E0004809C1F3C40102F4784200F4FC600243DB
:1026F0000A439A63034AECE700B002400900010074
:102700000102020001020300034B1A68D207FCD445
:1027100023229A60704700BF00B0024030B5104CD1
:102720002568ED07FCD423250904FF2BA56041F0A3
:1027300001014FF0020565636164E0630AD0094955
:10274000656241EA0363E361074B22626061E06016
:10275000236030BDE561039BA363044BF8E700BF32
:1027600000B0024009000100010002000100030066
:102770004069704790F844007047036B23B9C06A02
:10278000003818BF012070470120704780687047EB
:10279000043010B50C460FC884E80F0010BD704718
:1027A00008B5034A40F21221024B03482FF0C2F948
:1027B000805003084F6B0308DB50030810B5044634
:1027C00048212EF070FA204610BD00002DE9F0439C
:1027D0001C46436BADF51F7D05460E461746002B84
:1027E00037D0002203A8DFF8A890CDE901320EF01F
:1027F0006BF94FF4F4725021249024A808F0B3F838
:102800003A46314624A809F02FF8012124A808F0FF
:10281000ADF9022324A88DF8D83008F04BFABDF8A2
:1028200098322B9ABDF89C629342A89F28BF13460A
:10283000419A964203EB4308A7EB430728BF16468D
:10284000479B9E4209D824A808F0B2F924A808F0B2
:10285000D7F80DF51F7DBDE8F083012201A924A85A
:1028600008F071FA6B6B03EB0800984201D83C4406
:10287000E6E759789A78C90009EA022201F4FC6176
:102880000A4313F8031B42EAD10224F8022BECE7B7
:1028900000F8FFFF0A4A02600022C0E90522C0E9F1
:1028A0000722C0E90922C0E90B22C0E90D12C0E9E4
:1028B0000F2280F84420C0E90322C0E901227047BA
:1028C000B853030810B40C4611461A46036B3BB1CB
:1028D000036C806BE41A20445DF8044B30F0C0B800
:1028E000C06AF8E7036B10B573B1036C826BC91A49
:1028F0005318525C98785C780004DB7840EA042036
:10290000104340EA036010BDC36A5858FBE7036BED
:1029100043B1036CC91A836B5A18585C527840EA69
:1029200002207047C36A585A7047000070B50446C9
:10293000006B0D461646D8B1E36B934208D20923CB
:102940000D4A65210D4884F844300D4B2FF0F2F804
:102950000368DB689847206B3246A16B03681B69EC
:10296000984710B90D2384F84430A06B256470BDDE
:10297000E06A0844FBE700BF41510308DB5003084D
:102980002E5103082DE9F843436904462BB9234B24
:10299000AA21234A23482FF0CDF808228169FFF7A6
:1029A000C5FFA16943F2300646F264370431204680
:1029B000FFF798FFA3691844A36A00F108029A423E
:1029C00006D3012300206361236AA361BDE8F88375
:1029D000636909300822013320F001012046636158
:1029E000A161FFF7A3FFD4F8189020464946FFF7EE
:1029F0008EFF09F1020180462046FFF788FF09F1AA
:102A0000040105462046FFF76DFFB045D2D1BD4217
:102A1000D0D10028CED00120D8E700BF83510308D1
:102A2000CC510308DB5003082DE9F04F0446ADF507
:102A30001F7D8A461646816908229846FFF776FF71
:102A4000A7692046391DFFF74DFF07F1080102462F
:102A500005462046FFF76AFF636B074633B93C4BD8
:102A600040F2AB113B4A3C482FF064F8002203A827
:102A7000CDE901320EF028F84FF4F4725021249081
:102A800024A807F070FF2A46394624A808F0ECFE77
:102A9000012124A808F06AF8022324A88DF8D83070
:102AA00008F008F9BAF90250479BAB4229D3BAF9AA
:102AB00000904FEA4808BAF804702B9B08FB0566A3
:102AC0004F44BAF80250DFF894B03FB29F4228BF9B
:102AD0001F46BAF8063009EB490A1D44419B2DB246
:102AE0009D4228BF1D46479BAB4210D324A808F047
:102AF0005FF824A807F084FF01200DF51F7DBDE8D5
:102B0000F08F012201A924A808F01DF9CCE70122C9
:102B100001A924A808F017F9626B49465244B9424A
:102B200002F1030201D34644DDE712F8020C12F869
:102B3000013CC0000BEA032300F4FC60034312F8DD
:102B4000030C43EAD00326F811300131E7E700BF58
:102B5000FF51030855520308DB50030800F8FFFF3C
:102B60000129036838BF0121DB6A70B50D460446B0
:102B70009847A84204D223682046DB6A9847054656
:102B80006B1EE6691022204606EB031606F10801CB
:102B9000FFF7CCFE06F110012046FFF7A3FE236AE3
:102BA000043B0344C4E9055370BD00002DE9F34123
:102BB000002104464822816180F84410FFF7B6FEE8
:102BC000A7690423634A39462046FFF77BFE40B1DC
:102BD0000323614AF22184F84430604B60482EF0B0
:102BE000A9FF07F1080104235E4A2046A161FFF70F
:102BF00069FE30B10423584AFA2184F844305A4B14
:102C0000ECE707F10C010423584A2046A161FFF7C5
:102C100059FE064638B105234F4A40F2011184F8A7
:102C20004430534BDAE707F110012046FFF75AFE14
:102C3000054620B94F4B40F20711474ACEE707F14E
:102C4000140804234C4A20464146FFF73BFE002867
:102C50004BD0062384F844300423484A07F1180176
:102C60002046FFF72FFE002841D0072384F8443088
:102C70004544434F0C2220462946FFF757FE05F1F5
:102C8000080604233A4620463146FFF71BFE94F817
:102C9000443000284AD0002B4AD1A36A291DAB42F8
:102CA0004AD805F10C03291D2046A3610191FFF7C5
:102CB00019FE3044019960622046FFF713FE064476
:102CC000042220463146FFF731FE04232D4A3146C7
:102CD0002046FFF7F7FD002839D10123E661636143
:102CE000A369236202B0BDE8F0810126B4E7002E9B
:102CF000BED007F120012046FFF7F4FD4FF47A73B0
:102D000007F13001B0FBF3F060602046FFF7EAFD09
:102D100007F14001A0602046FFF7E4FD07F1440100
:102D2000E0602046FFF7DEFD2061A1E7002BB8D070
:102D30000A2384F84430D5E72046FFF7D3FD083056
:102D40000C22054420462946FFF7F0FD97E70B23A8
:102D5000EFE700BFAF520308CD520308B452030897
:102D6000DB500308FA520308FF5203081753030805
:102D70001C530308325303083E530308435303080C
:102D8000485303084D530308C0E90A210022026397
:102D9000FFF70CBF10B5002304460846E3620B683A
:102DA00021639B689847A0622046BDE81040FFF76A
:102DB000FDBEF0B4BDF81050BDF814602AB123B1C7
:102DC000CDE90456F0BCFFF701BDF0BC7047000030
:102DD0002DE9F04F9946436985B004460F46904669
:102DE0002BB92A4B77212A4A2A482EF0A3FE082223
:102DF0008169FFF79BFDA66920463146FFF787FDF5
:102E0000B11C83462046FFF782FD311D82462046D5
:102E1000FFF768FD06F10801A36A054642189A42C9
:102E200027D243F230039B4517D146F264339A45CB
:102E300013D190B10246A1612046FFF777FD0E9BAA
:102E400001462A462046CDF80080CDE901933B4655
:102E5000FFF7AFFF636901336361A3692B448DB151
:102E6000A361A369626A013323F001039342A36162
:102E70000AD10120236A6061A36180F0010005B0DE
:102E8000BDE8F08F0833EBE70020F6E78351030835
:102E900052530308DB500308012070470C20704791
:102EA0000C2303FB0100083070470C2303FB0100D7
:102EB00008307047012070474FF4307070474FF46E
:102EC000307303FB0100083070474FF4307303FB8D
:102ED000010008307047012070471020704700EB58
:102EE00001100830704700EB0110083070470846A9
:102EF00000F026BF034B10B50446036014F002FE39
:102F0000204610BD6054030810B50446FFF7F2FFD9
:102F1000142120462DF0C7FE204610BD034B10B5EE
:102F20000446036014F0EEFD204610BD2C54030847
:102F300010B50446FFF7F2FF4FF4327120462DF032
:102F4000B2FE204610BD0000034B10B504460360DE
:102F500014F0D8FD204610BDF853030810B5044600
:102F6000FFF7F2FF182120462DF09DFE204610BDF0
:102F7000084B10B50446036000F53D70FFF7BAFF3B
:102F800004F12C00FFF7CAFF04F11400FFF7DCFF87
:102F9000204610BD9454030808B50248FFF7E8FF27
:102FA00008BD00BFF805002010B50446FFF7E0FF9C
:102FB0004FF4936120462DF076FE204610BD0000B0
:102FC0002DE9F34100F032FD0024054600F032FD0A
:102FD000234601462246284600941FF0B7FC274BA3
:102FE000274A2046274D1A6001F0BAFA264B274A95
:102FF00027489A601FF012FC2B68BFF35B8FDB073A
:1030000035D428462DF051FE88B3224C224B04F5CE
:103010004E7604F1140004F12C0804F53D7723608A
:103020006060C4F80880E760266114F06DFD1B4BFA
:103030004046636114F068FD194B3846E36214F0B2
:1030400063FD184B04F54270C4F8F43201F00CFB38
:10305000224604F54271304601F0FCFA304600F099
:103060006FFE11482EF084FD28462DF02AFE0F48F1
:1030700002B0BDE8F041FFF767B800BFF45501208A
:10308000CC180020F4050020D0180020900A002061
:1030900008000020F805002094540308F8530308A2
:1030A0002C54030860540308992F0008501800207E
:1030B00070470000014815F0FABA00BF5018002010
:1030C00070B5244E244B254C3046254D2360FFF728
:1030D000D9F9284623F014FF22481CF0C9FA224BE4
:1030E00000224FF4807121481A8683F858205A66CE
:1030F00083F870205A67DC60C3E912121C49C3E9E7
:103100001A121C4999671C490B604FF4F071018039
:103110001A4801804FF488711948C3E90422C3E9B1
:103120000622C3E90822C3E90A22C3E90E22C3E941
:103130001022C3E91422C3E91722C3E90165018003
:10314000104883F8342001800F490A700F4A1A6032
:1031500070BD00BFB00A0020804B0308AC0A0020FD
:10316000D0180020900A002050180020845501201B
:103170000100000100000101905501208A55012045
:10318000865501208C550120885501200C4D0308DF
:103190000148FFF753B900BFB00A00200020704774
:1031A00081807047C18070470181704741817047BD
:1031B0007047704770477047704710B4C488036801
:1031C000121B84885B6D091B12B25DF8044B09B2B7
:1031D00018474FF6FF7383814FF0FF330362136884
:1031E000C3611060704790F825201AB190F8242030
:1031F00002B118607047002070478B8883800120DF
:103200007047704780F82610704790F82600704786
:10321000002210B5B1F90840B1F90A1002804280CD
:103220008480C18010BD0022028042808280C280E2
:1032300070470177704780ED080A704780F82410C6
:10324000704780F82510704701207047983070470C
:103250008C3070478430704770470000034B9022D9
:1032600083F85A2383F85823704700BF00E100E039
:10327000094A0A49D3680A48C3F30A03013B9BB2CF
:103280000B801169C1F30A01013901801364536B8A
:1032900043F001035363704700680140B6190020F2
:1032A000B4190020014BD3F8AC007047006801400E
:1032B000024B0122C3F8AC105A627047006801400B
:1032C000124A5369DB0370B51ED50023C2F884305F
:1032D000BFF34F8FD2F8803043F6E074C3F3C900D8
:1032E000C3F34E335B0103EA0406014646EA8175E7
:1032F0000139C2F87452F9D2203B13F1200FF2D1F8
:10330000BFF34F8FBFF36F8F70BD00BF00ED00E0C4
:103310007047704770473823002201FB0333C254C3
:1033200090F838300BB9036C83647047704780F8AD
:103330004C10704710B5044658212DF0B4FC2046BF
:1033400010BD10B504462C212DF0ADFC204610BD5B
:1033500010B50446BC212DF0A6FC204610BD00008F
:1033600038B5044615F08FF923685D6E1BF02AF816
:1033700001462046A8472368084A2046D3F88850CB
:103380000023A2F57F31A847054B064A5A60064A3A
:103390001A649A644FF4FF225A6438BD00F807C0DB
:1033A0005C190020F421002000F40BC015F052B984
:1033B00015F05CB915F018B915F087BA90F825200A
:1033C00012B103685B6918477047000008B531B156
:1033D000044B40F29711044A04482EF0ABFB90F8DE
:1033E000390008BDA0540308B4540308415603082B
:1033F00010B531B1064B40F29111064A06482EF045
:1034000099FB406811460368BDE810401B6B1847E4
:10341000A0540308835603084156030808B529B190
:10342000034B7A21034A04482EF084FB006908BD4F
:10343000A0540308345803084156030808B529B1BD
:10344000054B8321054A06482EF074FB41618160DB
:10345000C0E9063208BD00BFA0540308EC590308B8
:103460004156030810B5044629B1274BA421274A29
:1034700027482EF05FFB052A34D8DFE802F0032945
:103480002F34393E406803681B69984750B34FF0AA
:10349000FF31606D05F014F80023012294F83E100E
:1034A00084F83B3084F83920A360636101B1226263
:1034B00084F83E306362E36A2BB90123206D84F8FF
:1034C0003A3005F0E7F8606DBDE8104005F028B827
:1034D000002380F8393084F83E3003E00362002393
:1034E0008360436110BD0362002383604361F2E7A0
:1034F000002380F839300123EDE7003B18BF01239A
:1035000080F83D30EEE700BFA0540308AB5B030832
:103510004156030870B50446164629B1314BE721E0
:10352000314A32482EF006FB90F8393033B1304B37
:103530001B6893F86B20436913444361E36A002BD3
:103540004DD0E169D4E905325343A2684A4393421E
:1035500020D2236A002B42D04FF0FF31606D04F07F
:10356000AFFF236A0BB10023E362E36AFBB90125D5
:10357000606D04F0D5FF94F839300BB9236A3BB184
:10358000E36A2BB90123206D84F83A3005F082F804
:10359000284670BD94F84C000028DDD09B1AB3FB80
:1035A000F1F2994298BF02F1FF326262D4E7002241
:1035B00094F83C50A3623046E262E2682261A2685D
:1035C0000132A260336333685B699847002DCED126
:1035D00094F83D30002BCBD184F83950C8E7012551
:1035E000C9E700BFA0540308825D030841560308E1
:1035F00090550120034B4FF080629A604FF080722B
:103600009A60704700E100E0084B4FF08062C3F819
:103610008820BFF34F8FBFF36F8F4FF08072C3F8D6
:103620008820BFF34F8FBFF36F8F704700E100E03A
:1036300038B5034690F8380038BB01229860D8604E
:103640009A634FF4807258619A874FF4F0729861D0
:10365000D861186258629862D8621863586383F818
:103660003E00CA864FF4887281F834000A870863E6
:103670009A6C186102F5FF24D3E9101529448C4295
:103680000AD9084B5821084A03E0084B40F2F511CB
:10369000074A08482EF04EFA1A6302F57F329C64FE
:1036A0005A6338BDE060030820610308265F030801
:1036B000565F030841560308002370B5124E0546B5
:1036C0008380124B0360336893F858200AB1D86C9A
:1036D00000B998680368DB6A98473368B0FA80F4E9
:1036E000D86C640930B10368DB6A9847002808BFCA
:1036F00044F001042CB9064B2C21064A06482EF052
:1037000019FA284670BD00BF90550120C863030810
:10371000C6620308246303085D63030870B5244E82
:103720003568BFF35B8F15F001053FD130462DF0B2
:10373000BCFA00283AD01F4C1F4B04F1340025611D
:10374000E584A562A585C4E90035C4E902551CF0ED
:10375000EEF904F1580017F051FA184B2046A36512
:10376000174B40F8843BFFF7A7FF164B1648C4F8E9
:1037700084302433C4F89050C4F88C306423C4F8E7
:103780009C50C4F8A850C4E928350023C4F8AC30D4
:10379000C4F8B030C4F8B430C4F8B8300B4BC4F837
:1037A00098302EF0E5F930462DF08BFA014870BDC7
:1037B00058190020B819002064930308E86303082F
:1037C000606403081893030859320008F89203084C
:1037D00010B5144C236823B3134B144A1B6C118887
:1037E0008B4213D1124B198802F0AEFF226892F877
:1037F0006A30013382F86A30FEF7D0FD206815F098
:103800008FFC0020BDE81040FEF7CEBB02F09CFF0D
:10381000206803681B6A98470020BDE81040FEF747
:10382000F3BB10BD9055012000680140B61900207F
:10383000B41900202DE9F74304464FF4707894F84A
:103840003A304FF0FF31002B31D0606D04F038FE7C
:10385000276BA36ABB4200D1676B266A656856B3C3
:103860002B68314628465B6A98470023236284F818
:103870003B30606D04F054FE2B684FF4F072394613
:10388000CDF8008028465E694FF48873B0474FF04A
:10389000FF310646606D04F013FE94F83B30E3B14F
:1038A000002384F83B30606D04F03AFEC7E7206DDA
:1038B00004F0B6FEC3E7636A002BDAD02B68284613
:1038C000D3E909939847616A01442846C847A36829
:1038D000626A66621344A360CBE7E7625EB12B685D
:1038E00028469B6A984701380023E06084F83C60D2
:1038F00084F83A30D7E70120F6E70000014808B520
:10390000FFF798FF5C1900200368042270B5044695
:103910005E6A00230D46B0474FF0FF31606D04F042
:10392000CFFD382303FB0542D16A09B10021D162E2
:1039300003FB0545012385F83B30002385F839302A
:10394000606DBDE8704004F0EBBD38B500EB81035D
:1039500004460D46114658680368DB6898472946B7
:103960002046FFF7D1FF38BD70B50D46114604461D
:1039700000EB85025068026896681A46B0472946EF
:103980002046FFF7C1FF70BD38B51649002516481F
:10399000FEF780FF154C164B01202A46294623606E
:1039A0004FF48073A564A38784F84C0084F83E50DC
:1039B000C4E91055C4E91455C4E90155C4E90355D7
:1039C000C4E90555C4E90755C4E90955C4E90B55CF
:1039D000C4E90D5504F0CEFD2065284604F02CFD09
:1039E000606538BD741A0020F42100205C190020A5
:1039F000AC640308704710B5044604212DF053F958
:103A0000204610BD012908B506D0022908D059B9B1
:103A100000F0F2FD006808BD00F0EEFD4068FAE736
:103A200000F0EAFD8068F6E70020F4E70048704700
:103A3000F86403080220704713B5002451B10368ED
:103A400001AA01948DF803409C680DF10303A0477F
:103A500002B010BD0846FBE7C0897047008A704776
:103A6000C088704780887047807A00F07F00704778
:103A7000807AC00970470020704700009FED010A5E
:103A8000704700BF00000000704710B504460821D1
:103A90002DF009F9204610BD7047704700F5987366
:103AA0000868496803C370477047704741607047B2
:103AB00070470000064BC0F84801C0F84C310023A5
:103AC000C0F8503100F5A273C0F84031704700BF14
:103AD000793B00080123037270477047704710B4A8
:103AE00041680346C2689B68541001EB6200D2072C
:103AF00048BF0A595DF8044B48BFD358184743687C
:103B00002BB183682BB9C06800F0010070471846DC
:103B100070470120704710B504460C212DF0C3F802
:103B2000204610BD10B5044610212DF0BCF82046EB
:103B300010BD10B504464FF4AE712DF0B4F8204618
:103B400010BD10B51AF03EFC0368BDE81040DB6BF9
:103B5000184710B50446D0F8400158B10368DB6837
:103B6000984738B1D4F8400103689B689847002310
:103B7000C4F8403110BD00002DE9F14FD0E9555A8D
:103B80000746A86803681B6A9847B0F5307F05D2DE
:103B9000454BA321454A46482DF0CCFF6868036891
:103BA0001B6A98470F2803D8424BA4213F4AF2E7EB
:103BB000E86803681B6A98470B2803D83E4BA52189
:103BC0003A4AE8E7DFF8F8901AF0FCFB04301AF004
:103BD00037FCD9F8000010B10368DB689847D9F8C2
:103BE000000010B103681B689847DFF8D880D8F848
:103BF000000010B103685B699847D7F83C0110B129
:103C000003685B689847D8F8000010B103681B6828
:103C10009847D7F83C0110B103689B689847E8685B
:103C200000214FF0000B03685B6A9847234B044662
:103C3000C0F804B00360594680F808B0A86803686B
:103C40005B6A9847064600F03DFF6868594603687E
:103C50005B6A98470546314600F00EFFC9F8004000
:103C6000C7F83C51C8F80060E5B12B1DCAF8003018
:103C700030463368C5F808A0DB68F56398472B68C1
:103C800028461B689847214630461CF061FC236893
:103C900020461B699847236820465B6901B0BDE850
:103CA000F04F18472B46E1E730650308BE6503086F
:103CB000C266030809670308AC670308C468030801
:103CC000D8550120D4550120044B1B6893F8582087
:103CD0000AB1D86C00B99868704700BF90550120B0
:103CE000F8B5044617460E461AF07CFC104B00252A
:103CF0001C6029460F4B23600F4BC4E951350F4B15
:103D00001868C4E953550368C4E94F559B68C4E972
:103D100055769847284600F023FCFFF7D5FF24F09E
:103D200020FFFFF7D1FF24F097FF2046F8BD00BF2A
:103D3000E455012070680308586803089055012075
:103D4000064BC0F84801C0F84C310023C0F8503190
:103D500000F5A273C0F84031704700BF793B0008FE
:103D6000406A7047806A704770478B88C069DB0A79
:103D70000A6850F823001044704710B5C2B1137B95
:103D8000B3B1547BD27A240204F4E0641443026A8F
:103D900098B202EB840213888B4202D192F902009E
:103DA00010BD05D80138043280B20028F3D1F7E7FE
:103DB0000020F5E710B504462C212CF074FF2046B6
:103DC00010BD000030B58BB00446BDF860500895BA
:103DD000BDF85C5007959DF8505006959DF84C50E5
:103DE00005959DF8485004959DF8445003959DF81D
:103DF000405002959DF83C500195BDF83850009513
:103E00001BF052FF064B20462360159BE361169B77
:103E10002362199B63621A9BA3620BB030BD00BF83
:103E2000E86803087047704770477047704730B5BF
:103E300085B00368044601816D460146D3F884309D
:103E40003C342846984795E8070084E8070005B009
:103E500030BD30B585B00368044641816D460146EA
:103E6000D3F884303C342846984795E8070084E826
:103E7000070005B030BD0022028042808280C280EF
:103E8000704780F836107047036870B504461B6BA6
:103E9000154698472368204629465B6EBDE870406A
:103EA000184700207047806C704770477047704714
:103EB00010B504464C212CF0F6FE204610BD10B57E
:103EC00004464FF430712CF0EEFE204610BD08B5CC
:103ED000FFF774FA08BD0000036870B55E6B044616
:103EE000114B8DB21B682BB9104B6C21104A114835
:103EF0002DF020FE1049828D0988914203D80F4B86
:103F00006D210B4AF3E713F812200D4B1B6853F891
:103F1000220003681B6B9847281A334601B22046DB
:103F2000BDE87040184700BFE85501204869030804
:103F30008A690308C5690308EC5501200C6A030867
:103F4000F055012000224FF0FF318260C0E90021CE
:103F50007047036870B504461B6B15469847236885
:103F6000204629465B6BBDE87040184770B5044693
:103F70001D46BDF91060FFF7ECFF23682946204677
:103F80009B6B9847236831462046DB6BBDE8704049
:103F9000184700004FF48071002281840D490263AC
:103FA00081624FF6FF71028781854FF47F01C26302
:103FB00041630949826401604FF0FF31C0E9012289
:103FC000C0E90322C0E90522C0E90722C0E91012B6
:103FD000704700BF286503088C6A03082DE9F04F7D
:103FE000044600252DED028B89B0A2461CF004F991
:103FF000B44BE56304F16C094AF8403B04F19808BE
:10400000B14B06A948462566A56604F5987B04F5DC
:10401000BE76271DC4E910354FF48073A4F86430D0
:10402000FF2384F866304FF6FF73C4E91255C4E9E4
:104030001455C4E91655ADF8183016F047FE404641
:10404000FFF7A8FF04F1E403184608EE103AFFF763
:10405000A1FF5846FFF79EFF304613F007FE4FF4CE
:1040600088732A465046294600934FF4F073FFF7B1
:104070007DFF4FF07F4351463846A3660DF1080A95
:1040800014F018F8484606A9ADF8185017F0ABF927
:104090004FF488732A464846294600934FF4F0733C
:1040A000FFF764FF4846294616F0CBFD49463846DF
:1040B00004F5247913F0FEFF512232214046FFF728
:1040C00048FF4FF0FF3341465046C4F8C830D4F89B
:1040D0009830A4F8CC50D3F88430984704F1D40336
:1040E0009AE8070083E80700784B1B682BB9784BE8
:1040F0006021784A78482DF01DFD784B1B88032BF2
:1041000003D8774B6121734AF4E7764B0321186893
:1041100000F062FA744A0346082148461EF076F918
:104120004046C4F8E09017F077F8DFF8C091062316
:10413000404606A9CDF81890ADF81C3017F08CF861
:104140004146384613F0B6FF7C222E2118EE100AA5
:10415000FFF7FFFE4FF0FF32D4F8E43018EE101AEC
:104160005046C4F81421D3F8843004F52878A4F814
:104170001851984704F590739AE8070083E8070000
:10418000524A1368002BB2D054490B88022BB8D97D
:10419000544B0221186800F01FFA534A03460821C5
:1041A00040461EF033F918EE100AC4F82C8104F5CD
:1041B0002C7817F031F806A80523CDF818900146A1
:1041C00018EE100AADF81C3017F046F818EE101A69
:1041D000384613F06FFFA8224D215846FFF7B9FE6D
:1041E0004FF0FF30D4F830315946C4F860015046E2
:1041F000D3F88430A4F86451984704F5B6739AE86C
:10420000070083E80700314A1368002B3FF46FAFC3
:1042100032490B88012B7FF674AF324B01211868AD
:1042200000F0DAF9304A0346072140461EF0EEF866
:104230005846C4F8788116F0EFFF042306A95846C3
:10424000ADF81C30CDF8189017F006F859463846EE
:1042500013F030FF304670224FF48471FFF779FE7F
:104260001E2330460A2200930C21962313F0E0FC13
:1042700064222B4629463046009513F059FD3046FE
:104280004FF0FF3113F057FC06A93046CDF81890D7
:10429000ADF81C5013F074FC012306A93046ADF8AC
:1042A000183013F099FE30463C2113F075FC384667
:1042B000314613F0FFFE204609B0BDEC028BBDE88D
:1042C000F08F00BF1C6B03089C940308E855012085
:1042D000486903084A6A0308C5690308EC550120C8
:1042E0000C6A0308F455012020850308286503089B
:1042F0007047000030B5164D8FB02C68BFF35B8F50
:1043000014F0010420D128462CF0CFFCE0B13F236B
:10431000012210490993104B10480893104B0A943E
:104320000594CDE906430423CDE903320A23CDE900
:104330000B440093CDE90144FFF744FD09482DF0FB
:1043400017FC28462CF0BDFC04480FB030BD00BF60
:104350003C220020D4B305908CA103084022002009
:1043600074A50308F14200087047000030B5184DED
:104370008FB02C68BFF35B8F14F0010425D1284661
:104380002CF093FC08B33F23072212490993124BE8
:1043900012480893124B0A9407930C23CDE9053277
:1043A00001230422CDE90134CDE90323142340F293
:1043B0006D3200931B23CDE90B44FFF703FD094841
:1043C0002DF0D6FB28462CF07CFC04480FB030BD05
:1043D0006C220020E4B3059090A103087022002015
:1043E00078A50308694300087047000030B5164DF2
:1043F0008FB02C68BFF35B8F14F0010420D12846E6
:104400002CF053FCE0B13F23012210490993104BDB
:1044100010480893104B0A940594CDE906430423F1
:10442000CDE903322823CDE90B440093CDE90144C3
:10443000FFF7C8FC09482DF09BFB28462CF041FCF7
:1044400004480FB030BD00BF9C220020DCE3059083
:1044500070A50308A022002090A50308E9430008E6
:1044600000207047002070470EB403B503AB002155
:1044700053F8042B01931AF03DFF02B05DF804EBF2
:1044800003B070470CB407B504AB53F8042B019389
:104490001AF030FF03B05DF804EB02B07047000083
:1044A00010B504461CF0FCF8E38E04EB430358847B
:1044B000636C5BB3238F2BB9174BC521174A184880
:1044C0002DF038FB10B320461DF0ECF9238F012BA3
:1044D00003D8144BCB21144AF1E7E28E40F63F108B
:1044E000531C9BB2092B194688BFA3F10A0104EBA8
:1044F0004101498C814209D10A2B04EB420228BFB9
:104500000023508C04EB4303588451842046BDE8BB
:1045100010401DF0C9B800BF486B0308516B030879
:10452000FC6B0308466C0308546C030810B5044682
:104530001DF083F82046BDE810401CF0ACB810B563
:1045400086B002AC84E806001A460AAB2146059301
:104550000193099B0093089B19F09DFA06B010BDCA
:1045600038B518BB124B13481C681349B4B1226804
:1045700022440260626822440A60A26814440F4B1D
:1045800000221A8000F038F8054600F033F80C4B92
:104590001C600C4B1D600C4B188007E00B4B03603C
:1045A0000B4B0B600B4B1C68002CE8D138BD00BFD7
:1045B000CC220020D0220020D4220020D8220020AB
:1045C000E8550120F0550120EC55012008E4059044
:1045D000ECE3059074E40590044B1B6853F821004C
:1045E000034B1B6803EB4000704700BFD422002040
:1045F000D02200200720704700487047DC220020AE
:1046000010B5054CFFF7B2FE2060FFF7EFFE6060CB
:10461000FFF770FEA06010BDDC22002010B5002462
:1046200004600C6014601C6010BD704710B5044637
:104630004FF4AE712CF037FB204610BD10B5044688
:10464000D0F8580100F02CF82046BDE8104019F0D1
:1046500055BF000010B50446FFF742FB014B204652
:10466000236010BD306D03080A49002241600A49E9
:104670000260816009490262C160642130B5002492
:1046800000250161846100244261C161C0E90A45DD
:1046900030BD00BF000028410000D04000401C4653
:1046A0002DE9F0432DED068B9FEDBD8A85B04FF0CF
:1046B00000080446B0EE48AA4FF47A77F0EE489A24
:1046C0004FF00509B0EE489AB64DCDF80C800123A5
:1046D00069462846CDF80080CDE9013900F0A4FEF6
:1046E00008B1FCF7CBFF284600F0B2FD05212846B3
:1046F00000F043FE284600F094FE08EE900A28469B
:1047000000F020FEF8EE688AF7EE007A082369468A
:10471000284679EEA89A009338EE278A00F084FEA6
:1047200008B1FCF7ABFF2846013F00F091FD0521E1
:104730002846BFB200F021FE284600F072FE064671
:104740002846B6B200F0FEFD07EE906AF8EEE77A72
:104750003AEE27AA002FBAD10A2000F0C1FC636903
:1047600091480133636161692EF00CF86369002B95
:1047700040F3AD8061698D482EF004F88C482EF02E
:1047800067F88C4B8C48A3617FA3D3E900232DF0FD
:10479000F9FFB5EEC08AF1EE10FA40F398800022DE
:1047A000864B87482DF0EEFFCAEE087A17EE900A86
:1047B000FBF7EAFE76A3D3E90023FBF73DFFFCF706
:1047C00013FA08EE900AFBF7DFFE02460B467D481F
:1047D0002DF0D8FFDFED7C7A9FED7C7A78EEE77ADA
:1047E000C7EE878A18EE900AFBF7CEFE02460B460C
:1047F00077482DF0C7FFC9EE887A9FED767ADFED16
:10480000766A9FED766A67EE877AB0EE497AA7EE10
:10481000A67ADFED736A78EEA68A68EE868A17EECE
:10482000100A84ED017AC8EE867A77EEE67AC4ED56
:10483000027AFBF7A9FE02460B466A482DF0A2FF5A
:1048400094ED027AD4ED067A67EE277A17EE900A95
:10485000FBF79AFE50A3D3E90023FCF717F8FCF707
:10486000C3F908EE900AFBF78FFE02460B465E483E
:104870002DF088FFD4ED037AA06877EEA87AC4ED16
:10488000037AFBF781FE02460B4658482DF07AFF6B
:10489000E068FBF779FE02460B4655482DF072FFA3
:1048A00018EE100AFBF770FE02460B4651482DF039
:1048B00069FF94ED037A84ED069AB5EEC07A6761DC
:1048C000F1EE10FA55D584ED039A9FED358A18EE76
:1048D000100AFBF759FE02460B4646482DF052FFE0
:1048E00094ED037ADFED447ADFED446A37EE677AC0
:1048F000DFED437A434827EE277AC7EE267A9FED0D
:10490000427A77EE877AFDEEE77AC4ED047A2DF0ED
:104910009FFFA069FBF738FE02460B463B482DF08F
:1049200031FF04213A482DF02DFF6068FBF72CFE83
:1049300002460B4637482DF025FF206894ED010A0A
:1049400003689B689847206894ED020A0368DB6857
:104950009847206894ED030A03681B69984720680C
:10496000216903685B69984705B0BDEC068BBDE81B
:10497000F083DFED297AB4EEE77AF1EE10FAC8BFE2
:10498000C4ED037AA1E700BF000000A09999B93FE8
:10499000E10CCEE00C684A3FCDCCCCCCCCCC0C406A
:1049A00000000000C40200207C6D0308A56D030810
:1049B000D06D0308CDCCCC3DE66D0308000030403F
:1049C000F36D03080A6E0308ADFAD43FCDCCCC3C9E
:1049D000226E030800004C42000080390000CA42E9
:1049E00000004842486E0308736E03088D6E03088A
:1049F0009C6E0308A76E030800541C4600501CC69A
:104A00000000C6C2B86E03080000C842CB6E03089F
:104A1000DB6E0308F16E030800401C467047043843
:104A200070477047C0680368DB6A1847A0F104004C
:104A3000FFF7F8BFC06803681B6B1847A0F10400BC
:104A4000FFF7F8BFC06803685B6B1847A0F104006C
:104A5000FFF7F8BFC06803689B6B1847A0F104001C
:104A6000FFF7F8BF10B5044610212CF01CF92046C2
:104A700010BDA0F10400F5E70022C1608260044A85
:104A800010B502F1080430320460426010BD00BF6E
:104A9000006F030870470000034B10B50446036025
:104AA000FFF703FA204610BD586F030810B50446FF
:104AB000FFF7F2FF4FF4307120462CF0F4F8204657
:104AC00010BD000010B50446FFF788FA014B2046E0
:104AD000236010BD586F0308FFF7E8B913B504460B
:104AE00001AB074A082100F524708DED010A1DF085
:104AF0008BFE04F1980002B0BDE810401AF002BD30
:104B0000486F030813B5044601AB074A082100F5B6
:104B100028708DED010A1DF077FE04F1E40002B06B
:104B2000BDE810401AF0EEBC486F030813B5044608
:104B300001AB074A072100F52C708DED010A1DF02D
:104B400063FE04F5987002B0BDE810401AF0DABCBC
:104B5000486F030800F5BE7013F01EB800B54FF49F
:104B6000807295B04FF0807103460C9205220F9130
:104B700001210692002201910B92139200920B48A0
:104B8000CDE90312CDE90D22CDE91122102206A9AB
:104B900002924FF4800205926A4601F0B7FF003896
:104BA00018BF012015B05DF804FB00BFE82200200B
:104BB00000B54FF4807395B041F2883217480C93DA
:104BC000062306A906930023CDE90D330F930B931B
:104BD0001393CDE9113301F056FFE0B9022301220E
:104BE0004FF4800104900D48CDE900331023CDE946
:104BF000023205236A46CDE905134FF0807306A9FA
:104C00000F9341F2883301F081FF003818BF012073
:104C100015B05DF804FB0120FAE700BFE822002090
:104C200000B54FF4807391B04FF040720E48089376
:104C3000EB2302A902934FF4406309934FF400530E
:104C400005930023CDE90A320A220F9307926A46A0
:104C5000CDE90D33CDE9003301F0A8FF003818BFCE
:104C6000012011B05DF804FBE8220020454B012132
:104C700045489A6B42F00202F0B59A638DB09A6B88
:104C800009240427002602F00202404D0092009AF7
:104C90009A6942F002029A619A6922F002029A61CC
:104CA0001A6B42F002021A631A6B02F002020192BE
:104CB000019A1A6B42F002021A631A6B02F00202A6
:104CC0000292029A1A6B42F008021A631A6B02F0FF
:104CD00008020392039A1A6B42F008021A631A6BD5
:104CE00002F008020492049A1A6B42F010021A634E
:104CF0001A6B02F010020592059A1A6B42F0080234
:104D00001A6340221B6B03F008030693069B0223E1
:104D1000CDE907230323CDE909130A2307A90B9340
:104D200000F07AFE07A91848079709960B9400F03F
:104D300073FE4FF4006307A928460B94079300F015
:104D40006BFE4FF4805307A928460B94079300F09D
:104D500063FE07A90E4807970B9400F05DFE4FF421
:104D6000005307A928460B94079300F055FE3246DE
:104D70000F215C2000F016FC5C2000F045FC0DB01B
:104D8000F0BD00BF0038024000040240000C0240A9
:104D900000100240F0B5494C91B0494B20462360C9
:104DA00001F05EFE054610B1012011B0F0BD0146D4
:104DB0002046FFF75BFF012604234FF08077C4E90C
:104DC00001631023E36097FAA7F3B3FA83F3204655
:104DD000013B23614FF4A063C4E90755C4E90535DD
:104DE00001F0EAFD0028DFD14FF4807566230B90B7
:104DF00041F28832079002A90F9008950293CDE9FD
:104E00000900CDE90D00204601F03DFE08B1042067
:104E1000CBE7992341F2883202A92046029301F0A0
:104E200032FE0028F3D141F28830FFF797FE0028C8
:104E3000EDD18523079041F2883202A908950293AB
:104E40000B97CDE90900CDE90C60CDE90E002046B5
:104E500001F019FE0028DAD141F288320DF1070184
:104E6000204601F089FF0028D1D1FFF7A1FE0028DC
:104E7000CDD18123F022029392FAA2F20A219DF869
:104E80000730B2FA82F2204603F00F0301FA02F271
:104E900002A9134341F288328DF8073001F0F3FD87
:104EA0000028B4D141F288320DF10701204601F00B
:104EB00007FF00283FF479AFA9E700BFE8220020F0
:104EC000001000A00F490020D1F8883043F470038F
:104ED000C1F888300C4B1A6842F001021A609860E1
:104EE0001A6822F0847222F480321A60074A5A60EB
:104EF0001A6822F480221A60D8604FF000638B6039
:104F0000704700BF00ED00E0003802401030002480
:104F10007047002070470000002337B58DF8073038
:104F20000D4B1A780AB901221A700324C5B2013C4C
:104F3000A8212846FDF71CF814F0FF048DF807009F
:104F40009DF80730DBB203D19DF8070003B030BDF8
:104F5000512BECD1F8E700BF3623002013B5002415
:104F60000221C0B28DF80740FDF702F88DF8070066
:104F70009DF8073003F00F038DF807309DF80730D8
:104F8000052B01D98DF807409DF80720034B9DF8AC
:104F900007005A7000229A7002B010BD362300201C
:104FA0002DE9F74F2F4C15464FF000080F46A37818
:104FB00062788DF807809A424DD9092B4ED803EBC1
:104FC00043035B00DBB2191D03F1030B03F1060A77
:104FD0000533C9B25FFA8BFB5FFA8AFA5FFA83F88E
:104FE000C6B2DFF884903046FCF7C2FF8DF80700A8
:104FF0009DF8073059463046A9F80030FCF7B8FF55
:105000008DF8070051469DF807303046B9F800206A
:105010001B0203F4706313433B80A9F80030FCF7D4
:10502000A7FF8DF8070041469DF807303046A9F8E4
:105030000030FCF79DFF8DF807009DF80730B9F8A8
:1050400000201B0203F470631343A9F800302B8087
:10505000A3780133A37003B0BDE8F08FC246C34606
:105060004146BDE736230020342300200122A4213D
:10507000C0B2FCF763BF0022A421C0B2FCF75EBF40
:10508000FFF7F9BF70470000024B1A780AB90122F6
:105090001A70704736230020074A032008B51368AA
:1050A00043F48073136000F06BFA0020FCF7E0FD1E
:1050B000FCF7E6FA002008BD003C0240034A044B1E
:1050C00011681B780B441360704700BF3C2300201D
:1050D00038000020014B1868704700BF3C230020B7
:1050E00038B50446FFF7F6FF0546631C1EBF044BA8
:1050F0001B78E418FFF7EEFF431BA342FAD338BD39
:105100003800002038B50446002800F09B80056C6C
:1051100025B9FCF7D3FA656484F83C50236CDB06B0
:1051200000F18E80236C23F4885323F0020343F0B4
:1051300002032364444B5A6822F440325A605A688E
:1051400061680A435A60236821695A6822F48072B0
:105150005A605A6842EA0122A1685A605A6822F0ED
:1051600040725A605A680A43E1685A609A6822F4A9
:1051700000629A609A680A4334499A60A26A8A4235
:1051800052D0996821F07061996099680A43E16A88
:105190009A609A6822F040529A609A680A439A602C
:1051A0009A68A16922F002029A609A6842EA410272
:1051B0009A6094F82020002A3ED05A68616A42F42E
:1051C000006201395A605A6822F460425A605A6893
:1051D00042EA41325A600020DA6AE16922F4700240
:1051E0000139DA62DA6A42EA0152DA629A6822F432
:1051F00000729A609A6894F8301042EA412261691C
:105200009A609A6822F480629A609A6842EA8122DF
:105210009A606064236C23F0030343F0010323646A
:10522000002384F83C3038BD9A6822F070629A609E
:105230009A6822F04052B2E75A6822F40062C9E745
:105240000120EDE70120EEE7002301400100000FFF
:10525000002382B0019390F83C30012B66D00123EB
:10526000026880F83C309368D9070CD5936813F036
:1052700001031AD1026C42F010020264426C42F047
:105280000102426438E09368294943F001039360C6
:10529000284B1B68B3FBF1F303EB43030193019B22
:1052A000002BE3D0019B013BF8E7036C23F4E063A0
:1052B00023F0010343F48073036453685B0505D551
:1052C000036C23F4405343F480530364036C13F4DE
:1052D000805302D0436C23F0060343640023164935
:1052E00080F83C306FF0220313604B68D80606D17B
:1052F000906810F0405014D0002002B070470F4B5F
:105300009A4207D1936813F0405F03D1936843F04A
:10531000804393604B68DB06EED4094B9A42EBD195
:10532000E6E7936843F080439360E6E70220E4E712
:1053300040420F000C0000200023014000200140EB
:105340000022014090F83C30012B14D003689A6889
:1053500022F001029A609B68DB0707D4036C23F4F8
:10536000885323F0010343F001030364002380F812
:105370003C30184670470220704703689A6870B541
:10538000560504460D460BD59B68D80508D5236CF9
:10539000012043F020032364002384F83C3070BDD7
:1053A000FFF798FE064623681A6892070CD56FF03F
:1053B00012021A60226C42F4007222649A6812F09F
:1053C000405F17D00020EAE7691CEDD065B923687B
:1053D0001B6813F00203E6D1226C032084F83C30F2
:1053E00042F004022264DAE7FFF774FE801BA84251
:1053F000EDD8D8E7A269002AE4D1DA6A12F4700F76
:1054000002D09B685B05DDD4236C23F48073236496
:10541000206C10F48050D5D1236C43F00103236439
:10542000BDE70368D86C70470023F7B5019390F887
:105430003C30012B77D0012380F83C300C680368A6
:10544000A5B2092C8E6805EB45023AD9B4F1004F9C
:1054500037D01E3A4FF0070CDF680CFA02FC27EA3F
:105460000C07DF60414FBC4226D1DA6842EA06628F
:10547000DA604968062901EB81022FD8053A1F2618
:10548000596B964005FA02F221EA06015963596BFD
:105490000A435A63364A934208D1B4F1004F44D1CB
:1054A000D2F8043323F44003C2F80433002380F815
:1054B0003C30184603B0F0BDDF6806FA02F23A430A
:1054C000D6E74FF0070C1F6996400CFA02FC27EA5A
:1054D0000C071F611F693E431E61CAE70C294FF08C
:1054E0001F010BD8233A1E6B914005FA02F226EAFF
:1054F00001011963196B0A431A63CBE7413ADE6A6B
:105500009140954026EA0101D962D96A0D43DD62D6
:10551000C0E7184B5A6822F400025A605A6842F4F5
:1055200080025A60C2E70220C4E7122CF1D00F4B70
:105530009C4201D0112CB9D10E4B5A6822F4800242
:105540005A605A6842F400025A60084B9C42ADD13E
:10555000094B0A4A1B68B3FBF2F30A225343019337
:10556000019B002BA2D0019B013BF8E71200001029
:1055700000200140002301400C00002040420F00A9
:1055800007490302CA6803F4E06322F4E0621204EC
:10559000120C134343F0BF6343F40033CB607047F6
:1055A00000ED00E0164B30B5DC68C4F30224C4F112
:1055B0000703251D042B28BF0423062D4FF0FF35BC
:1055C0008CBF033C002405FA03F3002805FA04F518
:1055D00021EA030322EA050203FA04F343EA020381
:1055E0004FEA0313DBB206DB00F1604000F56140D7
:1055F00080F8003330BD00F00F00024A1354F9E781
:1056000000ED00E014ED00E0002807DB4109012374
:1056100000F01F00024A834042F82130704700BF6B
:1056200000E100E000280CDB4309012200F01F002C
:1056300004492033824041F82320BFF34F8FBFF34A
:105640006F8F704700E100E0BFF35F8F044B5A6A31
:1056500022F480325A620022C3F89420704700BFBF
:1056600000ED00E0064B40F00100C3F894005A6AD8
:1056700042F480325A62BFF34F8FBFF36F8F70478F
:1056800000ED00E04378144A10B5C2F89830017874
:10569000E9B14368C2F89C30C37A047B1B0643EA35
:1056A00004730B43817A43EAC143417B43EA81435C
:1056B000817B43EA4143C17B43EA0143417A43EAA8
:1056C0000123017A43EA4103C2F8A03010BDC2F8B9
:1056D0009C10C2F8A010F9E700ED00E010B50446F8
:1056E00008B9012010BD437F03F0FF0213B9027710
:1056F000FCF728F8022363772379E3B92368134A78
:105700005A619A6822F018029A6062792368D2B9C5
:105710004FF0FF321A6100209A68616922F060023E
:105720000A43A1699A609A6822F080020A439A604B
:1057300001236377D6E7D4E90212204600F008F887
:105740000028E2D0CDE72269E4E700BFB71DC1041D
:105750001F2310B5013B1CD321FA03F4E407F9D54C
:10576000102A12D004D83AB1082A10D001200BE038
:10577000182AFBD1062BF9D800684161836823F011
:10578000180313438360002010BD072BF3E70F2B92
:10579000F1E7002AEAD1EFE770B50446866DFFF71E
:1057A00099FC054694F83530022B06D08023012061
:1057B0006365002384F8343070BD23681A6822F0D2
:1057C00016021A605A6922F080025A61226C0AB9E4
:1057D000A26C1AB11A6822F008021A601A6822F044
:1057E00001021A6023681B6813F0010308D1E16D00
:1057F0003F2218468A40B260012284F83520D8E75B
:10580000FFF768FC401B0528ECD9202303206365C3
:1058100084F83500CDE710B5044630B390F8393040
:1058200003F0FF021BB980F83820FBF7A1FF2268C4
:1058300002236168002084F83930136823F4403370
:105840000B43A1681360536B23F007030B43E1681C
:105850005363136C23F47F5323F03F030B43136410
:105860000123E06384F8393010BD0120FCE7704764
:105870007047036870B55E6804461D68F20714D56A
:10588000E90512D51A6822F480721A60C26B42F0E0
:105890000102C26301229A60042380F83930002398
:1058A00080F83830436903B19847B20616D5AB0487
:1058B00014D523681A6822F400521A6020229A60D4
:1058C000E36B43F00203E363042384F839300023DD
:1058D00084F8383063690BB120469847300716D5F5
:1058E000290514D523681A6822F400621A60082278
:1058F0009A60E36B43F00403E363042384F83930D4
:10590000002384F8383063690BB12046984772074A
:105910000BD56B0509D5236820461A6822F48062EE
:105920001A6004229A60FFF7A2FFB00714D5A905F8
:1059300012D523681A6822F400721A6002229A6053
:10594000E36BE363012384F83930002384F83830B3
:1059500023690BB120469847F20613D5EB0411D505
:10596000236820461A6822F480521A6010229A6036
:10597000E36BE363012384F83930002384F8383083
:10598000FFF776FF70BD0000F0B590F83830012BBE
:105990004FF002032BD080F83930012200EB0113C5
:1059A0001C4F80F838200E015D6AD3E9074244EAB3
:1059B0000242093C012C96BF05F07F4342EA056292
:1059C0001A430368A9B9596A012C01EA070142EA9E
:1059D00001025A6282699A6103D8426A22F07F42C8
:1059E0009A62012380F83930002380F83830184655
:1059F000F0BDD969012C01EA070142EA0102DA612E
:105A000000EB060292691A61EBD825F07F451D6212
:105A1000E7E700BFF0FFFC002DE9F74F0023DFF8B8
:105A2000B8916B4A01240D689C4004EA050CAC4314
:105A300040F0B4804D684FEA4308032605F00304A4
:105A400006FA08F6671EF643012F34D8876807EA7E
:105A5000060ECF6807FA08F747EA0E07876047681F
:105A600027EA0C0EC5F300179F4047EA0E07476070
:105A7000C768022C07EA060E8F6807FA08F747EA9C
:105A80000E07C76019D14FEAD30A03F0070B4FF096
:105A90000F0E00EB8A0A4FEA8B0BDAF820700EFA31
:105AA0000BFE27EA0E0E0F6907FA0BF747EA0E07FF
:105AB000CAF8207001E0032CDAD1076804FA08F470
:105AC00015F4403F07EA060744EA0704046065D07E
:105AD000D9F8444023F0030603F0030744F480445C
