:020000040800F2
:1000000000000520E5260008F5220008F722000878
:10001000F9220008FB220008FD2200080000000071
:10002000000000000000000000000000A1C800085F
:10003000FF2200080000000041C90008A5C900080F
:100040003527000835270008352700083527000820
:100050003527000835270008352700083527000810
:100060003527000835270008352700083527000800
:1000700035270008352700083527000835270008F0
:1000800035270008352700083527000835270008E0
:1000900035270008352700083527000835270008D0
:1000A00035270008352700083527000835270008C0
:1000B00035270008352700083527000835270008B0
:1000C00035270008352700083527000835270008A0
:1000D0003527000835270008352700083527000890
:1000E0003527000835270008352700083527000880
:1000F0003527000835270008352700083527000870
:100100003527000801230008352700083527000897
:1001100035270008352700080D230008352700087B
:100120001923000835270008352700082523000873
:10013000352700083527000835270008352700082F
:10014000352700083527000835270008352700081F
:100150003527000831230008352700083527000817
:1001600035270008352700083527000835270008FF
:100170003527000835270008352700080000000053
:1001800035270008352700083527000835270008DF
:1001900035270008352700083527000835270008CF
:1001A0003D230008352700084923000835270008AB
:1001B00035270008352700083527000835270008AF
:0801C00035270008352700086F
:1001D00010B5054C237833B9044B13B10448AFF381
:1001E00000800123237010BD880300200000000060
:1001F0007498050808B5034B1BB103490348AFF3D6
:10020000008008BD000000008C03002074980508E1
:1002100010F8012B11F8013B012A28BF9A42F7D0B0
:10022000D01A70470000000000000000000000002D
:1002300001F0FF01102A2BDB10F0070F08D010F897
:10024000013B013A8B422DD010F0070F42B3F6D19B
:10025000F0B441EA012141EA014122F007047FF0B4
:1002600000070023F0E80256083C85EA010586EA0B
:10027000010685FA47F5A3FA87F586FA47F6A5FA47
:1002800087F68EB9EED1F0BC01F0FF0102F0070253
:1002900032B110F8013B013A83EA010313B1F8D1FE
:1002A0000020704701387047002D06BF35460338DF
:1002B000073815F0010F07D1013015F4807F02BF18
:1002C000013015F4C03F0130F0BC0138704700BF69
:1002D000034613F8012B002AFBD1181A0138704786
:1002E00081F0004102E000BF83F0004330B54FEAE7
:1002F00041044FEA430594EA050F08BF90EA020F54
:100300001FBF54EA000C55EA020C7FEA645C7FEAE6
:10031000655C00F0E2804FEA5454D4EB5555B8BF09
:100320006D420CDD2C4480EA020281EA030382EA7A
:10033000000083EA010180EA020281EA0303362D0C
:1003400088BF30BD11F0004F4FEA01314FF4801CDF
:100350004CEA113102D0404261EB410113F0004FF1
:100360004FEA03334CEA133302D0524263EB4303A8
:1003700094EA050F00F0A780A4F10104D5F1200E46
:100380000DDB02FA0EFC22FA05F2801841F10001A1
:1003900003FA0EF2801843FA05F359410EE0A5F175
:1003A00020050EF1200E012A03FA0EFC28BF4CF0A6
:1003B000020C43FA05F3C01851EBE37101F000455C
:1003C00007D54FF0000EDCF1000C7EEB00006EEB69
:1003D0000101B1F5801F1BD3B1F5001F0CD34908F3
:1003E0005FEA30004FEA3C0C04F101044FEA44524A
:1003F00012F5800F80F09A80BCF1004F08BF5FEAD1
:10040000500C50F1000041EB045141EA050130BDB0
:100410005FEA4C0C404141EB0101013C28BFB1F5C2
:10042000801FE9D291F0000F04BF01460020B1FA0D
:1004300081F308BF2033A3F10B03B3F120020CDAE0
:100440000C3208DD02F1140CC2F10C0201FA0CF0BE
:1004500021FA02F10CE002F11402D8BFC2F1200C23
:1004600001FA02F120FA0CFCDCBF41EA0C019040D9
:10047000E41AA2BF01EB0451294330BD6FEA040422
:100480001F3C1CDA0C340EDC04F11404C4F120020D
:1004900020FA04F001FA02F340EA030021FA04F31F
:1004A00045EA030130BDC4F10C04C4F1200220FA76
:1004B00002F001FA04F340EA0300294630BD21FAB4
:1004C00004F0294630BD94F0000F83F4801306BF7A
:1004D00081F480110134013D4EE77FEA645C18BF6E
:1004E0007FEA655C29D094EA050F08BF90EA020F05
:1004F00005D054EA000C04BF1946104630BD91EAFD
:10050000030F1EBF0021002030BD5FEA545C05D1FF
:100510004000494128BF41F0004130BD14F580043E
:100520003CBF01F5801130BD01F0004545F0FE41B2
:1005300041F470014FF0000030BD7FEA645C1ABFE7
:10054000194610467FEA655C1CBF0B46024650EA1E
:10055000013406BF52EA033591EA030F41F400214A
:1005600030BD00BF90F0000F04BF0021704730B5D0
:100570004FF4806404F132044FF000054FF00001A5
:1005800050E700BF90F0000F04BF0021704730B566
:100590004FF4806404F1320410F0004548BF40423B
:1005A0004FF000013EE700BF42004FEAE2014FEA90
:1005B00031014FEA02701FBF12F07F4393F07F4F6B
:1005C00081F06051704732F07F4208BF704793F06E
:1005D0007F4F04BF41F40021704730B54FF4607481
:1005E00001F0004521F000411CE700BF50EA010284
:1005F00008BF704730B54FF000050AE050EA01022D
:1006000008BF704730B511F0004502D5404261EB9C
:1006100041014FF4806404F132045FEA915C3FF4DD
:10062000D8AE4FF003025FEADC0C18BF03325FEA7A
:10063000DC0C18BF033202EBDC02C2F1200300FA2B
:1006400003FC20FA02F001FA03FE40EA0E0021FA50
:1006500002F11444BDE600BF70B54FF0FF0C4CF43E
:10066000E06C1CEA11541DBF1CEA135594EA0C0FF0
:1006700095EA0C0F00F0DEF82C4481EA030621EA2B
:100680004C5123EA4C5350EA013518BF52EA033566
:1006900041F4801143F4801338D0A0FB02CE4FF018
:1006A0000005E1FB02E506F00042E0FB03E54FF048
:1006B0000006E1FB03569CF0000F18BF4EF0010E40
:1006C000A4F1FF04B6F5007F64F5407404D25FEA3C
:1006D0004E0E6D4146EB060642EAC62141EA5551EF
:1006E0004FEAC52040EA5E504FEACE2EB4F1FD0C31
:1006F00088BFBCF5E06F1ED8BEF1004F08BF5FEAAF
:10070000500E50F1000041EB045170BD06F0004660
:1007100046EA010140EA020081EA0301B4EB5C040D
:10072000C2BFD4EB0C0541EA045170BD41F4801105
:100730004FF0000E013C00F3AB8014F1360FDEBF2A
:10074000002001F0004170BDC4F10004203C35DA06
:100750000C341BDC04F11404C4F1200500FA05F389
:1007600020FA04F001FA05F240EA020001F000422A
:1007700021F0004110EBD37021FA04F642EB0601A0
:100780005EEA430E08BF20EAD37070BDC4F10C04CA
:10079000C4F1200500FA04F320FA05F001FA04F28E
:1007A00040EA020001F0004110EBD37041F100017A
:1007B0005EEA430E08BF20EAD37070BDC4F1200585
:1007C00000FA05F24EEA020E20FA04F301FA05F2ED
:1007D00043EA020321FA04F001F0004121FA04F295
:1007E00020EA020000EBD3705EEA430E08BF20EA65
:1007F000D37070BD94F0000F0FD101F0004640009F
:1008000041EB010111F4801F08BF013CF7D041EA20
:10081000060195F0000F18BF704703F00046520024
:1008200043EB030313F4801F08BF013DF7D043EAF5
:100830000603704794EA0C0F0CEA135518BF95EAAB
:100840000C0F0CD050EA410618BF52EA4306D1D132
:1008500081EA030101F000414FF0000070BD50EA51
:10086000410606BF1046194652EA430619D094EADB
:100870000C0F02D150EA013613D195EA0C0F05D1C5
:1008800052EA03361CBF104619460AD181EA030119
:1008900001F0004141F0FE4141F470014FF00000D1
:1008A00070BD41F0FE4141F4780170BD70B54FF06C
:1008B000FF0C4CF4E06C1CEA11541DBF1CEA1355EC
:1008C00094EA0C0F95EA0C0F00F0A7F8A4EB0504CE
:1008D00081EA030E52EA03354FEA013100F08880C5
:1008E0004FEA03334FF0805545EA131343EA12638E
:1008F0004FEA022245EA111545EA10654FEA002643
:100900000EF000419D4208BF964244F1FD0404F5FB
:10091000407402D25B084FEA3202B61A65EB030557
:100920005B084FEA32024FF480104FF4002CB6EB14
:10093000020E75EB030E22BFB61A754640EA0C0094
:100940005B084FEA3202B6EB020E75EB030E22BFD4
:10095000B61A754640EA5C005B084FEA3202B6EB15
:10096000020E75EB030E22BFB61A754640EA9C00D4
:100970005B084FEA3202B6EB020E75EB030E22BFA4
:10098000B61A754640EADC0055EA060E18D04FEA62
:10099000051545EA16754FEA06164FEAC30343EA02
:1009A00052734FEAC2025FEA1C1CC0D111F4801FCF
:1009B0000BD141EA00014FF000004FF0004CB6E7C8
:1009C00011F4801F04BF01430020B4F1FD0C88BF67
:1009D000BCF5E06F3FF6AFAEB5EB030C04BFB6EB72
:1009E000020C5FEA500C50F1000041EB045170BD65
:1009F0000EF0004E4EEA113114EB5C04C2BFD4EB92
:100A00000C0541EA045170BD41F480114FF0000E15
:100A1000013C90E645EA060E8DE60CEA135594EA91
:100A20000C0F08BF95EA0C0F3FF43BAF94EA0C0F94
:100A30000AD150EA01347FF434AF95EA0C0F7FF409
:100A400025AF104619462CE795EA0C0F06D152EA5D
:100A500003353FF4FDAE1046194622E750EA410641
:100A600018BF52EA43067FF4C5AE50EA41047FF452
:100A70000DAF52EA43057FF4EBAE12E74FF0FF3CB7
:100A800006E000BF4FF0010C02E000BF4FF0010C88
:100A90004DF804CD4FEA410C7FEA6C5C4FEA430C01
:100AA00018BF7FEA6C5C1BD001B050EA410C0CBF50
:100AB00052EA430C91EA030F02BF90EA020F0020B2
:100AC000704710F1000F91EA030F58BF994208BF19
:100AD00090422CBFD8176FEAE37040F001007047D6
:100AE0004FEA410C7FEA6C5C02D150EA013C07D12D
:100AF0004FEA430C7FEA6C5CD6D152EA033CD3D078
:100B00005DF8040B704700BF8446104662468C4671
:100B10001946634600E000BF01B5FFF7B7FF0028A4
:100B200048BF10F1000F01BD4DF808EDFFF7F4FFCD
:100B30000CBF012000205DF808FB00BF4DF808ED58
:100B4000FFF7EAFF34BF012000205DF808FB00BF7B
:100B50004DF808EDFFF7E0FF94BF012000205DF89D
:100B600008FB00BF4DF808EDFFF7CEFF94BF012052
:100B700000205DF808FB00BF4DF808EDFFF7C4FF4B
:100B800034BF012000205DF808FB00BF4FEA410C94
:100B90007FEA6C5C02D150EA013C0AD14FEA430C77
:100BA0007FEA6C5C02D152EA033C02D14FF00000B4
:100BB00070474FF0010070474FEA410212F50012F2
:100BC00015D211D56FF47873B3EB625212D94FEA94
:100BD000C12343F0004343EA505311F0004F23FA7E
:100BE00002F018BF404270474FF00000704750EAD3
:100BF000013005D111F0004008BF6FF00040704790
:100C00004FF00000704700BF4A0011D212F50012E9
:100C100011D20DD56FF47873B3EB62520ED44FEA54
:100C2000C12343F0004343EA505323FA02F07047D4
:100C30004FF00000704750EA013002D14FF0FF3012
:100C400070474FF0000070474FEA4102B2F1E043B5
:100C500024BFB3F5001CDCF1FE5C0DD901F0004CA3
:100C60004FEAC0024CEA5070B2F1004F40EB8300F3
:100C700008BF20F00100704711F0804F21D113F11F
:100C80003872BCBF01F00040704741F480114FEA58
:100C90005252C2F11802C2F1200C10FA0CF320FAE1
:100CA00002F018BF40F001004FEAC1234FEAD323FE
:100CB00003FA0CFC40EA0C0023FA02F34FEA430368
:100CC000CCE77FEA625307D150EA01331EBF4FF0F1
:100CD000FE4040F44000704701F0004040F0FE400C
:100CE00040F40000704700BF7BB972B90029BEBF55
:100CF00000204FF0004106E008BF00281CBF6FF045
:100D000000414FF0FF3000F0F1B9ADF1080C6DE992
:100D100004CE002909DB002B1ADB00F083F8DDF894
:100D200004E0DDE9022304B07047404261EB410179
:100D3000002B1BDB00F076F8DDF804E0DDE9022390
:100D400004B0404261EB4101524263EB4303704700
:100D5000524263EB430300F065F8DDF804E0DDE99F
:100D6000022304B0404261EB41017047524263EB01
:100D7000430300F057F8DDF804E0DDE9022304B096
:100D8000524263EB4303704753B94AB9002908BF85
:100D900000281CBF4FF0FF314FF0FF3000F0A6B924
:100DA000ADF1080C6DE904CE00F03CF8DDF804E08C
:100DB000DDE9022304B0704738B500220023044661
:100DC0000D46FFF7BBFE28B920462946BDE838404E
:100DD00000F00AB8204605F1004100F005F8404255
:100DE00061EB410138BD00BFD0B50C4B0022064677
:100DF0000F46FFF731FCFFF707FF0446FFF7B2FB92
:100E0000074B0022FFF728FC02460B4630463946C6
:100E1000FFF76AFAFFF7F8FE2146D0BD0000F03D6B
:100E20000000F0412DE9F047089E0D4604460F46AC
:100E3000002B4AD18A42944665D9B2FA82F343B173
:100E400002FA03FCC3F120029F4020FA02F217438A
:100E50009C404FEA1C4E1FFA8CF5B7FBFEF1220CAA
:100E60000EFB117742EA074201FB05F090420AD9D6
:100E70001CEB020201F1FF3780F01C81904240F22E
:100E8000198102396244121AA4B2B2FBFEF00EFBC1
:100E9000102244EA024400FB05F5A5420AD91CEBE6
:100EA000040400F1FF3280F00781A54240F2048182
:100EB0006444023840EA0140641B00211EB1DC405A
:100EC0000023C6E90043BDE8F0878B4208D9002E15
:100ED00000F0ED800021C6E900050846BDE8F08776
:100EE000B3FA83F1002949D1AB4202D3824200F226
:100EF000F880841A65EB030201201746002EE2D029
:100F0000C6E90047DFE702B9FFDEB2FA82F3002B41
:100F100040F090808A1A4FEA1C471FFA8CFE01218C
:100F2000B2FBF7F507FB1520220C42EA00420EFB4C
:100F300005F0904208D91CEB020205F1FF3802D2FD
:100F4000904200F2CB804546121AA4B2B2FBF7F0F1
:100F500007FB102244EA02440EFB00FEA64508D916
:100F60001CEB040400F1FF3202D2A64500F2BB8064
:100F70001046A4EB0E0440EA05409FE7C1F12007AC
:100F80008B4022FA07FC4CEA030C05FA01F420FA24
:100F900007F3FD404FEA1C492343B5FBF9F81FFA5C
:100FA0008CFE09FB18551C0C44EA054408FB0EF5A1
:100FB000A54202FA01F200FA01F00BD91CEB04047D
:100FC00008F1FF3A80F08880A54240F28580A8F1C0
:100FD00002086444641B9DB2B4FBF9F309FB13449B
:100FE00045EA044403FB0EFEA64508D91CEB0404A5
:100FF00003F1FF356CD2A6456AD9023B644443EA4B
:101000000843A3FB0295A4EB0E04AC42C846AE46CF
:1010100056D353D056B1B0EB080264EB0E0404FA79
:1010200007F7CA40CC401743C6E9007418460021B0
:10103000BDE8F087C3F1200102FA03FC20FA01F2B7
:1010400025FA01F19D402A434FEA1C471FFA8CFE06
:10105000B1FBF7F007FB1015110C41EA054100FB4D
:101060000EF58D4204FA03F408D91CEB010100F1DE
:10107000FF382FD28D422DD902386144491B92B2DC
:10108000B1FBF7F507FB151142EA014205FB0EF132
:10109000914208D91CEB020205F1FF3816D29142A9
:1010A00014D9023D6244521A45EA004138E73146FC
:1010B000304608E73946E6E61046FBE64845A9D241
:1010C000B9EB020865EB0C0E013BA3E74546EAE7E6
:1010D0002B4694E74046D1E7D0467BE7023D624489
:1010E00032E708460AE76444023842E7704700BF27
:1010F000014900200CF016BEA12B00087FB500238B
:10110000144C154D05930822012302A92046CDE970
:1011100002230523049305F0B3F8204604F0C4FF2E
:101120000A21204605F055F8204605F0A6F8019062
:10113000204605F033F80199284651F0C1FE0023FE
:10114000064801A91A4600680BF07AF90A200AF04D
:1011500079FFD8E7E0030020E8980508D0030020D5
:101160007FB50025124C134E05950122052302A9D7
:1011700020460295CDE9032305F082F8204604F0CD
:1011800093FF0A21204605F024F8204605F075F863
:101190000190204605F002F8002301A930681A46A4
:1011A0000BF04EF94FF47A700AF04CFFDDE700BF08
:1011B000E0030020D803002030B5ADF5025D364CC9
:1011C00081B006AD204651F01DFF0DF58250002282
:1011D000324908300AF0EAFA314851F013FF314839
:1011E0004FF0FF33002204A900680BF06BF90028D0
:1011F000E8D19DF810102C4851F062FE9DF81020A7
:101200002AB1012A2AD0294851F05AFEDAE70A22E7
:10121000274906A80AF00AFBE0B90599084601919A
:10122000FFF756F802AB0246019906A80AF0CEFC79
:1012300008B9029B1BB91F4851F0E4FE06E01E48A6
:1012400051F0E0FE05991D4851F03AFE28460AF09B
:10125000EDFDB7E71A4851F0D5FEB3E7144906A8EB
:101260000AF0E4FA0146A0B96422164852F04CFB99
:1012700003AB6422134906A80AF0DCFB08B9039B00
:101280000BB91148D8E7114851F0BCFE0D49104880
:10129000DAE71048DFE700BF0A9905081C090020BB
:1012A00018990508B80800201E990508019A050834
:1012B00039990508459905085C9905087799050845
:1012C0008B99050854080020A6990508BC990508C3
:1012D000D4990508E799050807B54FF6FF73019003
:1012E000012201A9034808F014FF019803B05DF83A
:1012F00004FB00BFCC07002010B594B030220021C1
:10130000022408A852F000FB1422002103A852F086
:10131000FBFA06F005FB204B192108A81A6F22F0F2
:1013200018021A671A6C42F080521A641B6C03F0A0
:1013300080530193019B194B1A6842F440421A6092
:1013400005221B68129403F440430293029B4FF45E
:101350008033CDE9082301230A934FF48003CDE9BC
:101360000E434FF4D873CDE910130923139306F0FD
:101370003BFE06F0DDFA0F2300200721CDE9033400
:101380004FF4A053CDE905034FF4805303A807930E
:1013900007F012F814B010BD003802400070004091
:1013A0002DE980489DB01022002101250FA84FF0A3
:1013B000104752F0A9FA002405F072F8CA4B0FA8A2
:1013C000ADF83C501294CDE9107305F087F817235F
:1013D0000FA88DF83D508DF844308DF84A5005F037
:1013E0007DF8042005F06AF8BFF34F8FBFF36F8FCD
:1013F000BE4AC2F85042BFF34F8FBFF36F8F53699D
:1014000043F400335361BFF34F8FBFF36F8FC2F8C4
:101410008440BFF34F8FD2F8803043F6E074C3F3BB
:10142000C900C3F34E335B0103EA0406014646EAF2
:1014300081750139C2F86052F9D2203B13F1200FB7
:10144000F2D1BFF34F8F536943F480335361BFF33D
:101450004F8FBFF36F8FA64E04F04AFDFFF74CFF8E
:10146000142200210FA852F04FFA336B00221021F2
:1014700043F010039F480024012533634FF0100808
:10148000336B4FF0030A02274FF0400B03F01003B9
:101490004FF004090493049B336B43F0020333635E
:1014A000336B03F002030593059B336B43F0040396
:1014B0003363336B03F004030693069B336B43F0F3
:1014C00001033363336B03F001030793079B336B13
:1014D00043F040033363336B03F040030893089BEE
:1014E000336B43F400733363336B03F4007309937A
:1014F000099B336B43F008033363336B03F008033A
:101500000A930A9B336B43F480633363336B03F4B6
:1015100080630B930B9B336B43F020033363336B7C
:1015200003F020030C930C9B336B43F48073336301
:10153000336B03F480730D930D9B336B43F0800387
:101540003363336B03F080030E930E9B05F0BAFCFC
:1015500001220821684805F0B5FC01224FF48051B2
:10156000664805F0AFFC0022C021654805F0AAFCE2
:1015700001224021634805F0A5FC01224021624878
:1015800005F0A0FC0FA95B48CDE9114ACDE90F8514
:1015900005F010FB08230FA95748CDE90F35CDE919
:1015A000114405F007FB4FF480530FA95348CDE9D0
:1015B0000F35CDE9114405F0FDFAC0220FA95048BE
:1015C000CDE90F25CDE9114A05F0F4FA0FA94D48F0
:1015D000CDE90FB5CDE9117405F0ECFA0FA94A4831
:1015E000CDE90FB5CDE9117405F0E4FA326B0521B0
:1015F000382042F480023263326B444E02F480029F
:101600000392039A224604F0F9FE382004F028FFE2
:10161000224605213B2004F0F1FE3B2004F020FF90
:1016200005212246452004F0E9FE452004F018FF7C
:10163000374A3046C6E90A44C6E90C44C6E90024E4
:10164000C6E9024405F0B6F929463046314E05F0A8
:1016500069FA314A4FF48053C6F814B0DFF8BCB0D1
:101660000FA93046B460B4620F97C6E900244FF466
:10167000C072C6E906244FF40062C6E908230723B6
:10168000C6E90398CDE9123ACDE91039CDE91477CE
:1016900008F064F959464FF6FF7230460294CBE9E0
:1016A0000058CBE9025408F079F9284604F044FCCC
:1016B00059464FF6FF723046CBE90078CBE9025429
:1016C00008F06CF9082359464FF6FF723046CBE913
:1016D00000A8CBE9023408F061F94FF40C734FF61F
:1016E000FF7259461CE000BF1B00000300ED00E044
:1016F000003802400004024000280240002002405E
:101700000008024000180240001C02404C04002067
:1017100000B0024098070020400100A0A403002070
:1017200002933046029B40F2352ACBF80850CBF8A2
:101730000C30CBE9009808F031F940F22B713046BB
:101740009E4E08F04AF943F2D2024FF02043642043
:101750004FF4806B1A6004F0EFFB994B99493046C7
:101760003462C6E90013C6E90245C6E90444C6E985
:10177000064405F0CFFC2146304605F0EDFE21463B
:101780003046914E05F00EFF342221460FA852F04C
:10179000BBF88E4B28204FF0350C40F2152EB48646
:1017A000346186F83640C6E900340923C6E90503EA
:1017B0000B233046C6E907C340F21B13C6E909E311
:1017C00040F21D13C6E90244C6E90BA305F092FFDF
:1017D00005214FF4F0724FF488734FF0FF0A304642
:1017E0001A930F94ADF86C408DF86E40784ECDE9A9
:1017F00016B14FF04041CDE91024CDE918120FA9E0
:101800002246CDE91237CDE914A406F03EF871481E
:10181000714B18220462C0E900354FF4A063C0E99F
:101820000298C0E90423C0E9064406F09BF904F0DD
:10183000DDF904F021F95C2004F020FE00F050FFF7
:10184000424621460FA852F05FF864494FF48033B6
:101850003046B4603561B56186F82040F462F460CA
:10186000F76186F830507561C6E900135C4BB362CE
:1018700004F074FB07230FA930461193CDE90F45FF
:1018800004F0FEFC08230FA93046564ECDE90F3771
:1018900004F0F6FC54484FF4E13304614462C0E9BB
:1018A00000630C23514EC0E90534C0E90244C0E98D
:1018B000074408F0A2FC142221460FA852F024F895
:1018C0004B4B30460194B461C6E900347F23C6E92E
:1018D0000444C6E9023A07F022F943F617332246D8
:1018E0000FA93046ADF83C308DF83E50CDE912449A
:1018F00007F068F93F4B22460DEB09013046019392
:1019000007F0B9F949464A46304607F046FA3A4BDD
:101910003A4A3B489C6184800562C3E900244FF445
:101920000062C3E90244C3E90424364BC0E905441C
:10193000036004F0FFFD00F065FD00F0FDFE00F027
:10194000FAFE0AF0CDFA304A39460A200AF032FD92
:101950002E4B2F4A394618600A200AF02BFD2D4BDA
:101960002D4A4946186040460AF024FD2B4B2C4A6C
:10197000214618602B480AF011FB2B4B2B4A2146BD
:1019800018602B480AF00AFB2A4B2B4A21461860A4
:101990002A480AF003FB2A4B2A4A214618602A48A3
:1019A0000AF0FCFA294B2A4A2146186029480AF015
:1019B000F5FA294B18600AF0BDFAFEE7AC050020E5
:1019C00068474020005C004000060020006801409D
:1019D000E0030020A8060020001000A00022014023
:1019E0000100000F00100140CC070020F406002089
:1019F000002800400603171814070020002C01409F
:101A00002804002000300240A49A0508D0030020DA
:101A1000E09A0508D80300201C9B0508B8080020A0
:101A2000809A050847270008CC030020589B05082A
:101A3000B9410008C0080020BC9A0508FD10000844
:101A4000D4030020F89A050861110008DC03002087
:101A5000349B0508B9110008BC0800200268034B3C
:101A60009A4201D104F056BA704700BF00100040FE
:101A7000704700000D4B82B00F216FF001001A6C0F
:101A800042F080521A641A6C02F080520092009A5E
:101A90005A6C42F480425A6400225B6C03F4804327
:101AA0000193019B02B004F0A9BC00BF00380240C2
:101AB000F0B589B005461422002103A851F024FF97
:101AC0002A68284B9A424AD103F58B3303244FF4FA
:101AD000806703A95A6C0026234842F480625A6446
:101AE0005A6C02F480620092009A1A6B42F0200253
:101AF0001A631A6B02F020020192019A1A6B42F0EB
:101B000001021A631B6B03F001030293029BCDE9F0
:101B1000037405F04FF8012303A914480596CDE995
:101B2000033405F047F8124C4FF08063114A4FF42C
:101B30000061204627616662C4E900234FF4005328
:101B4000C4E905134FF48073C4E90266C4E907369B
:101B500004F064FD08B1FFF78BFFAC63A56309B027
:101B6000F0BD00BF0022014000140240000002400E
:101B70008C04002010640240026882B0084B9A4234
:101B80000BD1D3F8302803F5006342F480521A6376
:101B90001B6B03F480530193019B02B0704700BF9D
:101BA000003002400E4B07B502689A4215D1A3F5EA
:101BB000F04305215A201A6B42F400021A630022F6
:101BC0001B6B03F400030193019B04F017FC5A20E4
:101BD00003B05DF804EB04F043BC03B05DF804FB14
:101BE00000B0024010B5A8B004461422002102A89B
:101BF00051F08AFE8422002107A851F085FE226858
:101C0000174B9A422AD14FF4803307A8079306F066
:101C1000AFFC08B1FFF72CFF124C4FF4C07201214A
:101C20001148236B43F080032363236B03F080038D
:101C30000093009B1223CDE902230323CDE9041373
:101C4000042302A9069304F0B5FF236C43F40003B8
:101C50002364236C03F400030193019B28B010BD9F
:101C6000005C004000380240001C0240026808B5D9
:101C7000094B9A420FD1094A80210948136C23F479
:101C80000003136405F078F84FF480710448BDE850
:101C9000084005F071B808BD005C00400038024003
:101CA000001C024070B5ACB004461422002106A806
:101CB00051F02AFE842200210BA851F025FE226853
:101CC000464B9A4240F08880082303200B93C023A0
:101CD00010930223CDE9113001230BA8159306F0D0
:101CE00047FC08B1FFF7C4FE3D4B002402250E2639
:101CF0005A6C06A93B4842F080625A645A6C02F062
:101D000080620092009A1A6B42F010021A631A6BFA
:101D100002F010020192019A1A6B42F400721A63E7
:101D20001A6B02F400720292029A1A6B42F48062F9
:101D30001A631A6B02F480620392039A1A6B42F0E0
:101D400040021A631A6B02F040020492049A1A6B62
:101D500042F480721A631B6B03F480730593059B36
:101D60001023CDE90635CDE908440A9604F022FF98
:101D70004EF6FF7306A91C480A96CDE90635CDE953
:101D8000084404F017FFF72306A918480A96CDE97E
:101D90000635CDE9084404F00DFF4FF4805306A941
:101DA0001348CDE906350923CDE908440A9304F028
:101DB00001FF4FF4464306A90E480A96CDE90635C1
:101DC000CDE9084404F0F6FE58202246052104F02F
:101DD00015FB582004F044FB2CB070BD0068014096
:101DE0000038024000100240002402400028024057
:101DF0000018024000200240142200212DE9F04189
:101E00008AB004460DEB020051F07EFD22682C4B97
:101E10009A4251D12B4B0225032409269A6B4FF08D
:101E2000040805A9284842F0020200279A639A6B29
:101E300002F002020192019A1A6B42F010021A6338
:101E40001A6B02F010020292029A1A6B42F002021E
:101E50001A631A6B02F002020392039A1A6B42F0A1
:101E600008021A631B6B03F008030493049BCDE97B
:101E70000585CDE9084604F09DFE402305A91348D9
:101E8000CDE905350A23CDE90774099304F092FEE4
:101E900005A90E480996CDE90585CDE9077404F03A
:101EA00089FE4FF4605305A909480996CDE9053527
:101EB000CDE9077404F07EFE0AB0BDE8F08100BFF2
:101EC000001000A000380240001002400004024050
:101ED000000C0240026808B50B4B9A4213D10B4A22
:101EE00004210B48936B23F00203936304F044FF37
:101EF0004421084804F040FF4FF460510648BDE813
:101F0000084004F039BF08BD001000A000380240AE
:101F10000010024000040240000C024010B5A2B0C4
:101F200004468422002101A851F0EEFC22680A4BED
:101F30009A420FD1202301A801934FF480730D938F
:101F400006F016FB08B1FFF793FD044A136F43F444
:101F50000043136722B010BD002800400038024043
:101F60002DE9F043ABB005461422002104A851F03E
:101F7000CBFC8422002109A851F0C6FC2A684E4BF4
:101F80009A4240F095804FF4200309A8099306F087
:101F9000EFFA08B1FFF76CFD484B00264FF002093D
:101FA00003275A6C0C2404A9454842F400624FF000
:101FB00004085A645A6C02F400620192019A1A6B86
:101FC00042F004021A631A6B02F004020292029AAF
:101FD0001A6B42F008021A631B6B089403F00803A3
:101FE0000393039B4FF4F853CDE90667CDE9043919
:101FF00004F0E0FD04A933480894334CCDE904898A
:10200000CDE9066704F0D6FD4FF00063DFF8C4E0C9
:102010004FF480694FF480424FF400012046A762DC
:10202000C4E900E34FF48053C4E904932023C4E9D6
:1020300006234FF40013C4E90266C4E90868C4E942
:102040000B1304F0EBFA08B1FFF712FD1F4A4FF033
:1020500000632C644021A5634FF480601C4C04276E
:102060004FF480464FF4000CC4E9002300234FF4E2
:102070008052C4E9021323620323C4E90402C4E9C1
:10208000097320224FF400132046C4E90662C4E914
:102090000BC304F0C3FA08B1FFF7EAFC31200022B9
:1020A0000521EC63A56304F0A9F9312004F0D8F907
:1020B0002BB0BDE8F08300BF002C01400038024087
:1020C00000080240000C0240EC040020A064024022
:1020D0004C05002058640240F0B5ABB00446142211
:1020E000002104A851F010FC8422002109A851F01D
:1020F0000BFC2268204B9A423CD1402309A809934B
:1021000006F036FA08B1FFF7B3FC1C4B0227002695
:1021100003255A6C072404A9194842F010025A6496
:102120005A6C02F010020192019A1A6B42F00202FC
:102130001A631A6B02F002020292029A1A6B42F0C0
:1021400001021A631B6B089403F001030393039BC2
:102150008023CDE90665CDE9043704F02BFD4FF46B
:10216000007304A907480894CDE90437CDE9066552
:1021700004F020FD2BB0F0BD0010014000380240FB
:102180000004024000000240F0B5002387B0039332
:10219000294B1E68002E4DD10122022703250C2455
:1021A0001A6001A9254B26489A6B42F001029A63F6
:1021B0009B6B03F001030093009B4FF68373CDE903
:1021C0000454CDE9013704F0F5FC48F2331301A9BA
:1021D0001C480594CDE90137CDE9036504F0EAFC1C
:1021E0004CF2037301A918480594CDE90137CDE9F4
:1021F000036504F0DFFC4FF63F0301A91348059483
:10220000CDE90137CDE9036504F0D4FC282301A909
:102210000F480594CDE90137CDE9036504F0CAFC08
:10222000082301A90B480594CDE90137CDE90365E1
:1022300004F0C0FC07B0F0BDC40800200038024024
:102240000010024000180240000C0240001402403E
:10225000001C024000080240214B1A6C42F01002A0
:1022600070B51A6488B01B6C054601A903A803F079
:1022700010030293029B06F05DF9069B4BBB06F030
:1022800039F9184E184B336040F2E733F360174BBF
:10229000B0FBF3F3013B3046736000233361B3605E
:1022A000B36107F00BFD044680B9304607F0AEFB82
:1022B000044658B9362004F0D3F80F2D0DD8224625
:1022C0002946362004F09AF8094B1D60204608B0D4
:1022D00070BD06F00FF94000D3E70124F6E700BF18
:1022E00000380240C80800200010004040420F00A3
:1022F000440000207047FEE7FEE7FEE7FEE7704778
:10230000014807F029BA00BF14070020014807F070
:10231000BFBB00BFC8080020014804F08BBA00BF53
:102320008C040020014804F085BA00BFEC040020B2
:10233000014804F07FBA00BF4C050020014805F0B9
:1023400047BA00BF00060020014804F061BB00BF8F
:102350004C0400200120704708B553F097FA16236B
:1023600003604FF0FF3008BD08B553F08FFA162315
:102370000360FEE770B50D4614460E46731B9C4283
:1023800001DC204670BDAFF3008006F8010BF5E7D5
:1023900070B50D4614460E46731B9C4201DC204668
:1023A00070BD16F8010BFEF797FFF5E74FF0FF3011
:1023B00070474FF4005300204B6070470120704776
:1023C000002070470B4A0346116810B509B90A4945
:1023D0001160106809490A4C0344091B8B4206D955
:1023E00053F054FA0C2303604FF0FF3010BD13601C
:1023F000FCE700BF18090020989C01200000052080
:10240000000A000008B50349034809F049FD034BE1
:10241000187008BD1C0900207C9B050820090020BD
:102420000020704708B513460A460146034806F0E7
:102430007FFD003818BF012008BD00BF1407002031
:1024400008B513460A460146034806F001FE003867
:1024500018BF012008BD00BF1407002008B50348BD
:1024600007F016F9043818BF012008BD1407002032
:102470000146014807F06FB814070020704708B5FF
:10248000FFF7FCFF08BD08B500F006F908BD08B568
:1024900000F014F908BD82B001238DF807309DF8D3
:1024A000070002B07047000008B5FFF7F4FF0128ED
:1024B0000CD1074807F034F838B94FF400610448EC
:1024C00007F05CF8003818BF012008BD0220FCE7C7
:1024D00014070020134B30B51C7889B0154614F052
:1024E00001041BD1032903D8DFE801F01A060C12FE
:1024F0000424204609B030BD6846FFF7B9FF069BAB
:102500002B60F6E76846FFF7B3FF079B2B80F0E7E9
:102510006846FFF7ADFF079B5B0AF1E70324E8E796
:102520000C46E6E70800002010B50123054C237097
:10253000FFF794FF18B9237803F0FE032370207887
:1025400010BD00BF0800002038B509F013FD47F2A8
:102550002F55044609F00EFD031BAB4202D94FF084
:10256000FF3003E0FFF77AFF0028F3D138BD000009
:1025700030B585B00C4601920093FFF7E5FF0028C7
:10258000DDE9002102DA012005B030BD2046FFF769
:1025900057FF02460028F6D10E4847F230530DF19E
:1025A0000E01006809F08EFF0028ECD1BDF80E3056
:1025B000022BE8D109F0DEFC47F22F55044609F062
:1025C000D9FC031BAB42DED8FFF748FF0028F6D149
:1025D000DAE700BF2409002030B585B00C4601922F
:1025E0000093FFF7B1FF0028DDE9002102DA0120A6
:1025F00005B030BD2046FFF715FF02460028F6D192
:102600000E4847F230530DF10E01006809F05AFFF1
:102610000028ECD1BDF80E30012BE8D109F0AAFC5E
:1026200047F22F55044609F0A5FC031BAB42DED848
:10263000FFF714FF0028F6D1DAE700BF24090020D5
:1026400038B5134C0125257009F064FC02281DD112
:10265000FFF72AFF50B92570FFF700FF18B923785C
:1026600003F0FE0323702378DBB223702378012B61
:102670000CD0084D2A684AB902210A2009F09AFEB6
:10268000286018B9237843F001032370207838BDFF
:102690000800002024090020022307B5ADF8063009
:1026A000002305480DF106011A46006809F0C8FE2E
:1026B00003B05DF804FB00BF24090020012307B527
:1026C000ADF80630002305480DF106011A460068F2
:1026D00009F0B6FE03B05DF804FB00BF240900203A
:1026E00070470000DFF834D0002103E00C4B5B584A
:1026F000435004310B480C4B42189A42F6D30B4A14
:1027000002E0002342F8043B094B9A42F9D303F05C
:1027100005FB53F0C1F8FEF743FE704700000520AB
:10272000783D060800000020880300208803002070
:10273000949C0120FEE7704708B501F017F9BDE849
:10274000084001F099B801F013B940687047416042
:10275000704700004FF0E022D2F8FC3D43F0807358
:10276000C2F8FC3D054B064AD3F8B01F0A43C3F834
:10277000B02F1A6842F001021A607047001000E0A2
:1027800055CEACC5511A01EB5301B1FBF3F07047C4
:10279000014B5868704700BF001000E0704710B54B
:1027A00004460C2134F081F8204610BD036810B5B2
:1027B0001B69044631B19847A26863689B1A1844A4
:1027C000606010BD9847A060FBE70000024B7020DE
:1027D000024A1360DB68184718000020280900200F
:1027E000704710B50446042134F05FF8204610BD50
:1027F00073B50E4E0D461446336813B9002002B06F
:1028000070BD1B69702098470028F7D0336870208E
:1028100001AA0DF106015B699847BDF8043001205B
:102820002B60BDF806302360E9E700BF28090020CF
:102830007FB501238DF817204FF47A72CDE901326C
:102840000DF1170200920A460146054804F0CCFC3F
:1028500010B1034804F0AFFC07B05DF804FB00BF03
:10286000AC0500207FB500230A464FF47A718DF83D
:1028700017300123CDE901310DF117010091014617
:10288000054804F08BFD10B1034804F094FC9DF85A
:10289000170007B05DF804FBAC05002001280ED03E
:1028A000022814D0D0B90E4B00F1804010211A68D4
:1028B00000F50130B2FA82F2520904F003BB084B72
:1028C00040215A68B2FA82F252090648F5E7044BF1
:1028D00080219A68B2FA82F25209F6E7704700BF87
:1028E0002C0900200008024001280ED0022814D034
:1028F000D0B90E4B00F1804010211A6800F501306C
:10290000003A18BF012204F0DDBA084B40215A6892
:10291000003A18BF01220648F5E7044B80219A6867
:10292000003A18BF0122F6E7704700BF2C090020CB
:1029300000080240012809D002280AD058B900F145
:102940008040102100F5013004F0C1BA4021024856
:10295000FAE78021FBE7704700080240012808B52C
:102960000DD002280ED078B900F18040102100F57A
:10297000013004F0A1FA431E5842584108BD4021DD
:102980000248F6E78021FBE70020F4E70008024058
:1029900070B5084D00240126E0B2FFF7DFFF18B143
:1029A0002B68012B18BF2E6001340435052CF3D1A0
:1029B00070BD00BF2C090020012380F8781080F83A
:1029C000793070470020704741640039024B18BFCE
:1029D00001211970704700BFF7790120002070476E
:1029E000836B0BB10846184770474FF6FF7070476E
:1029F000406803689B6918477047000038B5044673
:102A000001F00CF9084923682046084DD3F88C30B2
:102A100098470023284684F84A30FFF79BFE01239D
:102A2000256184F8703038BD000000C03C090020EA
:102A300001F096B801F09AB870B501F019F9104993
:102A40000023C1F88430BFF34F8FD1F8803043F6B4
:102A5000E074C3F3C900C3F34E335B0103EA040619
:102A6000024646EA8275013AC1F87452F9D2203B17
:102A700013F1200FF2D1BFF34F8FBFF36F8F70BDF3
:102A800000ED00E001F0F6B801F046B801F010BA30
:102A900001F018BA01F04AB810B504461AF0A0FACD
:102AA00023682046D3F8AC30BDE81040184719F031
:102AB000F5BC10B504467C2133F0F7FE204610BD6E
:102AC00090F87A301BB1406803681B6818471846B5
:102AD0007047000090F834100D4B10B590F8784016
:102AE0001A788C4209D03AB90A490B4A08881488E6
:102AF000108001220C801A7010BD002AFCD0064AFA
:102B00000449148808880C8010800022F3E700BF75
:102B1000F0790120EE790120EC79012070B50D46A5
:102B2000194635B9094B40F2D221094A09484EF0FD
:102B3000C3F8C0E90F52003A074B18BF01221A70C0
:102B40000368BDE87040D3F88C301847D09B050867
:102B5000089C0508569C0508F679012008B5094B24
:102B60001B888B4203D8084B1B88934205D9074B1F
:102B70009E21074A07484EF09FF8074B1980074BE4
:102B80001A8008BDEC790120EE7901209B9C050894
:102B9000FE9C0508569C0508F2790120F479012075
:102BA000014608B5034B186801B101211AF032FA49
:102BB000012008BDF8790120034B00225A609A6079
:102BC000024A1A60704700BF3C090020989B050824
:102BD0000121002208B5084609F0ECFA0A4B1860FA
:102BE00028B90A4B28210A4A0A484EF065F8002203
:102BF0000421012009F0DEFB074B186018B9074BD0
:102C00002C21034AF0E708BD4C0900201C9E050852
:102C1000659E0508949E050848090020DD9E05086C
:102C2000024B4FF0FF31186809F01ABB4C09002025
:102C3000014B186809F04EBB4C090020024B0021E3
:102C4000186809F00DBB00BF4C090020FFF7F0BF6A
:102C50000023034803491A46006809F0F1BB00BF8E
:102C6000480900200C00002013B50023074C01A9DF
:102C70001A46206809F026FC4FF0FF33002201A914
:102C8000206809F01FFC02B010BD00BF48090020F9
:102C900003685B6C18470120704703689B6A1847FC
:102CA0000D4B82B01A6B42F400021A631A6B02F4E5
:102CB00000020192019A1A6942F400021A611A692B
:102CC00022F400021A61054B054A1A614FF0806236
:102CD000044B9A6002B07047003802404C04002058
:102CE000292D000800E100E040F2EF3070470000BD
:102CF000054B4FF080620360044BC3F88820BFF39C
:102D00004F8FBFF36F8F704778A0050800E100E098
:102D100010B504464FF45A61FFF7EAFF204633F03E
:102D2000C4FD204610BD0000024B1B6858680368B4
:102D30005B691847F879012070B504460A4B0C30DE
:102D400000262546602260602672667245F8203BA8
:102D500029461AF0B5FA04F55A63EE602435AB4201
:102D6000FBD1204670BD00BF78A0050808B50B292F
:102D70000BD8DFE801F01206100A0A0A0A08080850
:102D80000808012008BD0520FCE7054B6521054A20
:102D900005484DF091FF0020F4E70220F2E700BF64
:102DA0001F9F05083A9F0508849F050808B50A2952
:102DB00009D8DFE801F010060E0808080806060624
:102DC0000600012008BD054B8621054A05484DF047
:102DD00073FF0020F6E70220F4E700BF1F9F0508FD
:102DE000CB9F0508849F05082DE9F84391F81D80C5
:102DF0000C4607464146FFF7B9FF94F81E9005467A
:102E000038464946FFF7B2FF494606463846FFF7BF
:102E1000CDFFA18A628B434B521A1A649A61228BAE
:102E2000521A1A61E28A586342EA014220695A64DE
:102E30006268D863DA602768802F28D0227F0FD895
:102E4000202F65D0402F63D0042F1AD045EA0265A9
:102E5000344BC84545F40035DD615FD0324A44E06B
:102E6000B7F5807F04D0B7F5007FEFD12F4900E0A0
:102E70002F4941EA0262DA61E2681A625E625861D1
:102E800032E045EA026242F40032DA61F6E7A7680E
:102E90003A1DDA62217F3A7845EA016545F400354A
:102EA000DD615E62586142B1012A21D0214B4FF4AD
:102EB0008871214A21484DF0FFFEDA69798822F4B1
:102EC0007F42013922F0100242EA01220121DA6137
:102ED000144BDA6942F02002DA61DA699206FCD416
:102EE00010229A600029B9D0154A1A60BDE8F8830B
:102EF000DA69FF39788822F47F4218BF012101384E
:102F000022F0100242EA002242F01002DA61DFE70A
:102F100045EA0262034B42F40032B6E740F2012276
:102F2000E3E700BF00B00240010201000900020017
:102F30000A00020016A0050830A00508849F0508B5
:102F40000102020038B50C46897FFFF72FFF174BAF
:102F5000A58AE28A586342EA054221695A64628B73
:102F6000D963521B1A642568082D0ED19A611A6123
:102F700058620F4A207F42EA0062DA61E2681A6210
:102F80000C4A5961D9601A6038BD0022D8611A61B3
:102F9000E1680A0A4809C1F3C40102F4784200F466
:102FA000FC6002430A439A63034AECE700B0024024
:102FB000090001000102020001020300034B1A682C
:102FC000D207FCD423229A60704700BF00B00240B1
:102FD00030B5104C2568ED07FCD423250904FF2BE0
:102FE000A56041F001014FF0020565636164E06393
:102FF0000AD00949656241EA0363E361074B226233
:103000006061E060236030BDE561039BA363044B16
:10301000F8E700BF00B00240090001000100020013
:10302000010003004069704790F844007047036B4B
:1030300023B9C06A003818BF0120704701207047CB
:1030400080687047043010B50C460FC884E80F0044
:1030500010BD704708B5034A40F21221024B0348E5
:103060004DF02AFEC0A00508DFBB05081BA105081E
:1030700010B50446482133F018FC204610BD00006E
:103080002DE9F0431C46436BADF51F7D05460E460A
:103090001746002B37D0002203A8DFF8A890CDE90F
:1030A000013211F09FFB4FF4F4725021249024A8B8
:1030B0000BF0E7FA3A46314624A80CF063FA0121F6
:1030C00024A80BF0E1FB022324A88DF8D8300BF0E4
:1030D0007FFCBDF898322B9ABDF89C629342A89F62
:1030E00028BF1346419A964203EB4308A7EB4307D8
:1030F00028BF1646479B9E4209D824A80BF0E6FB42
:1031000024A80BF00BFB0DF51F7DBDE8F083012219
:1031100001A924A80BF0A5FC6B6B03EB08009842F7
:1031200001D83C44E6E759789A78C90009EA0222B6
:1031300001F4FC610A4313F8031B42EAD10224F8AC
:10314000022BECE700F8FFFF0A4A02600022C0E908
:103150000522C0E90722C0E90922C0E90B22C0E923
:103160000D12C0E90F2280F84420C0E90322C0E913
:1031700001227047F8A3050810B40C4611461A4600
:10318000036B3BB1036C806BE41A20445DF8044B85
:1031900050F0B4BDC06AF8E7036B10B573B1036CAF
:1031A000826BC91A5318525C98785C780004DB78FB
:1031B00040EA0420104340EA036010BDC36A585837
:1031C000FBE7036B43B1036CC91A836B5A18585C55
:1031D000527840EA02207047C36A585A704700008C
:1031E00070B50446006B0D461646D8B1E36B9342AA
:1031F00008D209230D4A65210D4884F844300D4B4F
:103200004DF05AFD0368DB689847206B3246A16B8E
:1032100003681B69984710B90D2384F84430A06BEC
:10322000256470BDE06A0844FBE700BF81A1050882
:103230001BA105086EA105082DE9F8434369044662
:103240002BB9234BAA21234A23484DF035FD0822F0
:103250008169FFF7C5FFA16943F2300646F2643782
:1032600004312046FFF798FFA3691844A36A00F1D0
:1032700008029A4206D3012300206361236AA361F6
:10328000BDE8F883636909300822013320F00101A9
:1032900020466361A161FFF7A3FFD4F81890204690
:1032A0004946FFF78EFF09F1020180462046FFF7ED
:1032B00088FF09F1040105462046FFF76DFFB04580
:1032C000D2D1BD42D0D10028CED00120D8E700BF56
:1032D000C3A105080CA205081BA105082DE9F04FA4
:1032E0000446ADF51F7D8A46164681690822984638
:1032F000FFF776FFA7692046391DFFF74DFF07F15D
:103300000801024605462046FFF76AFF636B074641
:1033100033B93C4B40F2AB113B4A3C484DF0CCFC3E
:10332000002203A8CDE9013211F05CFA4FF4F472E7
:103330005021249024A80BF0A4F92A46394624A849
:103340000CF020F9012124A80BF09EFA022324A8F6
:103350008DF8D8300BF03CFBBAF90250479BAB42DA
:1033600029D3BAF900904FEA4808BAF804702B9BA9
:1033700008FB05664F44BAF80250DFF894B03FB23C
:103380009F4228BF1F46BAF8063009EB490A1D4480
:10339000419B2DB29D4228BF1D46479BAB4210D397
:1033A00024A80BF093FA24A80BF0B8F901200DF52E
:1033B0001F7DBDE8F08F012201A924A80BF051FB6D
:1033C000CCE7012201A924A80BF04BFB626B494614
:1033D0005244B94202F1030201D34644DDE712F838
:1033E000020C12F8013CC0000BEA032300F4FC605D
:1033F000034312F8030C43EAD00326F811300131DD
:10340000E7E700BF3FA2050895A205081BA1050834
:1034100000F8FFFF0129036838BF0121DB6A70B59E
:103420000D4604469847A84204D223682046DB6A2A
:10343000984705466B1EE6691022204606EB0316E8
:1034400006F10801FFF7CCFE06F110012046FFF758
:10345000A3FE236A043B0344C4E9055370BD000086
:103460002DE9F341002104464822816180F844108F
:10347000FFF7B6FEA7690423634A39462046FFF7E3
:103480007BFE40B10323614AF22184F84430604B53
:1034900060484DF011FC07F1080104235E4A204604
:1034A000A161FFF769FE30B10423584AFA2184F87C
:1034B00044305A4BECE707F10C010423584A2046EC
:1034C000A161FFF759FE064638B105234F4A40F285
:1034D000011184F84430534BDAE707F1100120461C
:1034E000FFF75AFE054620B94F4B40F20711474AF5
:1034F000CEE707F1140804234C4A20464146FFF763
:103500003BFE00284BD0062384F844300423484A6D
:1035100007F118012046FFF72FFE002841D00723AE
:1035200084F844304544434F0C2220462946FFF797
:1035300057FE05F1080604233A4620463146FFF7B8
:103540001BFE94F8443000284AD0002B4AD1A36ACD
:10355000291DAB424AD805F10C03291D2046A36161
:103560000191FFF719FE3044019960622046FFF790
:1035700013FE0644042220463146FFF731FE0423A1
:103580002D4A31462046FFF7F7FD002839D10123A7
:10359000E6616361A369236202B0BDE8F0810126A0
:1035A000B4E7002EBED007F120012046FFF7F4FD5E
:1035B0004FF47A7307F13001B0FBF3F060602046FE
:1035C000FFF7EAFD07F14001A0602046FFF7E4FDA8
:1035D00007F14401E0602046FFF7DEFD2061A1E72E
:1035E000002BB8D00A2384F84430D5E72046FFF7F3
:1035F000D3FD08300C22054420462946FFF7F0FD94
:1036000097E70B23EFE700BFEFA205080DA305081E
:10361000F4A205081BA105083AA305083FA3050865
:1036200057A305085CA3050872A305087EA3050837
:1036300083A3050888A305088DA30508C0E90A210E
:1036400000220263FFF70CBF10B5002304460846B2
:10365000E3620B6821639B689847A0622046BDE83F
:103660001040FFF7FDBEF0B4BDF81050BDF8146077
:103670002AB123B1CDE90456F0BCFFF701BDF0BC7F
:10368000704700002DE9F04F9946436985B0044624
:103690000F4690462BB92A4B77212A4A2A484DF0EB
:1036A0000BFB08228169FFF79BFDA6692046314686
:1036B000FFF787FDB11C83462046FFF782FD311DD1
:1036C00082462046FFF768FD06F10801A36A054619
:1036D00042189A4227D243F230039B4517D146F253
:1036E00064339A4513D190B10246A1612046FFF799
:1036F00077FD0E9B01462A462046CDF80080CDE995
:1037000001933B46FFF7AFFF636901336361A36930
:103710002B448DB1A361A369626A013323F00103D5
:103720009342A3610AD10120236A6061A36180F002
:10373000010005B0BDE8F08F0833EBE70020F6E7A5
:10374000C3A1050892A305081BA105080120704725
:103750000C2070470C2303FB0100083070470C233A
:1037600003FB0100083070470120704742F294309B
:10377000704742F2943303FB01000830704742F275
:10378000943303FB0100083070470120704710207C
:10379000704700EB01100830704700EB0110083053
:1037A0007047084600F02CBF034B10B50446036079
:1037B00018F036F8204610BDA0A4050810B5044640
:1037C000FFF7F2FF1421204633F06FF8204610BDBA
:1037D000034B10B50446036018F022F8204610BDD4
:1037E0006CA4050810B50446FFF7F2FF42F29C31C5
:1037F000204633F05AF8204610BD0000034B10B5A8
:103800000446036018F00CF8204610BD38A40508E3
:1038100010B50446FFF7F2FF1821204633F045F8B3
:10382000204610BD094B10B50446036000F50F504B
:103830000830FFF7B9FF04F12C00FFF7C9FF04F1CE
:103840001400FFF7DBFF204610BD00BFD4A405081D
:1038500008B50248FFF7E6FF08BD00BF5409002085
:1038600010B50446FFF7DEFF42F26C51204633F0FC
:103870001CF8204610BD00002DE9F34100F034FD96
:103880000024054600F034FD234601462246284622
:10389000009424F05DFE274B274A2046274D1A60EE
:1038A00001F0B4FD264B274A27489A6024F0B8FD62
:1038B0002B68BFF35B8FDB0736D4284632F0F7FF67
:1038C00090B3224C224F234B04F1140007F1480619
:1038D00004F12C0823606060C4F80880E76026616A
:1038E00017F0A0FF1C4B4046636117F09BFF1B4B7A
:1038F0003846E36217F096FF04F50053184A03F5C3
:103900007770C3F8C82301F005FE224607F11401C1
:10391000304601F0F5FD304600F072FE11484DF0E2
:10392000E9F9284632F0CFFF0F4802B0BDE8F04178
:10393000FFF764B85C7A0120FC3C002050090020AD
:10394000003D0020C02E002010000020540900205F
:103950001C2D0020D4A4050838A405086CA4050873
:10396000A0A4050851380008803C002070470000E2
:10397000014818F0FCBD00BF803C002070B5244E0B
:10398000244B254C3046254D2360FFF7D5F92846BA
:1039900029F0B8F8224821F00BFB224B00224FF40B
:1039A000807121481A8683F858205A6683F870205F
:1039B0005A67DC60C3E912121C49C3E91A121C4998
:1039C00099671C490B604FF4F07101801A4801801F
:1039D0004FF488711948C3E90422C3E90622C3E9F8
:1039E0000822C3E90A22C3E90E22C3E91022C3E96F
:1039F0001422C3E91722C3E901650180104883F846
:103A0000342001800F490A700F4A1A6070BD00BF50
:103A1000E02E0020C09B0508DC2E0020003D002089
:103A2000C02E0020803C0020EC7901200100000124
:103A300000000101F8790120F2790120EE790120DE
:103A4000F4790120F07901204C9D05080148FFF729
:103A50004FB900BFE02E00200020704781807047E2
:103A6000C18070470181704741817047704770473E
:103A700070477047704710B4C4880368121B84886D
:103A80005B6D091B12B25DF8044B09B218474FF683
:103A9000FF7383814FF0FF3303621368C3611060CB
:103AA000704790F825201AB190F8242002B11860D0
:103AB0007047002070478B888380012070477047D3
:103AC00080F82610704790F826007047002210B545
:103AD000B1F90840B1F90A10028042808480C180A7
:103AE00010BD0022028042808280C2807047017730
:103AF000704780ED080A704780F82410704780F8FE
:103B00002510704701207047983070478C307047FF
:103B10008430704770470000034B902283F85A238B
:103B200083F85823704700BF00E100E0094A0A49C2
:103B3000D3680A48C3F30A03013B9BB20B801169A7
:103B4000C1F30A01013901801364536B43F001038F
:103B50005363704700680140E63D0020E43D0020CB
:103B6000014BD3F8AC00704700680140024B0122C2
:103B7000C3F8AC105A62704700680140124A53699A
:103B8000DB0370B51ED50023C2F88430BFF34F8F1E
:103B9000D2F8803043F6E074C3F3C900C3F34E3368
:103BA0005B0103EA0406014646EA81750139C2F861
:103BB0007452F9D2203B13F1200FF2D1BFF34F8F93
:103BC000BFF36F8F70BD00BF00ED00E0704770471E
:103BD00070473823002201FB0333C25490F8383079
:103BE0000BB9036C83647047704780F84C107047C2
:103BF00010B50446582132F058FE204610BD10B5CD
:103C000004462C2132F051FE204610BD10B504466A
:103C1000BC2132F04AFE204610BD000038B50446F3
:103C200018F091FC23685D6E20F06CF80146204688
:103C3000A8472368084A2046D3F888500023A2F5F5
:103C40007F31A847054B064A5A60064A1A649A64AF
:103C50004FF4FF225A6438BD00F807C08C3D0020A5
:103C60002446002000F40BC018F054BC18F05EBCD1
:103C700018F01ABC18F089BD90F8252012B103681D
:103C80005B6918477047000008B531B1044B40F23A
:103C90009711044A04484DF00FF890F8390008BD18
:103CA000E0A40508F4A4050881A6050810B531B103
:103CB000064B40F29111064A06484CF0FDFF406861
:103CC00011460368BDE810401B6B1847E0A40508C7
:103CD000C3A6050881A6050808B529B1034B7A21BA
:103CE000034A04484CF0E8FF006908BDE0A4050859
:103CF00074A8050881A6050808B529B1054B8321DC
:103D0000054A06484CF0D8FF41618160C0E906329F
:103D100008BD00BFE0A405082CAA050881A6050877
:103D200010B5044629B1274BA421274A27484CF057
:103D3000C3FF052A34D8DFE802F003292F34393EC7
:103D4000406803681B69984750B34FF0FF31606DBE
:103D500008F0D6F90023012294F83E1084F83B3095
:103D600084F83920A360636101B1226284F83E3097
:103D70006362E36A2BB90123206D84F83A3008F0BE
:103D8000A9FA606DBDE8104008F0EAB9002380F898
:103D9000393084F83E3003E00362002383604361DE
:103DA00010BD0362002383604361F2E7002380F8C3
:103DB00039300123EDE7003B18BF012380F83D3087
:103DC000EEE700BFE0A40508EBAB050881A60508F7
:103DD00070B50446164629B1314BE721314A3248C5
:103DE0004CF06AFF90F8393033B1304B1B6893F8D0
:103DF0006B20436913444361E36A002B4DD0E169B2
:103E0000D4E905325343A2684A43934220D2236A3D
:103E1000002B42D04FF0FF31606D08F071F9236A3A
:103E20000BB10023E362E36AFBB90125606D08F082
:103E300097F994F839300BB9236A3BB1E36A2BB98F
:103E40000123206D84F83A3008F044FA284670BD0A
:103E500094F84C000028DDD09B1AB3FBF1F2994294
:103E600098BF02F1FF326262D4E7002294F83C501E
:103E7000A3623046E262E2682261A2680132A26077
:103E8000336333685B699847002DCED194F83D3099
:103E9000002BCBD184F83950C8E70125C9E700BF12
:103EA000E0A40508C2AD050881A60508F87901203F
:103EB000034B4FF080629A604FF080729A607047B7
:103EC00000E100E0084B4FF08062C3F88820BFF3A8
:103ED0004F8FBFF36F8F4FF08072C3F88820BFF30E
:103EE0004F8FBFF36F8F704700E100E038B5034696
:103EF00090F8380038BB01229860D8609A634FF47C
:103F0000807258619A874FF4F0729861D861186294
:103F100058629862D8621863586383F83E00CA8674
:103F20004FF4887281F834000A8708639A6C18612C
:103F300002F5FF24D3E9101529448C420AD9084B15
:103F40005821084A03E0084B40F2F511074A084897
:103F50004CF0B2FE1A6302F57F329C645A6338BD9E
:103F600020B1050860B1050866AF050896AF0508E1
:103F700081A60508002370B5124E05468380124BBA
:103F80000360336893F858200AB1D86C00B9986878
:103F90000368DB6A98473368B0FA80F4D86C640928
:103FA00030B10368DB6A9847002808BF44F0010479
:103FB0002CB9064B2C21064A06484CF07DFE2846BB
:103FC00070BD00BFF879012008B4050806B30508E4
:103FD00064B305089DB3050870B5244E3568BFF37A
:103FE0005B8F15F001053FD1304632F060FC0028B0
:103FF0003AD01F4C1F4B04F134002561E584A562C3
:10400000A585C4E90035C4E9025521F030FA04F170
:1040100058001BF087FA184B2046A365174B40F851
:10402000843BFFF7A7FF164B1648C4F884302433AF
:10403000C4F89050C4F88C306423C4F89C50C4F881
:10404000A850C4E928350023C4F8AC30C4F8B03017
:10405000C4F8B430C4F8B8300B4BC4F898304CF006
:1040600049FE304632F02FFC014870BD883D0020EB
:10407000E83D002040E4050828B40508A0B4050880
:10408000F4E30508153B0008D4E3050810B5144C0B
:10409000236823B3134B144A1B6C11888B4213D132
:1040A000124B198803F01EFC226892F86A30013323
:1040B00082F86A30FEF7CCFD206818F091FF0020EE
:1040C000BDE81040FEF7EABB03F00CFC2068036873
:1040D0001B6A98470020BDE81040FEF705BC10BDE4
:1040E000F879012000680140E63D0020E43D002011
:1040F0002DE9F74304464FF4707894F83A304FF0C6
:10410000FF31002B31D0606D07F0FAFF276BA36AF7
:10411000BB4200D1676B266A656856B32B6831468F
:1041200028465B6A98470023236284F83B30606D21
:1041300008F016F82B684FF4F0723946CDF800807D
:1041400028465E694FF48873B0474FF0FF3106464A
:10415000606D07F0D5FF94F83B30E3B1002384F89D
:104160003B30606D07F0FCFFC7E7206D08F078F882
:10417000C3E7636A002BDAD02B682846D3E909939A
:104180009847616A01442846C847A368626A666224
:104190001344A360CBE7E7625EB12B6828469B6AB5
:1041A000984701380023E06084F83C6084F83A3096
:1041B000D7E70120F6E70000014808B5FFF798FFB0
:1041C0008C3D00200368042270B504465E6A00231B
:1041D0000D46B0474FF0FF31606D07F091FF382377
:1041E00003FB0542D16A09B10021D16203FB0545F9
:1041F000012385F83B30002385F83930606DBDE838
:10420000704007F0ADBF38B500EB810304460D46A2
:10421000114658680368DB68984729462046FFF72F
:10422000D1FF38BD70B50D461146044600EB85023E
:104230005068026896681A46B04729462046FFF73C
:10424000C1FF70BD38B5164900251648FEF77CFF42
:10425000154C164B01202A46294623604FF48073E3
:10426000A564A38784F84C0084F83E50C4E9105537
:10427000C4E91455C4E90155C4E90355C4E9055519
:10428000C4E90755C4E90955C4E90B55C4E90D55FE
:1042900007F090FF2065284607F0EEFE606538BD08
:1042A000A43E0020244600208C3D0020ECB40508EC
:1042B000704710B50446042132F0F7FA204610BDCD
:1042C000012908B506D0022908D059B901F0EAF849
:1042D000006808BD01F0E6F84068FAE701F0E2F88E
:1042E0008068F6E70020F4E70048704738B5050815
:1042F0000620704713B5002451B1036801AA019448
:104300008DF803409C680DF10303A04702B010BD77
:104310000846FBE7C0897047008A7047C08870472D
:1043200080887047807A00F07F007047807AC009EB
:1043300070470020704700009FED010A704700BFE2
:1043400000000000704710B50446082132F0ADFAB5
:10435000204610BD7047704700F59873086849689B
:1043600003C3704770477047416070477047000053
:10437000064BC0F84801C0F84C310023C0F850315A
:1043800000F5A273C0F84031704700BF3544000803
:104390000123037270477047704710B441680346A9
:1043A000C2689B68541001EB6200D20748BF0A59EB
:1043B0005DF8044B48BFD358184743682BB1836856
:1043C0002BB9C06800F00100704718467047012003
:1043D000704710B504460C2132F067FA204610BD34
:1043E00010B50446102132F060FA204610BD10B519
:1043F00004464FF4AE7132F058FA204610BD10B5A5
:104400001FF080FC0368BDE81040DB6B184710B557
:104410000446D0F8400158B10368DB68984738B1CA
:10442000D4F8400103689B6898470023C4F84031E2
:1044300010BD00002DE9F14FD0E9555A0746A86894
:1044400003681B6A984742F29333984205D8464B5B
:10445000A321464A46484CF02FFC686803681B6A53
:1044600098470F2803D8434BA421404AF2E7E86855
:1044700003681B6A98470B2803D83F4BA5213B4A8A
:10448000E8E7DFF8FC901FF03DFC04301FF078FCFB
:10449000D9F8000010B10368DB689847D9F800002C
:1044A00010B103681B689847DFF8D880D8F800007F
:1044B00010B103685B699847D7F83C0110B10368F5
:1044C0005B689847D8F8000010B103681B689847EC
:1044D000D7F83C0110B103689B689847E868002151
:1044E0004FF0000B03685B6A9847244B0446C0F802
:1044F00004B00360594680F808B0A86803685B6A96
:104500009847064601F006FA6868594603685B6AF0
:1045100098470546314601F0D7F9C9F80040C7F879
:104520003C51C8F80060E5B12B1DCAF80030304698
:104530003368C5F808A0DB68F56398472B68284600
:104540001B6898472146304621F0A2FC236820468C
:104550001B699847236820465B6901B0BDE8F04FAE
:1045600018472B46E1E700BFC0B505084EB6050861
:1045700052B7050899B705083CB8050854B90508AD
:10458000407A01203C7A0120044B1B6893F85820A4
:104590000AB1D86C00B99868704700BFF87901205B
:1045A000F8B5044617460E461FF0BCFC104B00251C
:1045B0001C6029460F4B23600F4BC4E951350F4B4C
:1045C0001868C4E953550368C4E94F559B68C4E9AA
:1045D00055769847284600F019FFFFF7D5FF2AF0D7
:1045E000C2F8FFF7D1FF2AF039F92046F8BD00BF25
:1045F0004C7A012000B90508E8B80508F8790120CF
:10460000064BC0F84801C0F84C310023C0F85031C7
:1046100000F5A273C0F84031704700BF3544000870
:10462000406A7047806A704770478B88C069DB0AB0
:104630000A6850F823001044704710B5C2B1137BCC
:10464000B3B1547BD27A240204F4E0641443026AC6
:1046500098B202EB840213888B4202D192F90200D5
:1046600010BD05D80138043280B20028F3D1F7E735
:104670000020F5E710B504462C2132F016F920464B
:1046800010BD000030B58BB00446BDF860500895F1
:10469000BDF85C5007959DF8505006959DF84C501C
:1046A00005959DF8485004959DF8445003959DF854
:1046B000405002959DF83C500195BDF8385000954A
:1046C00020F092FF064B20462360159BE361169B6A
:1046D0002362199B63621A9BA3620BB030BD00BFBB
:1046E00078B905087047704770477047704730B514
:1046F00085B00368044601816D460146D3F88430D5
:104700003C342846984795E8070084E8070005B040
:1047100030BD30B585B00368044641816D46014621
:10472000D3F884303C342846984795E8070084E85D
:10473000070005B030BD0022028042808280C28026
:10474000704780F836107047036870B504461B6BDD
:10475000154698472368204629465B6EBDE87040A1
:10476000184700207047806C70477047704710B53D
:1047700004464C2132F099F8204610BD034B10B589
:10478000044603601DF0B6F9204610BDACBB050819
:10479000074B07B5036001901DF0ACF9019842F298
:1047A000943132F082F8019803B05DF804FB00BF49
:1047B000ACBB050808B5FFF75FFA08BD036870B524
:1047C0005E6B0446114B8DB21B682BB9104B6C21EC
:1047D000104A11484CF070FA1049828D09889142B4
:1047E00003D80F4B6D210B4AF3E713F812200D4B42
:1047F0001B6853F8220003681B6B9847281A33463E
:1048000001B22046BDE87040184700BF507A012031
:10481000D8B905081ABA050855BA0508547A01200E
:104820009CBA0508587A012000224FF0FF318260BF
:10483000C0E900217047036870B504461B6B15463C
:1048400098472368204629465B6BBDE870401847AF
:1048500070B504461D46BDF91060FFF7ECFF2368F4
:10486000294620469B6B9847236831462046DB6BE0
:10487000BDE87040184700004FF480710022818429
:104880000C49026301600C49028781624FF6FF7197
:10489000C26381854FF47F0141634FF0FF31C0E96E
:1048A0000122C0E90322C0E90522C0E90722C0E9CC
:1048B00010127047BCE70508B8B505082DE9F04FA0
:1048C000044600254FF6FF76804F04F5367A04F251
:1048D0009C5804F22C6904F2BC6B2DED0A8B8BB052
:1048E00021F02AF922467A4B08A9E56342F8403BB9
:1048F000784B2566A5660392ADF82060C4E91035B3
:104900004FF48073A4F86430FF2384F8663004F118
:104910006C03C4E9125518460BEE103AC4E914555D
:10492000C4E916551BF0E0FB04F19803184608EEA5
:10493000903AFFF7A1FF04F1E403C4F89870184619
:10494000C4F8E05009EE903AFFF796FF04F598732B
:10495000C4F8E470C4F82C5118460AEE903AFFF7F8
:104960008BFF04F5BE73C4F8307104F20C5718467F
:10497000C4F8785108EE103A17F006F804F52473DD
:1049800018460BEE903AFFF777FF504617F00AF9FA
:1049900004F5767318460CEE103AFFF7EBFA4E4B1F
:1049A00008A9C4F8E453C4F8D8332433ADF8206020
:1049B000C4F8E03304F57B7318460AEE103A1AF097
:1049C0009FFE04F27C4308A9ADF82060184609EE6A
:1049D000103A1AF095FE08A93846ADF820601AF092
:1049E0008FFE08A94046ADF820601AF089FE08A99C
:1049F0004846ADF820601AF083FE08A95846ADF885
:104A000020601AF07DFE4FF4E15104F27270261D11
:104A10001DF066F84FF488732A46294603980093E0
:104A20004FF4F073FFF714FF4FF07F4303993046C4
:104A3000A36617F09FFA08A91BEE100AADF82050E4
:104A40001CF05DF94FF488732A4629461BEE100AC4
:104A500000934FF4F073FFF7FBFE29461BEE100A9C
:104A60001BF0FDFA1BEE101A304617F083FA4422B1
:104A7000102118EE900AFFF7DEFE4FF0FF3318EE1C
:104A8000901A04A8C4F8C830D4F89830A4F8CC50D0
:104A9000D3F88430984704AA04F1D40307CA83E802
:104AA000070004F24C7303930C4B1B682BB90C4B9F
:104AB00060210C4A0C484CF0FFF80C4B1B88042B6F
:104AC00018D80B4B6121074AF4E700BF1CBB05084F
:104AD000ACBB05084CE80508F4E30508507A012052
:104AE000D8B90508DABA050855BA0508547A01207C
:104AF0009CBA0508DE4B0421186800F0C3FCDD4AAF
:104B000003460621039823F083FA039918EE900ACE
:104B1000C4F8E0101CF00CF84FF00701D64B18EE6B
:104B2000900AADF8241008A908931CF021F818EE9B
:104B3000901A304617F01EFA7C220E2119EE900AC8
:104B4000FFF779FE4FF0FF31D4F8E43004A8C4F841
:104B5000141119EE901AD3F88430A4F8185198471C
:104B600004A904F5907307C983E8070004F5EB6115
:104B70000391C2490B68002B99D0C1480388032BCD
:104B80009FD9BB4A0321106800F07CFC0621034634
:104B9000B84A039823F03CFA039A19EE900AC4F835
:104BA0002C211BF0C5FFB44B0DF1200C19EE900A1F
:104BB000089306236146ADF824301BF0D9FF19EEA7
:104BC000901A304617F0D6F9B4222E211AEE900A28
:104BD000FFF731FE4FF0FF3CD4F830311AEE901A57
:104BE000C4F860C10DF1100CD3F884306046A4F80D
:104BF000645198470DF1100C04F5B6739CE807005A
:104C000083E807009D4904F2647C0B68CDF80CC072
:104C1000002B3FF44CAF9A480388022B7FF651AF2C
:104C2000934A0221DFED979AF2EE0E8A1068B3EEF6
:104C300000BA00F027FC072103468E4A039823F0B0
:104C4000E7F9039A1AEE900AC4F878211BF070FF76
:104C5000894B4FF0050208A91AEE900A0893ADF8A7
:104C600024201BF085FF1AEE901A304617F082F9C7
:104C700018EE100A492240F21711FFF7DCFD1E233F
:104C800018EE100A3C2200930A218223DFED7EAA4F
:104C900016F05CFE2B466422294618EE100A009599
:104CA00016F0B4FF18EE100A784916F0D2FD724BD8
:104CB0004FF0010208A918EE100A0893ADF824205D
:104CC00016F0ECFD4FF0050118EE100AADF82010BB
:104CD00008A917F0E2F818EE100A3C2116F0EAFDD8
:104CE00018EE101A30469FED6A8A17F043F90C222D
:104CF0001BEE900A40F20F11FFF79DFD4FF07F4130
:104D000004A8A4F8C452C4F8C0121BEE901A1BF0F9
:104D100095FC04A904F5337307C983E80700564BD3
:104D200008A91BEE900AADF8245008931BF020FF51
:104D30001BEE901A304617F01DF95046352240F20E
:104D40000311FFF778FDBE232A46294650460093FB
:104D500016F0CDFE2B46294650466422009516F0EB
:104D600055FF5F225046114616F067FE504655210A
:104D700016F08DFE5046142116F08FFE4FF4B472DB
:104D80002946504616F0FBFE5046B42116F08CFE24
:104D9000042308A95046ADF8203017F07EF83D4BAB
:104DA0001CEE101A5046C4F8E4334FF6E253A4F850
:104DB000E83316F03FFE50463C2116F0C5FE514642
:104DC0003046DFF8DCA017F0D5F85C2229461AEE51
:104DD000100AFFF730FD4FF0030308A91AEE100A7E
:104DE000ADF820301AF02EFE2B4B1AEE100AC4F844
:104DF000F43304F58363C3ED009A04F21C43C3ED5E
:104E0000008A1AF0C9FCB7EE000A1AEE100A1AF06E
:104E10002AFE04F244431AEE100AC3F800A01AF066
:104E2000BBFC04F586631AEE100A83ED008A04F2D7
:104E3000344383ED00BA04F58763C3F800A01AF089
:104E4000ABFC04F23C431AEE100A83ED008A04F531
:104E5000886383ED00BA1AF09FFC9FED101A1AEEDA
:104E6000100AF0EE410AB0EE410A1AF0F4FD19E022
:104E70005C7A0120F8D40508B8B50508507A0120FD
:104E8000547A01200000F6C20000CC4148BBF0FF7C
:104E90000000EA4217BDFEFFEA002000000000000B
:104EA00000007A441AEE101A304684F8155417F0B0
:104EB00061F82422294619EE100AFFF7BCFC0223F0
:104EC00008A919EE100AADF820301AF0BBFDA74B67
:104ED00019EE102A19EE100A9FEDA5AAC4F8843421
:104EE000A44BC2ED0C8AD3621AF056FCB7EE000A4E
:104EF00019EE100A1AF0B7FD19EE102A19EE100A71
:104F0000C2F858A01AF048FC19EE102A19EE100A3F
:104F100082ED118A82ED12BAC2F84CA01AF03CFC64
:104F200019EE102A19EE100A82ED148A82ED15BAD4
:104F30001AF032FC9FED901A19EE100AF0EE410AB9
:104F4000B0EE410A1AF087FD19EE101A304684F8C7
:104F5000A55417F00FF829463846CC22FFF76BFC12
:104F60004FF0010208A93846ADF820201AF06AFD7A
:104F70007E4B38469FED819AC4F81435804BC7EDBF
:104F80000C8AFB621AF008FCB7EE000A38461AF0E9
:104F90006AFD3846C7F858A01AF0FEFB384687ED80
:104FA000118A87ED12BAC7F84CA01AF0F5FB384603
:104FB00087ED148A87ED15BA1AF0EEFB9FED6E1A95
:104FC0003846F0EE410AB0EE410A1AF044FD394687
:104FD000304684F8355516F0CDFF4FF001073422E6
:104FE0004046D021FFF727FC08A94046ADF82070C5
:104FF0001AF028FD634B4046C4F8A435624B88ED97
:105000000CAAC8F82C301AF0C7FBB7EE000A4046CD
:105010001AF029FD4046C8F858A01AF0BDFB4046DA
:10502000C8ED11AA88ED129AC8F84CA01AF0B4FB8A
:105030004046C8ED14AA88ED159A1AF0ADFBDFEDD5
:105040004E0A9FED521A4046B0EE600A1AF003FD78
:105050004146304684F8C55516F08CFF3422484648
:105060006FF01B01FFF7E7FB08A94846ADF8207079
:105070001AF0E8FC464B4846DFF81C81C4F8343689
:10508000444B89ED0CAAC9F82C301AF085FBB7EE19
:10509000000A48461AF0E7FC4846C9F858A01AF03A
:1050A0007BFB4846C9F8448089ED129AC9F84CA0A8
:1050B0001AF072FB4846C9F8508089ED159A1AF02B
:1050C0006BFBDFED2D0A9FED311A4846B0EE600A0A
:1050D0001AF0C1FC4946304684F8555616F04AFF8E
:1050E000294658469422FFF7A6FB4FF0030208A971
:1050F0005846ADF820201AF0A5FC1C4B5846C4F8C1
:10510000C436CBED0B9ACBED0C8A1AF045FBB7EE0B
:10511000000A58461AF0A7FC5846CBF858A01AF0D7
:105120003BFB58468BED118A8BED12BACBF84CA0A5
:105130001AF032FB58468BED148A8BED15BA1AF033
:105140002BFB9FED0D1A5846F0EE410AB0EE410AD6
:105150001AF081FC3046594684F8E55616F00AFFED
:1051600020460BB0BDEC0A8BBDE8F08FEA002000B2
:105170000000A64200808DC3000000000000A8428D
:105180000080C5C33300A8000040F3C38716C93FA1
:105190003900A80000C0F1C30000E44170470000DE
:1051A00030B5164D8FB02C68BFF35B8F14F001043F
:1051B00020D1284631F07BFBE0B13F23012210498A
:1051C0000993104B10480893104B0A940594CDE9AD
:1051D00006430423CDE903320A23CDE90B440093AF
:1051E000CDE90144FFF74EFA09484BF083FD28460C
:1051F00031F069FB04480FB030BD00BF6C460020A1
:1052000090EA089024390608704600200C3D0608F4
:105210009D5100087047000030B5184D8FB02C68C4
:10522000BFF35B8F14F0010425D1284631F03FFB1A
:1052300008B33F23072212490993124B12480893DF
:10524000124B0A9407930C23CDE905320123042263
:10525000CDE90134CDE90323142340F26D320093EC
:105260001B23CDE90B44FFF70DFA09484BF042FD33
:10527000284631F028FB04480FB030BD9C46002082
:10528000A0EA089028390608A0460020103D06082C
:10529000155200087047000030B5164D8FB02C68CD
:1052A000BFF35B8F14F0010421D1284631F0FFFADF
:1052B000E8B13F23012210490993104B104808938D
:1052C000104B0A940594CDE906430423CDE903323B
:1052D0001E230E220093CDE90B44CDE90144FFF7D4
:1052E000D1F909484BF006FD284631F0ECFA0448A4
:1052F0000FB030BDCC460020981A0990083D060832
:10530000D0460020283D060895520008002070472E
:10531000002070470EB403B503AB002153F8042BF3
:1053200001931FF087FC02B05DF804EB03B07047F7
:105330000CB407B504AB53F8042B01931FF07AFCAF
:1053400003B05DF804EB02B07047000010B50446EE
:1053500020F056FEE38E04EB43035884636C5BB38A
:10536000238F2BB9174BC521174A18484BF0A4FCC3
:1053700010B3204621F046FF238F012B03D8144B96
:10538000CB21144AF1E7E28E40F63F10531C9BB24A
:10539000092B194688BFA3F10A0104EB4101498C8E
:1053A000814209D10A2B04EB420228BF0023508C12
:1053B00004EB4303588451842046BDE8104021F09B
:1053C00023BE00BFD8BB0508E1BB05088CBC05089F
:1053D000D6BC0508E4BC050810B5044621F0DDFD87
:1053E0002046BDE8104020F007BE10B586B002ACE4
:1053F00084E806001A460AAB214605930193099BEF
:105400000093089B1DF0E7FF06B010BD38B518BB30
:10541000124B13481C681349B4B12268224402603D
:10542000626822440A60A26814440F4B00221A806A
:1054300000F038F8054600F033F80C4B1C600C4BBC
:105440001D600C4B188007E00B4B03600B4B0B608F
:105450000B4B1C68002CE8D138BD00BFFC46002077
:10546000004700200447002008470020507A012010
:10547000587A0120547A01207C1B09905C1B09900A
:105480000C1C0990044B1B6853F82100034B1B684C
:1054900003EB4000704700BF044700200047002096
:1054A00008207047004870470C47002010B5054C95
:1054B000FFF7B2FE2060FFF7EFFE6060FFF770FEBF
:1054C000A06010BD0C47002010B5002404600C60E3
:1054D00014601C6010BD704710B504464FF4AE71E7
:1054E00031F0E3F9204610BD10B50446D0F858015C
:1054F00000F0A6F82046BDE810401EF09FBC00005A
:1055000010B50446FFF74CF8014B2046236010BD50
:10551000C0BD05080A49002241600A490260816055
:1055200009490262C1606421828501614261C161F1
:105530003C21026380F8241010B50024846110BD62
:10554000000028410000D0400080094670B5084D99
:105550000446084E00222946304603F0DEFB0022B6
:105560000549304603F0FCFBA87884F8250070BD9F
:10557000B8030020F4060020B4030020000000005F
:10558000F8B504462DED028BFFF7E0FF94F82430C8
:10559000054684F8250083423AD0A068FBF704F85A
:1055A00006460F469FED248A1DA3D3E90023FBF78F
:1055B0007DF9FBF749FBD4ED037A07EE100A0023CF
:1055C00084ED068A77EE277A6361F4EEC87AF1EE0D
:1055D00010FA22D49FED197AF4EE477AF1EE10FA20
:1055E00077FE277A10A3D3E9002330463946C4ED6D
:1055F000037AFBF7C1FA48B1304639460CA3D3E928
:105600000023FBF79BFA08B184ED028A84F824504A
:1056100094ED030ABDEC028BF8BDF0EE487AE1E7A9
:10562000CDCCCCCCCCCC0C40333333333333C3BFB1
:10563000333333333333C33F000000000080094667
:1056400070B5714D04462DED028B286806F07AFF87
:1056500000285FD0002304F1280128681A4606F0CC
:1056600031FF002856D1D4ED0A7AB7EE006A4FF424
:105670007A73F8EEE76ADFED657AB0EE677AB0EE3E
:10568000678A013B37EE267A77EE867AF9D1C7EE44
:10569000277A17EE900AFAF787FF57A3D3E900237A
:1056A000FAF7DAFFFBF7D0FADFED597A07EE100AC6
:1056B000DFED586A9FED586A77EE677A87EEA67A33
:1056C000DFED566A37EE267A27EE067AC7EE067ABF
:1056D000BEEE007A77EEE67AF4EEC77AF1EE10FAD3
:1056E0007CDCC4ED027A00F021FC236B0546C31A72
:1056F000B3F5FA7F0ED3206894ED020A0368DB68E5
:105700009847A16A46484DF0DBFB2946454825638A
:105710004DF0D6FB444D286806F014FF68B3002313
:1057200004F1280128681A4606F0CCFE28BBD4ED07
:105730000A7AB7EE006A4FF47A73B8EEE77ADFEDD3
:10574000337AF0EE676AB0EE670A013B76EE876A5D
:1057500077EE867A9BB2002BF7D186EEA77ADFED43
:10576000337A206803689B6867EE277A9FED307A6A
:10577000A7EE870A84ED010A98476068FAF714FFDC
:105780001FA3D3E90023FBF7D9F908B10023636015
:105790002046FFF7F5FE9FED277ADFED276A70EED2
:1057A000477A9FED267A206884ED030A67EE877AB0
:1057B00003681B6987EEA67ADFED187A77EE277A01
:1057C000FDEEE77AC4ED047A984720682169036802
:1057D000BDEC028B5B69BDE870401847B6EE007AFD
:1057E000F4EEC77AF1EE10FA7FF57BAF84ED028A12
:1057F00079E700BFAFF300803005533005914A3F91
:105800009A9999999999C93FD00300200000000006
:105810004A0CD23FEFC9C33C000049430000C842D4
:105820000CBE05082EBE0508D80300200000384233
:105830000000803900800946007C09C60000C6C20D
:10584000014831F081B800BF18470020014831F00D
:10585000AFB900BF18470020704704387047704741
:10586000C0680368DB6A1847A0F10400FFF7F8BFBF
:10587000C06803681B6B1847A0F10400FFF7F8BF6E
:10588000C06803685B6B1847A0F10400FFF7F8BF1E
:1058900070B50446C0680D4603689B6B9847E06886
:1058A00029460368BDE87040DB6B1847A0F104008F
:1058B000FFF7EEBF10B50446102130F0F6FF20468A
:1058C00010BDA0F10400F5E70022C1608260044A27
:1058D00010B502F1080430320460426010BD00BF10
:1058E0003CBE050870470000034B10B5044603603A
:1058F000FEF744FF204610BD98BE050810B50446CB
:10590000FFF7F2FF42F29431204630F0CEFF2046FE
:1059100010BD000010B50446FEF7D0FF014B204635
:10592000236010BD98BE0508FEF71FBF13B50446DF
:1059300001AB074A062100F24C708DED010A22F0FE
:1059400065FD04F1980002B0BDE810401FF07ABA7E
:1059500084BE050813B5044601AB074A062100F5CD
:10596000EB608DED010A22F051FD04F1E40002B07C
:10597000BDE810401FF066BA89BE050813B504469D
:1059800001AB074A072100F264708DED010A22F095
:105990003DFD04F5987002B0BDE810401FF052BA0A
:1059A00084BE050800F5BE7015F084BF00F53670A2
:1059B00016F0CAB800B54FF4807295B04FF0807100
:1059C00003460C9205220F910121069200220191BB
:1059D0000B92139200920B48CDE90312CDE90D22F0
:1059E000CDE91122102206A902924FF480020592FD
:1059F0006A4602F061F9003818BF012015B05DF861
:105A000004FB00BF1C47002000B54FF4807395B025
:105A100041F2883217480C93062306A90693002307
:105A2000CDE90D330F930B931393CDE9113302F0AE
:105A300000F9E0B9022301224FF4800104900D48DF
:105A4000CDE900331023CDE9023205236A46CDE9C2
:105A500005134FF0807306A90F9341F2883302F0CB
:105A60002BF9003818BF012015B05DF804FB0120A8
:105A7000FAE700BF1C47002000B54FF4807391B0D7
:105A80004FF040720E480893EB2302A902934FF4A3
:105A9000406309934FF4005305930023CDE90A3284
:105AA0000A220F9307926A46CDE90D33CDE9003300
:105AB00002F052F9003818BF012011B05DF804FB64
:105AC0001C470020454B012145489A6B42F00202D9
:105AD000F0B59A638DB09A6B09240427002602F072
