:020000040800F2
:1000000000000520C51E0008E11D0008E31D0008D2
:10001000E51D0008E71D0008E91D000800000000BC
:1000200000000000000000000000000041910008F6
:10003000EB1D000800000000E19100084592000857
:10004000151F0008151F0008151F0008151F0008C0
:10005000151F0008151F0008151F0008151F0008B0
:10006000151F0008151F0008151F0008151F0008A0
:10007000151F0008151F0008151F0008151F000890
:10008000151F0008151F0008151F0008151F000880
:10009000151F0008151F0008151F0008151F000870
:1000A000151F0008151F0008151F0008151F000860
:1000B000151F0008151F0008151F0008151F000850
:1000C000151F0008151F0008151F0008151F000840
:1000D000151F0008151F0008151F0008151F000830
:1000E000151F0008151F0008151F0008151F000820
:1000F000151F0008151F0008151F0008151F000810
:10010000151F0008151F0008151F0008151F0008FF
:10011000151F0008151F0008ED1D0008151F000819
:10012000151F0008151F0008151F0008151F0008DF
:10013000151F0008151F0008151F0008151F0008CF
:10014000151F0008151F0008151F0008151F0008BF
:10015000151F0008151F0008151F0008151F0008AF
:10016000151F0008151F0008151F0008151F00089F
:10017000151F0008151F0008151F000800000000CB
:10018000151F0008151F0008151F0008151F00087F
:10019000151F0008151F0008151F0008151F00086F
:1001A000F91D0008151F0008051E0008151F00088E
:1001B000151F0008151F0008151F0008151F00084F
:0801C000151F0008151F0008BF
:1001D00010B5054C237833B9044B13B10448AFF381
:1001E00000800123237010BD900200200000000059
:1001F000246B030808B5034B1BB103490348AFF355
:10020000008008BD0000000094020020246B030859
:1002100001F0FF01102A2BDB10F0070F08D010F8B7
:10022000013B013A8B422DD010F0070F42B3F6D1BB
:10023000F0B441EA012141EA014122F007047FF0D4
:1002400000070023F0E80256083C85EA010586EA2B
:10025000010685FA47F5A3FA87F586FA47F6A5FA67
:1002600087F68EB9EED1F0BC01F0FF0102F0070273
:1002700032B110F8013B013A83EA010313B1F8D11E
:100280000020704701387047002D06BF35460338FF
:10029000073815F0010F07D1013015F4807F02BF38
:1002A000013015F4C03F0130F0BC0138704700BF89
:1002B000034613F8012B002AFBD1181A01387047A6
:1002C00081F0004102E000BF83F0004330B54FEA07
:1002D00041044FEA430594EA050F08BF90EA020F74
:1002E0001FBF54EA000C55EA020C7FEA645C7FEA07
:1002F000655C00F0E2804FEA5454D4EB5555B8BF2A
:100300006D420CDD2C4480EA020281EA030382EA9A
:10031000000083EA010180EA020281EA0303362D2C
:1003200088BF30BD11F0004F4FEA01314FF4801CFF
:100330004CEA113102D0404261EB410113F0004F11
:100340004FEA03334CEA133302D0524263EB4303C8
:1003500094EA050F00F0A780A4F10104D5F1200E66
:100360000DDB02FA0EFC22FA05F2801841F10001C1
:1003700003FA0EF2801843FA05F359410EE0A5F195
:1003800020050EF1200E012A03FA0EFC28BF4CF0C6
:10039000020C43FA05F3C01851EBE37101F000457C
:1003A00007D54FF0000EDCF1000C7EEB00006EEB89
:1003B0000101B1F5801F1BD3B1F5001F0CD3490813
:1003C0005FEA30004FEA3C0C04F101044FEA44526A
:1003D00012F5800F80F09A80BCF1004F08BF5FEAF1
:1003E000500C50F1000041EB045141EA050130BDD1
:1003F0005FEA4C0C404141EB0101013C28BFB1F5E3
:10040000801FE9D291F0000F04BF01460020B1FA2D
:1004100081F308BF2033A3F10B03B3F120020CDA00
:100420000C3208DD02F1140CC2F10C0201FA0CF0DE
:1004300021FA02F10CE002F11402D8BFC2F1200C43
:1004400001FA02F120FA0CFCDCBF41EA0C019040F9
:10045000E41AA2BF01EB0451294330BD6FEA040442
:100460001F3C1CDA0C340EDC04F11404C4F120022D
:1004700020FA04F001FA02F340EA030021FA04F33F
:1004800045EA030130BDC4F10C04C4F1200220FA96
:1004900002F001FA04F340EA0300294630BD21FAD4
:1004A00004F0294630BD94F0000F83F4801306BF9A
:1004B00081F480110134013D4EE77FEA645C18BF8E
:1004C0007FEA655C29D094EA050F08BF90EA020F25
:1004D00005D054EA000C04BF1946104630BD91EA1D
:1004E000030F1EBF0021002030BD5FEA545C05D120
:1004F0004000494128BF41F0004130BD14F580045F
:100500003CBF01F5801130BD01F0004545F0FE41D2
:1005100041F470014FF0000030BD7FEA645C1ABF07
:10052000194610467FEA655C1CBF0B46024650EA3E
:10053000013406BF52EA033591EA030F41F400216A
:1005400030BD00BF90F0000F04BF0021704730B5F0
:100550004FF4806404F132044FF000054FF00001C5
:1005600050E700BF90F0000F04BF0021704730B586
:100570004FF4806404F1320410F0004548BF40425B
:100580004FF000013EE700BF42004FEAE2014FEAB0
:1005900031014FEA02701FBF12F07F4393F07F4F8B
:1005A00081F06051704732F07F4208BF704793F08E
:1005B0007F4F04BF41F40021704730B54FF46074A1
:1005C00001F0004521F000411CE700BF50EA0102A4
:1005D00008BF704730B54FF000050AE050EA01024D
:1005E00008BF704730B511F0004502D5404261EBBD
:1005F00041014FF4806404F132045FEA915C3FF4FE
:10060000D8AE4FF003025FEADC0C18BF03325FEA9A
:10061000DC0C18BF033202EBDC02C2F1200300FA4B
:1006200003FC20FA02F001FA03FE40EA0E0021FA70
:1006300002F11444BDE600BF70B54FF0FF0C4CF45E
:10064000E06C1CEA11541DBF1CEA135594EA0C0F10
:1006500095EA0C0F00F0DEF82C4481EA030621EA4B
:100660004C5123EA4C5350EA013518BF52EA033586
:1006700041F4801143F4801338D0A0FB02CE4FF038
:100680000005E1FB02E506F00042E0FB03E54FF068
:100690000006E1FB03569CF0000F18BF4EF0010E60
:1006A000A4F1FF04B6F5007F64F5407404D25FEA5C
:1006B0004E0E6D4146EB060642EAC62141EA55510F
:1006C0004FEAC52040EA5E504FEACE2EB4F1FD0C51
:1006D00088BFBCF5E06F1ED8BEF1004F08BF5FEACF
:1006E000500E50F1000041EB045170BD06F0004681
:1006F00046EA010140EA020081EA0301B4EB5C042E
:10070000C2BFD4EB0C0541EA045170BD41F4801125
:100710004FF0000E013C00F3AB8014F1360FDEBF4A
:10072000002001F0004170BDC4F10004203C35DA26
:100730000C341BDC04F11404C4F1200500FA05F3A9
:1007400020FA04F001FA05F240EA020001F000424A
:1007500021F0004110EBD37021FA04F642EB0601C0
:100760005EEA430E08BF20EAD37070BDC4F10C04EA
:10077000C4F1200500FA04F320FA05F001FA04F2AE
:1007800040EA020001F0004110EBD37041F100019A
:100790005EEA430E08BF20EAD37070BDC4F12005A5
:1007A00000FA05F24EEA020E20FA04F301FA05F20D
:1007B00043EA020321FA04F001F0004121FA04F2B5
:1007C00020EA020000EBD3705EEA430E08BF20EA85
:1007D000D37070BD94F0000F0FD101F000464000BF
:1007E00041EB010111F4801F08BF013CF7D041EA41
:1007F000060195F0000F18BF704703F00046520045
:1008000043EB030313F4801F08BF013DF7D043EA15
:100810000603704794EA0C0F0CEA135518BF95EACB
:100820000C0F0CD050EA410618BF52EA4306D1D152
:1008300081EA030101F000414FF0000070BD50EA71
:10084000410606BF1046194652EA430619D094EAFB
:100850000C0F02D150EA013613D195EA0C0F05D1E5
:1008600052EA03361CBF104619460AD181EA030139
:1008700001F0004141F0FE4141F470014FF00000F1
:1008800070BD41F0FE4141F4780170BD70B54FF08C
:10089000FF0C4CF4E06C1CEA11541DBF1CEA13550C
:1008A00094EA0C0F95EA0C0F00F0A7F8A4EB0504EE
:1008B00081EA030E52EA03354FEA013100F08880E5
:1008C0004FEA03334FF0805545EA131343EA1263AE
:1008D0004FEA022245EA111545EA10654FEA002663
:1008E0000EF000419D4208BF964244F1FD0404F51C
:1008F000407402D25B084FEA3202B61A65EB030578
:100900005B084FEA32024FF480104FF4002CB6EB34
:10091000020E75EB030E22BFB61A754640EA0C00B4
:100920005B084FEA3202B6EB020E75EB030E22BFF4
:10093000B61A754640EA5C005B084FEA3202B6EB35
:10094000020E75EB030E22BFB61A754640EA9C00F4
:100950005B084FEA3202B6EB020E75EB030E22BFC4
:10096000B61A754640EADC0055EA060E18D04FEA82
:10097000051545EA16754FEA06164FEAC30343EA22
:1009800052734FEAC2025FEA1C1CC0D111F4801FEF
:100990000BD141EA00014FF000004FF0004CB6E7E8
:1009A00011F4801F04BF01430020B4F1FD0C88BF87
:1009B000BCF5E06F3FF6AFAEB5EB030C04BFB6EB92
:1009C000020C5FEA500C50F1000041EB045170BD85
:1009D0000EF0004E4EEA113114EB5C04C2BFD4EBB2
:1009E0000C0541EA045170BD41F480114FF0000E36
:1009F000013C90E645EA060E8DE60CEA135594EAB2
:100A00000C0F08BF95EA0C0F3FF43BAF94EA0C0FB4
:100A10000AD150EA01347FF434AF95EA0C0F7FF429
:100A200025AF104619462CE795EA0C0F06D152EA7D
:100A300003353FF4FDAE1046194622E750EA410661
:100A400018BF52EA43067FF4C5AE50EA41047FF472
:100A50000DAF52EA43057FF4EBAE12E74FF0FF3CD7
:100A600006E000BF4FF0010C02E000BF4FF0010CA8
:100A70004DF804CD4FEA410C7FEA6C5C4FEA430C21
:100A800018BF7FEA6C5C1BD001B050EA410C0CBF70
:100A900052EA430C91EA030F02BF90EA020F0020D2
:100AA000704710F1000F91EA030F58BF994208BF39
:100AB00090422CBFD8176FEAE37040F001007047F6
:100AC0004FEA410C7FEA6C5C02D150EA013C07D14D
:100AD0004FEA430C7FEA6C5CD6D152EA033CD3D098
:100AE0005DF8040B704700BF8446104662468C4692
:100AF0001946634600E000BF01B5FFF7B7FF0028C5
:100B000048BF10F1000F01BD4DF808EDFFF7F4FFED
:100B10000CBF012000205DF808FB00BF4DF808ED78
:100B2000FFF7EAFF34BF012000205DF808FB00BF9B
:100B30004DF808EDFFF7E0FF94BF012000205DF8BD
:100B400008FB00BF4DF808EDFFF7CEFF94BF012072
:100B500000205DF808FB00BF4DF808EDFFF7C4FF6B
:100B600034BF012000205DF808FB00BF4FEA410CB4
:100B70007FEA6C5C02D150EA013C0AD14FEA430C97
:100B80007FEA6C5C02D152EA033C02D14FF00000D4
:100B900070474FF0010070474FEA410212F5001212
:100BA00015D211D56FF47873B3EB625212D94FEAB4
:100BB000C12343F0004343EA505311F0004F23FA9E
:100BC00002F018BF404270474FF00000704750EAF3
:100BD000013005D111F0004008BF6FF000407047B0
:100BE0004FF00000704700BF4FEA4102B2F1E0430E
:100BF00024BFB3F5001CDCF1FE5C0DD901F0004C04
:100C00004FEAC0024CEA5070B2F1004F40EB830053
:100C100008BF20F00100704711F0804F21D113F17F
:100C20003872BCBF01F00040704741F480114FEAB8
:100C30005252C2F11802C2F1200C10FA0CF320FA41
:100C400002F018BF40F001004FEAC1234FEAD3235E
:100C500003FA0CFC40EA0C0023FA02F34FEA4303C8
:100C6000CCE77FEA625307D150EA01331EBF4FF051
:100C7000FE4040F44000704701F0004040F0FE406C
:100C800040F40000704700BF7BB972B90029BEBFB5
:100C900000204FF0004106E008BF00281CBF6FF0A5
:100CA00000414FF0FF3000F0BBB9ADF1080C6DE929
:100CB00004CE002909DB002B1ADB00F04DF8DDF82B
:100CC00004E0DDE9022304B07047404261EB4101DA
:100CD000002B1BDB00F040F8DDF804E0DDE9022327
:100CE00004B0404261EB4101524263EB4303704761
:100CF000524263EB430300F02FF8DDF804E0DDE936
:100D0000022304B0404261EB41017047524263EB61
:100D1000430300F021F8DDF804E0DDE9022304B02C
:100D2000524263EB4303704753B94AB9002908BFE5
:100D300000281CBF4FF0FF314FF0FF3000F070B9BA
:100D4000ADF1080C6DE904CE00F006F8DDF804E022
:100D5000DDE9022304B070472DE9F047089E0D46F7
:100D600004460F46002B4AD18A42944665D9B2FA0E
:100D700082F343B102FA03FCC3F120029F4020FA40
:100D800002F217439C404FEA1C4E1FFA8CF5B7FB4A
:100D9000FEF1220C0EFB117742EA074201FB05F03F
:100DA00090420AD91CEB020201F1FF3780F01C814E
:100DB000904240F2198102396244121AA4B2B2FB85
:100DC000FEF00EFB102244EA024400FB05F5A542AA
:100DD0000AD91CEB040400F1FF3280F00781A54220
:100DE00040F204816444023840EA0140641B00215F
:100DF0001EB1DC400023C6E90043BDE8F0878B420A
:100E000008D9002E00F0ED800021C6E90005084653
:100E1000BDE8F087B3FA83F1002949D1AB4202D390
:100E2000824200F2F880841A65EB03020120174623
:100E3000002EE2D0C6E90047DFE702B9FFDEB2FAD2
:100E400082F3002B40F090808A1A4FEA1C471FFA69
:100E50008CFE0121B2FBF7F507FB1520220C42EABC
:100E600000420EFB05F0904208D91CEB020205F18E
:100E7000FF3802D2904200F2CB804546121AA4B24B
:100E8000B2FBF7F007FB102244EA02440EFB00FE1F
:100E9000A64508D91CEB040400F1FF3202D2A64596
:100EA00000F2BB801046A4EB0E0440EA05409FE729
:100EB000C1F120078B4022FA07FC4CEA030C05FA2B
:100EC00001F420FA07F3FD404FEA1C492343B5FB28
:100ED000F9F81FFA8CFE09FB18551C0C44EA05446E
:100EE00008FB0EF5A54202FA01F200FA01F00BD957
:100EF0001CEB040408F1FF3A80F08880A54240F220
:100F00008580A8F102086444641B9DB2B4FBF9F328
:100F100009FB134445EA044403FB0EFEA64508D929
:100F20001CEB040403F1FF356CD2A6456AD9023BE1
:100F3000644443EA0843A3FB0295A4EB0E04AC42CD
:100F4000C846AE4656D353D056B1B0EB080264EB58
:100F50000E0404FA07F7CA40CC401743C6E90074F0
:100F600018460021BDE8F087C3F1200102FA03FC16
:100F700020FA01F225FA01F19D402A434FEA1C476D
:100F80001FFA8CFEB1FBF7F007FB1015110C41EABC
:100F9000054100FB0EF58D4204FA03F408D91CEB61
:100FA000010100F1FF382FD28D422DD90238614462
:100FB000491B92B2B1FBF7F507FB151142EA01425A
:100FC00005FB0EF1914208D91CEB020205F1FF3836
:100FD00016D2914214D9023D6244521A45EA0041A8
:100FE00038E73146304608E73946E6E61046FBE684
:100FF0004845A9D2B9EB020865EB0C0E013BA3E70B
:101000004546EAE72B4694E74046D1E7D0467BE7E2
:10101000023D624432E708460AE76444023842E788
:10102000704700BF0149002009F09EBA81230008E3
:1010300008B5642007F092FCFBE7000007B54FF607
:10104000FF730190012201A9034807F0CCFA01982F
:1010500003B05DF804FB00BF2405002010B594B078
:1010600030220021022408A833F074FD142200214C
:1010700003A833F06FFD05F03FFC204B192108A8B1
:101080001A6F22F018021A671A6C42F080521A6422
:101090001B6C03F080530193019B194B1A6842F4B7
:1010A00040421A6005221B6803F440430293029BEE
:1010B0004FF48033CDE9082301230A934FF48003D2
:1010C000CDE90E434FF4D873CDE91244CDE91013A6
:1010D00005F076FF05F018FC0F2300200721CDE96D
:1010E00003344FF4A053CDE905034FF4805303A814
:1010F000079306F04DF914B010BD00BF0038024050
:10110000007000402DE980489BB01022002101258D
:101110000DA84FF0104633F01DFD002404F04EFBE7
:10112000C94B0DA8ADF834501094CDE90E6304F00E
:1011300063FB17230DA88DF835508DF83C308DF8E2
:10114000425004F059FB042004F046FBBFF34F8FDC
:10115000BFF36F8FBD4AC2F85042BFF34F8FBFF34A
:101160006F8F536943F400335361BFF34F8FBFF365
:101170006F8FC2F88440BFF34F8FD2F8803043F6B0
:10118000E074C3F3C900C3F34E335B0103EA040602
:10119000014646EA81750139C2F86052F9D2203B16
:1011A00013F1200FF2D1BFF34F8F536943F4803313
:1011B0005361BFF34F8FBFF36F8F04F027F8002404
:1011C000FFF74CFF142200210DA833F0C3FCA04B05
:1011D0001021A0481A6B01264FF010084FF0030AA7
:1011E00042F0100202274025DFF898921A631A6B2A
:1011F000DFF894B202F010020292029A1A6B42F0E7
:1012000002021A631A6B02F002020392039A1A6B2B
:1012100042F001021A631A6B02F001020492049A6E
:101220001A6B42F040021A631A6B02F040020592F8
:10123000059A1A6B42F400721A631A6B02F4007278
:101240000692069A1A6B42F008021A631A6B02F0B1
:1012500008020792079A1A6B42F480621A631A6BAB
:1012600002F480620892089A1A6B42F020021A6314
:101270001A6B02F020020992099A1A6B42F48072EA
:101280001A631A6B02F480720A920A9A1A6B42F07D
:1012900004021A631A6B02F004020B920B9A1A6B87
:1012A00042F080021A6300221B6B03F080030C9350
:1012B0000C9B04F0F3FD01220821674804F0EEFDC9
:1012C00001224FF48051654804F0E8FD0022C0215E
:1012D000634804F0E3FD01224021624804F0DEFD92
:1012E00001224021604804F0D9FD0DA95948CDE9FB
:1012F0000F4ACDE90D8604F049FC08230DA9564894
:10130000CDE90D36CDE90F4404F040FC4FF4805296
:101310000DA95248CDE90D26CDE90F4404F036FC65
:10132000C0230DA94E48CDE90D36CDE90F4A04F092
:101330002DFC0DA94B48CDE90D56CDE90F7404F0F5
:1013400025FC0DA94848CDE90D56CDE90F7404F0F0
:101350001DFC4648464B848003600662C0E9054494
:1013600004F076FA434B4846C9E90A44C9E90C44FB
:10137000C9E90034C9E9024404F007FB3146484694
:101380004FF0040904F0BAFB3B494FF48052CBF80C
:1013900014503A4D5846CBF80840CBF828400D97EA
:1013A000CBE900144FF4C071CBE906144FF400618F
:1013B000CBE9081207220DA9CDE9102ACBE9039841
:1013C000CDE90E29CDE9127706F031FD29464FF619
:1013D000FF7258460194C5E90264C5E9006806F049
:1013E00046FD304603F036FF29464FF6FF72584659
:1013F000C5E90264C5E9007806F039FD08232946ED
:101400004FF6FF725846C5E90234C5E900A806F058
:101410002EFD4FF40C722946584601924FF0FF0AF8
:10142000019AAE60EA604FF6FF72C5E9009806F0D7
:101430001EFD40F22B715846114D06F037FD4FF05E
:10144000204343F2D20221E01B00000300ED00E044
:101450000038024000040240002802400020024000
:101460000008024000180240001C02402403002033
:101470000030024000B00240400100A0AC02002059
:101480008803002048030020F004002064204FF46B
:10149000806B1A6003F0DEFE7E4B7F4A28462C628A
:1014A000C5E90023C5E90246C5E90444C5E9064487
:1014B00004F01CFE2146284605F03AF8214628464D
:1014C000764D05F05BF8342221460DEB020033F037
:1014D00041FB734B2821352040F2152C40F2352E6C
:1014E000AC862C6185F83640C5E900340923C5E98E
:1014F00005130B23C5E9070340F21B132846C5E972
:1015000009C340F21D13C5E90244C5E90BE305F028
:10151000DDF805214FF4F0724FF4887328460D94DE
:101520001893ADF864408DF866405E4DCDE914B176
:101530004FF04041CDE90E24CDE916120DA9224607
:10154000CDE91037CDE912A405F08BF95648574B79
:1015500018220462C0E900364FF4A063C0E90644D3
:10156000C0E90423C0E9029805F0E8FA03F0CCFCD6
:1015700003F010FC5C2004F00FF900F0A1FC4246DF
:1015800021460DA833F0E6FA49494FF48033284646
:10159000AC60AC6185F82040EC62EC6085F83040CE
:1015A0002E61EF616E61C5E90013424BAB6203F03F
:1015B00063FE0DA928460F94CDE90D4603F0EEFF1A
:1015C00008230DA928463C4DCDE90D3703F0E6FF71
:1015D0003A484FF4E13304614462C0E900530C23FC
:1015E000374DC0E90534C0E90244C0E9074407F0BB
:1015F0006EF8214614220DA833F0ACFA314B284680
:101600000094AC61C5E900347F23C5E90444C5E911
:10161000023A06F070FA43F6173322460DA9ADF8E8
:1016200034302D2328468DF83630CDE9104406F0AD
:10163000B5FA254B224669462846009306F007FB7B
:101640004A464946284606F094FB00F065FC00F047
:1016500062FC07F0F5F821461C4A1D4807F02AF9FC
:101660001C4B21461C4A18601C4807F023F91C4BF0
:1016700021461C4A18601C4807F01CF91B4B1C4CE7
:10168000186007F0F7F81B4833F05AF9204633F09A
:1016900057F9FBE768474020005C0040DC0300206E
:1016A00000680140DC02002084040020001000A03B
:1016B000002201400100000F00100140240500201D
:1016C000D00400200028004006031718086C030807
:1016D00031100008D8020020E46B0308271F00081F
:1016E000D40200202C6C030891390008AC050020BE
:1016F000AB6B03088C6B03080268034B9A4201D161
:1017000003F096BD704700BF001000407047000016
:101710000D4B82B00F216FF001001A6C42F0805225
:101720001A641A6C02F080520092009A5A6C42F4C9
:1017300080425A6400225B6C03F480430193019B56
:1017400002B003F0E9BF00BF0038024010B588B016
:1017500004461422002103A833F0FCF922681A4B36
:101760009A422ED103F58B33032403A917485A6CF0
:1017700042F480625A645A6C02F480620092009AC9
:101780001A6B42F020021A631A6B02F020020192D7
:10179000019A1A6B42F001021A631B6B03F00103FA
:1017A0000293029B4FF48063CDE9033404F0EEF919
:1017B000012303A90648CDE903340023059304F06F
:1017C000E5F908B010BD00BF00220140001402403E
:1017D00000000240026882B0084B9A420BD1D3F855
:1017E000302803F5006342F480521A631B6B03F444
:1017F00080530193019B02B0704700BF003002404C
:101800000E4B07B502689A4215D1A3F5F0430521A6
:101810005A201A6B42F400021A6300221B6B03F475
:1018200000030193019B03F077FF5A2003B05DF89A
:1018300004EB03F0A3BF03B05DF804FB00B002406B
:1018400010B5A8B004461422002102A833F082F992
:101850008422002107A833F07DF92268174B9A42B1
:101860002AD14FF4803307A8079305F06DFE08B125
:10187000FFF74CFF124C4FF4C07201211148236B4B
:1018800043F080032363236B03F080030093009BEA
:101890001223CDE902230323CDE90413042302A973
:1018A000069304F073F9236C43F400032364236C60
:1018B00003F400030193019B28B010BD005C0040BD
:1018C00000380240001C0240026808B5094B9A42E9
:1018D0000FD1094A80210948136C23F400031364D3
:1018E00004F036FA4FF480710448BDE8084004F073
:1018F0002FBA08BD005C004000380240001C0240C6
:1019000070B5ACB004461422002106A833F022F9C9
:10191000842200210BA833F01DF92268484B9A421B
:1019200040F08C800823052001240B934FF4C073F2
:1019300010930223CDE911304FF400330BA8CDE909
:10194000154305F001FE08B1FFF7E0FE3D4B002412
:1019500002250E265A6C06A93B4842F080625A6462
:101960005A6C02F080620092009A1A6B42F01002E8
:101970001A631A6B02F010020192019A1A6B42F478
:1019800000721A631A6B02F400720292029A1A6BC6
:1019900042F480621A631A6B02F480620392039A23
:1019A0001A6B42F040021A631A6B02F04002049272
:1019B000049A1A6B42F480721A631B6B03F48073EF
:1019C0000593059B1023CDE90635CDE908440A9619
:1019D00004F0DCF84EF6FF7306A91C480A96CDE920
:1019E0000635CDE9084404F0D1F8F72306A91848D4
:1019F0000A96CDE90635CDE9084404F0C7F84FF45E
:101A0000805306A91348CDE906350923CDE90844DA
:101A10000A9304F0BBF84FF4464306A90E480A9611
:101A2000CDE90635CDE9084404F0B0F85820224647
:101A3000052103F071FE582003F0A0FE2CB070BD0C
:101A400000680140003802400010024000240240BB
:101A50000028024000180240002002401422002109
:101A60002DE9F0418AB004460DEB020033F072F824
:101A700022682C4B9A4251D12B4B02250324092674
:101A80009A6B4FF0040805A9284842F0020200278B
:101A90009A639A6B02F002020192019A1A6B42F069
:101AA00010021A631A6B02F010020292029A1A6B69
:101AB00042F002021A631A6B02F002020392039AC6
:101AC0001A6B42F008021A631B6B03F008030493BD
:101AD000049BCDE90585CDE9084604F057F840237D
:101AE00005A91348CDE905350A23CDE90774099303
:101AF00004F04CF805A90E480996CDE90585CDE915
:101B0000077404F043F84FF4605305A90948099697
:101B1000CDE90535CDE9077404F038F80AB0BDE821
:101B2000F08100BF001000A0003802400010024009
:101B300000040240000C0240026808B50B4B9A42B8
:101B400013D10B4A04210B48936B23F002039363D8
:101B500004F0FEF84421084804F0FAF84FF460510C
:101B60000648BDE8084004F0F3B808BD001000A026
:101B7000003802400010024000040240000C024005
:101B800010B5A2B004468422002101A832F0E2FF81
:101B900022680A4B9A420FD1202301A801934FF4E7
:101BA00080730D9305F0D0FC08B1FFF7AFFD044A38
:101BB000136F43F40043136722B010BD00280040A8
:101BC00000380240F0B5ABB004461422002104A84E
:101BD00032F0C0FF8422002109A832F0BBFF226846
:101BE000204B9A423CD1402309A8099305F0ACFC54
:101BF00008B1FFF78BFD1C4B0227002603255A6C0A
:101C0000072404A9194842F010025A645A6C02F0E1
:101C100010020192019A1A6B42F002021A631A6BC7
:101C200002F002020292029A1A6B42F001021A6357
:101C30001B6B089403F001030393039B8023CDE9FE
:101C40000665CDE9043703F0A1FF4FF4007304A942
:101C500007480894CDE90437CDE9066503F096FFFF
:101C60002BB0F0BD001001400038024000040240DB
:101C700000000240F0B5002387B00393294B1E6893
:101C8000002E4DD10122022703250C241A6001A940
:101C9000254B26489A6B42F001029A639B6B03F036
:101CA00001030093009B4FF68373CDE90454CDE903
:101CB000013703F06BFF48F2331301A91C48059468
:101CC000CDE90137CDE9036503F060FF4CF2037302
:101CD00001A918480594CDE90137CDE9036503F062
:101CE00055FF4FF63F0301A913480594CDE901378D
:101CF000CDE9036503F04AFF282301A90F480594A5
:101D0000CDE90137CDE9036503F040FF082301A9C0
:101D10000B480594CDE90137CDE9036503F036FFA3
:101D200007B0F0BDB00500200038024000100240AE
:101D300000180240000C024000140240001C024047
:101D400000080240214B1A6C42F0100270B51A6470
:101D500088B01B6C054601A903A803F01003029389
:101D6000029B05F0D3FB069B4BBB05F0AFFB184E67
:101D7000184B336040F2E733F360174BB0FBF3F3DB
:101D8000013B3046736000233361B360B36106F0FA
:101D9000FFF9044680B9304606F0A2F8044658B967
:101DA000362003F0EBFC0F2D0DD8224629463620B5
:101DB00003F0B2FC094B1D60204608B070BD05F071
:101DC00085FB4000D3E70124F6E700BF003802405E
:101DD000B40500200010004040420F003C000020ED
:101DE0007047FEE7FEE7FEE7FEE77047014806F0B2
:101DF000B9B800BFB4050020014804F0D5BC00BF4D
:101E0000DC030020014803F0EEBD00BF48030020C2
:101E10000120704708B532F055FF162303604FF0DC
:101E2000FF3008BD08B532F04DFF16230360FEE712
:101E300070B50D4614460E46731B9C4201DC2046CD
:101E400070BDAFF3008006F8010BF5E770B50D46E5
:101E500014460E46731B9C4201DC204670BD16F8EA
:101E6000010BFFF7EBF8F5E74FF0FF3070474FF449
:101E7000005300204B6070470120704700207047DE
:101E80000B4A0346116810B509B90A491160106878
:101E900009490A4C0344091B8B4206D932F012FF50
:101EA0000C2303604FF0FF3010BD1360FCE700BF50
:101EB000000600207065012000000520000A0000D7
:101EC00070470000DFF834D0002103E00C4B5B5872
:101ED000435004310B480C4B42189A42F6D30B4A3C
:101EE00002E0002342F8043B094B9A42F9D303F085
:101EF000A3F832F0EDFEFFF705F97047000005206A
:101F000020CA030800000020900200209002002058
:101F10006C650120FEE7704708B501F013F9BDE8D4
:101F2000084001F097B801F00FB940687047416070
:101F3000704700004FF0E022D2F8FC3D43F0807380
:101F4000C2F8FC3D054B064AD3F8B01F0A43C3F85C
:101F5000B02F1A6842F001021A607047001000E0CA
:101F600055CEACC5511A01EB5301B1FBF3F07047EC
:101F7000014B5868704700BF001000E0704710B573
:101F800004460C2130F06DFF204610BD036810B5EB
:101F90001B69044631B19847A26863689B1A1844CC
:101FA000606010BD9847A060FBE70000024B702006
:101FB000024A1360DB681847100000200406002066
:101FC000704710B50446042130F04BFF204610BD89
:101FD00073B50E4E0D461446336813B9002002B097
:101FE00070BD1B69702098470028F7D033687020B7
:101FF00001AA0DF106015B699847BDF80430012084
:102000002B60BDF806302360E9E700BF040600201E
:102010007FB501238DF817204FF47A72CDE9013294
:102020000DF1170200920A460146054804F0C8F86F
:1020300010B1034804F0ABF807B05DF804FB00BF33
:10204000880300207FB500230A464FF47A718DF88B
:1020500017300123CDE901310DF11701009101463F
:10206000054804F087F910B1034804F090F89DF892
:10207000170007B05DF804FB8803002001280ED08C
:10208000022814D0D0B90E4B00F1804010211A68FC
:1020900000F50130B2FA82F2520903F0FFBE084B9C
:1020A00040215A68B2FA82F252090648F5E7044B19
:1020B00080219A68B2FA82F25209F6E7704700BFAF
:1020C000080600200008024001280ED0022814D083
:1020D000D0B90E4B00F1804010211A6800F5013094
:1020E000003A18BF012203F0D9BE084B40215A68BC
:1020F000003A18BF01220648F5E7044B80219A6890
:10210000003A18BF0122F6E7704700BF080600201A
:1021100000080240012809D002280AD058B900F16D
:102120008040102100F5013003F0BDBE402102487F
:10213000FAE78021FBE7704700080240012808B554
:102140000DD002280ED078B900F18040102100F5A2
:10215000013003F09DFE431E5842584108BD402106
:102160000248F6E78021FBE70020F4E70008024080
:1021700070B5084D00240126E0B2FFF7DFFF18B16B
:102180002B68012B18BF2E6001340435052CF3D1C8
:1021900070BD00BF08060020012380F8781080F889
:1021A000793070470020704741640039024B18BFF6
:1021B00001211970704700BF33590120002070477A
:1021C000836B0BB10846184770474FF6FF70704796
:1021D000406803689B6918477047000038B504469B
:1021E00001F008F9084923682046084DD3F88C30DF
:1021F00098470023284684F84A30FFF79BFE0123C6
:10220000256184F8703038BD000000C01806002039
:1022100001F092B801F096B870B501F015F91049C7
:102220000023C1F88430BFF34F8FD1F8803043F6DC
:10223000E074C3F3C900C3F34E335B0103EA040641
:10224000024646EA8275013AC1F87452F9D2203B3F
:1022500013F1200FF2D1BFF34F8FBFF36F8F70BD1B
:1022600000ED00E001F0F2B801F042B801F00CBA64
:1022700001F014BA01F046B810B5044617F07CFD21
:1022800023682046D3F8AC30BDE81040184716F05C
:10229000D1BF10B504467C2130F0E3FD204610BDCF
:1022A00090F87A301BB1406803681B6818471846DD
:1022B0007047000090F834100D4B10B590F878403E
:1022C0001A788C4209D03AB90A490B4A088814880E
:1022D000108001220C801A7010BD002AFCD0064A22
:1022E0000449148808880C8010800022F3E700BF9E
:1022F0002C5901202A5901202859012070B50D467A
:10230000194635B9094B40F2D221094A094831F042
:10231000EFFCC0E90F52003A074B18BF01221A70B8
:102320000368BDE87040D3F88C301847906C030800
:10233000C86C0308166D03083259012008B5094B13
:102340001B888B4203D8084B1B88934205D9074B47
:102350009E21074A074831F0CBFC074B1980074BF9
:102360001A8008BD285901202A5901205B6D0308F5
:10237000BE6D0308166D03082E5901203059012047
:10238000014608B5034B186801B1012117F00EFD95
:10239000012008BD34590120034B00225A609A6085
:1023A000024A1A60704700BF18060020586C0308E4
:1023B0000121002208B5084606F088FB0A4B186088
:1023C00028B90A4B28210A4A0A4831F091FC002218
:1023D0000421012006F040FC074B186018B9074B98
:1023E0002C21034AF0E708BD28060020DC6E030814
:1023F000256F0308546F0308240600209D6F03080F
:10240000024B4FF0FF31186806F0B6BB28060020DB
:10241000014B186806F0EABB28060020024B002199
:10242000186806F0A9BB00BF28060020FFF7F0BF20
:102430000023034803491A46006806F053BC00BF56
:10244000240600200400002013B50023074C01A936
:102450001A46206806F088FC4FF0FF33002201A9DD
:10246000206806F081FC02B010BD00BF24060020E9
:1024700003685B6C18470120704703689B6A184724
:102480000D4B82B01A6B42F400021A631A6B02F40D
:1024900000020192019A1A6942F400021A611A6953
:1024A00022F400021A61054B054A1A614FF080625E
:1024B000044B9A6002B07047003802404803002085
:1024C0000925000800E100E040F2EF30704700000D
:1024D000054B4FF080620360044BC3F88820BFF3C4
:1024E0004F8FBFF36F8F70473871030800E100E032
:1024F00010B504464FF45A61FFF7EAFF204630F06A
:10250000B0FC204610BD0000024B1B6858680368F1
:102510005B6918473459012070B504460A4B0C30EA
:1025200000262546602260602672667245F8203BD0
:10253000294617F091FD04F55A63EE602435AB424D
:10254000FBD1204670BD00BF3871030808B50B29C8
:102550000BD8DFE801F01206100A0A0A0A08080878
:102560000808012008BD0520FCE7054B6521054A48
:10257000054831F0BDFB0020F4E70220F2E700BF80
:10258000DF6F0308FA6F03084470030808B50A29CF
:1025900009D8DFE801F010060E080808080606064C
:1025A0000600012008BD054B8621054A054831F08B
:1025B0009FFB0020F6E70220F4E700BFDF6F03086F
:1025C0008B700308447003082DE9F84391F81D80CF
:1025D0000C4607464146FFF7B9FF94F81E900546A2
:1025E00038464946FFF7B2FF494606463846FFF7E8
:1025F000CDFFA18A628B434B521A1A649A61228BD7
:10260000521A1A61E28A586342EA014220695A6406
:102610006268D863DA602768802F28D0227F0FD8BD
:10262000202F65D0402F63D0042F1AD045EA0265D1
:10263000344BC84545F40035DD615FD0324A44E093
:10264000B7F5807F04D0B7F5007FEFD12F4900E0C8
:102650002F4941EA0262DA61E2681A625E625861F9
:1026600032E045EA026242F40032DA61F6E7A76836
:102670003A1DDA62217F3A7845EA016545F4003572
:10268000DD615E62586142B1012A21D0214B4FF4D5
:102690008871214A214831F02BFBDA69798822F4CC
:1026A0007F42013922F0100242EA01220121DA615F
:1026B000144BDA6942F02002DA61DA699206FCD43E
:1026C00010229A600029B9D0154A1A60BDE8F88333
:1026D000DA69FF39788822F47F4218BF0121013876
:1026E00022F0100242EA002242F01002DA61DFE733
:1026F00045EA0262034B42F40032B6E740F201229F
:10270000E3E700BF00B0024001020100090002003F
:102710000A000200D6700308F07003084470030832
:102720000102020038B50C46897FFFF72FFF174BD7
:10273000A58AE28A586342EA054221695A64628B9B
:10274000D963521B1A642568082D0ED19A611A614B
:1027500058620F4A207F42EA0062DA61E2681A6238
:102760000C4A5961D9601A6038BD0022D8611A61DB
:10277000E1680A0A4809C1F3C40102F4784200F48E
:10278000FC6002430A439A63034AECE700B002404C
:10279000090001000102020001020300034B1A6854
:1027A000D207FCD423229A60704700BF00B00240D9
:1027B00030B5104C2568ED07FCD423250904FF2B08
:1027C000A56041F001014FF0020565636164E063BB
:1027D0000AD00949656241EA0363E361074B22625B
:1027E0006061E060236030BDE561039BA363044B3F
:1027F000F8E700BF00B0024009000100010002003C
:10280000010003004069704790F844007047036B73
:1028100023B9C06A003818BF0120704701207047F3
:1028200080687047043010B50C460FC884E80F006C
:1028300010BD704708B5034A40F21221024B03480D
:1028400031F056FA807103089F8C0308DB7103088E
:1028500010B50446482130F004FB204610BD0000AE
:102860002DE9F0431C46436BADF51F7D05460E4632
:102870001746002B37D0002203A8DFF8A890CDE937
:1028800001320EF0D1FB4FF4F4725021249024A8B1
:1028900008F019FB3A46314624A809F095FA0121BF
:1028A00024A808F013FC022324A88DF8D83008F0DF
:1028B000B1FCBDF898322B9ABDF89C629342A89F58
:1028C00028BF1346419A964203EB4308A7EB430700
:1028D00028BF1646479B9E4209D824A808F018FC3A
:1028E00024A808F03DFB0DF51F7DBDE8F083012213
:1028F00001A924A808F0D7FC6B6B03EB08009842F1
:1029000001D83C44E6E759789A78C90009EA0222DE
:1029100001F4FC610A4313F8031B42EAD10224F8D4
:10292000022BECE700F8FFFF0A4A02600022C0E930
:102930000522C0E90722C0E90922C0E90B22C0E94B
:102940000D12C0E90F2280F84420C0E90322C0E93B
:1029500001227047B874030810B40C4611461A4699
:10296000036B3BB1036C806BE41A20445DF8044BAD
:1029700032F0F8B8C06AF8E7036B10B573B1036CB6
:10298000826BC91A5318525C98785C780004DB7823
:1029900040EA0420104340EA036010BDC36A58585F
:1029A000FBE7036B43B1036CC91A836B5A18585C7D
:1029B000527840EA02207047C36A585A70470000B4
:1029C00070B50446006B0D461646D8B1E36B9342D2
:1029D00008D209230D4A65210D4884F844300D4B77
:1029E00031F086F90368DB689847206B3246A16BAB
:1029F00003681B69984710B90D2384F84430A06B15
:102A0000256470BDE06A0844FBE700BF417203081B
:102A1000DB7103082E7203082DE9F843436904466D
:102A20002BB9234BAA21234A234831F061F908220C
:102A30008169FFF7C5FFA16943F2300646F26437AA
:102A400004312046FFF798FFA3691844A36A00F1F8
:102A500008029A4206D3012300206361236AA3611E
:102A6000BDE8F883636909300822013320F00101D1
:102A700020466361A161FFF7A3FFD4F818902046B8
:102A80004946FFF78EFF09F1020180462046FFF715
:102A900088FF09F1040105462046FFF76DFFB045A8
:102AA000D2D1BD42D0D10028CED00120D8E700BF7E
:102AB00083720308CC720308DB7103082DE9F04F21
:102AC0000446ADF51F7D8A46164681690822984660
:102AD000FFF776FFA7692046391DFFF74DFF07F185
:102AE0000801024605462046FFF76AFF636B07466A
:102AF00033B93C4B40F2AB113B4A3C4831F0F8F85B
:102B0000002203A8CDE901320EF08EFA4FF4F472E0
:102B10005021249024A808F0D6F92A46394624A842
:102B200009F052F9012124A808F0D0FA022324A8C0
:102B30008DF8D83008F06EFBBAF90250479BAB42D3
:102B400029D3BAF900904FEA4808BAF804702B9BD1
:102B500008FB05664F44BAF80250DFF894B03FB264
:102B60009F4228BF1F46BAF8063009EB490A1D44A8
:102B7000419B2DB29D4228BF1D46479BAB4210D3BF
:102B800024A808F0C5FA24A808F0EAF901200DF5F8
:102B90001F7DBDE8F08F012201A924A808F083FB66
:102BA000CCE7012201A924A808F07DFB626B49460D
:102BB0005244B94202F1030201D34644DDE712F860
:102BC000020C12F8013CC0000BEA032300F4FC6085
:102BD000034312F8030C43EAD00326F81130013105
:102BE000E7E700BFFF72030855730308DB710308B2
:102BF00000F8FFFF0129036838BF0121DB6A70B5C7
:102C00000D4604469847A84204D223682046DB6A52
:102C1000984705466B1EE6691022204606EB031610
:102C200006F10801FFF7CCFE06F110012046FFF780
:102C3000A3FE236A043B0344C4E9055370BD0000AE
:102C40002DE9F341002104464822816180F84410B7
:102C5000FFF7B6FEA7690423634A39462046FFF70B
:102C60007BFE40B10323614AF22184F84430604B7B
:102C7000604831F03DF807F1080104235E4A204620
:102C8000A161FFF769FE30B10423584AFA2184F8A4
:102C900044305A4BECE707F10C010423584A204614
:102CA000A161FFF759FE064638B105234F4A40F2AD
:102CB000011184F84430534BDAE707F11001204644
:102CC000FFF75AFE054620B94F4B40F20711474A1D
:102CD000CEE707F1140804234C4A20464146FFF78B
:102CE0003BFE00284BD0062384F844300423484A96
:102CF00007F118012046FFF72FFE002841D00723D7
:102D000084F844304544434F0C2220462946FFF7BF
:102D100057FE05F1080604233A4620463146FFF7E0
:102D20001BFE94F8443000284AD0002B4AD1A36AF5
:102D3000291DAB424AD805F10C03291D2046A36189
:102D40000191FFF719FE3044019960622046FFF7B8
:102D500013FE0644042220463146FFF731FE0423C9
:102D60002D4A31462046FFF7F7FD002839D10123CF
:102D7000E6616361A369236202B0BDE8F0810126C8
:102D8000B4E7002EBED007F120012046FFF7F4FD86
:102D90004FF47A7307F13001B0FBF3F06060204626
:102DA000FFF7EAFD07F14001A0602046FFF7E4FDD0
:102DB00007F14401E0602046FFF7DEFD2061A1E756
:102DC000002BB8D00A2384F84430D5E72046FFF71B
:102DD000D3FD08300C22054420462946FFF7F0FDBC
:102DE00097E70B23EFE700BFAF730308CD7303082A
:102DF000B4730308DB710308FA730308FF73030855
:102E0000177403081C740308327403083E74030823
:102E100043740308487403084D740308C0E90A2189
:102E200000220263FFF70CBF10B5002304460846DA
:102E3000E3620B6821639B689847A0622046BDE867
:102E40001040FFF7FDBEF0B4BDF81050BDF814609F
:102E50002AB123B1CDE90456F0BCFFF701BDF0BCA7
:102E6000704700002DE9F04F9946436985B004464C
:102E70000F4690462BB92A4B77212A4A2A4830F030
:102E800037FF08228169FFF79BFDA669204631467E
:102E9000FFF787FDB11C83462046FFF782FD311DF9
:102EA00082462046FFF768FD06F10801A36A054641
:102EB00042189A4227D243F230039B4517D146F27B
:102EC00064339A4513D190B10246A1612046FFF7C1
:102ED00077FD0E9B01462A462046CDF80080CDE9BD
:102EE00001933B46FFF7AFFF636901336361A36959
:102EF0002B448DB1A361A369626A013323F00103FE
:102F00009342A3610AD10120236A6061A36180F02A
:102F1000010005B0BDE8F08F0833EBE70020F6E7CD
:102F20008372030852740308DB71030801207047A1
:102F30000C2070470C2303FB0100083070470C2362
:102F400003FB010008307047012070474FF4C76051
:102F500070474FF4C76303FB0100083070474FF41C
:102F6000C76303FB01000830704701207047102041
:102F7000704700EB01100830704700EB011008307B
:102F80007047084600F026BF034B10B504460360A7
:102F900015F068F8204610BD6075030810B50446AA
:102FA000FFF7F2FF142120462FF05BFF204610BDF3
:102FB000034B10B50446036015F054F8204610BDCD
:102FC0002C75030810B50446FFF7F2FF4FF4C861F3
:102FD00020462FF046FF204610BD0000034B10B5E1
:102FE0000446036015F03EF8204610BDF87403084F
:102FF00010B50446FFF7F2FF182120462FF031FFED
:10300000204610BD084B10B50446036000F26C600A
:10301000FFF7BAFF04F12C00FFF7CAFF04F1140018
:10302000FFF7DCFF204610BD9475030808B5024881
:10303000FFF7E8FF08BD00BF3006002010B50446CA
:10304000FFF7E0FF40F6040120462FF00AFF20467C
:1030500010BD00002DE9F34100F032FD00240546CB
:1030600000F032FD2346014622462846009421F016
:103070004BFD274B274A2046274D1A6001F034FBB1
:10308000264B274A27489A6021F0A6FC2B68BFF3FD
:103090005B8FDB0735D428462FF0E5FE88B3224C42
:1030A000224B04F5D56604F1140004F12C0804F257
:1030B0006C6723606060C4F80880E760266114F0E4
:1030C000D3FF1B4B4046636114F0CEFF194B3846CB
:1030D000E36214F0C9FF184B04F5D060C4F86C36F5
:1030E00001F086FB224604F5D061304601F076FB04
:1030F000304600F06FFE114830F018FE28462FF0E1
:10310000BEFE0F4802B0BDE8F041FFF767B800BF50
:1031100098590120701C00202C060020741C0020EF
:10312000340E0020080000203006002094750308AB
:10313000F87403082C750308607503082D30000827
:10314000F41B002070470000014816F0DCB800BFF7
:10315000F41B002070B5244E244B254C3046254DE1
:103160002360FFF7D9F9284625F0A8FF22481EF072
:10317000FBF9224B00224FF4807121481A8683F814
:1031800058205A6683F870205A67DC60C3E912122F
:103190001C49C3E91A121C4999671C490B604FF47A
:1031A000F07101801A4801804FF488711948C3E911
:1031B0000422C3E90622C3E90822C3E90A22C3E9BB
:1031C0000E22C3E91022C3E91422C3E91722C3E97E
:1031D00001650180104883F8342001800F490A708E
:1031E0000F4A1A6070BD00BF540E0020806C0308A7
:1031F000500E0020741C0020340E0020F41B002010
:10320000285901200100000100000101345901206A
:103210002E5901202A590120305901202C59012012
:103220000C6E03080148FFF753B900BF540E00208D
:103230000020704781807047C180704701817047CE
:10324000418170477047704770477047704710B4AE
:10325000C4880368121B84885B6D091B12B25DF879
:10326000044B09B218474FF6FF7383814FF0FF33C9
:1032700003621368C3611060704790F825201AB18B
:1032800090F8242002B118607047002070478B88A6
:10329000838001207047704780F82610704790F8AF
:1032A00026007047002210B5B1F90840B1F90A10A4
:1032B000028042808480C18010BD00220280428052
:1032C0008280C28070470177704780ED080A70479E
:1032D00080F82410704780F825107047012070474F
:1032E000983070478C3070478430704770470000CA
:1032F000034B902283F85A2383F85823704700BF6A
:1033000000E100E0094A0A49D3680A48C3F30A0306
:10331000013B9BB20B801169C1F30A0101390180A5
:103320001364536B43F0010353637047006801401B
:103330005A1D0020581D0020014BD3F8AC007047E7
:1033400000680140024B0122C3F8AC105A6270477A
:1033500000680140124A5369DB0370B51ED5002393
:10336000C2F88430BFF34F8FD2F8803043F6E07458
:10337000C3F3C900C3F34E335B0103EA04060146FD
:1033800046EA81750139C2F87452F9D2203B13F133
:10339000200FF2D1BFF34F8FBFF36F8F70BD00BF0F
:1033A00000ED00E07047704770473823002201FBB2
:1033B0000333C25490F838300BB9036C8364704700
:1033C000704780F84C10704710B5044658212FF014
:1033D00048FD204610BD10B504462C212FF041FDBC
:1033E000204610BD10B50446BC212FF03AFD204602
:1033F00010BD000038B5044615F071FF23685D6EFE
:103400001CF05CFF01462046A8472368084A204676
:10341000D3F888500023A2F57F31A847054B064A10
:103420005A60064A1A649A644FF4FF225A6438BDFF
:1034300000F807C0001D00209825002000F40BC0F4
:1034400015F034BF15F03EBF15F0FABE16F069B89E
:1034500090F8252012B103685B6918477047000097
:1034600008B531B1044B40F29711044A044830F0DA
:103470003FFC90F8390008BDA0750308B475030837
:103480004177030810B531B1064B40F29111064A5D
:10349000064830F02DFC406811460368BDE8104036
:1034A0001B6B1847A075030883770308417703084F
:1034B00008B529B1034B7A21034A044830F018FCBF
:1034C000006908BDA0750308347903084177030833
:1034D00008B529B1054B8321054A064830F008FCA0
:1034E00041618160C0E9063208BD00BFA0750308D4
:1034F000EC7A03084177030810B5044629B1274B3D
:10350000A421274A274830F0F3FB052A34D8DFE806
:1035100002F003292F34393E406803681B6998473D
:1035200050B34FF0FF31606D05F076FA00230122B1
:1035300094F83E1084F83B3084F83920A36063612E
:1035400001B1226284F83E306362E36A2BB9012341
:10355000206D84F83A3005F049FB606DBDE81040FD
:1035600005F08ABA002380F8393084F83E3003E051
:10357000036200238360436110BD03620023836004
:103580004361F2E7002380F839300123EDE7003B87
:1035900018BF012380F83D30EEE700BFA075030897
:1035A000AB7C03084177030870B50446164629B181
:1035B000314BE721314A324830F09AFB90F83930EC
:1035C00033B1304B1B6893F86B204369134443615C
:1035D000E36A002B4DD0E169D4E905325343A26878
:1035E0004A43934220D2236A002B42D04FF0FF314E
:1035F000606D05F011FA236A0BB10023E362E36A00
:10360000FBB90125606D05F037FA94F839300BB934
:10361000236A3BB1E36A2BB90123206D84F83A3069
:1036200005F0E4FA284670BD94F84C000028DDD07F
:103630009B1AB3FBF1F2994298BF02F1FF3262622A
:10364000D4E7002294F83C50A3623046E262E2687C
:103650002261A2680132A260336333685B699847D4
:10366000002DCED194F83D30002BCBD184F83950C9
:10367000C8E70125C9E700BFA0750308827E0308DB
:103680004177030834590120034B4FF080629A6060
:103690004FF080729A60704700E100E0084B4FF0F5
:1036A0008062C3F88820BFF34F8FBFF36F8F4FF056
:1036B0008072C3F88820BFF34F8FBFF36F8F7047BE
:1036C00000E100E038B5034690F8380038BB01222D
:1036D0009860D8609A634FF4807258619A874FF46B
:1036E000F0729861D861186258629862D862186363
:1036F000586383F83E00CA864FF4887281F834001C
:103700000A8708639A6C186102F5FF24D3E9101543
:1037100029448C420AD9084B5821084A03E0084B37
:1037200040F2F511074A084830F0E2FA1A6302F550
:103730007F329C645A6338BDE0810308208203080D
:10374000268003085680030841770308002370B5DC
:10375000124E05468380124B0360336893F858205D
:103760000AB1D86C00B998680368DB6A9847336877
:10377000B0FA80F4D86C640930B10368DB6A98470A
:10378000002808BF44F001042CB9064B2C21064A3E
:10379000064830F0ADFA284670BD00BF345901200C
:1037A000C8840308C6830308248403085D840308CF
:1037B00070B5244E3568BFF35B8F15F001053FD11E
:1037C00030462FF050FB00283AD01F4C1F4B04F11D
:1037D00034002561E584A562A585C4E90035C4E906
:1037E00002551EF020F904F1580018F033F8184B78
:1037F0002046A365174B40F8843BFFF7A7FF164B05
:103800001648C4F884302433C4F89050C4F88C307F
:103810006423C4F89C50C4F8A850C4E92835002398
:10382000C4F8AC30C4F8B030C4F8B430C4F8B83020
:103830000B4BC4F8983030F079FA30462FF01FFB6C
:10384000014870BDFC1C00205C1D0020F8B403087A
:10385000E884030860850308ACB40308ED3200086F
:103860008CB4030810B5144C236823B3134B144ACB
:103870001B6C11888B4213D1124B198803F01EF870
:10388000226892F86A30013382F86A30FEF7D0FD80
:10389000206816F071FA0020BDE81040FEF7EEBB7C
:1038A00003F00CF8206803681B6A98470020BDE805
:1038B0001040FEF709BC10BD3459012000680140DA
:1038C0005A1D0020581D00202DE9F74304464FF4EF
:1038D000707894F83A304FF0FF31002B31D0606DA2
:1038E00005F09AF8276BA36ABB4200D1676B266A82
:1038F000656856B32B68314628465B6A98470023B3
:10390000236284F83B30606D05F0B6F82B684FF405
:10391000F0723946CDF8008028465E694FF488730E
:10392000B0474FF0FF310646606D05F075F894F82A
:103930003B30E3B1002384F83B30606D05F09CF828
:10394000C7E7206D05F018F9C3E7636A002BDAD0EA
:103950002B682846D3E909939847616A01442846B1
:10396000C847A368626A66621344A360CBE7E76254
:103970005EB12B6828469B6A984701380023E060B7
:1039800084F83C6084F83A30D7E70120F6E700007D
:10399000014808B5FFF798FF001D002003680422C6
:1039A00070B504465E6A00230D46B0474FF0FF3104
:1039B000606D05F031F8382303FB0542D16A09B187
:1039C0000021D16203FB0545012385F83B3000232C
:1039D00085F83930606DBDE8704005F04DB838B5F8
:1039E00000EB810304460D46114658680368DB6806
:1039F000984729462046FFF7D1FF38BD70B50D46E0
:103A00001146044600EB85025068026896681A4623
:103A1000B04729462046FFF7C1FF70BD38B51649AB
:103A200000251648FEF780FF154C164B01202A464C
:103A3000294623604FF48073A564A38784F84C0063
:103A400084F83E50C4E91055C4E91455C4E9015541
:103A5000C4E90355C4E90555C4E90755C4E9095546
:103A6000C4E90B55C4E90D5505F030F8206528462A
:103A700004F08EFF606538BD181E002098250020D8
:103A8000001D0020AC850308704710B504460421D2
:103A90002FF0E7F9204610BD012908B506D002290C
:103AA00008D059B900F06CFE006808BD00F068FE4F
:103AB0004068FAE700F064FE8068F6E70020F4E76B
:103AC00000487047F88503080620704713B50024A6
:103AD00051B1036801AA01948DF803409C680DF16F
:103AE0000303A04702B010BD0846FBE7C08970473A
:103AF000008A7047C088704780887047807A00F0DD
:103B00007F007047807AC00970470020704700002E
:103B10009FED010A704700BF00000000704710B51C
:103B2000044608212FF09DF9204610BD70477047CC
:103B300000F598730868496803C370477047704779
:103B40004160704770470000064BC0F84801C0F85C
:103B50004C310023C0F8503100F5A273C0F8403159
:103B6000704700BF0D3C0008012303727047704787
:103B7000704710B441680346C2689B68541001EB5B
:103B80006200D20748BF0A595DF8044B48BFD358BA
:103B9000184743682BB183682BB9C06800F0010057
:103BA0007047184670470120704710B504460C2135
:103BB0002FF057F9204610BD10B5044610212FF004
:103BC00050F9204610BD10B504464FF4AE712FF0E9
:103BD00048F9204610BD10B51CF070FB0368BDE825
:103BE0001040DB6B184710B50446D0F8400158B1BF
:103BF0000368DB68984738B1D4F8400103689B68D4
:103C000098470023C4F8403110BD00002DE9F14F62
:103C1000D0E9555A0746A86803681B6A9847B0F56B
:103C2000C76F05D2454BA321454A464830F060F89E
:103C3000686803681B6A98470F2803D8424BA42181
:103C40003F4AF2E7E86803681B6A98470B2803D8E5
:103C50003E4BA5213A4AE8E7DFF8F8901CF02EFB2E
:103C600004301CF069FBD9F8000010B10368DB6870
:103C70009847D9F8000010B103681B689847DFF82F
:103C8000D880D8F8000010B103685B699847D7F86E
:103C90003C0110B103685B689847D8F8000010B188
:103CA00003681B689847D7F83C0110B103689B680C
:103CB0009847E86800214FF0000B03685B6A98475B
:103CC000234B0446C0F804B00360594680F808B09E
:103CD000A86803685B6A9847064600F0A9FF686811
:103CE000594603685B6A98470546314600F07AFFFB
:103CF000C9F80040C7F83C51C8F80060E5B12B1D79
:103D0000CAF8003030463368C5F808A0DB68F563B0
:103D100098472B6828461B689847214630461EF076
:103D200093FB236820461B699847236820465B69FC
:103D300001B0BDE8F04F18472B46E1E78086030845
:103D40000E8703081288030859880308FC880308B3
:103D5000148A03087C59012078590120044B1B6800
:103D600093F858200AB1D86C00B99868704700BF22
:103D700034590120F8B5044617460E461CF0AEFB38
:103D8000104B00251C6029460F4B23600F4BC4E9E4
:103D900051350F4B1868C4E953550368C4E94F55B2
:103DA0009B68C4E955769847284600F09DFCFFF7CC
:103DB000D5FF26F0B4FFFFF7D1FF27F02BF8204600
:103DC000F8BD00BF88590120C0890308A8890308ED
:103DD00034590120064BC0F84801C0F84C3100238B
:103DE000C0F8503100F5A273C0F84031704700BFF1
:103DF0000D3C0008406A7047806A704770478B88A6
:103E0000C069DB0A0A6850F823001044704710B5F7
:103E1000C2B1137BB3B1547BD27A240204F4E064C0
:103E20001443026A98B202EB840213888B4202D1D7
:103E300092F9020010BD05D80138043280B2002882
:103E4000F3D1F7E70020F5E710B504462C212FF059
:103E500008F8204610BD000030B58BB00446BDF810
:103E600060500895BDF85C5007959DF85050069538
:103E70009DF84C5005959DF8485004959DF8445088
:103E800003959DF8405002959DF83C500195BDF872
:103E9000385000951DF084FE064B20462360159B8C
:103EA000E361169B2362199B63621A9BA3620BB0AA
:103EB00030BD00BF388A03087047704770477047AD
:103EC000704730B585B00368044601816D460146F0
:103ED000D3F884303C342846984795E8070084E8B6
:103EE000070005B030BD30B585B003680446418198
:103EF0006D460146D3F884303C342846984795E80F
:103F0000070084E8070005B030BD0022028042802F
:103F10008280C280704780F836107047036870B5A1
:103F200004461B6B154698472368204629465B6E5E
:103F3000BDE87040184700207047806C704770479C
:103F40007047704710B504464C212EF08AFF20467A
:103F500010BD10B504464FF4C7612EF082FF204615
:103F600010BD08B5FFF774FA08BD0000036870B50E
:103F70005E6B0446114B8DB21B682BB9104B6C2144
:103F8000104A11482FF0B4FE1049828D09889142E1
:103F900003D80F4B6D210B4AF3E713F812200D4B9A
:103FA0001B6853F8220003681B6B9847281A334696
:103FB00001B22046BDE87040184700BF8C5901206F
:103FC000988A0308DA8A0308158B030890590120A0
:103FD0005C8B03089459012000224FF0FF3182606E
:103FE000C0E900217047036870B504461B6B154695
:103FF00098472368204629465B6BBDE87040184708
:1040000070B504461D46BDF91060FFF7ECFF23684C
:10401000294620469B6B9847236831462046DB6B38
:10402000BDE87040184700004FF480710022818481
:104030000C49026301600C49028781624FF6FF71EF
:10404000C26381854FF47F0141634FF0FF31C0E9C6
:104050000122C0E90322C0E90522C0E90722C0E924
:10406000101270476CB80308788603082DE9F04FEA
:1040700004460025564EA24604F16C0904F1980846
:1040800004F5BE7B271D2DED048B89B01EF030F8A2
:10409000504BE56306A94AF8403B48464E4B25661F
:1040A000A566C4E910354FF48073A4F86430FF238B
:1040B00084F866304FF6FF73C4E91255C4E914550D
:1040C000C4E91655ADF8183018F0FEFA4046FFF76F
:1040D000ABFF04F1E403C4F898601846C4F8E0505C
:1040E00008EE103AFFF7A0FF04F59873C4F8E460F7
:1040F000C4F82C51184608EE903AFFF795FFC4F823
:10410000306104F524765846C4F8785114F05EF80E
:10411000304614F027FD04F5B863184609EE103A4E
:10412000FFF782FF4FF488732A46504629460093D2
:104130004FF4F073FFF764FF4FF07F43514638466A
:10414000A3660DF1080A14F0E0FD484606A9ADF893
:10415000185019F0C4F84FF488732A464846294687
:1041600000934FF4F073FFF74BFF4846294618F0D1
:1041700066FA4946384604F5C16914F0C6FD1722AF
:1041800010214046FFF72FFF4FF0FF3341465046C6
:10419000C4F8C830D4F89830A4F8CC50D3F88430A0
:1041A000984704F1D4039AE8070083E807000B4B13
:1041B0001B682BB90A4B60210A4A0B482FF098FD67
:1041C0000A4B1B88042B15D8094B6121054AF4E7DB
:1041D000DC8B03086C8C0308FCB803088C590120A5
:1041E000988A03089A8B0308158B030890590120BD
:1041F0005C8B03089A4B0421186800F0B1FA994AC5
:1042000003460821484620F0DFF94046C4F8E09014
:104210004FF0070918F07CFF934B404606A9069320
:10422000ADF81C9018F094FF4146384614F06DFD2F
:104230003D22102118EE100AFFF7D5FE4FF0FF3196
:10424000D4F8E4305046C4F8141118EE101AD3F81C
:10425000843004F5C368A4F81851984704F59073A6
:104260009AE8070083E8070080490B68002BA1D07B
:104270007F480388032BA7D9794A0321106800F0EF
:104280006FFA784A03460821404620F09DF918EE5F
:10429000100AC4F82C8104F5C56818F039FF724B78
:1042A0000DF1180C18EE100A069306236146ADF8BE
:1042B0001C3018F04DFF18EE101A384614F025FD8A
:1042C00061222E2118EE900AFFF78DFE4FF0FF3C81
:1042D000D4F8303118EE901A5046C4F860C1D3F8C3
:1042E0008430A4F86451984704F5B6739AE807003F
:1042F00083E807005D490B68002B3FF45BAF5C4827
:104300000388022B7FF660AF554A0221106800F047
:1043100027FA544A0346494640464FF0010920F027
:1043200053F918EE900AC4F878814FF0050818F098
:10433000EFFE4D4B06A918EE900A0693ADF81C80CF
:1043400018F006FF18EE901A384614F0DEFC5846B6
:10435000B0222121FFF747FE1E2358460A22009370
:104360000C21962313F014FF64222B46294658464D
:10437000009513F08DFF58463E4913F08CFE3A4BE2
:1043800006A958460693ADF81C9013F0A9FE06A99D
:104390005846ADF8188014F0CFF858463C2113F079
:1043A000ABFE5946384614F0B0FC30460A22F021E4
:1043B000FFF719FE7823494630461A4614F096FA5C
:1043C000304664230222042114F045F957230A22BF
:1043D0003046032114F033F92946304614F0F2F93F
:1043E000452309223046022114F01DF929463046A2
:1043F00014F0CEF90A222B463046114614F037F954
:104400003146384614F081FC19EE100A9822242116
:10441000FFF7E9FD4FF07F4219EE101A5046C4F83D
:10442000F025A4F8F45518F0F9FB04F2FC539AE8CF
:10443000070083E807000C4B06A919EE100AADF837
:104440001C50069318F084FE384619EE101A14F02A
:104450005CFC204609B0BDEC048BBDE8F08F00BFCA
:104460009859012030A50308788603088C5901204B
:104470009059012000BBFFFF7047000030B5164D7A
:104480008FB02C68BFF35B8F14F0010420D1284655
:104490002EF0E9FCE0B13F23012210490993104BB3
:1044A00010480893104B0A940594CDE90643042361
:1044B000CDE903320A23CDE90B440093CDE9014451
:1044C000FFF7CAFC09482FF031FC28462EF0D7FC34
:1044D00004480FB030BD00BFE0250020EC72099009
:1044E000ECC50308E4250020D4C90308794400087A
:1044F0007047000030B5184D8FB02C68BFF35B8F4C
:1045000014F0010425D128462EF0ADFC08B33F235A
:10451000072212490993124B12480893124B0A942E
:1045200007930C23CDE9053201230422CDE90134A0
:10453000CDE90323142340F26D3200931B23CDE910
:104540000B44FFF789FC09482FF0F0FB28462EF0BA
:1045500096FC04480FB030BD10260020FC72099074
:10456000F0C5030814260020D8C90308F144000848
:104570007047000030B5164D8FB02C68BFF35B8FCD
:1045800014F0010420D128462EF06DFCE0B13F2349
:10459000012210490993104B10480893104B0A94BC
:1045A0000594CDE906430423CDE903322823CDE960
:1045B0000B440093CDE90144FFF74EFC09482FF06E
:1045C000B5FB28462EF05BFC04480FB030BD00BFA1
:1045D00040260020F4A20990D0C9030844260020F8
:1045E000F0C903087145000800207047002070479B
:1045F0000EB403B503AB002153F8042B01931CF058
:10460000F5FD02B05DF804EB03B070470CB407B5DC
:1046100004AB53F8042B01931CF0E8FD03B05DF8E4
:1046200004EB02B07047000010B504461DF0C4FF53
:10463000E38E04EB43035884636C5BB3238F2BB985
:10464000174BC521174A18482FF052FB10B32046CC
:104650001FF0B4F8238F012B03D8144BCB21144A3D
:10466000F1E7E28E40F63F10531C9BB2092B19462E
:1046700088BFA3F10A0104EB4101498C814209D1B1
:104680000A2B04EB420228BF0023508C04EB4303A7
:10469000588451842046BDE810401EF091BF00BFF1
:1046A000988C0308A18C03084C8D0308968D030891
:1046B000A48D030810B504461EF04BFF2046BDE84C
:1046C00010401DF075BF10B586B002AC84E806003E
:1046D0001A460AAB214605930193099B0093089B58
:1046E0001BF055F906B010BD38B518BB124B134876
:1046F0001C681349B4B122682244026062682244F3
:104700000A60A26814440F4B00221A8000F038F8A7
:10471000054600F033F80C4B1C600C4B1D600C4B35
:10472000188007E00B4B03600B4B0B600B4B1C68B6
:10473000002CE8D138BD00BF702600207426002070
:10474000782600207C2600208C59012094590120D5
:104750009059012024A3099004A30990B0A30990C3
:10476000044B1B6853F82100034B1B6803EB40000C
:10477000704700BF7826002074260020082070476C
:10478000004870478026002010B5054CFFF7B2FEA8
:104790002060FFF7EFFE6060FFF770FEA06010BDC5
:1047A0008026002010B5002404600C6014601C609A
:1047B00010BD704710B504464FF4AE712EF051FB9A
:1047C000204610BD10B50446D0F8580100F0B4F8EA
:1047D0002046BDE810401BF00DBE000010B5044699
:1047E000FFF7C8FA014B2046236010BD808E0308F6
:1047F000094900224160094902608160084902625A
:10480000C160642110B50161002442613C228461D1
:10481000C16180F8242010BD000028410000D04074
:1048200000401C46F0B52DED048BDFED1B8A85B0F2
:1048300000264FF47A74B0EE689A0127174D03965C
:104840000523694628460293CDE9006700F0A6FEDD
:1048500008B1FCF75BFF2846013C00F0B3FD0A21DC
:104860002846A4B200F043FE284600F094FE08EE6D
:10487000100A284600F020FEB8EE488AF7EE007ACB
:1048800039EE089A78EEA78A002CD9D189EE280A49
:1048900005B0BDEC048BF0BD00000000DC02002080
:1048A000F0B52DED048B9FED208A85B000234FF4E9
:1048B0007A74B0EE489A082601271C4D039305230D
:1048C000694628460293CDE9006700F067FE08B10B
:1048D000FCF71CFF2846013C00F074FD0A21284625
:1048E000A4B200F004FE284600F055FE08EE900A3F
:1048F000284600F0E1FDF8EE688AF7EE007A39EE1E
:10490000289A38EE278A002CD9D118EE100AFBF726
:104910003BFE02460B46064830F012F889EE080AC4
:1049200005B0BDEC048BF0BD00000000DC020020EF
:10493000CC8E0308000000002DE9F0417E4D0446B6
:1049400000227E4829462DED068B03F0D2F9002285
:104950007B497A4803F0F0F995F8028094F8243006
:104960009FED789A434500F098804FF07E532046A3
:104970009FED75AAA361FFF755FF2046F0EE408A30
:10498000FFF78EFF10EE100AF0EE4A9AFBF7FCFDDF
:1049900006460F4602460B466C482FF0D1FF3046C4
:1049A00039465BA3D3E90023FBF746FEFCF71CF96D
:1049B00008EE100AFBF7E8FD02460B4664482FF0AC
:1049C000BFFFDFED647A9FED647A68EEA78ADFEDC2
:1049D000637AE8EEA79ADFED627A38EE678AC8EE6E
:1049E000077A9FED607A77EE897A67EE877A87EEAD
:1049F000878AD4ED067A38EE498A68EE277A17EE70
:104A0000900AFBF7C1FD44A3D3E90023FBF73EFF67
:104A1000FCF7EAF8D4ED037A07EE100A002384EDE0
:104A200006AA77EE277A6361F4EECA7AF1EE10FAFD
:104A30006AD49FED4D7AF4EE477AF1EE10FA77FEE4
:104A4000277AC4ED037A19EE900AFBF79DFDDFED9E
:104A50003E8A33A3D3E90023FCF760F8002818EE60
:104A6000100A49FEA89AC4ED019AFBF78DFD06468F
:104A70000F462DA3D3E90023FCF76EF848B130466A
:104A800039462BA3D3E90023FCF748F8002808FE99
:104A9000288A84ED028A84F8248094ED037ADFED7D
:104AA000337ADFED336A37EE677ADFED327A2068EA
:104AB00094ED010A27EE277A03689B68C7EE267AF1
:104AC00077EE897AFDEEE77AC4ED047A984720689C
:104AD00094ED020A0368DB689847206894ED030AA6
:104AE00003681B6998472068216903685B699847D8
:104AF00020686A78036829789C69AB78A446BDEC85
:104B0000068BBDE8F0416047F0EE4A7A99E700BFB6
:104B10003005533005914A3FCDCCCCCCCCCC0C40A9
:104B20009A9999999999C93F333333333333C3BF32
:104B3000333333333333C33FC0020020D00400206B
:104B4000BC0200200000C84200000000DC8E030808
:104B5000EF8E0308295C6242EFC9C33C0000803934
:104B6000A470C53F0000494300401C4600541C4649
:104B700000501CC60000C6C270470438704770471A
:104B8000C0680368DB6A1847A0F10400FFF7F8BFAC
:104B9000C06803681B6B1847A0F10400FFF7F8BF5B
:104BA000C06803685B6B1847A0F10400FFF7F8BF0B
:104BB000C06803689B6B1847A0F10400FFF7F8BFBB
:104BC00010B5044610212EF04CF9204610BDA0F17E
:104BD0000400F5E7C06800F077B8A0F10400FFF723
:104BE000F9BF00000022C1608260044A10B502F1E2
:104BF000080434320460426010BD00BF088F03080F
:104C000070470000034B10B504460360FFF797F9A7
:104C1000204610BD688F030810B50446FFF7F2FF69
:104C20004FF4C76120462EF01CF9204610BD00004D
:104C300010B50446FFF71AFA014B2046236010BD59
:104C4000688F0308FFF77CB913B5044601AB074A28
:104C5000082100F5C1608DED010A1FF0B3FE04F1DB
:104C6000980002B0BDE810401CF0C8BB588F030884
:104C700013B5044601AB074A082100F5C3608DED6A
:104C8000010A1FF09FFE04F1E40002B0BDE81040ED
:104C90001CF0B4BB588F030813B5044601AB074A98
:104CA000072100F5C5608DED010A1FF08BFE04F5AC
:104CB000987002B0BDE810401CF0A0BB588F0308EC
:104CC00000F5BE7013F018BA00F5247013F0C0BFE1
:104CD00000B54FF4807295B04FF0807103460C928E
:104CE00005220F9101210692002201910B9213924D
:104CF00000920B48CDE90312CDE90D22CDE9112236
:104D0000102206A902924FF4800205926A4601F031
:104D1000BFFF003818BF012015B05DF804FB00BFCD
:104D20008C26002000B54FF4807395B041F2883294
:104D300017480C93062306A906930023CDE90D33EB
:104D40000F930B931393CDE9113301F05EFFE0B99C
:104D5000022301224FF4800104900D48CDE9003375
:104D60001023CDE9023205236A46CDE905134FF041
:104D7000807306A90F9341F2883301F089FF003850
:104D800018BF012015B05DF804FB0120FAE700BF51
:104D90008C26002000B54FF4807391B04FF0407224
:104DA0000E480893EB2302A902934FF44063099342
:104DB0004FF4005305930023CDE90A320A220F93E2
:104DC00007926A46CDE90D33CDE9003301F0B0FF1B
:104DD000003818BF012011B05DF804FB8C260020BC
:104DE000454B012145489A6B42F00202F0B59A63A7
:104DF0008DB09A6B09240427002602F00202404D70
:104E00000092009A9A6942F002029A619A6922F02D
:104E100002029A611A6B42F002021A631A6B02F0E4
:104E200002020192019A1A6B42F002021A631A6B93
:104E300002F002020292029A1A6B42F008021A630E
:104E40001A6B02F008020392039A1A6B42F00802EE
:104E50001A631A6B02F008020492049A1A6B42F069
:104E600010021A631A6B02F010020592059A1A6B6F
:104E700042F008021A6340221B6B03F008030693FA
:104E8000069B0223CDE907230323CDE909130A2357
:104E900007A90B9300F07AFE07A91848079709960F
:104EA0000B9400F073FE4FF4006307A928460B949F
:104EB000079300F06BFE4FF4805307A928460B942C
:104EC000079300F063FE07A90E4807970B9400F0C4
:104ED0005DFE4FF4005307A928460B94079300F09A
:104EE00055FE32460F215C2000F016FC5C2000F0DD
:104EF00045FC0DB0F0BD00BF003802400004024088
:104F0000000C024000100240F0B5494C91B0494BF2
:104F10002046236001F066FE054610B1012011B065
:104F2000F0BD01462046FFF75BFF012604234FF04A
:104F30008077C4E901631023E36097FAA7F3B3FA1B
:104F400083F32046013B23614FF4A063C4E9075576
:104F5000C4E9053501F0F2FD0028DFD14FF480757A
:104F600066230B9041F28832079002A90F900895B2
:104F70000293CDE90900CDE90D00204601F045FE80
:104F800008B10420CBE7992341F2883202A92046D8
:104F9000029301F03AFE0028F3D141F28830FFF786
:104FA00097FE0028EDD18523079041F2883202A9AF
:104FB000089502930B97CDE90900CDE90C60CDE986
:104FC0000E00204601F021FE0028DAD141F288329D
:104FD0000DF10701204601F091FF0028D1D1FFF724
:104FE000A1FE0028CDD18123F022029392FAA2F2F1
:104FF0000A219DF80730B2FA82F2204603F00F032F
:1050000001FA02F202A9134341F288328DF8073007
:1050100001F0FBFD0028B4D141F288320DF1070107
:10502000204601F00FFF00283FF479AFA9E700BF49
:105030008C260020001000A00F490020D1F88830F5
:1050400043F47003C1F888300C4B1A6842F0010237
:105050001A6098601A6822F0847222F480321A6012
:10506000074A5A601A6822F480221A60D8604FF00A
:1050700000638B60704700BF00ED00E00038024025
:10508000103000247047002070470000002337B51F
:105090008DF807300D4B1A780AB901221A700324D3
:1050A000C5B2013CA8212846FCF7CCFF14F0FF0450
:1050B0008DF807009DF80730DBB203D19DF807009B
:1050C00003B030BD512BECD1F8E700BFDA26002049
:1050D00013B500240221C0B28DF80740FCF7B2FFDF
:1050E0008DF807009DF8073003F00F038DF80730A7
:1050F0009DF80730052B01D98DF807409DF8072052
:10510000034B9DF807005A7000229A7002B010BD40
:10511000DA2600202DE9F74F2F4C15464FF00008F6
:105120000F46A37862788DF807809A424DD9092BF3
:105130004ED803EB43035B00DBB2191D03F1030BF5
:1051400003F1060A0533C9B25FFA8BFB5FFA8AFAEC
:105150005FFA83F8C6B2DFF884903046FCF772FF3E
:105160008DF807009DF8073059463046A9F8003001
:10517000FCF768FF8DF8070051469DF80730304670
:10518000B9F800201B0203F4706313433B80A9F8B5
:105190000030FCF757FF8DF8070041469DF80730B7
:1051A0003046A9F80030FCF74DFF8DF807009DF858
:1051B0000730B9F800201B0203F470631343A9F809
:1051C00000302B80A3780133A37003B0BDE8F08FCB
:1051D000C246C3464146BDE7DA260020D826002055
:1051E0000122A421C0B2FCF713BF0022A421C0B247
:1051F000FCF70EBFFFF7F9BF70470000024B1A78AB
:105200000AB901221A707047DA260020074A0320E3
:1052100008B5136843F48073136000F06BFA002044
:10522000FCF790FDFCF774FA002008BD003C02403A
:10523000034A044B11681B780B441360704700BF8E
:10524000E026002038000020014B1868704700BF9E
:10525000E026002038B50446FFF7F6FF0546631C3C
:105260001EBF044B1B78E418FFF7EEFF431BA3425D
:10527000FAD338BD3800002038B50446002800F0C5
:105280009B80056C25B9FCF761FA656484F83C5095
:10529000236CDB0600F18E80236C23F4885323F00B
:1052A000020343F002032364444B5A6822F4403261
:1052B0005A605A6861680A435A60236821695A68CB
:1052C00022F480725A605A6842EA0122A1685A6048
:1052D0005A6822F040725A605A680A43E1685A607C
:1052E0009A6822F400629A609A680A4334499A6084
:1052F000A26A8A4252D0996821F0706199609968D7
:105300000A43E16A9A609A6822F040529A609A6869
:105310000A439A609A68A16922F002029A609A6828
:1053200042EA41029A6094F82020002A3ED05A684E
:10533000616A42F4006201395A605A6822F460429C
:105340005A605A6842EA41325A600020DA6AE169DA
:1053500022F470020139DA62DA6A42EA0152DA6250
:105360009A6822F400729A609A6894F8301042EABF
:10537000412261699A609A6822F480629A609A6810
:1053800042EA81229A606064236C23F0030343F0B5
:1053900001032364002384F83C3038BD9A6822F06E
:1053A00070629A609A6822F04052B2E75A6822F41A
:1053B0000062C9E70120EDE70120EEE7002301408C
:1053C0000100000F002382B0019390F83C30012BC4
:1053D00066D00123026880F83C309368D9070CD569
:1053E000936813F001031AD1026C42F010020264B8
:1053F000426C42F00102426438E09368294943F06C
:1054000001039360284B1B68B3FBF1F303EB4303E9
:105410000193019B002BE3D0019B013BF8E7036C58
:1054200023F4E06323F0010343F4807303645368BF
:105430005B0505D5036C23F4405343F480530364A8
:10544000036C13F4805302D0436C23F006034364CF
:105450000023164980F83C306FF0220313604B683C
:10546000D80606D1906810F0405014D0002002B049
:1054700070470F4B9A4207D1936813F0405F03D1F6
:10548000936843F0804393604B68DB06EED4094B8E
:105490009A42EBD1E6E7936843F080439360E6E7F6
:1054A0000220E4E740420F000C00002000230140EE
:1054B000002001400022014090F83C30012B14D024
:1054C00003689A6822F001029A609B68DB0707D4A0
:1054D000036C23F4885323F0010343F001030364B6
:1054E000002380F83C30184670470220704703685C
:1054F0009A6870B5560504460D460BD59B68D805CD
:1055000008D5236C012043F020032364002384F892
:105510003C3070BDFFF798FE064623681A68920774
:105520000CD56FF012021A60226C42F400722264F1
:105530009A6812F0405F17D00020EAE7691CEDD0AE
:1055400065B923681B6813F00203E6D1226C0320BF
:1055500084F83C3042F004022264DAE7FFF774FE7C
:10556000801BA842EDD8D8E7A269002AE4D1DA6A04
:1055700012F4700F02D09B685B05DDD4236C23F41A
:1055800080732364206C10F48050D5D1236C43F0D9
:1055900001032364BDE70368D86C70470023F7B5A7
:1055A000019390F83C30012B77D0012380F83C30F8
:1055B0000C680368A5B2092C8E6805EB45023AD940
:1055C000B4F1004F37D01E3A4FF0070CDF680CFAE9
:1055D00002FC27EA0C07DF60414FBC4226D1DA68A3
:1055E00042EA0662DA604968062901EB81022FD897
:1055F000053A1F26596B964005FA02F221EA060188
:105600005963596B0A435A63364A934208D1B4F13D
:10561000004F44D1D2F8043323F44003C2F80433DA
:10562000002380F83C30184603B0F0BDDF6806FA6E
:1056300002F23A43D6E74FF0070C1F6996400CFA86
:1056400002FC27EA0C071F611F693E431E61CAE77F
:105650000C294FF01F010BD8233A1E6B914005FA1D
:1056600002F226EA01011963196B0A431A63CBE7B8
:10567000413ADE6A9140954026EA0101D962D96A31
:105680000D43DD62C0E7184B5A6822F400025A60ED
:105690005A6842F480025A60C2E70220C4E7122C22
:1056A000F1D00F4B9C4201D0112CB9D10E4B5A684E
:1056B00022F480025A605A6842F400025A60084B91
:1056C0009C42ADD1094B0A4A1B68B3FBF2F30A2294
:1056D00053430193019B002BA2D0019B013BF8E7B0
:1056E0001200001000200140002301400C000020A7
:1056F00040420F0007490302CA6803F4E06322F442
:10570000E0621204120C134343F0BF6343F400330E
:10571000CB60704700ED00E0164B30B5DC68C4F399
:105720000224C4F10703251D042B28BF0423062DE2
:105730004FF0FF358CBF033C002405FA03F300282B
:1057400005FA04F521EA030322EA050203FA04F349
:1057500043EA02034FEA0313DBB206DB00F16040C9
:1057600000F5614080F8003330BD00F00F00024AC0
:105770001354F9E700ED00E014ED00E0002807DB2A
:105780004109012300F01F00024A834042F8213002
:10579000704700BF00E100E000280CDB4309012254
:1057A00000F01F0004492033824041F82320BFF35A
:1057B0004F8FBFF36F8F704700E100E0BFF35F8F43
:1057C000044B5A6A22F480325A620022C3F89420B1
:1057D000704700BF00ED00E0064B40F00100C3F849
:1057E00094005A6A42F480325A62BFF34F8FBFF37B
:1057F0006F8F704700ED00E04378144A10B5C2F88F
:1058000098300178E9B14368C2F89C30C37A047BD0
:105810001B0643EA04730B43817A43EAC143417B8D
:1058200043EA8143817B43EA4143C17B43EA01432D
:10583000417A43EA0123017A43EA4103C2F8A030E6
:1058400010BDC2F89C10C2F8A010F9E700ED00E00E
:1058500010B5044608B9012010BD437F03F0FF02D4
:1058600013B90277FBF7B6FF022363772379E3B915
:105870002368134A5A619A6822F018029A60627982
:105880002368D2B94FF0FF321A6100209A6861692B
:1058900022F060020A43A1699A609A6822F08002AD
:1058A0000A439A6001236377D6E7D4E902122046BF
:1058B00000F008F80028E2D0CDE72269E4E700BF55
:1058C000B71DC1041F2310B5013B1CD321FA03F4FB
:1058D000E407F9D5102A12D004D83AB1082A10D01A
:1058E00001200BE0182AFBD1062BF9D80068416192
:1058F000836823F0180313438360002010BD072B37
:10590000F3E70F2BF1E7002AEAD1EFE770B5044681
:10591000866DFFF799FC054694F83530022B06D0CA
:10592000802301206365002384F8343070BD236830
:105930001A6822F016021A605A6922F080025A612F
:10594000226C0AB9A26C1AB11A6822F008021A6015
:105950001A6822F001021A6023681B6813F0010321
:1059600008D1E16D3F2218468A40B260012284F8D6
:105970003520D8E7FFF768FC401B0528ECD9202329
:105980000320636584F83500CDE710B5044630B3D5
:1059900090F8393003F0FF021BB980F83820FBF78C
:1059A0002FFF226802236168002084F839301368D1
:1059B00023F440330B43A1681360536B23F00703B8
:1059C0000B43E1685363136C23F47F5323F03F03CD
:1059D0000B4313640123E06384F8393010BD0120C8
:1059E000FCE770477047036870B55E6804461D6841
:1059F000F20714D5E90512D51A6822F480721A60EC
:105A0000C26B42F00102C26301229A60042380F853
:105A10003930002380F83830436903B19847B20623
:105A200016D5AB0414D523681A6822F400521A6004
:105A300020229A60E36B43F00203E363042384F8BB
:105A40003930002384F8383063690BB12046984719
:105A5000300716D5290514D523681A6822F4006288
:105A60001A6008229A60E36B43F00403E3630423A3
:105A700084F83930002384F8383063690BB120464C
:105A8000984772070BD56B0509D5236820461A681D
:105A900022F480621A6004229A60FFF7A2FFB00726
:105AA00014D5A90512D523681A6822F400721A6069
:105AB00002229A60E36BE363012384F83930002308
:105AC00084F8383023690BB120469847F20613D585
:105AD000EB0411D5236820461A6822F480521A601C
