:020000040800F2
:1000000000000520752400089120000893200008B6
:1000100095200008972000089920000800000000A3
:1000200000000000000000000000000041C60008C1
:100030009B20000800000000E1C6000845C700083A
:10004000C5240008C5240008C5240008C5240008EC
:10005000C5240008C5240008C5240008C5240008DC
:10006000C5240008C5240008C5240008C5240008CC
:10007000C5240008C5240008C5240008C5240008BC
:10008000C5240008C5240008C5240008C5240008AC
:10009000C5240008C5240008C5240008C52400089C
:1000A000C5240008C5240008C5240008C52400088C
:1000B000C5240008C5240008C5240008C52400087C
:1000C000C5240008C5240008C5240008C52400086C
:1000D000C5240008C5240008C5240008C52400085C
:1000E000C5240008C5240008C5240008C52400084C
:1000F000C5240008C5240008C5240008C52400083C
:10010000C52400089D200008C5240008C524000857
:10011000C5240008C5240008A9200008C52400083B
:10012000C5240008C5240008C5240008B52000081F
:10013000C5240008C5240008C5240008C5240008FB
:10014000C5240008C5240008C5240008C5240008EB
:10015000C5240008C1200008C5240008C5240008E3
:10016000C5240008C5240008C5240008C5240008CB
:10017000C5240008C5240008C524000800000000AC
:10018000C5240008C5240008C5240008C5240008AB
:10019000C5240008C5240008C5240008C52400089B
:1001A000CD200008C5240008D9200008C524000877
:1001B000C5240008C5240008C5240008C52400087B
:0801C000C5240008C524000855
:1001D00010B5054C237833B9044B13B10448AFF381
:1001E00000800123237010BDB80200200000000031
:1001F0007CA3030808B5034B1BB103490348AFF3C5
:10020000008008BD00000000BC0200207CA30308A1
:1002100001F0FF01102A2BDB10F0070F08D010F8B7
:10022000013B013A8B422DD010F0070F42B3F6D1BB
:10023000F0B441EA012141EA014122F007047FF0D4
:1002400000070023F0E80256083C85EA010586EA2B
:10025000010685FA47F5A3FA87F586FA47F6A5FA67
:1002600087F68EB9EED1F0BC01F0FF0102F0070273
:1002700032B110F8013B013A83EA010313B1F8D11E
:100280000020704701387047002D06BF35460338FF
:10029000073815F0010F07D1013015F4807F02BF38
:1002A000013015F4C03F0130F0BC0138704700BF89
:1002B000034613F8012B002AFBD1181A01387047A6
:1002C00081F0004102E000BF83F0004330B54FEA07
:1002D00041044FEA430594EA050F08BF90EA020F74
:1002E0001FBF54EA000C55EA020C7FEA645C7FEA07
:1002F000655C00F0E2804FEA5454D4EB5555B8BF2A
:100300006D420CDD2C4480EA020281EA030382EA9A
:10031000000083EA010180EA020281EA0303362D2C
:1003200088BF30BD11F0004F4FEA01314FF4801CFF
:100330004CEA113102D0404261EB410113F0004F11
:100340004FEA03334CEA133302D0524263EB4303C8
:1003500094EA050F00F0A780A4F10104D5F1200E66
:100360000DDB02FA0EFC22FA05F2801841F10001C1
:1003700003FA0EF2801843FA05F359410EE0A5F195
:1003800020050EF1200E012A03FA0EFC28BF4CF0C6
:10039000020C43FA05F3C01851EBE37101F000457C
:1003A00007D54FF0000EDCF1000C7EEB00006EEB89
:1003B0000101B1F5801F1BD3B1F5001F0CD3490813
:1003C0005FEA30004FEA3C0C04F101044FEA44526A
:1003D00012F5800F80F09A80BCF1004F08BF5FEAF1
:1003E000500C50F1000041EB045141EA050130BDD1
:1003F0005FEA4C0C404141EB0101013C28BFB1F5E3
:10040000801FE9D291F0000F04BF01460020B1FA2D
:1004100081F308BF2033A3F10B03B3F120020CDA00
:100420000C3208DD02F1140CC2F10C0201FA0CF0DE
:1004300021FA02F10CE002F11402D8BFC2F1200C43
:1004400001FA02F120FA0CFCDCBF41EA0C019040F9
:10045000E41AA2BF01EB0451294330BD6FEA040442
:100460001F3C1CDA0C340EDC04F11404C4F120022D
:1004700020FA04F001FA02F340EA030021FA04F33F
:1004800045EA030130BDC4F10C04C4F1200220FA96
:1004900002F001FA04F340EA0300294630BD21FAD4
:1004A00004F0294630BD94F0000F83F4801306BF9A
:1004B00081F480110134013D4EE77FEA645C18BF8E
:1004C0007FEA655C29D094EA050F08BF90EA020F25
:1004D00005D054EA000C04BF1946104630BD91EA1D
:1004E000030F1EBF0021002030BD5FEA545C05D120
:1004F0004000494128BF41F0004130BD14F580045F
:100500003CBF01F5801130BD01F0004545F0FE41D2
:1005100041F470014FF0000030BD7FEA645C1ABF07
:10052000194610467FEA655C1CBF0B46024650EA3E
:10053000013406BF52EA033591EA030F41F400216A
:1005400030BD00BF90F0000F04BF0021704730B5F0
:100550004FF4806404F132044FF000054FF00001C5
:1005600050E700BF90F0000F04BF0021704730B586
:100570004FF4806404F1320410F0004548BF40425B
:100580004FF000013EE700BF42004FEAE2014FEAB0
:1005900031014FEA02701FBF12F07F4393F07F4F8B
:1005A00081F06051704732F07F4208BF704793F08E
:1005B0007F4F04BF41F40021704730B54FF46074A1
:1005C00001F0004521F000411CE700BF50EA0102A4
:1005D00008BF704730B54FF000050AE050EA01024D
:1005E00008BF704730B511F0004502D5404261EBBD
:1005F00041014FF4806404F132045FEA915C3FF4FE
:10060000D8AE4FF003025FEADC0C18BF03325FEA9A
:10061000DC0C18BF033202EBDC02C2F1200300FA4B
:1006200003FC20FA02F001FA03FE40EA0E0021FA70
:1006300002F11444BDE600BF70B54FF0FF0C4CF45E
:10064000E06C1CEA11541DBF1CEA135594EA0C0F10
:1006500095EA0C0F00F0DEF82C4481EA030621EA4B
:100660004C5123EA4C5350EA013518BF52EA033586
:1006700041F4801143F4801338D0A0FB02CE4FF038
:100680000005E1FB02E506F00042E0FB03E54FF068
:100690000006E1FB03569CF0000F18BF4EF0010E60
:1006A000A4F1FF04B6F5007F64F5407404D25FEA5C
:1006B0004E0E6D4146EB060642EAC62141EA55510F
:1006C0004FEAC52040EA5E504FEACE2EB4F1FD0C51
:1006D00088BFBCF5E06F1ED8BEF1004F08BF5FEACF
:1006E000500E50F1000041EB045170BD06F0004681
:1006F00046EA010140EA020081EA0301B4EB5C042E
:10070000C2BFD4EB0C0541EA045170BD41F4801125
:100710004FF0000E013C00F3AB8014F1360FDEBF4A
:10072000002001F0004170BDC4F10004203C35DA26
:100730000C341BDC04F11404C4F1200500FA05F3A9
:1007400020FA04F001FA05F240EA020001F000424A
:1007500021F0004110EBD37021FA04F642EB0601C0
:100760005EEA430E08BF20EAD37070BDC4F10C04EA
:10077000C4F1200500FA04F320FA05F001FA04F2AE
:1007800040EA020001F0004110EBD37041F100019A
:100790005EEA430E08BF20EAD37070BDC4F12005A5
:1007A00000FA05F24EEA020E20FA04F301FA05F20D
:1007B00043EA020321FA04F001F0004121FA04F2B5
:1007C00020EA020000EBD3705EEA430E08BF20EA85
:1007D000D37070BD94F0000F0FD101F000464000BF
:1007E00041EB010111F4801F08BF013CF7D041EA41
:1007F000060195F0000F18BF704703F00046520045
:1008000043EB030313F4801F08BF013DF7D043EA15
:100810000603704794EA0C0F0CEA135518BF95EACB
:100820000C0F0CD050EA410618BF52EA4306D1D152
:1008300081EA030101F000414FF0000070BD50EA71
:10084000410606BF1046194652EA430619D094EAFB
:100850000C0F02D150EA013613D195EA0C0F05D1E5
:1008600052EA03361CBF104619460AD181EA030139
:1008700001F0004141F0FE4141F470014FF00000F1
:1008800070BD41F0FE4141F4780170BD70B54FF08C
:10089000FF0C4CF4E06C1CEA11541DBF1CEA13550C
:1008A00094EA0C0F95EA0C0F00F0A7F8A4EB0504EE
:1008B00081EA030E52EA03354FEA013100F08880E5
:1008C0004FEA03334FF0805545EA131343EA1263AE
:1008D0004FEA022245EA111545EA10654FEA002663
:1008E0000EF000419D4208BF964244F1FD0404F51C
:1008F000407402D25B084FEA3202B61A65EB030578
:100900005B084FEA32024FF480104FF4002CB6EB34
:10091000020E75EB030E22BFB61A754640EA0C00B4
:100920005B084FEA3202B6EB020E75EB030E22BFF4
:10093000B61A754640EA5C005B084FEA3202B6EB35
:10094000020E75EB030E22BFB61A754640EA9C00F4
:100950005B084FEA3202B6EB020E75EB030E22BFC4
:10096000B61A754640EADC0055EA060E18D04FEA82
:10097000051545EA16754FEA06164FEAC30343EA22
:1009800052734FEAC2025FEA1C1CC0D111F4801FEF
:100990000BD141EA00014FF000004FF0004CB6E7E8
:1009A00011F4801F04BF01430020B4F1FD0C88BF87
:1009B000BCF5E06F3FF6AFAEB5EB030C04BFB6EB92
:1009C000020C5FEA500C50F1000041EB045170BD85
:1009D0000EF0004E4EEA113114EB5C04C2BFD4EBB2
:1009E0000C0541EA045170BD41F480114FF0000E36
:1009F000013C90E645EA060E8DE60CEA135594EAB2
:100A00000C0F08BF95EA0C0F3FF43BAF94EA0C0FB4
:100A10000AD150EA01347FF434AF95EA0C0F7FF429
:100A200025AF104619462CE795EA0C0F06D152EA7D
:100A300003353FF4FDAE1046194622E750EA410661
:100A400018BF52EA43067FF4C5AE50EA41047FF472
:100A50000DAF52EA43057FF4EBAE12E74FF0FF3CD7
:100A600006E000BF4FF0010C02E000BF4FF0010CA8
:100A70004DF804CD4FEA410C7FEA6C5C4FEA430C21
:100A800018BF7FEA6C5C1BD001B050EA410C0CBF70
:100A900052EA430C91EA030F02BF90EA020F0020D2
:100AA000704710F1000F91EA030F58BF994208BF39
:100AB00090422CBFD8176FEAE37040F001007047F6
:100AC0004FEA410C7FEA6C5C02D150EA013C07D14D
:100AD0004FEA430C7FEA6C5CD6D152EA033CD3D098
:100AE0005DF8040B704700BF8446104662468C4692
:100AF0001946634600E000BF01B5FFF7B7FF0028C5
:100B000048BF10F1000F01BD4DF808EDFFF7F4FFED
:100B10000CBF012000205DF808FB00BF4DF808ED78
:100B2000FFF7EAFF34BF012000205DF808FB00BF9B
:100B30004DF808EDFFF7E0FF94BF012000205DF8BD
:100B400008FB00BF4DF808EDFFF7CEFF94BF012072
:100B500000205DF808FB00BF4DF808EDFFF7C4FF6B
:100B600034BF012000205DF808FB00BF4FEA410CB4
:100B70007FEA6C5C02D150EA013C0AD14FEA430C97
:100B80007FEA6C5C02D152EA033C02D14FF00000D4
:100B900070474FF0010070474FEA410212F5001212
:100BA00015D211D56FF47873B3EB625212D94FEAB4
:100BB000C12343F0004343EA505311F0004F23FA9E
:100BC00002F018BF404270474FF00000704750EAF3
:100BD000013005D111F0004008BF6FF000407047B0
:100BE0004FF00000704700BF4FEA4102B2F1E0430E
:100BF00024BFB3F5001CDCF1FE5C0DD901F0004C04
:100C00004FEAC0024CEA5070B2F1004F40EB830053
:100C100008BF20F00100704711F0804F21D113F17F
:100C20003872BCBF01F00040704741F480114FEAB8
:100C30005252C2F11802C2F1200C10FA0CF320FA41
:100C400002F018BF40F001004FEAC1234FEAD3235E
:100C500003FA0CFC40EA0C0023FA02F34FEA4303C8
:100C6000CCE77FEA625307D150EA01331EBF4FF051
:100C7000FE4040F44000704701F0004040F0FE406C
:100C800040F40000704700BF7BB972B90029BEBFB5
:100C900000204FF0004106E008BF00281CBF6FF0A5
:100CA00000414FF0FF3000F0BBB9ADF1080C6DE929
:100CB00004CE002909DB002B1ADB00F04DF8DDF82B
:100CC00004E0DDE9022304B07047404261EB4101DA
:100CD000002B1BDB00F040F8DDF804E0DDE9022327
:100CE00004B0404261EB4101524263EB4303704761
:100CF000524263EB430300F02FF8DDF804E0DDE936
:100D0000022304B0404261EB41017047524263EB61
:100D1000430300F021F8DDF804E0DDE9022304B02C
:100D2000524263EB4303704753B94AB9002908BFE5
:100D300000281CBF4FF0FF314FF0FF3000F070B9BA
:100D4000ADF1080C6DE904CE00F006F8DDF804E022
:100D5000DDE9022304B070472DE9F047089E0D46F7
:100D600004460F46002B4AD18A42944665D9B2FA0E
:100D700082F343B102FA03FCC3F120029F4020FA40
:100D800002F217439C404FEA1C4E1FFA8CF5B7FB4A
:100D9000FEF1220C0EFB117742EA074201FB05F03F
:100DA00090420AD91CEB020201F1FF3780F01C814E
:100DB000904240F2198102396244121AA4B2B2FB85
:100DC000FEF00EFB102244EA024400FB05F5A542AA
:100DD0000AD91CEB040400F1FF3280F00781A54220
:100DE00040F204816444023840EA0140641B00215F
:100DF0001EB1DC400023C6E90043BDE8F0878B420A
:100E000008D9002E00F0ED800021C6E90005084653
:100E1000BDE8F087B3FA83F1002949D1AB4202D390
:100E2000824200F2F880841A65EB03020120174623
:100E3000002EE2D0C6E90047DFE702B9FFDEB2FAD2
:100E400082F3002B40F090808A1A4FEA1C471FFA69
:100E50008CFE0121B2FBF7F507FB1520220C42EABC
:100E600000420EFB05F0904208D91CEB020205F18E
:100E7000FF3802D2904200F2CB804546121AA4B24B
:100E8000B2FBF7F007FB102244EA02440EFB00FE1F
:100E9000A64508D91CEB040400F1FF3202D2A64596
:100EA00000F2BB801046A4EB0E0440EA05409FE729
:100EB000C1F120078B4022FA07FC4CEA030C05FA2B
:100EC00001F420FA07F3FD404FEA1C492343B5FB28
:100ED000F9F81FFA8CFE09FB18551C0C44EA05446E
:100EE00008FB0EF5A54202FA01F200FA01F00BD957
:100EF0001CEB040408F1FF3A80F08880A54240F220
:100F00008580A8F102086444641B9DB2B4FBF9F328
:100F100009FB134445EA044403FB0EFEA64508D929
:100F20001CEB040403F1FF356CD2A6456AD9023BE1
:100F3000644443EA0843A3FB0295A4EB0E04AC42CD
:100F4000C846AE4656D353D056B1B0EB080264EB58
:100F50000E0404FA07F7CA40CC401743C6E90074F0
:100F600018460021BDE8F087C3F1200102FA03FC16
:100F700020FA01F225FA01F19D402A434FEA1C476D
:100F80001FFA8CFEB1FBF7F007FB1015110C41EABC
:100F9000054100FB0EF58D4204FA03F408D91CEB61
:100FA000010100F1FF382FD28D422DD90238614462
:100FB000491B92B2B1FBF7F507FB151142EA01425A
:100FC00005FB0EF1914208D91CEB020205F1FF3836
:100FD00016D2914214D9023D6244521A45EA0041A8
:100FE00038E73146304608E73946E6E61046FBE684
:100FF0004845A9D2B9EB020865EB0C0E013BA3E70B
:101000004546EAE72B4694E74046D1E7D0467BE7E2
:10101000023D624432E708460AE76444023842E788
:10102000704700BF014900200CF026BD312900089F
:1010300008B501F0AFF800222A492B480AF0A4FABB
:101040000A222A492A482B4D0AF0DEFA08B32A4818
:1010500037F0ACF801222549284C25480AF0D4FA8B
:1010600064220021264837F0A1F92346642224494E
:101070001F480AF0CDFB2368287003B148B321480C
:1010800037F094F81A480AF0BFFD01200AF0C8FEB4
:10109000FBE71D4C1D4837F089F81D48FFF708F99C
:1010A000234602461A4912480AF07EFC236828703B
:1010B00003B130B1174837F079F80D480AF0A4FDB4
:1010C000C8E7154837F072F81149144837F008F8A6
:1010D000F3E7134837F06AF80949124837F000F887
:1010E000D0E700BF48280020E0070020E4A3030861
:1010F0001818002020070020F0A303080003002098
:101100002107002071A40308040300200BA4030896
:10111000040000202BA4030842A403085DA40308D4
:1011200087A403089FA4030807B54FF6FF73019037
:10113000012201A9034808F0DAFE019803B05DF826
:1011400004FB00BF9806002010B594B030220021A7
:10115000022408A837F02AF91422002103A837F046
:1011600025F906F0CBFA204B192108A81A6F22F0B6
:1011700018021A671A6C42F080521A641B6C03F052
:1011800080530193019B194B1A6842F440421A6044
:1011900005221B68129403F440430293029B4FF410
:1011A0008033CDE9082301230A934FF48003CDE96E
:1011B0000E434FF4D873CDE910130923139306F0AF
:1011C00001FE06F0A3FA0F2300200721CDE9033426
:1011D0004FF4A053CDE905034FF4805303A80793C0
:1011E00006F0D8FF14B010BD003802400070004077
:1011F0002DE980489DB01022002101250FA84FF055
:10120000104737F0D3F8002405F038F8C94B0FA881
:10121000ADF83C501294CDE9107305F04DF817234A
:101220000FA88DF83D508DF844308DF84A5005F0E8
:1012300043F8042005F030F8BFF34F8FBFF36F8FF2
:10124000BD4AC2F85042BFF34F8FBFF36F8F53694F
:1012500043F400335361BFF34F8FBFF36F8FC2F876
:101260008440BFF34F8FD2F8803043F6E074C3F36D
:10127000C900C3F34E335B0103EA0406014646EAA4
:1012800081750139C2F86052F9D2203B13F1200F69
:10129000F2D1BFF34F8F536943F480335361BFF3EF
:1012A0004F8FBFF36F8FA54E04F010FDFFF74CFF7B
:1012B000142200210FA837F079F8336B0022102197
:1012C00043F010039E480024012533634FF01008BB
:1012D000336B4FF0030A02274FF0400B03F010036B
:1012E0004FF004090493049B336B43F00203336310
:1012F000336B03F002030593059B336B43F0040348
:101300003363336B03F004030693069B336B43F0A4
:1013100001033363336B03F001030793079B336BC4
:1013200043F040033363336B03F040030893089B9F
:10133000336B43F400733363336B03F4007309932B
:10134000099B336B43F008033363336B03F00803EB
:101350000A930A9B336B43F480633363336B03F468
:1013600080630B930B9B336B43F020033363336B2E
:1013700003F020030C930C9B336B43F480733363B3
:10138000336B03F480730D930D9B336B43F0800339
:101390003363336B03F080030E930E9B05F080FCE8
:1013A00001220821674805F07BFC01224FF480519F
:1013B000654805F075FC0022C021644805F070FC0A
:1013C00001224021624805F06BFC01224021614866
:1013D00005F066FC0FA95A48CDE9114ACDE90F8501
:1013E00005F0D6FA08230FA95648CDE90F35CDE907
:1013F000114405F0CDFA4FF480530FA95248CDE9BE
:101400000F35CDE9114405F0C3FAC0230FA94F48A9
:10141000CDE90F35CDE9114A05F0BAFA0FA94C48CC
:10142000CDE90FB5CDE9117405F0B2FA0FA949481D
:10143000CDE90FB5CDE9117405F0AAFA326B05219B
:101440003B2042F480023263326B434E02F480024E
:101450000392039A224604F0BFFE3B2004F0EEFE06
:1014600022460521452004F0B7FE452004F0E6FEA3
:101470003A4A3046C6E90A44C6E90C44C6E90024A3
:10148000C6E9024405F084F929463046344E05F099
:1014900037FA344A4FF4C073C6F814B0DFF8C8B056
:1014A0000FA93046B460B4620F97C6E90024C6E9BC
:1014B00006344FF400624FF48053C6E90823072333
:1014C000C6E90398CDE9123ACDE91039CDE9147790
:1014D00008F032F959464FF6FF7230460294CBE9D4
:1014E0000254CBE9005808F047F9284604F012FCF2
:1014F00059464FF6FF723046CBE90254CBE90078EB
:1015000008F03AF9082359464FF6FF723046CBE906
:101510000234CBE900A808F02FF94FF40C734FF612
:10152000FF72594602933046029B40F2352ACBF8AF
:1015300008501BE01B00000300ED00E000380240F3
:10154000000402400028024000200240000802403F
:1015500000180240001C02407803002000B0024046
:1015600064060020400100A0D4020020CBF80C301B
:10157000CBE9009808F000F940F22B713046904E0C
:1015800008F019F943F2D2024FF0204364204FF4DF
:10159000806B1A6004F0BEFB8A4B8B493046346284
:1015A000C6E90013C6E90245C6E90444C6E9064493
:1015B00005F09EFC2146304605F0BCFE2146304633
:1015C000824E05F0DDFE214634220FA836F0EEFEF5
:1015D0007F4B28204FF0350C40F2152EB486346135
:1015E00086F83640C6E900340923C6E905030B2313
:1015F0003046C6E907C340F21B13C6E909E340F2CF
:101600001D13C6E90244C6E90BA305F061FF0521DD
:101610004FF4F0724FF488734FF0FF0A30460F9486
:101620001A93ADF86C408DF86E406A4ECDE916B154
:101630004FF04041CDE91024CDE918120FA9224600
:10164000CDE91237CDE914A406F00DF86248634BDA
:1016500018220462C0E900354FF4A063C0E90644D3
:10166000C0E90423C0E9029806F06AF904F0ACF975
:1016700004F0F0F85C2004F0EFFD00F0F9FE4246C3
:1016800021460FA836F092FE55494FF4803330467C
:10169000B460B46186F82040F462F46086F83040AB
:1016A0003561F7617561C6E900134E4BB36204F012
:1016B00043FB0FA930461194CDE90F4504F0CEFC51
:1016C00008230FA93046484ECDE90F3704F0C6FC79
:1016D00046484FF4E13304614462C0E900630C23DF
:1016E000434EC0E90534C0E90244C0E9074408F0AC
:1016F00072FC214614220FA836F058FE3D4B3046AE
:101700000194B461C6E900347F23C6E90444C6E904
:10171000023A07F0F2F843F6173322460FA9ADF864
:101720003C302D2330468DF83E30CDE9124407F091
:1017300037F9314B22460DEB09013046019307F092
:1017400088F949464A46304607F015FA2B4A2C4B91
:101750002C489C6184800562C3E90024C3E90244EB
:10176000C3E90444284BC0E90544036004F0D0FDFC
:1017700000F010FD00F0A8FE00F0A5FE0AF09EFAB1
:101780002146224A22480AF0F7FA224B2146224AF1
:10179000186022480AF0F0FA214B2146214A1860CD
:1017A00021480AF0E9FA214B214C18600AF0B0FAFE
:1017B000204836F095FC204636F092FCFBE700BF4F
:1017C0007804002068474020005C0040CC040020E2
:1017D000006801400C03002074050020001000A0E8
:1017E000002201400100000F001001409806002077
:1017F000C00500200028004006031718002C0140F7
:10180000E0050020540300200030024030A503080A
:1018100031100008080300200CA50308D724000895
:10182000FC02002054A50308493F00088807002057
:10183000D1A40308B2A403080268034B9A4201D161
:1018400004F056BA704700BF001000407047000017
:101850000D4B82B00F216FF001001A6C42F08052E4
:101860001A641A6C02F080520092009A5A6C42F488
:1018700080425A6400225B6C03F480430193019B15
:1018800002B004F0A9BC00BF0038024010B588B017
:1018900004461422002103A836F088FD22681A4B62
:1018A0009A422ED103F58B33032403A917485A6CAF
:1018B00042F480625A645A6C02F480620092009A88
:1018C0001A6B42F020021A631A6B02F02002019296
:1018D000019A1A6B42F001021A631B6B03F00103B9
:1018E0000293029B4FF48063CDE9033405F050F876
:1018F000012303A90648CDE903340023059305F02D
:1019000047F808B010BD00BF00220140001402409B
:1019100000000240026882B0084B9A420BD1D3F813
:10192000302803F5006342F480521A631B6B03F402
:1019300080530193019B02B0704700BF003002400A
:101940000E4B07B502689A4215D1A3F5F043052165
:101950005A201A6B42F400021A6300221B6B03F434
:1019600000030193019B04F037FC5A2003B05DF89B
:1019700004EB04F063BC03B05DF804FB00B002406C
:1019800010B5A8B004461422002102A836F00EFDBE
:101990008422002107A836F009FD2268174B9A42DD
:1019A0002AD14FF4803307A8079306F0CFFC08B183
:1019B000FFF74CFF124C4FF4C07201211148236B0A
:1019C00043F080032363236B03F080030093009BA9
:1019D0001223CDE902230323CDE90413042302A932
:1019E000069304F0D5FF236C43F400032364236CB7
:1019F00003F400030193019B28B010BD005C00407C
:101A000000380240001C0240026808B5094B9A42A7
:101A10000FD1094A80210948136C23F40003136491
:101A200005F098F84FF480710448BDE8084005F0CF
:101A300091B808BD005C004000380240001C024024
:101A400070B5ACB004461422002106A836F0AEFCF6
:101A5000842200210BA836F0A9FC2268464B9A424A
:101A600040F08880082303200B93C02310930223A7
:101A7000CDE9113001230BA8159306F067FC08B1DE
:101A8000FFF7E4FE3D4B002402250E265A6C06A902
:101A90003B4842F080625A645A6C02F080620092C5
:101AA000009A1A6B42F010021A631A6B02F01002CD
:101AB0000192019A1A6B42F400721A631A6B02F4D3
:101AC00000720292029A1A6B42F480621A631A6BD5
:101AD00002F480620392039A1A6B42F040021A6386
:101AE0001A6B02F040020492049A1A6B42F480725C
:101AF0001A631B6B03F480730593059B1023CDE9D8
:101B00000635CDE908440A9604F042FF4EF6FF730D
:101B100006A91C480A96CDE90635CDE9084404F02B
:101B200037FFF72306A918480A96CDE90635CDE90F
:101B3000084404F02DFF4FF4805306A91348CDE963
:101B400006350923CDE908440A9304F021FF4FF438
:101B5000464306A90E480A96CDE90635CDE9084464
:101B600004F016FF58202246052104F035FB5820CA
:101B700004F064FB2CB070BD0068014000380240E6
:101B800000100240002402400028024000180240D9
:101B900000200240142200212DE9F0418AB00446C1
:101BA0000DEB020036F002FC22682C4B9A4251D118
:101BB0002B4B0225032409269A6B4FF0040805A934
:101BC000284842F0020200279A639A6B02F0020250
:101BD0000192019A1A6B42F010021A631A6B02F01A
:101BE00010020292029A1A6B42F002021A631A6BF6
:101BF00002F002020392039A1A6B42F008021A637F
:101C00001B6B03F008030493049BCDE90585CDE924
:101C1000084604F0BDFE402305A91348CDE905356B
:101C20000A23CDE90774099304F0B2FE05A90E4812
:101C30000996CDE90585CDE9077404F0A9FE4FF4B6
:101C4000605305A909480996CDE90535CDE9077422
:101C500004F09EFE0AB0BDE8F08100BF001000A0B5
:101C6000003802400010024000040240000C024014
:101C7000026808B50B4B9A4213D10B4A04210B485A
:101C8000936B23F00203936304F064FF442108483C
:101C900004F060FF4FF460510648BDE8084004F0CE
:101CA00059BF08BD001000A00038024000100240DB
:101CB00000040240000C024010B5A2B00446842289
:101CC000002101A836F072FB22680A4B9A420FD11C
:101CD000202301A801934FF480730D9306F036FB87
:101CE00008B1FFF7B3FD044A136F43F400431367D1
:101CF00022B010BD00280040003802402DE9F0431A
:101D0000ABB005461422002104A836F04FFB842214
:101D1000002109A836F04AFB2A684E4B9A4240F04F
:101D200095804FF4200309A8099306F00FFB08B132
:101D3000FFF78CFD484B00264FF0020903275A6C31
:101D40000C2404A9454842F400624FF004085A6488
:101D50005A6C02F400620192019A1A6B42F004027A
:101D60001A631A6B02F004020292029A1A6B42F092
:101D700008021A631B6B089403F008030393039B88
:101D80004FF4F853CDE90667CDE9043904F000FEBD
:101D900004A933480894334CCDE90489CDE906679A
:101DA00004F0F6FD4FF00063DFF8C4E04FF4806903
:101DB0004FF480424FF400012046A762C4E900E3DB
:101DC0004FF48053C4E904932023C4E906234FF45D
:101DD0000013C4E90266C4E90868C4E90B1304F0FF
:101DE0000BFB08B1FFF732FD1F4A4FF000632C6474
:101DF0004021A5634FF480601C4C04274FF48046BB
:101E00004FF4000CC4E9002300234FF48052C4E9CE
:101E1000021323620323C4E90402C4E909732022E4
:101E20004FF400132046C4E90662C4E90BC304F072
:101E3000E3FA08B1FFF70AFD312000220521EC6327
:101E4000A56304F0C9F9312004F0F8F92BB0BDE81E
:101E5000F08300BF002C014000380240000802401F
:101E6000000C0240B8030020A064024018040020C7
:101E700058640240F0B5ABB004461422002104A817
:101E800036F094FA8422002109A836F08FFA2268ED
:101E9000204B9A423CD1402309A8099306F056FAF8
:101EA00008B1FFF7D3FC1C4B0227002603255A6C10
:101EB000072404A9194842F010025A645A6C02F02F
:101EC00010020192019A1A6B42F002021A631A6B15
:101ED00002F002020292029A1A6B42F001021A63A5
:101EE0001B6B089403F001030393039B8023CDE94C
:101EF0000665CDE9043704F04BFD4FF4007304A9E7
:101F000007480894CDE90437CDE9066504F040FDA3
:101F10002BB0F0BD00100140003802400004024028
:101F200000000240F0B5002387B00393294B1E68E0
:101F3000002E4DD10122022703250C241A6001A98D
:101F4000254B26489A6B42F001029A639B6B03F083
:101F500001030093009B4FF68373CDE90454CDE950
:101F6000013704F015FD48F2331301A91C4805940C
:101F7000CDE90137CDE9036504F00AFD4CF20373A6
:101F800001A918480594CDE90137CDE9036504F0AE
:101F9000FFFC4FF63F0301A913480594CDE9013733
:101FA000CDE9036504F0F4FC282301A90F4805944A
:101FB000CDE90137CDE9036504F0EAFC082301A966
:101FC0000B480594CDE90137CDE9036504F0E0FC49
:101FD00007B0F0BD8C07002000380240001002401E
:101FE00000180240000C024000140240001C024095
:101FF00000080240214B1A6C42F0100270B51A64BE
:1020000088B01B6C054601A903A803F010030293D6
:10201000029B06F07DF9069B4BBB06F059F9184E62
:10202000184B336040F2E733F360174BB0FBF3F328
:10203000013B3046736000233361B360B36107F046
:102040002BFD044680B9304607F0CEFB044658B954
:10205000362004F0F3F80F2D0DD8224629463620FD
:1020600004F0BAF8094B1D60204608B070BD06F0B8
:102070002FF94000D3E70124F6E700BF0038024003
:10208000900700200010004040420F006400002034
:102090007047FEE7FEE7FEE7FEE77047014807F0FE
:1020A00049BA00BFE0050020014807F0DFBB00BFD0
:1020B00090070020014804F0ABBA00BFB80300202D
:1020C000014804F0A5BA00BF18040020014805F03B
:1020D0006DBA00BFCC040020014804F087BB00BFEC
:1020E000780300200120704708B536F017FA162350
:1020F00003604FF0FF3008BD08B536F00FFA162325
:102100000360FEE770B50D4614460E46731B9C42F5
:1021100001DC204670BDAFF3008006F8010BF5E747
:1021200070B50D4614460E46731B9C4201DC2046DA
:1021300070BD16F8010BFEF7F7FFF5E74FF0FF3023
:1021400070474FF4005300204B60704701207047E8
:10215000002070470B4A0346116810B509B90A49B7
:102160001160106809490A4C0344091B8B4206D9C7
:1021700036F0D4F90C2303604FF0FF3010BD13602C
:10218000FCE700BFDC07002050A50120000005206F
:10219000000A000008B50349034809F06FFD034B2E
:1021A000187008BD4828002078A503084C28002096
:1021B0000020704708B513460A460146034806F05A
:1021C000A5FD003818BF012008BD00BFE0050020B4
:1021D00008B513460A460146034806F027FE0038B4
:1021E00018BF012008BD00BFE005002008B5034866
:1021F00007F03CF9043818BF012008BDE0050020B5
:102200000146014807F095B8E0050020704708B581
:10221000FFF7FCFF08BD08B500F006F908BD08B5DA
:1022200000F014F908BD82B001238DF807309DF845
:10223000070002B07047000008B5FFF7F4FF01285F
:102240000CD1074807F05AF838B94FF40061044838
:1022500007F082F8003818BF012008BD0220FCE713
:10226000E0050020134B30B51C7889B0154614F0FA
:1022700001041BD1032903D8DFE801F01A060C1270
:102280000424204609B030BD6846FFF7B9FF069B1D
:102290002B60F6E76846FFF7B3FF079B2B80F0E75C
:1022A0006846FFF7ADFF079B5B0AF1E70324E8E709
:1022B0000C46E6E72A00002010B50123054C2370E8
:1022C000FFF794FF18B9237803F0FE0323702078FA
:1022D00010BD00BF2A00002038B509F039FD47F2D3
:1022E0002F55044609F034FD031BAB4202D94FF0D1
:1022F000FF3003E0FFF77AFF0028F3D138BD00007C
:1023000030B585B00C4601920093FFF7E5FF002839
:10231000DDE9002102DA012005B030BD2046FFF7DB
:1023200057FF02460028F6D10E4847F230530DF110
:102330000E01006809F09CFF0028ECD1BDF80E30BA
:10234000022BE8D109F004FD47F22F55044609F0AD
:10235000FFFC031BAB42DED8FFF748FF0028F6D195
:10236000DAE700BF5028002030B585B00C46019256
:102370000093FFF7B1FF0028DDE9002102DA012018
:1023800005B030BD2046FFF715FF02460028F6D104
:102390000E4847F230530DF10E01006809F068FF56
:1023A0000028ECD1BDF80E30012BE8D109F0D0FCAB
:1023B00047F22F55044609F0CBFC031BAB42DED895
:1023C000FFF714FF0028F6D1DAE700BF50280020FD
:1023D00038B5134C0125257009F08AFC02281DD15F
:1023E000FFF72AFF50B92570FFF700FF18B92378CF
:1023F00003F0FE0323702378DBB223702378012BD4
:102400000CD0084D2A684AB902210A2009F0A8FE1A
:10241000286018B9237843F001032370207838BD71
:102420002A00002050280020022307B5ADF806300E
:10243000002305480DF106011A46006809F0D6FE92
:1024400003B05DF804FB00BF50280020012307B54E
:10245000ADF80630002305480DF106011A46006864
:1024600009F0C4FE03B05DF804FB00BF5028002053
:1024700070470000DFF834D0002103E00C4B5B58BC
:10248000435004310B480C4B42189A42F6D30B4A86
:1024900002E0002342F8043B094B9A42F9D303F0CF
:1024A0002BFB36F041F8FEF7A3FE70470000052035
:1024B0004003040800000020B8020020B8020020F9
:1024C0004CA50120FEE7704708B501F017F9BDE8FB
:1024D000084001F099B801F013B9406870474160B5
:1024E000704700004FF0E022D2F8FC3D43F08073CB
:1024F000C2F8FC3D054B064AD3F8B01F0A43C3F8A7
:10250000B02F1A6842F001021A607047001000E014
:1025100055CEACC5511A01EB5301B1FBF3F0704736
:10252000014B5868704700BF001000E0704710B5BD
:1025300004460C2134F065F8204610BD036810B540
:102540001B69044631B19847A26863689B1A184416
:10255000606010BD9847A060FBE70000024B702050
:10256000024A1360DB681847380000205428002016
:10257000704710B50446042134F043F8204610BDDE
:1025800073B50E4E0D461446336813B9002002B0E1
:1025900070BD1B69702098470028F7D03368702001
:1025A00001AA0DF106015B699847BDF804300120CE
:1025B0002B60BDF806302360E9E700BF54280020F7
:1025C0007FB501238DF817204FF47A72CDE90132DF
:1025D0000DF1170200920A460146054804F0F2FC8C
:1025E00010B1034804F0D5FC07B05DF804FB00BF50
:1025F000780400207FB500230A464FF47A718DF8E5
:1026000017300123CDE901310DF117010091014689
:10261000054804F0B1FD10B1034804F0BAFC9DF880
:10262000170007B05DF804FB7804002001280ED0E5
:10263000022814D0D0B90E4B00F1804010211A6846
:1026400000F50130B2FA82F2520904F029BB084BBE
:1026500040215A68B2FA82F252090648F5E7044B63
:1026600080219A68B2FA82F25209F6E7704700BFF9
:10267000582800200008024001280ED0022814D05B
:10268000D0B90E4B00F1804010211A6800F50130DE
:10269000003A18BF012204F003BB084B40215A68DE
:1026A000003A18BF01220648F5E7044B80219A68DA
:1026B000003A18BF0122F6E7704700BF58280020F3
:1026C00000080240012809D002280AD058B900F1B8
:1026D0008040102100F5013004F0E7BA40210248A3
:1026E000FAE78021FBE7704700080240012808B59F
:1026F0000DD002280ED078B900F18040102100F5ED
:10270000013004F0C7FA431E5842584108BD402129
:102710000248F6E78021FBE70020F4E700080240CA
:1027200070B5084D00240126E0B2FFF7DFFF18B1B5
:102730002B68012B18BF2E6001340435052CF3D112
:1027400070BD00BF58280020012380F8781080F861
:10275000793070470020704741640039024B18BF40
:1027600001211970704700BF1399012000207047A4
:10277000836B0BB10846184770474FF6FF707047E0
:10278000406803689B6918477047000038B50446E5
:1027900001F00CF9084923682046084DD3F88C3025
:1027A00098470023284684F84A30FFF79BFE012310
:1027B000256184F8703038BD000000C06828002012
:1027C00001F096B801F09AB870B501F019F9104906
:1027D0000023C1F88430BFF34F8FD1F8803043F627
:1027E000E074C3F3C900C3F34E335B0103EA04068C
:1027F000024646EA8275013AC1F87452F9D2203B8A
:1028000013F1200FF2D1BFF34F8FBFF36F8F70BD65
:1028100000ED00E001F0F6B801F046B801F010BAA2
:1028200001F018BA01F04AB810B504461AF082FA5D
:1028300023682046D3F8AC30BDE81040184719F0A3
:10284000D7BC10B504467C2133F0DBFE204610BD1A
:1028500090F87A301BB1406803681B681847184627
:102860007047000090F834100D4B10B590F8784088
:102870001A788C4209D03AB90A490B4A0888148858
:10288000108001220C801A7010BD002AFCD0064A6C
:102890000449148808880C8010800022F3E700BFE8
:1028A0000C9901200A9901200899012070B50D4664
:1028B000194635B9094B40F2D221094A094834F08A
:1028C000E7FDC0E90F52003A074B18BF01221A700A
:1028D0000368BDE87040D3F88C301847CCA50308D6
:1028E00004A6030852A603081299012008B5094B53
:1028F0001B888B4203D8084B1B88934205D9074B92
:102900009E21074A074834F0C3FD074B1980074B47
:102910001A8008BD089901200A99012097A603088A
:10292000FAA6030852A603080E9901201099012067
:10293000014608B5034B186801B101211AF014FAD9
:10294000012008BD14990120034B00225A609A60AF
:10295000024A1A60704700BF6828002094A5030847
:102960000121002208B5084609F012FB0A4B186045
:1029700028B90A4B28210A4A0A4834F089FD002266
:102980000421012009F0ECFB074B186018B9074B34
:102990002C21034AF0E708BD7828002018A8030876
:1029A00061A8030890A8030874280020D9A8030888
:1029B000024B4FF0FF31186809F040BB7828002027
:1029C000014B186809F074BB78280020024B0021E5
:1029D000186809F033BB00BF78280020FFF7F0BF6C
:1029E0000023034803491A46006809F0FFBB00BFF3
:1029F000742800202C00002013B50023074C01A9E7
:102A00001A46206809F034FC4FF0FF33002201A978
:102A1000206809F02DFC02B010BD00BF7428002012
:102A200003685B6C18470120704703689B6A18476E
:102A30000D4B82B01A6B42F400021A631A6B02F457
:102A400000020192019A1A6942F400021A611A699D
:102A500022F400021A61054B054A1A614FF08062A8
:102A6000044B9A6002B0704700380240780300209F
:102A7000B92A000800E100E040F2EF3070470000A2
:102A8000054B4FF080620360044BC3F88820BFF30E
:102A90004F8FBFF36F8F704774AA030800E100E007
:102AA00010B504464FF45A61FFF7EAFF204633F0B1
:102AB000A8FD204610BD0000024B1B685868036843
:102AC0005B6918471499012070B504460A4B0C3015
:102AD00000262546602260602672667245F8203B1B
:102AE00029461AF097FA04F55A63EE602435AB4292
:102AF000FBD1204670BD00BF74AA030808B50B299E
:102B00000BD8DFE801F01206100A0A0A0A080808C2
:102B10000808012008BD0520FCE7054B6521054A92
:102B2000054834F0B5FC0020F4E70220F2E700BFCE
:102B30001BA9030836A9030880A9030808B50A29B8
:102B400009D8DFE801F010060E0808080806060696
:102B50000600012008BD054B8621054A054834F0D2
:102B600097FC0020F6E70220F4E700BF1BA903084A
:102B7000C7A9030880A903082DE9F84391F81D802F
:102B80000C4607464146FFF7B9FF94F81E900546EC
:102B900038464946FFF7B2FF494606463846FFF732
:102BA000CDFFA18A628B434B521A1A649A61228B21
:102BB000521A1A61E28A586342EA014220695A6451
:102BC0006268D863DA602768802F28D0227F0FD808
:102BD000202F65D0402F63D0042F1AD045EA02651C
:102BE000344BC84545F40035DD615FD0324A44E0DE
:102BF000B7F5807F04D0B7F5007FEFD12F4900E013
:102C00002F4941EA0262DA61E2681A625E62586143
:102C100032E045EA026242F40032DA61F6E7A76880
:102C20003A1DDA62217F3A7845EA016545F40035BC
:102C3000DD615E62586142B1012A21D0214B4FF41F
:102C40008871214A214834F023FCDA69798822F41A
:102C50007F42013922F0100242EA01220121DA61A9
:102C6000144BDA6942F02002DA61DA699206FCD488
:102C700010229A600029B9D0154A1A60BDE8F8837D
:102C8000DA69FF39788822F47F4218BF01210138C0
:102C900022F0100242EA002242F01002DA61DFE77D
:102CA00045EA0262034B42F40032B6E740F20122E9
:102CB000E3E700BF00B0024001020100090002008A
:102CC0000A00020012AA03082CAA030880A903081C
:102CD0000102020038B50C46897FFFF72FFF174B22
:102CE000A58AE28A586342EA054221695A64628BE6
:102CF000D963521B1A642568082D0ED19A611A6196
:102D000058620F4A207F42EA0062DA61E2681A6282
:102D10000C4A5961D9601A6038BD0022D8611A6125
:102D2000E1680A0A4809C1F3C40102F4784200F4D8
:102D3000FC6002430A439A63034AECE700B0024096
:102D4000090001000102020001020300034B1A689E
:102D5000D207FCD423229A60704700BF00B0024023
:102D600030B5104C2568ED07FCD423250904FF2B52
:102D7000A56041F001014FF0020565636164E06305
:102D80000AD00949656241EA0363E361074B2262A5
:102D90006061E060236030BDE561039BA363044B89
:102DA000F8E700BF00B00240090001000100020086
:102DB000010003004069704790F844007047036BBE
:102DC00023B9C06A003818BF01207047012070473E
:102DD00080687047043010B50C460FC884E80F00B7
:102DE00010BD704708B5034A40F21221024B034858
:102DF00034F04EFBBCAA0308DBC5030817AB03087D
:102E000010B50446482133F0FCFB204610BD0000FD
:102E10002DE9F0431C46436BADF51F7D05460E467C
:102E20001746002B37D0002203A8DFF8A890CDE981
:102E3000013211F081FB4FF4F4725021249024A848
:102E40000BF0C9FA3A46314624A80CF045FA0121A4
:102E500024A80BF0C3FB022324A88DF8D8300BF074
:102E600061FCBDF898322B9ABDF89C629342A89FF2
:102E700028BF1346419A964203EB4308A7EB43074A
:102E800028BF1646479B9E4209D824A80BF0C8FBD2
:102E900024A80BF0EDFA0DF51F7DBDE8F0830122AB
:102EA00001A924A80BF087FC6B6B03EB0800984288
:102EB00001D83C44E6E759789A78C90009EA022229
:102EC00001F4FC610A4313F8031B42EAD10224F81F
:102ED000022BECE700F8FFFF0A4A02600022C0E97B
:102EE0000522C0E90722C0E90922C0E90B22C0E996
:102EF0000D12C0E90F2280F84420C0E90322C0E986
:102F000001227047F4AD030810B40C4611461A466E
:102F1000036B3BB1036C806BE41A20445DF8044BF7
:102F200035F04CBAC06AF8E7036B10B573B1036CA7
:102F3000826BC91A5318525C98785C780004DB786D
:102F400040EA0420104340EA036010BDC36A5858A9
:102F5000FBE7036B43B1036CC91A836B5A18585CC7
:102F6000527840EA02207047C36A585A70470000FE
:102F700070B50446006B0D461646D8B1E36B93421C
:102F800008D209230D4A65210D4884F844300D4BC1
:102F900034F07EFA0368DB689847206B3246A16BF9
:102FA00003681B69984710B90D2384F84430A06B5F
:102FB000256470BDE06A0844FBE700BF7DAB0308F1
:102FC00017AB03086AAB03082DE9F84343690446CD
:102FD0002BB9234BAA21234A234834F059FA08225B
:102FE0008169FFF7C5FFA16943F2300646F26437F5
:102FF00004312046FFF798FFA3691844A36A00F143
:1030000008029A4206D3012300206361236AA36168
:10301000BDE8F883636909300822013320F001011B
:1030200020466361A161FFF7A3FFD4F81890204602
:103030004946FFF78EFF09F1020180462046FFF75F
:1030400088FF09F1040105462046FFF76DFFB045F2
:10305000D2D1BD42D0D10028CED00120D8E700BFC8
:10306000BFAB030808AC030817AB03082DE9F04F0A
:103070000446ADF51F7D8A461646816908229846AA
:10308000FFF776FFA7692046391DFFF74DFF07F1CF
:103090000801024605462046FFF76AFF636B0746B4
:1030A00033B93C4B40F2AB113B4A3C4834F0F0F9A9
:1030B000002203A8CDE9013211F03EFA4FF4F47278
:1030C0005021249024A80BF086F92A46394624A8DA
:1030D0000CF002F9012124A80BF080FA022324A8A5
:1030E0008DF8D8300BF01EFBBAF90250479BAB426B
:1030F00029D3BAF900904FEA4808BAF804702B9B1C
:1031000008FB05664F44BAF80250DFF894B03FB2AE
:103110009F4228BF1F46BAF8063009EB490A1D44F2
:10312000419B2DB29D4228BF1D46479BAB4210D309
:1031300024A80BF075FA24A80BF09AF901200DF5DC
:103140001F7DBDE8F08F012201A924A80BF033FBFD
:10315000CCE7012201A924A80BF02DFB626B4946A4
:103160005244B94202F1030201D34644DDE712F8AA
:10317000020C12F8013CC0000BEA032300F4FC60CF
:10318000034312F8030C43EAD00326F8113001314F
:10319000E7E700BF3BAC030891AC030817AB03089B
:1031A00000F8FFFF0129036838BF0121DB6A70B511
:1031B0000D4604469847A84204D223682046DB6A9D
:1031C000984705466B1EE6691022204606EB03165B
:1031D00006F10801FFF7CCFE06F110012046FFF7CB
:1031E000A3FE236A043B0344C4E9055370BD0000F9
:1031F0002DE9F341002104464822816180F8441002
:10320000FFF7B6FEA7690423634A39462046FFF755
:103210007BFE40B10323614AF22184F84430604BC5
:10322000604834F035F907F1080104235E4A20466E
:10323000A161FFF769FE30B10423584AFA2184F8EE
:1032400044305A4BECE707F10C010423584A20465E
:10325000A161FFF759FE064638B105234F4A40F2F7
:10326000011184F84430534BDAE707F1100120468E
:10327000FFF75AFE054620B94F4B40F20711474A67
:10328000CEE707F1140804234C4A20464146FFF7D5
:103290003BFE00284BD0062384F844300423484AE0
:1032A00007F118012046FFF72FFE002841D0072321
:1032B00084F844304544434F0C2220462946FFF70A
:1032C00057FE05F1080604233A4620463146FFF72B
:1032D0001BFE94F8443000284AD0002B4AD1A36A40
:1032E000291DAB424AD805F10C03291D2046A361D4
:1032F0000191FFF719FE3044019960622046FFF703
:1033000013FE0644042220463146FFF731FE042313
:103310002D4A31462046FFF7F7FD002839D1012319
:10332000E6616361A369236202B0BDE8F081012612
:10333000B4E7002EBED007F120012046FFF7F4FDD0
:103340004FF47A7307F13001B0FBF3F06060204670
:10335000FFF7EAFD07F14001A0602046FFF7E4FD1A
:1033600007F14401E0602046FFF7DEFD2061A1E7A0
:10337000002BB8D00A2384F84430D5E72046FFF765
:10338000D3FD08300C22054420462946FFF7F0FD06
:1033900097E70B23EFE700BFEBAC030809AD030889
:1033A000F0AC030817AB030836AD03083BAD0308C8
:1033B00053AD030858AD03086EAD03087AAD03089A
:1033C0007FAD030884AD030889AD0308C0E90A2175
:1033D00000220263FFF70CBF10B500230446084625
:1033E000E3620B6821639B689847A0622046BDE8B2
:1033F0001040FFF7FDBEF0B4BDF81050BDF81460EA
:103400002AB123B1CDE90456F0BCFFF701BDF0BCF1
:10341000704700002DE9F04F9946436985B0044696
:103420000F4690462BB92A4B77212A4A2A4834F076
:103430002FF808228169FFF79BFDA66920463146D7
:10344000FFF787FDB11C83462046FFF782FD311D43
:1034500082462046FFF768FD06F10801A36A05468B
:1034600042189A4227D243F230039B4517D146F2C5
:1034700064339A4513D190B10246A1612046FFF70B
:1034800077FD0E9B01462A462046CDF80080CDE907
:1034900001933B46FFF7AFFF636901336361A369A3
:1034A0002B448DB1A361A369626A013323F0010348
:1034B0009342A3610AD10120236A6061A36180F075
:1034C000010005B0BDE8F08F0833EBE70020F6E718
:1034D000BFAB03088EAD030817AB0308012070478C
:1034E0000C2070470C2303FB0100083070470C23AD
:1034F00003FB0100083070470120704742F294300E
:10350000704742F2943303FB01000830704742F2E7
:10351000943303FB010008307047012070471020EE
:10352000704700EB01100830704700EB01100830C5
:103530007047084600F02CBF034B10B504460360EB
:1035400018F018F8204610BD9CAE030810B50446CC
:10355000FFF7F2FF1421204633F053F8204610BD48
:10356000034B10B50446036018F004F8204610BD64
:1035700068AE030810B50446FFF7F2FF42F29C3133
:10358000204633F03EF8204610BD0000034B10B536
:103590000446036017F0EEFF204610BD34AE03086A
:1035A00010B50446FFF7F2FF1821204633F029F842
:1035B000204610BD094B10B50446036000F50F50BE
:1035C0000830FFF7B9FF04F12C00FFF7C9FF04F141
:1035D0001400FFF7DBFF204610BD00BFD0AE03088C
:1035E00008B50248FFF7E6FF08BD00BF80280020AD
:1035F00010B50446FFF7DEFF42F26051204633F07B
:1036000000F8204610BD00002DE9F34100F034FD24
:103610000024054600F034FD234601462246284694
:10362000009424F041FE274B274A2046274D1A607C
:1036300001F0B4FD264B274A27489A6024F09CFDF0
:103640002B68BFF35B8FDB0736D4284632F0DBFFF5
:1036500090B3224C224F234B04F1140007F13C0697
:1036600004F12C0823606060C4F80880E7602661DC
:1036700017F082FF1C4B4046636117F07DFF1B4B28
:103680003846E36217F078FF04F50053184A03F553
:103690007770C3F8C82301F005FE224607F1140134
:1036A000304601F0F5FD304600F072FE114833F06F
:1036B0000DFF284632F0B3FF0F4802B0BDE8F041DD
:1036C000FFF764B8789901201C5C00207C2800205A
:1036D000205C0020E04D00203000002080280020E9
:1036E000484C0020D0AE030834AE030868AE03088F
:1036F0009CAE0308E1350008A05B00207047000085
:10370000014818F0DEBD00BFA05B002070B5244E5C
:10371000244B254C3046254D2360FFF7D5F928462C
:1037200029F09CF8224821F0EFFA224B00224FF4B6
:10373000807121481A8683F858205A6683F87020D1
:103740005A67DC60C3E912121C49C3E91A121C490A
:1037500099671C490B604FF4F07101801A48018091
:103760004FF488711948C3E90422C3E90622C3E96A
:103770000822C3E90A22C3E90E22C3E91022C3E9E1
:103780001422C3E91722C3E901650180104883F8B8
:10379000342001800F490A700F4A1A6070BD00BFC3
:1037A000004E0020BCA50308FC4D0020205C00203A
:1037B000E04D0020A05B00200899012001000001DD
:1037C00000000101149901200E9901200A9901209D
:1037D000109901200C99012048A703080148FFF720
:1037E0004FB900BF004E0020002070478180704715
:1037F000C1807047018170474181704770477047B1
:1038000070477047704710B4C4880368121B8488DF
:103810005B6D091B12B25DF8044B09B218474FF6F5
:10382000FF7383814FF0FF3303621368C36110603D
:10383000704790F825201AB190F8242002B1186042
:103840007047002070478B88838001207047704745
:1038500080F82610704790F826007047002210B5B7
:10386000B1F90840B1F90A10028042808480C18019
:1038700010BD0022028042808280C28070470177A2
:10388000704780ED080A704780F82410704780F870
:103890002510704701207047983070478C30704772
:1038A0008430704770470000034B902283F85A23FE
:1038B00083F85823704700BF00E100E0094A0A4935
:1038C000D3680A48C3F30A03013B9BB20B8011691A
:1038D000C1F30A01013901801364536B43F0010302
:1038E0005363704700680140065D0020045D0020BE
:1038F000014BD3F8AC00704700680140024B012235
:10390000C3F8AC105A62704700680140124A53690C
:10391000DB0370B51ED50023C2F88430BFF34F8F90
:10392000D2F8803043F6E074C3F3C900C3F34E33DA
:103930005B0103EA0406014646EA81750139C2F8D3
:103940007452F9D2203B13F1200FF2D1BFF34F8F05
:10395000BFF36F8F70BD00BF00ED00E07047704790
:1039600070473823002201FB0333C25490F83830EB
:103970000BB9036C83647047704780F84C10704734
:1039800010B50446582132F03CFE204610BD10B55B
:1039900004462C2132F035FE204610BD10B50446F9
:1039A000BC2132F02EFE204610BD000038B5044682
:1039B00018F073FC23685D6E20F050F80146204635
:1039C000A8472368084A2046D3F888500023A2F568
:1039D0007F31A847054B064A5A60064A1A649A6422
:1039E0004FF4FF225A6438BD00F807C0AC5C0020D9
:1039F0004465002000F40BC018F036BC18F040BC41
:103A000018F0FCBB18F06BBD90F8252012B10368CC
:103A10005B6918477047000008B531B1044B40F2AC
:103A20009711044A044833F033FD90F8390008BD7B
:103A3000DCAE0308F0AE03087DB0030810B531B169
:103A4000064B40F29111064A064833F021FD4068CA
:103A500011460368BDE810401B6B1847DCAE030835
:103A6000BFB003087DB0030808B529B1034B7A2124
:103A7000034A044833F00CFD006908BDDCAE0308BE
:103A800070B203087DB0030808B529B1054B832146
:103A9000054A064833F0FCFC41618160C0E906320A
:103AA00008BD00BFDCAE030828B403087DB00308DE
:103AB00010B5044629B1274BA421274A274833F0E3
:103AC000E7FC052A34D8DFE802F003292F34393E19
:103AD000406803681B69984750B34FF0FF31606D31
:103AE00008F0FCF90023012294F83E1084F83B30E2
:103AF00084F83920A360636101B1226284F83E300A
:103B00006362E36A2BB90123206D84F83A3008F030
:103B1000CFFA606DBDE8104008F010BA002380F8BD
:103B2000393084F83E3003E0036200238360436150
:103B300010BD0362002383604361F2E7002380F835
:103B400039300123EDE7003B18BF012380F83D30F9
:103B5000EEE700BFDCAE0308E7B503087DB003085D
:103B600070B50446164629B1314BE721314A324837
:103B700033F08EFC90F8393033B1304B1B6893F83A
:103B80006B20436913444361E36A002B4DD0E16924
:103B9000D4E905325343A2684A43934220D2236AB0
:103BA000002B42D04FF0FF31606D08F097F9236A87
:103BB0000BB10023E362E36AFBB90125606D08F0F5
:103BC000BDF994F839300BB9236A3BB1E36A2BB9DC
:103BD0000123206D84F83A3008F06AFA284670BD57
:103BE00094F84C000028DDD09B1AB3FBF1F2994207
:103BF00098BF02F1FF326262D4E7002294F83C5091
:103C0000A3623046E262E2682261A2680132A260E9
:103C1000336333685B699847002DCED194F83D300B
:103C2000002BCBD184F83950C8E70125C9E700BF84
:103C3000DCAE0308BEB703087DB003081499012069
:103C4000034B4FF080629A604FF080729A60704729
:103C500000E100E0084B4FF08062C3F88820BFF31A
:103C60004F8FBFF36F8F4FF08072C3F88820BFF380
:103C70004F8FBFF36F8F704700E100E038B5034608
:103C800090F8380038BB01229860D8609A634FF4EE
:103C9000807258619A874FF4F0729861D861186207
:103CA00058629862D8621863586383F83E00CA86E7
:103CB0004FF4887281F834000A8708639A6C18619F
:103CC00002F5FF24D3E9101529448C420AD9084B88
:103CD0005821084A03E0084B40F2F511074A08480A
:103CE00033F0D6FB1A6302F57F329C645A6338BD09
:103CF0001CBB03085CBB030862B9030892B9030844
:103D00007DB00308002370B5124E05468380124B28
:103D10000360336893F858200AB1D86C00B99868EA
:103D20000368DB6A98473368B0FA80F4D86C64099A
:103D300030B10368DB6A9847002808BF44F00104EB
:103D40002CB9064B2C21064A064833F0A1FB284625
:103D500070BD00BF1499012004BE030802BD030812
:103D600060BD030899BD030870B5244E3568BFF3E4
:103D70005B8F15F001053FD1304632F044FC00283E
:103D80003AD01F4C1F4B04F134002561E584A56235
:103D9000A585C4E90035C4E9025521F014FA04F1FF
:103DA00058001BF06BFA184B2046A365174B40F8E0
:103DB000843BFFF7A7FF164B1648C4F88430243322
:103DC000C4F89050C4F88C306423C4F89C50C4F8F4
:103DD000A850C4E928350023C4F8AC30C4F8B0308A
:103DE000C4F8B430C4F8B8300B4BC4F8983033F092
:103DF0006DFB304632F013FC014870BDA85C00201A
:103E0000085D002010EE030824BE03089CBE0308D2
:103E1000C4ED0308A5380008A4ED030810B5144C40
:103E2000236823B3134B144A1B6C11888B4213D1A4
:103E3000124B198803F044FC226892F86A3001336F
:103E400082F86A30FEF7CCFD206818F073FF00207E
:103E5000BDE81040FEF7EABB03F032FC20680368BF
:103E60001B6A98470020BDE81040FEF705BC10BD56
:103E70001499012000680140065D0020045D0020C7
:103E80002DE9F74304464FF4707894F83A304FF038
:103E9000FF31002B31D0606D08F020F8276BA36A4A
:103EA000BB4200D1676B266A656856B32B68314602
:103EB00028465B6A98470023236284F83B30606D94
:103EC00008F03CF82B684FF4F0723946CDF80080CA
:103ED00028465E694FF48873B0474FF0FF310646BD
:103EE000606D07F0FBFF94F83B30E3B1002384F8EA
:103EF0003B30606D08F022F8C7E7206D08F09EF8AF
:103F0000C3E7636A002BDAD02B682846D3E909930C
:103F10009847616A01442846C847A368626A666296
:103F20001344A360CBE7E7625EB12B6828469B6A27
:103F3000984701380023E06084F83C6084F83A3008
:103F4000D7E70120F6E70000014808B5FFF798FF22
:103F5000AC5C00200368042270B504465E6A00234E
:103F60000D46B0474FF0FF31606D07F0B7FF3823C3
:103F700003FB0542D16A09B10021D16203FB05456B
:103F8000012385F83B30002385F83930606DBDE8AA
:103F9000704007F0D3BF38B500EB810304460D46EF
:103FA000114658680368DB68984729462046FFF7A2
:103FB000D1FF38BD70B50D461146044600EB8502B1
:103FC0005068026896681A46B04729462046FFF7AF
:103FD000C1FF70BD38B5164900251648FEF77CFFB5
:103FE000154C164B01202A46294623604FF4807356
:103FF000A564A38784F84C0084F83E50C4E91055AA
:10400000C4E91455C4E90155C4E90355C4E905558B
:10401000C4E90755C4E90955C4E90B55C4E90D5570
:1040200007F0B6FF2065284607F014FF606538BD2D
:10403000C45D002044650020AC5C0020E8BE03089D
:10404000704710B50446042132F0DBFA204610BD5B
:10405000012908B506D0022908D059B901F0EAF8BB
:10406000006808BD01F0E6F84068FAE701F0E2F800
:104070008068F6E70020F4E70048704734BF030883
:104080000620704713B5002451B1036801AA0194BA
:104090008DF803409C680DF10303A04702B010BDEA
:1040A0000846FBE7C0897047008A7047C0887047A0
:1040B00080887047807A00F07F007047807AC0095E
:1040C00070470020704700009FED010A704700BF55
:1040D00000000000704710B50446082132F091FA44
:1040E000204610BD7047704700F59873086849680E
:1040F00003C37047704770474160704770470000C6
:10410000064BC0F84801C0F84C310023C0F85031CC
:1041100000F5A273C0F84031704700BFC5410008E8
:104120000123037270477047704710B4416803461B
:10413000C2689B68541001EB6200D20748BF0A595D
:104140005DF8044B48BFD358184743682BB18368C8
:104150002BB9C06800F00100704718467047012075
:10416000704710B504460C2132F04BFA204610BDC2
:1041700010B50446102132F044FA204610BD10B5A7
:1041800004464FF4AE7132F03CFA204610BD10B533
:104190001FF064FC0368BDE81040DB6B184710B5E6
:1041A0000446D0F8400158B10368DB68984738B13D
:1041B000D4F8400103689B6898470023C4F8403155
:1041C00010BD00002DE9F14FD0E9555A0746A86807
:1041D00003681B6A984742F29333984205D8464BCE
:1041E000A321464A464833F053F9686803681B6ABE
:1041F00098470F2803D8434BA421404AF2E7E868C8
:1042000003681B6A98470B2803D83F4BA5213B4AFC
:10421000E8E7DFF8FC901FF021FC04301FF05CFCA5
:10422000D9F8000010B10368DB689847D9F800009E
:1042300010B103681B689847DFF8D880D8F80000F1
:1042400010B103685B699847D7F83C0110B1036867
:104250005B689847D8F8000010B103681B6898475E
:10426000D7F83C0110B103689B689847E8680021C3
:104270004FF0000B03685B6A9847244B0446C0F874
:1042800004B00360594680F808B0A86803685B6A08
:104290009847064601F02CFA6868594603685B6A3D
:1042A00098470546314601F0FDF9C9F80040C7F8C6
:1042B0003C51C8F80060E5B12B1DCAF8003030460B
:1042C0003368C5F808A0DB68F56398472B68284673
:1042D0001B6898472146304621F086FC236820461B
:1042E0001B699847236820465B6901B0BDE8F04F21
:1042F00018472B46E1E700BFBCBF03084AC00308CC
:104300004EC1030895C1030838C2030850C303080F
:104310005C99012058990120044B1B6893F85820A0
:104320000AB1D86C00B99868704700BF1499012091
:10433000F8B5044617460E461FF0A0FC104B0025AA
:104340001C6029460F4B23600F4BC4E951350F4BBE
:104350001868C4E953550368C4E94F559B68C4E91C
:1043600055769847284600F019FFFFF7D5FF2AF049
:10437000A6F8FFF7D1FF2AF01DF92046F8BD00BFCF
:1043800068990120FCC20308E4C2030814990120C3
:10439000064BC0F84801C0F84C310023C0F850313A
:1043A00000F5A273C0F84031704700BFC541000856
:1043B000406A7047806A704770478B88C069DB0A23
:1043C0000A6850F823001044704710B5C2B1137B3F
:1043D000B3B1547BD27A240204F4E0641443026A39
:1043E00098B202EB840213888B4202D192F9020048
:1043F00010BD05D80138043280B20028F3D1F7E7A8
:104400000020F5E710B504462C2132F0FAF82046DA
:1044100010BD000030B58BB00446BDF86050089563
:10442000BDF85C5007959DF8505006959DF84C508E
:1044300005959DF8485004959DF8445003959DF8C6
:10444000405002959DF83C500195BDF838500095BC
:1044500020F076FF064B20462360159BE361169BF8
:104460002362199B63621A9BA3620BB030BD00BF2D
:1044700074C303087047704770477047704730B582
:1044800085B00368044601816D460146D3F8843047
:104490003C342846984795E8070084E8070005B0B3
:1044A00030BD30B585B00368044641816D46014694
:1044B000D3F884303C342846984795E8070084E8D0
:1044C000070005B030BD0022028042808280C28099
:1044D000704780F836107047036870B504461B6B50
:1044E000154698472368204629465B6EBDE8704014
:1044F000184700207047806C70477047704710B5B0
:1045000004464C2132F07DF8204610BD034B10B517
:10451000044603601DF09AF9204610BDA8C50308A3
:10452000074B07B5036001901DF090F9019842F226
:10453000943132F066F8019803B05DF804FB00BFD7
:10454000A8C5030808B5FFF75FFA08BD036870B592
:104550005E6B0446114B8DB21B682BB9104B6C215E
:10456000104A114832F094FF1049828D0988914217
:1045700003D80F4B6D210B4AF3E713F812200D4BB4
:104580001B6853F8220003681B6B9847281A3346B0
:1045900001B22046BDE87040184700BF6C99012069
:1045A000D4C3030816C4030851C40308709901203A
:1045B00098C403087499012000224FF0FF318260F3
:1045C000C0E900217047036870B504461B6B1546AF
:1045D00098472368204629465B6BBDE87040184722
:1045E00070B504461D46BDF91060FFF7ECFF236867
:1045F000294620469B6B9847236831462046DB6B53
:10460000BDE87040184700004FF48071002281849B
:104610000C49026301600C49028781624FF6FF7109
:10462000C26381854FF47F0141634FF0FF31C0E9E0
:104630000122C0E90322C0E90522C0E90722C0E93E
:10464000101270478CF10308B4BF03082DE9F04F36
:10465000044600254FF6FF76804F04F5367A04F2C3
:104660009C5804F22C6904F2BC6B2DED0A8B8BB0C4
:1046700021F00EF922467A4B08A9E56342F8403B47
:10468000784B2566A5660392ADF82060C4E9103525
:104690004FF48073A4F86430FF2384F8663004F18B
:1046A0006C03C4E9125518460BEE103AC4E91455D0
:1046B000C4E916551BF0C4FB04F19803184608EE34
:1046C000903AFFF7A1FF04F1E403C4F8987018468C
:1046D000C4F8E05009EE903AFFF796FF04F598739E
:1046E000C4F8E470C4F82C5118460AEE903AFFF76B
:1046F0008BFF04F5BE73C4F8307104F20C571846F2
:10470000C4F8785108EE103A16F0E8FF04F5247367
:1047100018460BEE903AFFF777FF504617F0ECF88B
:1047200004F5767318460CEE103AFFF7EBFA4E4B91
:1047300008A9C4F8E453C4F8D8332433ADF8206092
:10474000C4F8E03304F57B7318460AEE103A1AF009
:1047500083FE04F27C4308A9ADF82060184609EEF8
:10476000103A1AF079FE08A93846ADF820601AF020
:1047700073FE08A94046ADF820601AF06DFE08A946
:104780004846ADF820601AF067FE08A95846ADF813
:1047900020601AF061FE4FF4E15104F27270261DA0
:1047A0001DF04AF84FF488732A462946039800936F
:1047B0004FF4F073FFF714FF4FF07F430399304637
:1047C000A36617F081FA08A91BEE100AADF8205075
:1047D0001CF041F94FF488732A4629461BEE100A53
:1047E00000934FF4F073FFF7FBFE29461BEE100A0F
:1047F0001BF0E1FA1BEE101A304617F065FA44225E
:10480000102118EE900AFFF7DEFE4FF0FF3318EE8E
:10481000901A04A8C4F8C830D4F89830A4F8CC5042
:10482000D3F88430984704AA04F1D40307CA83E874
:10483000070004F24C7303930C4B1B682BB90C4B11
:1048400060210C4A0C4832F023FE0C4B1B88042BD1
:1048500018D80B4B6121074AF4E700BF18C50308BD
:10486000A8C503081CF20308C4ED03086C990120D5
:10487000D4C30308D6C4030851C4030870990120A7
:1048800098C40308DF4B0421186800F0C3FCDE4A1B
:1048900003460621039823F067FA039918EE900A5D
:1048A000C4F8E0101BF0F0FF4FF00701D74B18EEF3
:1048B000900AADF8241008A908931CF005F818EE2A
:1048C000901A304617F000FA7C220E2119EE900A59
:1048D000FFF779FE4FF0FF31D4F8E43004A8C4F8B4
:1048E000141119EE901AD3F88430A4F8185198478F
:1048F00004A904F5907307C983E8070004F5EB6188
:104900000391C3490B68002B99D0C2480388032B3D
:104910009FD9BC4A0321106800F07CFC06210346A5
:10492000B94A039823F020FA039A19EE900AC4F8C2
:104930002C211BF0A9FFB54B0DF1200C19EE900AAC
:10494000089306236146ADF824301BF0BDFF19EE35
:10495000901A304617F0B8F9B4222E211AEE900AB8
:10496000FFF731FE4FF0FF3CD4F830311AEE901AC9
:10497000C4F860C10DF1100CD3F884306046A4F87F
:10498000645198470DF1100C04F5B6739CE80700CC
:1049900083E807009E4904F2647C0B68CDF80CC0E4
:1049A000002B3FF44CAF9B480388022B7FF651AF9E
:1049B000944A0221DFED989AF2EE0E8A1068B3EE67
:1049C00000BA00F027FC072103468F4A039823F022
:1049D000CBF9039A1AEE900AC4F878211BF054FF21
:1049E0008A4B4FF0050208A91AEE900A0893ADF819
:1049F00024201BF069FF1AEE901A304617F064F974
:104A000018EE100A492240F21111FFF7DCFD1E23B7
:104A100018EE100A3C2200930A218223DFED7FAAC0
:104A200016F03EFE2B466422294618EE100A009529
:104A300016F096FF18EE100A794916F0B4FD734B84
:104A40004FF0010208A918EE100A0893ADF82420CF
:104A500016F0CEFD4FF0050118EE100AADF820104B
:104A600008A917F0C4F818EE100A3C2116F0CCFD86
:104A700018EE101A30469FED6B8A17F025F90D22BB
:104A80001BEE900A40F20911FFF79DFD4FF07F41A8
:104A900004A8A4F8C452C4F8C0121BEE901A1BF06C
:104AA00079FC04A904F5337307C983E80700574B61
:104AB00008A91BEE900AADF8245008931BF004FFE0
:104AC0001BEE901A304617F0FFF850463522FD21B4
:104AD000FFF779FDBE232A4629465046009316F07B
:104AE000B0FE2B46294650466422009516F038FF4A
:104AF0005F225046114616F04AFE5046552116F0E8
:104B000070FE5046142116F072FE4FF4B47229461E
:104B1000504616F0DEFE5046B42116F06FFE042318
:104B200008A95046ADF8203017F061F83E4B1CEE56
:104B3000101A5046C4F8E4334FF6E253A4F8E833B1
:104B400016F022FE50463C2116F0A8FE5146304693
:104B5000DFF8E0A017F0B8F85C2229461AEE100A38
:104B6000FFF731FD4FF0030308A91AEE100AADF864
:104B700020301AF013FE2D4B1AEE100AC4F8F4334D
:104B800004F58363C3ED009A04F21C43C3ED008A6D
:104B90001AF0AEFCB7EE000A1AEE100A1AF00FFE79
:104BA00004F244431AEE100AC3F800A01AF0A0FC65
:104BB00004F586631AEE100A83ED008A04F234438A
:104BC00083ED00BA04F58763C3F800A01AF090FCE7
:104BD00004F23C431AEE100A83ED008A04F5886360
:104BE00083ED00BA1AF084FC9FED111A1AEE100A38
:104BF000F0EE410AB0EE410A1AF0D9FD1AEE101A91
:104C00001AE000BF78990120C8DE0308B4BF03088A
:104C10006C990120709901200000F6C20000CC417F
:104C200048BBF0FF0000EA4217BDFEFFEA0020008B
:104C30000000000000007A44304684F8155417F054
:104C400043F82422294619EE100AFFF7BCFC022380
:104C500008A919EE100AADF820301AF09FFDA74BF5
:104C600019EE102A19EE100A9FEDA5AAC4F8843493
:104C7000A44BC2ED0C8AD3621AF03AFCB7EE000ADC
:104C800019EE100A1AF09BFD19EE102A19EE100AFF
:104C9000C2F858A01AF02CFC19EE102A19EE100ACE
:104CA00082ED118A82ED12BAC2F84CA01AF020FCF3
:104CB00019EE102A19EE100A82ED148A82ED15BA47
:104CC0001AF016FC9FED901A19EE100AF0EE410A48
:104CD000B0EE410A1AF06BFD19EE101A304684F856
:104CE000A55416F0F1FF29463846CC22FFF76BFC9D
:104CF0004FF0010208A93846ADF820201AF04EFD09
:104D00007E4B38469FED819AC4F81435804BC7ED31
:104D10000C8AFB621AF0ECFBB7EE000A38461AF078
:104D20004EFD3846C7F858A01AF0E2FB384687ED2A
:104D3000118A87ED12BAC7F84CA01AF0D9FB384691
:104D400087ED148A87ED15BA1AF0D2FB9FED6E1A23
:104D50003846F0EE410AB0EE410A1AF028FD394615
:104D6000304684F8355516F0AFFF4FF00107342276
:104D70004046D021FFF727FC08A94046ADF8207037
:104D80001AF00CFD634B4046C4F8A435624B88ED25
:104D90000CAAC8F82C301AF0ABFBB7EE000A40465C
:104DA0001AF00DFD4046C8F858A01AF0A1FB404685
:104DB000C8ED11AA88ED129AC8F84CA01AF098FB19
:104DC0004046C8ED14AA88ED159A1AF091FBDFED64
:104DD0004E0A9FED521A4046B0EE600A1AF0E7FC08
:104DE0004146304684F8C55516F06EFF34224846D9
:104DF0006FF01B01FFF7E7FB08A94846ADF82070EC
:104E00001AF0CCFC464B4846DFF81C81C4F8343617
:104E1000444B89ED0CAAC9F82C301AF069FBB7EEA7
:104E2000000A48461AF0CBFC4846C9F858A01AF0C8
:104E30005FFB4846C9F8448089ED129AC9F84CA036
:104E40001AF056FB4846C9F8508089ED159A1AF0B9
:104E50004FFBDFED2D0A9FED311A4846B0EE600A98
:104E60001AF0A5FC4946304684F8555616F02CFF3A
:104E7000294658469422FFF7A6FB4FF0030208A9E3
:104E80005846ADF820201AF089FC1C4B5846C4F84F
:104E9000C436CBED0B9ACBED0C8A1AF029FBB7EE9A
:104EA000000A58461AF08BFC5846CBF858A01AF066
:104EB0001FFB58468BED118A8BED12BACBF84CA034
:104EC0001AF016FB58468BED148A8BED15BA1AF0C2
:104ED0000FFB9FED0D1A5846F0EE410AB0EE410A65
:104EE0001AF065FC3046594684F8E55616F0ECFE9B
:104EF00020460BB0BDEC0A8BBDE8F08FEA00200025
:104F00000000A64200808DC3000000000000A842FF
:104F10000080C5C33300A8000040F3C38716C93F13
:104F20003900A80000C0F1C30000E4417047000050
:104F300030B5164D8FB02C68BFF35B8F14F00104B1
:104F400020D1284631F05FFBE0B13F230122104918
:104F50000993104B10480893104B0A940594CDE91F
:104F600006430423CDE903320A23CDE90B44009321
:104F7000CDE90144FFF74EFA094832F0A7FA284676
:104F800031F04DFB04480FB030BD00BF8C650020F0
:104F900090EA08900CFF030890650020F4020408D2
:104FA0002D4F00087047000030B5184D8FB02C68A9
:104FB000BFF35B8F14F0010425D1284631F023FBA9
:104FC00008B33F23072212490993124B1248089352
:104FD000124B0A9407930C23CDE9053201230422D6
:104FE000CDE90134CDE90323142340F26D3200935F
:104FF0001B23CDE90B44FFF70DFA094832F066FA9E
:10500000284631F00CFB04480FB030BDBC650020D1
:10501000A0EA089010FF0308C0650020F802040809
:10502000A54F00087047000030B5164D8FB02C68B2
:10503000BFF35B8F14F0010421D1284631F0E3FA6D
:10504000E8B13F23012210490993104B10480893FF
:10505000104B0A940594CDE906430423CDE90332AD
:105060001E230E220093CDE90B44CDE90144FFF746
:10507000D1F9094832F02AFA284631F0D0FA04482A
:105080000FB030BDEC650020981A0990F0020408BA
:10509000F065002010030408255000080020704728
:1050A000002070470EB403B503AB002153F8042B66
:1050B00001931FF06BFC02B05DF804EB03B0704786
:1050C0000CB407B504AB53F8042B01931FF05EFC3E
:1050D00003B05DF804EB02B07047000010B5044661
:1050E00020F03AFEE38E04EB43035884636C5BB319
:1050F000238F2BB9174BC521174A184832F0C8F92E
:1051000010B3204621F02AFF238F012B03D8144B24
:10511000CB21144AF1E7E28E40F63F10531C9BB2BC
:10512000092B194688BFA3F10A0104EB4101498C00
:10513000814209D10A2B04EB420228BF0023508C84
:1051400004EB4303588451842046BDE8104021F00D
:1051500007BE00BFD4C50308DDC5030888C6030821
:10516000D2C60308E0C6030810B5044621F0C1FD0D
:105170002046BDE8104020F0EBBD10B586B002AC73
:1051800084E806001A460AAB214605930193099B61
:105190000093089B1DF0CBFF06B010BD38B518BBBF
:1051A000124B13481C681349B4B1226822440260B0
:1051B000626822440A60A26814440F4B00221A80DD
:1051C00000F038F8054600F033F80C4B1C600C4B2F
:1051D0001D600C4B188007E00B4B03600B4B0B6002
:1051E0000B4B1C68002CE8D138BD00BF1C660020AA
:1051F0002066002024660020286600206C9901208B
:1052000074990120709901207C1B09905C1B099006
:105210000C1C0990044B1B6853F82100034B1B68BE
:1052200003EB4000704700BF24660020206600208A
:1052300008207047004870472C66002010B5054CC8
:10524000FFF7B2FE2060FFF7EFFE6060FFF770FE31
:10525000A06010BD2C66002010B5002404600C6016
:1052600014601C6010BD704710B504464FF4AE7159
:1052700031F0C7F9204610BD10B50446D0F85801EA
:1052800000F07EF92046BDE810401EF083BC00000F
:1052900010B50446FFF74CF8014B2046236010BDC3
:1052A000BCC70308094900224160094902608160C6
:1052B00008490262C160642110B5016100244261A5
:1052C0003C228461C16180F8242010BD0000284187
:1052D0000000D04000401C462DE9F0412DED048B2C
:1052E0009FED238A84B000270646F0EE489A4FF4DB
:1052F0007A74B0EE489A4FF001081E4D03970523CB
:10530000694628460293CDE9007800F0A7FE08B16F
:10531000FCF79CFA2846013C00F0B4FD0A2128461F
:10532000A4B200F044FE284600F095FE08EE900A74
:10533000284600F021FEF8EE688AF7EE007A79EE52
:10534000A89A38EE278A002CD9D1C9EE887A9FED29
:105350000A7AB0EE490A67EE877A9FED087AA7EEDF
:10536000870A86ED010A04B0BDEC048BBDE8F0812C
:10537000000000000C030020295C6242000080391C
:105380002DE9F0412DED048BDFED318A84B000234F
:105390000646B0EE689A4FF47A7408274FF0010879
:1053A0002C4D03930523694628460293CDE90078E6
:1053B00000F054FE08B1FCF749FA2846013C00F021
:1053C00061FD0A212846A4B200F0F1FD284600F054
:1053D00042FE08EE100A284600F0CEFDB8EE488ADC
:1053E000F7EE007A39EE089A78EEA78A002CD9D128
:1053F000C9EE287A17EE900AFBF7C6F812A3D3E994
:105400000023FBF719F9FBF7EFFBDFED137A07EE4B
:10541000100ADFED126A37EE677AC7EE267A9FED43
:10542000107ADFED106A77EE877A67EEA67A87EE5C
:10543000A60A30EE470A86ED020A04B0BDEC048BE2
:10544000BDE8F081AFF300803005533005914A3F4D
:10545000000000000C030020A470C53FEFC9C33C4E
:105460000000C8420000494370B5084D0446084E8C
:1054700000222946304603F03EFB00220549304613
:1054800003F05CFBA87884F8250070BDE8020020DA
:10549000C0050020E4020020D0B504462DED028BAB
:1054A000FFF7E2FF94F8243084F8250083424FD0C0
:1054B0004FF07E532046A361FFF762FFD4ED067ADA
:1054C000B0EE408A60EE277A17EE900AFBF75CF8A0
:1054D00029A3D3E90023FBF7D9F9FBF785FBD4ED2A
:1054E000037A07EE100A002377EE277A9FED207AE1
:1054F000636184ED067AF4EEC77AF1EE10FA2CD4EB
:105500009FED1C7AF4EE477AF1EE10FA77FE277AD7
:1055100018EE100AC4ED037AFBF736F806460F467C
:105520000FA3D3E90023FBF717FB58B130463946E8
:105530000DA3D3E90023FBF7F1FADFED0D7A002884
:1055400008FE278A94F8253084ED028A84F82430F6
:1055500094ED030ABDEC028BD0BDF0EE477AD7E79D
:10556000333333333333C3BF333333333333C33F53
:105570000000000000401C46CDCCCCCCCCCC0C4074
:1055800010B52DED028B0446FFF7A6FE10EE100AB3
:10559000B0EE408AFAF7F8FF24A3D3E90023FBF723
:1055A000BDFADFED1D7A0028204608FE278A84ED2B
:1055B000018AFFF771FFDFED197A84ED030A30EEFF
:1055C000670ADFED177A9FED177A206820EE270A29
:1055D0000368C0EE077A9FED147A94ED010A9B6888
:1055E00077EE877AFDEEE77AC4ED047A9847206873
:1055F00094ED020A0368DB689847206894ED030A7B
:1056000003681B699847206821690368BDEC028B19
:105610005B69BDE8104018470000000000541C46BC
:105620000000C6C200501CC60000C8429A99999951
:105630009999C93F7047043870477047C06803683C
:10564000DB6A1847A0F10400FFF7F8BFC0680368E1
:105650001B6B1847A0F10400FFF7F8BFC068036890
:105660005B6B1847A0F10400FFF7F8BF70B5044664
:10567000C0680D4603689B6B9847E068294603683D
:10568000BDE87040DB6B1847A0F10400FFF7EEBFE8
:1056900010B50446102130F0B4FF204610BDA0F133
:1056A0000400F5E70022C1608260044A10B502F1EF
:1056B000080430320460426010BD00BF08C803080F
:1056C00070470000034B10B504460360FEF71EFF51
:1056D000204610BD64C8030810B50446FFF7F2FF6A
:1056E00042F29431204630F08CFF204610BD00007D
:1056F00010B50446FEF7AAFF014B2046236010BDFB
:1057000064C80308FEF7F9BE13B5044601AB074AA7
:10571000062100F24C708DED010A22F023FD04F108
:10572000980002B0BDE810401FF038BA50C8030816
:1057300013B5044601AB074A062100F5EB608DED79
:10574000010A22F00FFD04F1E40002B0BDE81040B0
:105750001FF024BA55C8030813B5044601AB074A25
:10576000072100F264708DED010A22F0FBFC04F5C4
:10577000987002B0BDE810401FF010BA55C8030879
:1057800000F5BE7015F040BF00F5367016F086B813
:1057900000B54FF4807295B04FF0807103460C92C3
:1057A00005220F9101210692002201910B92139282
:1057B00000920B48CDE90312CDE90D22CDE911226B
:1057C000102206A902924FF4800205926A4602F066
:1057D00061F9003818BF012015B05DF804FB00BF67
:1057E0003866002000B54FF4807395B041F28832DE
:1057F00017480C93062306A906930023CDE90D3321
:105800000F930B931393CDE9113302F000F9E0B934
:10581000022301224FF4800104900D48CDE90033AA
:105820001023CDE9023205236A46CDE905134FF076
:10583000807306A90F9341F2883302F02BF90038E8
:1058400018BF012015B05DF804FB0120FAE700BF86
:105850003866002000B54FF4807391B04FF040726D
:105860000E480893EB2302A902934FF44063099377
:105870004FF4005305930023CDE90A320A220F9317
:1058800007926A46CDE90D33CDE9003302F052F9B3
:10589000003818BF012011B05DF804FB3866002005
:1058A000454B012145489A6B42F00202F0B59A63DC
:1058B0008DB09A6B09240427002602F00202404DA5
:1058C0000092009A9A6942F002029A619A6922F063
:1058D00002029A611A6B42F002021A631A6B02F01A
:1058E00002020192019A1A6B42F002021A631A6BC9
:1058F00002F002020292029A1A6B42F008021A6344
:105900001A6B02F008020392039A1A6B42F0080223
:105910001A631A6B02F008020492049A1A6B42F09E
:1059200010021A631A6B02F010020592059A1A6BA4
:1059300042F008021A6340221B6B03F0080306932F
:10594000069B0223CDE907230323CDE909130A238C
:1059500007A90B9301F01CF807A9184807970996A7
:105960000B9401F015F84FF4006307A928460B9437
:10597000079301F00DF84FF4805307A928460B94C4
:10598000079301F005F807A90E4807970B9400F05C
:10599000FFFF4FF4005307A928460B94079300F02C
:1059A000F7FF32460F215C2000F016FC5C2000F06F
:1059B00045FC0DB0F0BD00BF0038024000040240BD
:1059C000000C024000100240F0B5494C91B0494B28
:1059D0002046236002F008F8054610B1012011B0FE
:1059E000F0BD01462046FFF75BFF012604234FF080
:1059F0008077C4E901631023E36097FAA7F3B3FA51
:105A000083F32046013B23614FF4A063C4E90755AB
:105A1000C4E9053501F094FF0028DFD14FF480750B
:105A200066230B9041F28832079002A90F900895E7
:105A30000293CDE90900CDE90D00204601F0E7FF12
:105A400008B10420CBE7992341F2883202A920460D
:105A5000029301F0DCFF0028F3D141F28830FFF718
:105A600097FE0028EDD18523079041F2883202A9E4
:105A7000089502930B97CDE90900CDE90C60CDE9BB
:105A80000E00204601F0C3FF0028DAD141F288322F
:105A90000DF10701204602F033F90028D1D1FFF7BC
:105AA000A1FE0028CDD18123F022029392FAA2F226
:105AB0000A219DF80730B2FA82F2204603F00F0364
:105AC00001FA02F202A9134341F288328DF807303D
:105AD00001F09DFF0028B4D141F288320DF1070199
